{"contracts/mock/CMTStakingMock.sol":{"CMTStakingMock":{"abi":[{"inputs":[{"internalType":"uint256","name":"minStakeAmount","type":"uint256"},{"internalType":"uint256","name":"minWithdrawAmount","type":"uint256"}],"stateMutability":"nonpayable","type":"constructor"},{"inputs":[],"name":"Empty","type":"error"},{"inputs":[],"name":"OutOfBounds","type":"error"},{"anonymous":false,"inputs":[{"indexed":false,"internalType":"address","name":"previousAdmin","type":"address"},{"indexed":false,"internalType":"address","name":"newAdmin","type":"address"}],"name":"AdminChanged","type":"event"},{"anonymous":false,"inputs":[{"indexed":true,"internalType":"address","name":"beacon","type":"address"}],"name":"BeaconUpgraded","type":"event"},{"anonymous":false,"inputs":[{"indexed":false,"internalType":"uint8","name":"version","type":"uint8"}],"name":"Initialized","type":"event"},{"anonymous":false,"inputs":[{"indexed":false,"internalType":"uint32","name":"newLockPeriod","type":"uint32"}],"name":"LockPeriodChanged","type":"event"},{"anonymous":false,"inputs":[{"indexed":true,"internalType":"address","name":"previousOwner","type":"address"},{"indexed":true,"internalType":"address","name":"newOwner","type":"address"}],"name":"OwnershipTransferred","type":"event"},{"anonymous":false,"inputs":[{"indexed":false,"internalType":"address","name":"account","type":"address"}],"name":"Paused","type":"event"},{"anonymous":false,"inputs":[{"indexed":true,"internalType":"address","name":"sender","type":"address"},{"indexed":false,"internalType":"uint256","name":"amount","type":"uint256"}],"name":"Received","type":"event"},{"anonymous":false,"inputs":[{"indexed":false,"internalType":"uint256","name":"validatorReward","type":"uint256"},{"indexed":false,"internalType":"uint256","name":"stakerReward","type":"uint256"}],"name":"RewardPerBlockChanged","type":"event"},{"anonymous":false,"inputs":[{"indexed":true,"internalType":"address","name":"staker","type":"address"},{"indexed":true,"internalType":"address","name":"validator","type":"address"},{"indexed":false,"internalType":"uint256","name":"amount","type":"uint256"}],"name":"Stake","type":"event"},{"anonymous":false,"inputs":[{"indexed":false,"internalType":"address","name":"account","type":"address"}],"name":"Unpaused","type":"event"},{"anonymous":false,"inputs":[{"indexed":true,"internalType":"address","name":"staker","type":"address"},{"indexed":true,"internalType":"address","name":"validator","type":"address"},{"indexed":false,"internalType":"uint256","name":"unstakeAmount","type":"uint256"},{"indexed":false,"internalType":"uint256","name":"claimedReward","type":"uint256"}],"name":"Unstake","type":"event"},{"anonymous":false,"inputs":[{"indexed":true,"internalType":"address","name":"implementation","type":"address"}],"name":"Upgraded","type":"event"},{"anonymous":false,"inputs":[{"indexed":false,"internalType":"address","name":"validator","type":"address"},{"indexed":false,"internalType":"bool","name":"isValid","type":"bool"}],"name":"ValidatorChanged","type":"event"},{"anonymous":false,"inputs":[{"indexed":true,"internalType":"address","name":"account","type":"address"},{"indexed":true,"internalType":"address","name":"recipient","type":"address"},{"indexed":false,"internalType":"uint256","name":"amount","type":"uint256"}],"name":"WithdrawalCompleted","type":"event"},{"anonymous":false,"inputs":[{"indexed":true,"internalType":"address","name":"account","type":"address"},{"indexed":false,"internalType":"uint256","name":"amount","type":"uint256"}],"name":"WithdrawalInitiated","type":"event"},{"inputs":[],"name":"AUR_PREC","outputs":[{"internalType":"uint256","name":"","type":"uint256"}],"stateMutability":"view","type":"function"},{"inputs":[],"name":"MIN_STAKE_AMOUNT","outputs":[{"internalType":"uint256","name":"","type":"uint256"}],"stateMutability":"view","type":"function"},{"inputs":[],"name":"MIN_WITHDRAW_AMOUNT","outputs":[{"internalType":"uint256","name":"","type":"uint256"}],"stateMutability":"view","type":"function"},{"inputs":[],"name":"activeStakeAmount","outputs":[{"internalType":"uint256","name":"","type":"uint256"}],"stateMutability":"view","type":"function"},{"inputs":[],"name":"activeValidators","outputs":[{"internalType":"address[]","name":"","type":"address[]"}],"stateMutability":"view","type":"function"},{"inputs":[{"internalType":"address","name":"validator","type":"address"}],"name":"addValidator","outputs":[],"stateMutability":"nonpayable","type":"function"},{"inputs":[{"internalType":"address payable","name":"recipient","type":"address"},{"internalType":"uint256","name":"amount","type":"uint256"}],"name":"completeWithdraw","outputs":[],"stateMutability":"nonpayable","type":"function"},{"inputs":[{"internalType":"address","name":"account","type":"address"},{"internalType":"uint256","name":"timestamp","type":"uint256"}],"name":"dueWithdrawalAmount","outputs":[{"internalType":"uint256","name":"","type":"uint256"}],"stateMutability":"view","type":"function"},{"inputs":[{"internalType":"address","name":"account","type":"address"}],"name":"dueWithdrawalAmount","outputs":[{"internalType":"uint256","name":"","type":"uint256"}],"stateMutability":"view","type":"function"},{"inputs":[],"name":"getVersion","outputs":[{"internalType":"uint256","name":"","type":"uint256"}],"stateMutability":"pure","type":"function"},{"inputs":[{"internalType":"address","name":"","type":"address"}],"name":"inactivePools","outputs":[{"internalType":"uint256","name":"lastAUR","type":"uint256"},{"internalType":"uint256","name":"updateBlock","type":"uint256"}],"stateMutability":"view","type":"function"},{"inputs":[{"internalType":"address","name":"owner","type":"address"},{"internalType":"address","name":"validator","type":"address"}],"name":"initialize","outputs":[],"stateMutability":"nonpayable","type":"function"},{"inputs":[{"internalType":"address","name":"validator","type":"address"}],"name":"isActiveValidator","outputs":[{"internalType":"bool","name":"","type":"bool"}],"stateMutability":"view","type":"function"},{"inputs":[],"name":"keeper","outputs":[{"internalType":"address","name":"","type":"address"}],"stateMutability":"view","type":"function"},{"inputs":[],"name":"lockPeriod","outputs":[{"internalType":"uint32","name":"","type":"uint32"}],"stateMutability":"view","type":"function"},{"inputs":[],"name":"owner","outputs":[{"internalType":"address","name":"","type":"address"}],"stateMutability":"view","type":"function"},{"inputs":[],"name":"pause","outputs":[],"stateMutability":"nonpayable","type":"function"},{"inputs":[],"name":"paused","outputs":[{"internalType":"bool","name":"","type":"bool"}],"stateMutability":"view","type":"function"},{"inputs":[{"internalType":"address","name":"validator","type":"address"},{"internalType":"address","name":"staker","type":"address"}],"name":"pendingReward","outputs":[{"internalType":"uint256","name":"","type":"uint256"}],"stateMutability":"view","type":"function"},{"inputs":[{"internalType":"address","name":"account","type":"address"}],"name":"pendingWithdrawals","outputs":[{"components":[{"internalType":"uint256","name":"amount","type":"uint256"},{"internalType":"uint256","name":"timestamp","type":"uint256"}],"internalType":"struct CMTStakingMock.Withdrawal[]","name":"withdrawals","type":"tuple[]"}],"stateMutability":"view","type":"function"},{"inputs":[],"name":"proxiableUUID","outputs":[{"internalType":"bytes32","name":"","type":"bytes32"}],"stateMutability":"view","type":"function"},{"inputs":[{"internalType":"address","name":"validator","type":"address"}],"name":"removeValidator","outputs":[],"stateMutability":"nonpayable","type":"function"},{"inputs":[],"name":"renounceOwnership","outputs":[],"stateMutability":"nonpayable","type":"function"},{"inputs":[{"internalType":"address","name":"newKeeper","type":"address"}],"name":"setKeeper","outputs":[],"stateMutability":"nonpayable","type":"function"},{"inputs":[{"internalType":"uint32","name":"period","type":"uint32"}],"name":"setLockPeriod","outputs":[],"stateMutability":"nonpayable","type":"function"},{"inputs":[{"internalType":"uint256","name":"amount","type":"uint256"}],"name":"setRewardPerBlock","outputs":[],"stateMutability":"nonpayable","type":"function"},{"inputs":[{"internalType":"uint32","name":"limit","type":"uint32"}],"name":"setValidatorLimit","outputs":[],"stateMutability":"nonpayable","type":"function"},{"inputs":[{"internalType":"address","name":"validator","type":"address"}],"name":"stake","outputs":[],"stateMutability":"payable","type":"function"},{"inputs":[{"internalType":"address","name":"","type":"address"},{"internalType":"address","name":"","type":"address"}],"name":"stakeTable","outputs":[{"internalType":"uint256","name":"stakeAmount","type":"uint256"},{"internalType":"uint256","name":"rewardDebt","type":"uint256"},{"internalType":"uint256","name":"pendingReward","type":"uint256"},{"internalType":"uint256","name":"updateBlock","type":"uint256"}],"stateMutability":"view","type":"function"},{"inputs":[],"name":"stakerPool","outputs":[{"internalType":"uint256","name":"lastAUR","type":"uint256"},{"internalType":"uint256","name":"updateBlock","type":"uint256"}],"stateMutability":"view","type":"function"},{"inputs":[],"name":"stakerRewardPerBlock","outputs":[{"internalType":"uint256","name":"","type":"uint256"}],"stateMutability":"view","type":"function"},{"inputs":[],"name":"totalStakeAmount","outputs":[{"internalType":"uint256","name":"","type":"uint256"}],"stateMutability":"view","type":"function"},{"inputs":[{"internalType":"address","name":"newOwner","type":"address"}],"name":"transferOwnership","outputs":[],"stateMutability":"nonpayable","type":"function"},{"inputs":[],"name":"unpause","outputs":[],"stateMutability":"nonpayable","type":"function"},{"inputs":[{"internalType":"address","name":"validator","type":"address"},{"internalType":"uint256","name":"amount","type":"uint256"}],"name":"unstake","outputs":[],"stateMutability":"nonpayable","type":"function"},{"inputs":[{"internalType":"address","name":"newImplementation","type":"address"}],"name":"upgradeTo","outputs":[],"stateMutability":"nonpayable","type":"function"},{"inputs":[{"internalType":"address","name":"newImplementation","type":"address"},{"internalType":"bytes","name":"data","type":"bytes"}],"name":"upgradeToAndCall","outputs":[],"stateMutability":"payable","type":"function"},{"inputs":[],"name":"validatorLimit","outputs":[{"internalType":"uint32","name":"","type":"uint32"}],"stateMutability":"view","type":"function"},{"inputs":[],"name":"validatorPool","outputs":[{"internalType":"uint256","name":"lastAUR","type":"uint256"},{"internalType":"uint256","name":"updateBlock","type":"uint256"}],"stateMutability":"view","type":"function"},{"inputs":[],"name":"validatorRewardPerBlock","outputs":[{"internalType":"uint256","name":"","type":"uint256"}],"stateMutability":"view","type":"function"},{"inputs":[{"internalType":"uint256","name":"amount","type":"uint256"}],"name":"validatorWithdraw","outputs":[],"stateMutability":"nonpayable","type":"function"},{"inputs":[{"internalType":"address","name":"","type":"address"}],"name":"withdrawTable","outputs":[{"internalType":"int128","name":"_begin","type":"int128"},{"internalType":"int128","name":"_end","type":"int128"}],"stateMutability":"view","type":"function"},{"stateMutability":"payable","type":"receive"}],"evm":{"bytecode":{"linkReferences":{},"object":"60e06040523060601b6080523480156200001857600080fd5b506040516200374a3803806200374a8339810160408190526200003b916200016d565b62000045620000ae565b633b9aca008210156200009f5760405162461bcd60e51b815260206004820152601d60248201527f496e76616c6964206d696e696d616c207374616b6520616d6f756e742e00000060448201526064015b60405180910390fd5b60a09190915260c05262000191565b600054610100900460ff1615620001185760405162461bcd60e51b815260206004820152602760248201527f496e697469616c697a61626c653a20636f6e747261637420697320696e697469604482015266616c697a696e6760c81b606482015260840162000096565b60005460ff90811610156200016b576000805460ff191660ff9081179091556040519081527f7f26b83ff96e1f2b6a682f133852f6798a09c465da95921460cefb38474024989060200160405180910390a15b565b6000806040838503121562000180578182fd5b505080516020909101519092909150565b60805160601c60a05160c05161355c620001ee6000396000818161069101526126e7015260008181610317015261094c015260008181610c0101528181610c410152818161107d015281816110bd01526111cc015261355c6000f3fe6080604052600436106102555760003560e01c8063748747e611610139578063c2a672e0116100b6578063eaf7c9dc1161007a578063eaf7c9dc14610769578063f0544ac814610789578063f2fde38b146107a6578063f3f43703146107c6578063f489f23b146107f3578063f6a2314a1461081357600080fd5b8063c2a672e0146106d3578063d2d49c4b146106f3578063d4c6d1de14610715578063d849a50214610732578063dab316891461074957600080fd5b806394409a56116100fd57806394409a56146106275780639ced7e761461063e578063aced16611461065e578063b68578441461067f578063bb872b4a146106b357600080fd5b8063748747e6146105895780637b66394c146105a95780637ea5db42146105c95780638456cb59146105e05780638da5cb5b146105f557600080fd5b806340550a1c116101d25780634f1ef286116101965780634f1ef286146104f6578063522abc401461050957806352d1902d1461052957806357525cbc1461053e5780635c975abb1461055c578063715018a61461057457600080fd5b806340550a1c1461044a57806340a141ff1461047a57806345f7b8f41461049a578063485cc955146104b65780634d238c8e146104d657600080fd5b806329451893116102195780632945189314610339578063340c5a25146103905780633659cfe6146103da5780633f4ba83a146103fa5780633fd8b02f1461040f57600080fd5b80630d8e6e2c1461029657806319d41774146102b957806324e770d0146102d957806326476204146102f057806327ed71881461030557600080fd5b366102915760405134815233907f88a5966d370b9919b20f3e2c13ff65706f196a4e32cc2c12bf57088f885258749060200160405180910390a2005b600080fd5b3480156102a257600080fd5b5060025b6040519081526020015b60405180910390f35b3480156102c557600080fd5b506102a66102d436600461310c565b610881565b3480156102e557600080fd5b506102a66101395481565b6103036102fe366004612fce565b610942565b005b34801561031157600080fd5b506102a67f000000000000000000000000000000000000000000000000000000000000000081565b34801561034557600080fd5b50610376610354366004612fce565b61013660205260009081526040902054600f81810b91600160801b9004900b82565b60408051600f93840b81529190920b6020820152016102b0565b34801561039c57600080fd5b506103c56103ab366004612fce565b610134602052600090815260409020805460019091015482565b604080519283526020830191909152016102b0565b3480156103e657600080fd5b506103036103f5366004612fce565b610bf6565b34801561040657600080fd5b50610303610cd6565b34801561041b57600080fd5b506101375461043590640100000000900463ffffffff1681565b60405163ffffffff90911681526020016102b0565b34801561045657600080fd5b5061046a610465366004612fce565b610ce8565b60405190151581526020016102b0565b34801561048657600080fd5b50610303610495366004612fce565b610cf6565b3480156104a657600080fd5b506102a6670de0b6b3a764000081565b3480156104c257600080fd5b506103036104d1366004613015565b610eeb565b3480156104e257600080fd5b506103036104f1366004612fce565b611061565b61030361050436600461304d565b611072565b34801561051557600080fd5b5061030361052436600461314e565b611143565b34801561053557600080fd5b506102a66111bf565b34801561054a57600080fd5b50610137546104359063ffffffff1681565b34801561056857600080fd5b5060655460ff1661046a565b34801561058057600080fd5b50610303611272565b34801561059557600080fd5b506103036105a4366004612fce565b611284565b3480156105b557600080fd5b506103036105c4366004612fea565b611305565b3480156105d557600080fd5b506102a66101385481565b3480156105ec57600080fd5b50610303611310565b34801561060157600080fd5b506097546001600160a01b03165b6040516001600160a01b0390911681526020016102b0565b34801561063357600080fd5b506102a661013a5481565b34801561064a57600080fd5b506102a6610659366004613015565b611320565b34801561066a57600080fd5b5061012d5461060f906001600160a01b031681565b34801561068b57600080fd5b506102a67f000000000000000000000000000000000000000000000000000000000000000081565b3480156106bf57600080fd5b506103036106ce366004613136565b611466565b3480156106df57600080fd5b506103036106ee36600461310c565b6114d1565b3480156106ff57600080fd5b50610708611801565b6040516102b0919061318e565b34801561072157600080fd5b5061013054610131546103c5919082565b34801561073e57600080fd5b506102a661013b5481565b34801561075557600080fd5b506102a6610764366004612fce565b611813565b34801561077557600080fd5b50610303610784366004613136565b61181f565b34801561079557600080fd5b5061013254610133546103c5919082565b3480156107b257600080fd5b506103036107c1366004612fce565b6119df565b3480156107d257600080fd5b506107e66107e1366004612fce565b611a55565b6040516102b091906131db565b3480156107ff57600080fd5b5061030361080e36600461314e565b611b78565b34801561081f57600080fd5b5061086161082e366004613015565b61013560209081526000928352604080842090915290825290208054600182015460028301546003909301549192909184565b6040805194855260208501939093529183015260608201526080016102b0565b6001600160a01b03821660009081526101366020526040812081806108b88354600f81810b810b600160801b909204810b900b0390565b905060005b81811015610935576000806108e66108d58785611bd9565b602081901c9163ffffffff90911690565b610137549193509150889061090990640100000000900463ffffffff16836133c9565b1115610916575050610935565b61092082866133c9565b945050508061092e90613463565b90506108bd565b5090925050505b92915050565b61094a611c54565b7f00000000000000000000000000000000000000000000000000000000000000003410156109ce5760405162461bcd60e51b815260206004820152602660248201527f5374616b6520616d6f756e74206d757374203e3d204d494e5f5354414b455f4160448201526526a7aaa72a1760d11b60648201526084015b60405180910390fd5b6109d781610ce8565b6109f35760405162461bcd60e51b81526004016109c590613340565b6000806109fe611c9a565b6001600160a01b03851660008181526000805160206134c083398151915260209081526040808320815160808082018452825482526001808401548387015260028085015484870152600394850154606080860191909152988852610135875285882033895287529685902085519283018652805483529081015495820195909552948401549285019290925291909101549282019290925292945090925090610aa88483611d3e565b610ab28382611d3e565b3482600001818151610ac491906133c9565b905250805134908290610ad89083906133c9565b905250610ae58483611d93565b610aef8382611d93565b4360608084018281529083019182526001600160a01b03871660009081526000805160206134c08339815191526020908152604080832087518155828801516001808301919091558289015160028084019190915595516003928301556101358452828520338652845282852088518155938801519084015590860151938201939093559251929091019190915561013b8054349290610b909084906133c9565b925050819055503461013a6000828254610baa91906133c9565b90915550506040513481526001600160a01b0386169033907f99039fcf0a98f484616c5196ee8b2ecfa971babf0b519848289ea4db381f85f79060200160405180910390a35050505050565b306001600160a01b037f0000000000000000000000000000000000000000000000000000000000000000161415610c3f5760405162461bcd60e51b81526004016109c59061325d565b7f00000000000000000000000000000000000000000000000000000000000000006001600160a01b0316610c886000805160206134e0833981519152546001600160a01b031690565b6001600160a01b031614610cae5760405162461bcd60e51b81526004016109c5906132a9565b610cb781611dbd565b60408051600080825260208201909252610cd391839190611e22565b50565b610cde611f9c565b610ce6611ff6565b565b600061093c61012e83612048565b610cfe611f9c565b6001610d0b61012e61206d565b11610d625760405162461bcd60e51b815260206004820152602160248201527f43616e6e6f742072656d6f766520746865206f6e6c792076616c696461746f726044820152601760f91b60648201526084016109c5565b610d6b81610ce8565b610d875760405162461bcd60e51b81526004016109c590613340565b600080610d92611c9a565b6001600160a01b03851660009081526000805160206134c0833981519152602090815260409182902082516080810184528154815260018201549281019290925260028101549282019290925260039091015460608201529193509150610df98382611d3e565b610e038382611d93565b43606082019081526001600160a01b03851660009081526000805160206134c08339815191526020908152604091829020845181559084015160018201559083015160028201559051600390910155610e5e61012e85612077565b506001600160a01b03841660009081526101346020908152604082208451815590840151600190910155815161013b805491929091610e9e908490613420565b9091555050604080516001600160a01b0386168152600060208201527fd2b4a3ae4917617aaa5e6caa5541a3331944d66baa187ef6c350f1ce4012d819910160405180910390a150505050565b600054610100900460ff1615808015610f0b5750600054600160ff909116105b80610f255750303b158015610f25575060005460ff166001145b610f885760405162461bcd60e51b815260206004820152602e60248201527f496e697469616c697a61626c653a20636f6e747261637420697320616c72656160448201526d191e481a5b9a5d1a585b1a5e995960921b60648201526084016109c5565b6000805460ff191660011790558015610fab576000805461ff0019166101001790555b610fb361208c565b610fbb6120bb565b610fc4836120ea565b610fcc61213c565b61012d80546001600160a01b03191633179055610137805463ffffffff19166015179055611001674563918244f40000612163565b61100d62093a806121c9565b61101682612220565b801561105c576000805461ff0019169055604051600181527f7f26b83ff96e1f2b6a682f133852f6798a09c465da95921460cefb38474024989060200160405180910390a15b505050565b611069611f9c565b610cd381612220565b306001600160a01b037f00000000000000000000000000000000000000000000000000000000000000001614156110bb5760405162461bcd60e51b81526004016109c59061325d565b7f00000000000000000000000000000000000000000000000000000000000000006001600160a01b03166111046000805160206134e0833981519152546001600160a01b031690565b6001600160a01b03161461112a5760405162461bcd60e51b81526004016109c5906132a9565b61113382611dbd565b61113f82826001611e22565b5050565b61114b611f9c565b61115661012e61206d565b8163ffffffff1610156111a25760405162461bcd60e51b815260206004820152601460248201527324b73b30b634b2103634b6b4ba103b30b63ab29760611b60448201526064016109c5565b610137805463ffffffff191663ffffffff92909216919091179055565b6000306001600160a01b037f0000000000000000000000000000000000000000000000000000000000000000161461125f5760405162461bcd60e51b815260206004820152603860248201527f555550535570677261646561626c653a206d757374206e6f742062652063616c60448201527f6c6564207468726f7567682064656c656761746563616c6c000000000000000060648201526084016109c5565b506000805160206134e083398151915290565b61127a611f9c565b610ce660006120ea565b61128c611f9c565b6001600160a01b0381166112e25760405162461bcd60e51b815260206004820152601760248201527f496e76616c6964206b656570657220616464726573732e00000000000000000060448201526064016109c5565b61012d80546001600160a01b0319166001600160a01b0392909216919091179055565b61113f33838361238a565b611318611f9c565b610ce661253e565b6001600160a01b03828116600081815261013560209081526040808320948616835293815283822084516080810186528154815260018201548184015260028201548187015260039091015460608201528451808601909552828552908401829052909290916113dc5761139384610ce8565b156113d05750604080518082019091526101305481526101315460208201526101385461013b546113c591839161257b565b506113d08183611d3e565b5060400151905061093c565b6113e585610ce8565b1561141d5750604080518082019091526101325481526101335460208201526101395461013b5461141791839161257b565b50611450565b506001600160a01b0384166000908152610134602090815260409182902082518084019093528054835260010154908201525b61145a8183611d3e565b50604001519392505050565b61146e611f9c565b600081116114be5760405162461bcd60e51b815260206004820152601960248201527f496e76616c6964207265776172642070657220626c6f636b2e0000000000000060448201526064016109c5565b6114c6611c9a565b5050610cd381612163565b600260015414156115245760405162461bcd60e51b815260206004820152601f60248201527f5265656e7472616e637947756172643a207265656e7472616e742063616c6c0060448201526064016109c5565b6002600155611531611c54565b60008061153c611c9a565b6001600160a01b03861660008181526000805160206134c0833981519152602090815260408083208151608080820184528254825260018084015483870152600280850154848701526003948501546060808601919091528989526101358852868920338a5288529786902086519384018752805484529182015496830196909652948501549381019390935292015492810192909252939550919350158015906115ea5750606081015115155b6116365760405162461bcd60e51b815260206004820152601760248201527f5374616b65207265636f7264206e6f7420666f756e642e00000000000000000060448201526064016109c5565b60008061164288610ce8565b1561169d576116518685611d3e565b61165b8584611d3e565b6116668484896125fe565b90925090506116758685611d93565b61167f8584611d93565b8161013b60008282546116929190613420565b909155506116f49050565b6001600160a01b03881660009081526101346020908152604091829020825180840190935280548352600101549082015294506116da8584611d3e565b6116e58484896125fe565b90925090506116f48584611d93565b4360608086018281529085019182526001600160a01b038a1660009081526000805160206134c08339815191526020908152604080832089518155828a0151600180830191909155828b01516002808401919091559551600392830155610135845282852033865284528285208a518155938a01519084015590880151938201939093559251929091019190915561013a8054849290611795908490613420565b909155505060408051838152602081018390526001600160a01b038a169133917f18edd09e80386cd99df397e2e0d87d2bb259423eae08645e776321a36fe680ef910160405180910390a36117f3336117ee83856133c9565b6126e5565b505060018055505050505050565b606061180e61012e61281d565b905090565b600061093c8242610881565b600260015414156118725760405162461bcd60e51b815260206004820152601f60248201527f5265656e7472616e637947756172643a207265656e7472616e742063616c6c0060448201526064016109c5565b600260015561187f611c54565b6000611889611c9a565b503360008181526000805160206134c0833981519152602090815260409182902082516080810184528154815260018201549281019290925260028101549282019290925260039091015460608201529192506118e590610ce8565b156118fe576118f48282611d3e565b6118fe8282611d93565b600083118015611912575080604001518311155b61196e5760405162461bcd60e51b815260206004820152602760248201527f496e76616c696420616d6f756e74206f7220696e73756666696369656e74206260448201526630b630b731b29760c91b60648201526084016109c5565b82816040018181516119809190613420565b90525043606082019081523360008181526000805160206134c083398151915260209081526040918290208551815590850151600182015590840151600282015591516003909201919091556119d690846126e5565b50506001805550565b6119e7611f9c565b6001600160a01b038116611a4c5760405162461bcd60e51b815260206004820152602660248201527f4f776e61626c653a206e6577206f776e657220697320746865207a65726f206160448201526564647265737360d01b60648201526084016109c5565b610cd3816120ea565b6001600160a01b038116600090815261013660205260408120606091611a8d8254600f81810b810b600160801b909204810b900b0390565b90508067ffffffffffffffff811115611ab657634e487b7160e01b600052604160045260246000fd5b604051908082528060200260200182016040528015611afb57816020015b6040805180820190915260008082526020820152815260200190600190039081611ad45790505b50925060005b81811015611b7057600080611b196108d58685611bd9565b91509150604051806040016040528083815260200182815250868481518110611b5257634e487b7160e01b600052603260045260246000fd5b6020026020010181905250505080611b6990613463565b9050611b01565b505050919050565b611b80611f9c565b620151808163ffffffff161015611bd05760405162461bcd60e51b815260206004820152601460248201527324b73b30b634b2103637b1b5903832b934b7b21760611b60448201526064016109c5565b610cd3816121c9565b600080611c00611be88461282a565b8554611bfb9190600f90810b900b613388565b612898565b8454909150600160801b9004600f90810b810b9082900b12611c3557604051632d0483c560e21b815260040160405180910390fd5b600f90810b900b60009081526001939093016020525050604090205490565b60655460ff1615610ce65760405162461bcd60e51b815260206004820152601060248201526f14185d5cd8589b194e881c185d5cd95960821b60448201526064016109c5565b60408051808201909152600080825260208201526040805180820190915260008082526020820152604080518082019091526101305481526101315460208201526101385461013b54611cee92919061257b565b604080518082019091526101325481526101335460208201526101395461013b54929450611d1b9261257b565b825161013055602080840151610131558151610132558101516101335591929050565b6060810151611d4b575050565b602081015182518251670de0b6b3a764000091611d6791613401565b611d7191906133e1565b611d7b9190613420565b81604001818151611d8c91906133c9565b9052505050565b81518151670de0b6b3a764000091611daa91613401565b611db491906133e1565b60209091015250565b61012d546001600160a01b03163314610cd35760405162461bcd60e51b815260206004820152602160248201527f4f6e6c79206b65657065722063616e207570677261646520636f6e74726163746044820152601760f91b60648201526084016109c5565b7f4910fdfa16fed3260ed0e7147f7cc6da11a60208b5b9406d12a635614ffd91435460ff1615611e555761105c83612927565b826001600160a01b03166352d1902d6040518163ffffffff1660e01b815260040160206040518083038186803b158015611e8e57600080fd5b505afa925050508015611ebe575060408051601f3d908101601f19168201909252611ebb9181019061311e565b60015b611f215760405162461bcd60e51b815260206004820152602e60248201527f45524331393637557067726164653a206e657720696d706c656d656e7461746960448201526d6f6e206973206e6f74205555505360901b60648201526084016109c5565b6000805160206134e08339815191528114611f905760405162461bcd60e51b815260206004820152602960248201527f45524331393637557067726164653a20756e737570706f727465642070726f786044820152681a58589b195555525160ba1b60648201526084016109c5565b5061105c8383836129c3565b6097546001600160a01b03163314610ce65760405162461bcd60e51b815260206004820181905260248201527f4f776e61626c653a2063616c6c6572206973206e6f7420746865206f776e657260448201526064016109c5565b611ffe6129ee565b6065805460ff191690557f5db9ee0a495bf2e6ff9c91a7834c1ba4fdd244a5e8aa4e537bd38aeae4b073aa335b6040516001600160a01b03909116815260200160405180910390a1565b6001600160a01b038116600090815260018301602052604081205415155b9392505050565b600061093c825490565b6000612066836001600160a01b038416612a37565b600054610100900460ff166120b35760405162461bcd60e51b81526004016109c5906132f5565b610ce6612b54565b600054610100900460ff166120e25760405162461bcd60e51b81526004016109c5906132f5565b610ce6612b81565b609780546001600160a01b038381166001600160a01b0319831681179093556040519116919082907f8be0079c531659141344cd1fd0a4f28419497f9722a3daafe3b4186f6b6457e090600090a35050565b600054610100900460ff16610ce65760405162461bcd60e51b81526004016109c5906132f5565b61216e6005826133e1565b61013881905561217e9082613420565b610139819055610138546040517f79a5349732f93288abbb68e251c3dfc325bf3ee6fde7786d919155d39733e0f5926121be928252602082015260400190565b60405180910390a150565b610137805467ffffffff00000000191664010000000063ffffffff8416908102919091179091556040519081527f401dae40edac291ec00ad4f9e16968c6c86b73fcd6faad7e35a55a27fa64d048906020016121be565b6001600160a01b0381166122695760405162461bcd60e51b815260206004820152601060248201526f24b73b30b634b21030b2323932b9b99760811b60448201526064016109c5565b6101375463ffffffff1661227e61012e61206d565b106122c25760405162461bcd60e51b81526020600482015260146024820152732b30b634b230ba37b9399030b93290333ab6361760611b60448201526064016109c5565b6122cb81610ce8565b1580156122f257506001600160a01b03811660009081526101346020526040902060010154155b61233e5760405162461bcd60e51b815260206004820152601960248201527f56616c696461746f7220686164206265656e2061646465642e0000000000000060448201526064016109c5565b61234a61012e82612bb4565b50604080516001600160a01b0383168152600160208201527fd2b4a3ae4917617aaa5e6caa5541a3331944d66baa187ef6c350f1ce4012d81991016121be565b6001600160a01b038316600090815261013660205260408120905b8154600f81810b810b600160801b909204810b900b1315612487576000806123cf6108d585612bc9565b61013754919350915042906123f290640100000000900463ffffffff16836133c9565b11156123ff575050612487565b61240982846133c9565b925061241484612c27565b50848311156124805761247661243361242d8786613420565b83612caa565b85908154600f90810b60001901810b9081900b600090815260018401602052604090209190915581546001600160801b0319166001600160801b03909116179055565b8492505050612487565b50506123a5565b8281146124e05760405162461bcd60e51b815260206004820152602160248201527f496e73756666696369656e7420776974686472617761626c6520616d6f756e746044820152601760f91b60648201526084016109c5565b836001600160a01b0316856001600160a01b03167fb00382203b46c3b6ad0a2d7af0268e334bd9406256a7c7ba8f7fc8bc47f8cde98560405161252591815260200190565b60405180910390a36125378484612d13565b5050505050565b612546611c54565b6065805460ff191660011790557f62e78cea01bee320cd4e420270b5ea74000d11b0c9f74754ebdbfc544b05a25861202b3390565b6040805180820190915260008082526020820152816125a1575043602084015282612066565b6000838560200151436125b49190613420565b6125be9190613401565b9050826125d3670de0b6b3a764000083613401565b6125dd91906133e1565b855186906125ec9083906133c9565b90525050436020850152509192915050565b60008060008460400151856000015161261791906133c9565b9050808411156126615760405162461bcd60e51b815260206004820152601560248201527424b739bab33334b1b4b2b73a103130b630b731b29760591b60448201526064016109c5565b60408501519150836126755780935061269f565b81841161269f57838560400181815161268e9190613420565b905250600092508391506126dd9050565b600060408601526126b08285613420565b925082866000018181516126c49190613420565b9052508451839086906126d8908390613420565b905250505b935093915050565b7f00000000000000000000000000000000000000000000000000000000000000008110156127695760405162461bcd60e51b815260206004820152602b60248201527f776974686472617720616d6f756e74206d757374203e3d204d494e5f5749544860448201526a11149055d7d05353d5539560aa1b60648201526084016109c5565b6127d66127768242612caa565b6001600160a01b038416600090815261013660205260409020908154600160801b90819004600f90810b80820b820b6000908152600180870160205260409091209490945584549301900b6001600160801b039081169091029116179055565b816001600160a01b03167f6d92f7d3303f995bf21956bb0c51b388bae348eaf45c23debd2cfa3fcd9ec6468260405161281191815260200190565b60405180910390a25050565b6060600061206683612db6565b60006001600160ff1b038211156128945760405162461bcd60e51b815260206004820152602860248201527f53616665436173743a2076616c756520646f65736e27742066697420696e2061604482015267371034b73a191a9b60c11b60648201526084016109c5565b5090565b60006f7fffffffffffffffffffffffffffffff1982128015906128cb57506f7fffffffffffffffffffffffffffffff8213155b6128945760405162461bcd60e51b815260206004820152602760248201527f53616665436173743a2076616c756520646f65736e27742066697420696e20316044820152663238206269747360c81b60648201526084016109c5565b6001600160a01b0381163b6129945760405162461bcd60e51b815260206004820152602d60248201527f455243313936373a206e657720696d706c656d656e746174696f6e206973206e60448201526c1bdd08184818dbdb9d1c9858dd609a1b60648201526084016109c5565b6000805160206134e083398151915280546001600160a01b0319166001600160a01b0392909216919091179055565b6129cc83612e12565b6000825111806129d95750805b1561105c576129e88383612e52565b50505050565b60655460ff16610ce65760405162461bcd60e51b815260206004820152601460248201527314185d5cd8589b194e881b9bdd081c185d5cd95960621b60448201526064016109c5565b60008181526001830160205260408120548015612b4a576000612a5b600183613420565b8554909150600090612a6f90600190613420565b9050818114612af0576000866000018281548110612a9d57634e487b7160e01b600052603260045260246000fd5b9060005260206000200154905080876000018481548110612ace57634e487b7160e01b600052603260045260246000fd5b6000918252602080832090910192909255918252600188019052604090208390555b8554869080612b0f57634e487b7160e01b600052603160045260246000fd5b60019003818190600052602060002001600090559055856001016000868152602001908152602001600020600090556001935050505061093c565b600091505061093c565b600054610100900460ff16612b7b5760405162461bcd60e51b81526004016109c5906132f5565b60018055565b600054610100900460ff16612ba85760405162461bcd60e51b81526004016109c5906132f5565b6065805460ff19169055565b6000612066836001600160a01b038416612f46565b6000612be88254600f81810b810b600160801b909204810b900b131590565b15612c0657604051631ed9509560e11b815260040160405180910390fd5b508054600f90810b810b900b60009081526001909101602052604090205490565b6000612c468254600f81810b810b600160801b909204810b900b131590565b15612c6457604051631ed9509560e11b815260040160405180910390fd5b508054600f90810b80820b820b600090815260018085016020526040822080549290558454920190920b6001600160801b03166001600160801b03199091161790915590565b60006001600160e01b038311801590612cc7575063ffffffff8211155b612d085760405162461bcd60e51b8152602060048201526012602482015271125b9d985b1a59081dda5d1a191c985dd85b60721b60448201526064016109c5565b5060209190911b1790565b6000826001600160a01b03168260405160006040518083038185875af1925050503d8060008114612d60576040519150601f19603f3d011682016040523d82523d6000602084013e612d65565b606091505b505090508061105c5760405162461bcd60e51b815260206004820152601c60248201527f4661696c656420746f2073656e64206e617469766520746f6b656e2e0000000060448201526064016109c5565b606081600001805480602002602001604051908101604052809291908181526020018280548015612e0657602002820191906000526020600020905b815481526020019060010190808311612df2575b50505050509050919050565b612e1b81612927565b6040516001600160a01b038216907fbc7cd75a20ee27fd9adebab32041f755214dbc6bffa90cc0225b39da2e5c2d3b90600090a250565b60606001600160a01b0383163b612eba5760405162461bcd60e51b815260206004820152602660248201527f416464726573733a2064656c65676174652063616c6c20746f206e6f6e2d636f6044820152651b9d1c9858dd60d21b60648201526084016109c5565b600080846001600160a01b031684604051612ed59190613172565b600060405180830381855af49150503d8060008114612f10576040519150601f19603f3d011682016040523d82523d6000602084013e612f15565b606091505b5091509150612f3d828260405180606001604052806027815260200161350060279139612f95565b95945050505050565b6000818152600183016020526040812054612f8d5750815460018181018455600084815260208082209093018490558454848252828601909352604090209190915561093c565b50600061093c565b60608315612fa4575081612066565b825115612fb45782518084602001fd5b8160405162461bcd60e51b81526004016109c5919061322a565b600060208284031215612fdf578081fd5b8135612066816134aa565b60008060408385031215612ffc578081fd5b8235613007816134aa565b946020939093013593505050565b60008060408385031215613027578182fd5b8235613032816134aa565b91506020830135613042816134aa565b809150509250929050565b6000806040838503121561305f578182fd5b823561306a816134aa565b9150602083013567ffffffffffffffff80821115613086578283fd5b818501915085601f830112613099578283fd5b8135818111156130ab576130ab613494565b604051601f8201601f19908116603f011681019083821181831017156130d3576130d3613494565b816040528281528860208487010111156130eb578586fd5b82602086016020830137856020848301015280955050505050509250929050565b60008060408385031215612ffc578182fd5b60006020828403121561312f578081fd5b5051919050565b600060208284031215613147578081fd5b5035919050565b60006020828403121561315f578081fd5b813563ffffffff81168114612066578182fd5b60008251613184818460208701613437565b9190910192915050565b6020808252825182820181905260009190848201906040850190845b818110156131cf5783516001600160a01b0316835292840192918401916001016131aa565b50909695505050505050565b602080825282518282018190526000919060409081850190868401855b8281101561321d578151805185528601518685015292840192908501906001016131f8565b5091979650505050505050565b6020815260008251806020840152613249816040850160208701613437565b601f01601f19169190910160400192915050565b6020808252602c908201527f46756e6374696f6e206d7573742062652063616c6c6564207468726f7567682060408201526b19195b1959d85d1958d85b1b60a21b606082015260800190565b6020808252602c908201527f46756e6374696f6e206d7573742062652063616c6c6564207468726f7567682060408201526b6163746976652070726f787960a01b606082015260800190565b6020808252602b908201527f496e697469616c697a61626c653a20636f6e7472616374206973206e6f74206960408201526a6e697469616c697a696e6760a81b606082015260800190565b60208082526028908201527f56616c696461746f72206e6f74206578697374206f7220686173206265656e206040820152673932b6b7bb32b21760c11b606082015260800190565b600080821280156001600160ff1b03849003851316156133aa576133aa61347e565b600160ff1b83900384128116156133c3576133c361347e565b50500190565b600082198211156133dc576133dc61347e565b500190565b6000826133fc57634e487b7160e01b81526012600452602481fd5b500490565b600081600019048311821515161561341b5761341b61347e565b500290565b6000828210156134325761343261347e565b500390565b60005b8381101561345257818101518382015260200161343a565b838111156129e85750506000910152565b60006000198214156134775761347761347e565b5060010190565b634e487b7160e01b600052601160045260246000fd5b634e487b7160e01b600052604160045260246000fd5b6001600160a01b0381168114610cd357600080fdfe5b20f40cb5e9e634a90df9a72b516c11cc52281a4d1b7b67e672e2fe544ff22f360894a13ba1a3210667c828492db98dca3e2076cc3735a920a3ca505d382bbc416464726573733a206c6f772d6c6576656c2064656c65676174652063616c6c206661696c6564a26469706673582212206aa2cce075230d2464b2e4142eeebf77b830d3cf4d7f9aab68802b30411786a564736f6c63430008040033","opcodes":"PUSH1 0xE0 PUSH1 0x40 MSTORE ADDRESS PUSH1 0x60 SHL PUSH1 0x80 MSTORE CALLVALUE DUP1 ISZERO PUSH3 0x18 JUMPI PUSH1 0x0 DUP1 REVERT JUMPDEST POP PUSH1 0x40 MLOAD PUSH3 0x374A CODESIZE SUB DUP1 PUSH3 0x374A DUP4 CODECOPY DUP2 ADD PUSH1 0x40 DUP2 SWAP1 MSTORE PUSH3 0x3B SWAP2 PUSH3 0x16D JUMP JUMPDEST PUSH3 0x45 PUSH3 0xAE JUMP JUMPDEST PUSH4 0x3B9ACA00 DUP3 LT ISZERO PUSH3 0x9F JUMPI PUSH1 0x40 MLOAD PUSH3 0x461BCD PUSH1 0xE5 SHL DUP2 MSTORE PUSH1 0x20 PUSH1 0x4 DUP3 ADD MSTORE PUSH1 0x1D PUSH1 0x24 DUP3 ADD MSTORE PUSH32 0x496E76616C6964206D696E696D616C207374616B6520616D6F756E742E000000 PUSH1 0x44 DUP3 ADD MSTORE PUSH1 0x64 ADD JUMPDEST PUSH1 0x40 MLOAD DUP1 SWAP2 SUB SWAP1 REVERT JUMPDEST PUSH1 0xA0 SWAP2 SWAP1 SWAP2 MSTORE PUSH1 0xC0 MSTORE PUSH3 0x191 JUMP JUMPDEST PUSH1 0x0 SLOAD PUSH2 0x100 SWAP1 DIV PUSH1 0xFF AND ISZERO PUSH3 0x118 JUMPI PUSH1 0x40 MLOAD PUSH3 0x461BCD PUSH1 0xE5 SHL DUP2 MSTORE PUSH1 0x20 PUSH1 0x4 DUP3 ADD MSTORE PUSH1 0x27 PUSH1 0x24 DUP3 ADD MSTORE PUSH32 0x496E697469616C697A61626C653A20636F6E747261637420697320696E697469 PUSH1 0x44 DUP3 ADD MSTORE PUSH7 0x616C697A696E67 PUSH1 0xC8 SHL PUSH1 0x64 DUP3 ADD MSTORE PUSH1 0x84 ADD PUSH3 0x96 JUMP JUMPDEST PUSH1 0x0 SLOAD PUSH1 0xFF SWAP1 DUP2 AND LT ISZERO PUSH3 0x16B JUMPI PUSH1 0x0 DUP1 SLOAD PUSH1 0xFF NOT AND PUSH1 0xFF SWAP1 DUP2 OR SWAP1 SWAP2 SSTORE PUSH1 0x40 MLOAD SWAP1 DUP2 MSTORE PUSH32 0x7F26B83FF96E1F2B6A682F133852F6798A09C465DA95921460CEFB3847402498 SWAP1 PUSH1 0x20 ADD PUSH1 0x40 MLOAD DUP1 SWAP2 SUB SWAP1 LOG1 JUMPDEST JUMP JUMPDEST PUSH1 0x0 DUP1 PUSH1 0x40 DUP4 DUP6 SUB SLT ISZERO PUSH3 0x180 JUMPI DUP2 DUP3 REVERT JUMPDEST POP POP DUP1 MLOAD PUSH1 0x20 SWAP1 SWAP2 ADD MLOAD SWAP1 SWAP3 SWAP1 SWAP2 POP JUMP JUMPDEST PUSH1 0x80 MLOAD PUSH1 0x60 SHR PUSH1 0xA0 MLOAD PUSH1 0xC0 MLOAD PUSH2 0x355C PUSH3 0x1EE PUSH1 0x0 CODECOPY PUSH1 0x0 DUP2 DUP2 PUSH2 0x691 ADD MSTORE PUSH2 0x26E7 ADD MSTORE PUSH1 0x0 DUP2 DUP2 PUSH2 0x317 ADD MSTORE PUSH2 0x94C ADD MSTORE PUSH1 0x0 DUP2 DUP2 PUSH2 0xC01 ADD MSTORE DUP2 DUP2 PUSH2 0xC41 ADD MSTORE DUP2 DUP2 PUSH2 0x107D ADD MSTORE DUP2 DUP2 PUSH2 0x10BD ADD MSTORE PUSH2 0x11CC ADD MSTORE PUSH2 0x355C PUSH1 0x0 RETURN INVALID PUSH1 0x80 PUSH1 0x40 MSTORE PUSH1 0x4 CALLDATASIZE LT PUSH2 0x255 JUMPI PUSH1 0x0 CALLDATALOAD PUSH1 0xE0 SHR DUP1 PUSH4 0x748747E6 GT PUSH2 0x139 JUMPI DUP1 PUSH4 0xC2A672E0 GT PUSH2 0xB6 JUMPI DUP1 PUSH4 0xEAF7C9DC GT PUSH2 0x7A JUMPI DUP1 PUSH4 0xEAF7C9DC EQ PUSH2 0x769 JUMPI DUP1 PUSH4 0xF0544AC8 EQ PUSH2 0x789 JUMPI DUP1 PUSH4 0xF2FDE38B EQ PUSH2 0x7A6 JUMPI DUP1 PUSH4 0xF3F43703 EQ PUSH2 0x7C6 JUMPI DUP1 PUSH4 0xF489F23B EQ PUSH2 0x7F3 JUMPI DUP1 PUSH4 0xF6A2314A EQ PUSH2 0x813 JUMPI PUSH1 0x0 DUP1 REVERT JUMPDEST DUP1 PUSH4 0xC2A672E0 EQ PUSH2 0x6D3 JUMPI DUP1 PUSH4 0xD2D49C4B EQ PUSH2 0x6F3 JUMPI DUP1 PUSH4 0xD4C6D1DE EQ PUSH2 0x715 JUMPI DUP1 PUSH4 0xD849A502 EQ PUSH2 0x732 JUMPI DUP1 PUSH4 0xDAB31689 EQ PUSH2 0x749 JUMPI PUSH1 0x0 DUP1 REVERT JUMPDEST DUP1 PUSH4 0x94409A56 GT PUSH2 0xFD JUMPI DUP1 PUSH4 0x94409A56 EQ PUSH2 0x627 JUMPI DUP1 PUSH4 0x9CED7E76 EQ PUSH2 0x63E JUMPI DUP1 PUSH4 0xACED1661 EQ PUSH2 0x65E JUMPI DUP1 PUSH4 0xB6857844 EQ PUSH2 0x67F JUMPI DUP1 PUSH4 0xBB872B4A EQ PUSH2 0x6B3 JUMPI PUSH1 0x0 DUP1 REVERT JUMPDEST DUP1 PUSH4 0x748747E6 EQ PUSH2 0x589 JUMPI DUP1 PUSH4 0x7B66394C EQ PUSH2 0x5A9 JUMPI DUP1 PUSH4 0x7EA5DB42 EQ PUSH2 0x5C9 JUMPI DUP1 PUSH4 0x8456CB59 EQ PUSH2 0x5E0 JUMPI DUP1 PUSH4 0x8DA5CB5B EQ PUSH2 0x5F5 JUMPI PUSH1 0x0 DUP1 REVERT JUMPDEST DUP1 PUSH4 0x40550A1C GT PUSH2 0x1D2 JUMPI DUP1 PUSH4 0x4F1EF286 GT PUSH2 0x196 JUMPI DUP1 PUSH4 0x4F1EF286 EQ PUSH2 0x4F6 JUMPI DUP1 PUSH4 0x522ABC40 EQ PUSH2 0x509 JUMPI DUP1 PUSH4 0x52D1902D EQ PUSH2 0x529 JUMPI DUP1 PUSH4 0x57525CBC EQ PUSH2 0x53E JUMPI DUP1 PUSH4 0x5C975ABB EQ PUSH2 0x55C JUMPI DUP1 PUSH4 0x715018A6 EQ PUSH2 0x574 JUMPI PUSH1 0x0 DUP1 REVERT JUMPDEST DUP1 PUSH4 0x40550A1C EQ PUSH2 0x44A JUMPI DUP1 PUSH4 0x40A141FF EQ PUSH2 0x47A JUMPI DUP1 PUSH4 0x45F7B8F4 EQ PUSH2 0x49A JUMPI DUP1 PUSH4 0x485CC955 EQ PUSH2 0x4B6 JUMPI DUP1 PUSH4 0x4D238C8E EQ PUSH2 0x4D6 JUMPI PUSH1 0x0 DUP1 REVERT JUMPDEST DUP1 PUSH4 0x29451893 GT PUSH2 0x219 JUMPI DUP1 PUSH4 0x29451893 EQ PUSH2 0x339 JUMPI DUP1 PUSH4 0x340C5A25 EQ PUSH2 0x390 JUMPI DUP1 PUSH4 0x3659CFE6 EQ PUSH2 0x3DA JUMPI DUP1 PUSH4 0x3F4BA83A EQ PUSH2 0x3FA JUMPI DUP1 PUSH4 0x3FD8B02F EQ PUSH2 0x40F JUMPI PUSH1 0x0 DUP1 REVERT JUMPDEST DUP1 PUSH4 0xD8E6E2C EQ PUSH2 0x296 JUMPI DUP1 PUSH4 0x19D41774 EQ PUSH2 0x2B9 JUMPI DUP1 PUSH4 0x24E770D0 EQ PUSH2 0x2D9 JUMPI DUP1 PUSH4 0x26476204 EQ PUSH2 0x2F0 JUMPI DUP1 PUSH4 0x27ED7188 EQ PUSH2 0x305 JUMPI PUSH1 0x0 DUP1 REVERT JUMPDEST CALLDATASIZE PUSH2 0x291 JUMPI PUSH1 0x40 MLOAD CALLVALUE DUP2 MSTORE CALLER SWAP1 PUSH32 0x88A5966D370B9919B20F3E2C13FF65706F196A4E32CC2C12BF57088F88525874 SWAP1 PUSH1 0x20 ADD PUSH1 0x40 MLOAD DUP1 SWAP2 SUB SWAP1 LOG2 STOP JUMPDEST PUSH1 0x0 DUP1 REVERT JUMPDEST CALLVALUE DUP1 ISZERO PUSH2 0x2A2 JUMPI PUSH1 0x0 DUP1 REVERT JUMPDEST POP PUSH1 0x2 JUMPDEST PUSH1 0x40 MLOAD SWAP1 DUP2 MSTORE PUSH1 0x20 ADD JUMPDEST PUSH1 0x40 MLOAD DUP1 SWAP2 SUB SWAP1 RETURN JUMPDEST CALLVALUE DUP1 ISZERO PUSH2 0x2C5 JUMPI PUSH1 0x0 DUP1 REVERT JUMPDEST POP PUSH2 0x2A6 PUSH2 0x2D4 CALLDATASIZE PUSH1 0x4 PUSH2 0x310C JUMP JUMPDEST PUSH2 0x881 JUMP JUMPDEST CALLVALUE DUP1 ISZERO PUSH2 0x2E5 JUMPI PUSH1 0x0 DUP1 REVERT JUMPDEST POP PUSH2 0x2A6 PUSH2 0x139 SLOAD DUP2 JUMP JUMPDEST PUSH2 0x303 PUSH2 0x2FE CALLDATASIZE PUSH1 0x4 PUSH2 0x2FCE JUMP JUMPDEST PUSH2 0x942 JUMP JUMPDEST STOP JUMPDEST CALLVALUE DUP1 ISZERO PUSH2 0x311 JUMPI PUSH1 0x0 DUP1 REVERT JUMPDEST POP PUSH2 0x2A6 PUSH32 0x0 DUP2 JUMP JUMPDEST CALLVALUE DUP1 ISZERO PUSH2 0x345 JUMPI PUSH1 0x0 DUP1 REVERT JUMPDEST POP PUSH2 0x376 PUSH2 0x354 CALLDATASIZE PUSH1 0x4 PUSH2 0x2FCE JUMP JUMPDEST PUSH2 0x136 PUSH1 0x20 MSTORE PUSH1 0x0 SWAP1 DUP2 MSTORE PUSH1 0x40 SWAP1 KECCAK256 SLOAD PUSH1 0xF DUP2 DUP2 SIGNEXTEND SWAP2 PUSH1 0x1 PUSH1 0x80 SHL SWAP1 DIV SWAP1 SIGNEXTEND DUP3 JUMP JUMPDEST PUSH1 0x40 DUP1 MLOAD PUSH1 0xF SWAP4 DUP5 SIGNEXTEND DUP2 MSTORE SWAP2 SWAP1 SWAP3 SIGNEXTEND PUSH1 0x20 DUP3 ADD MSTORE ADD PUSH2 0x2B0 JUMP JUMPDEST CALLVALUE DUP1 ISZERO PUSH2 0x39C JUMPI PUSH1 0x0 DUP1 REVERT JUMPDEST POP PUSH2 0x3C5 PUSH2 0x3AB CALLDATASIZE PUSH1 0x4 PUSH2 0x2FCE JUMP JUMPDEST PUSH2 0x134 PUSH1 0x20 MSTORE PUSH1 0x0 SWAP1 DUP2 MSTORE PUSH1 0x40 SWAP1 KECCAK256 DUP1 SLOAD PUSH1 0x1 SWAP1 SWAP2 ADD SLOAD DUP3 JUMP JUMPDEST PUSH1 0x40 DUP1 MLOAD SWAP3 DUP4 MSTORE PUSH1 0x20 DUP4 ADD SWAP2 SWAP1 SWAP2 MSTORE ADD PUSH2 0x2B0 JUMP JUMPDEST CALLVALUE DUP1 ISZERO PUSH2 0x3E6 JUMPI PUSH1 0x0 DUP1 REVERT JUMPDEST POP PUSH2 0x303 PUSH2 0x3F5 CALLDATASIZE PUSH1 0x4 PUSH2 0x2FCE JUMP JUMPDEST PUSH2 0xBF6 JUMP JUMPDEST CALLVALUE DUP1 ISZERO PUSH2 0x406 JUMPI PUSH1 0x0 DUP1 REVERT JUMPDEST POP PUSH2 0x303 PUSH2 0xCD6 JUMP JUMPDEST CALLVALUE DUP1 ISZERO PUSH2 0x41B JUMPI PUSH1 0x0 DUP1 REVERT JUMPDEST POP PUSH2 0x137 SLOAD PUSH2 0x435 SWAP1 PUSH5 0x100000000 SWAP1 DIV PUSH4 0xFFFFFFFF AND DUP2 JUMP JUMPDEST PUSH1 0x40 MLOAD PUSH4 0xFFFFFFFF SWAP1 SWAP2 AND DUP2 MSTORE PUSH1 0x20 ADD PUSH2 0x2B0 JUMP JUMPDEST CALLVALUE DUP1 ISZERO PUSH2 0x456 JUMPI PUSH1 0x0 DUP1 REVERT JUMPDEST POP PUSH2 0x46A PUSH2 0x465 CALLDATASIZE PUSH1 0x4 PUSH2 0x2FCE JUMP JUMPDEST PUSH2 0xCE8 JUMP JUMPDEST PUSH1 0x40 MLOAD SWAP1 ISZERO ISZERO DUP2 MSTORE PUSH1 0x20 ADD PUSH2 0x2B0 JUMP JUMPDEST CALLVALUE DUP1 ISZERO PUSH2 0x486 JUMPI PUSH1 0x0 DUP1 REVERT JUMPDEST POP PUSH2 0x303 PUSH2 0x495 CALLDATASIZE PUSH1 0x4 PUSH2 0x2FCE JUMP JUMPDEST PUSH2 0xCF6 JUMP JUMPDEST CALLVALUE DUP1 ISZERO PUSH2 0x4A6 JUMPI PUSH1 0x0 DUP1 REVERT JUMPDEST POP PUSH2 0x2A6 PUSH8 0xDE0B6B3A7640000 DUP2 JUMP JUMPDEST CALLVALUE DUP1 ISZERO PUSH2 0x4C2 JUMPI PUSH1 0x0 DUP1 REVERT JUMPDEST POP PUSH2 0x303 PUSH2 0x4D1 CALLDATASIZE PUSH1 0x4 PUSH2 0x3015 JUMP JUMPDEST PUSH2 0xEEB JUMP JUMPDEST CALLVALUE DUP1 ISZERO PUSH2 0x4E2 JUMPI PUSH1 0x0 DUP1 REVERT JUMPDEST POP PUSH2 0x303 PUSH2 0x4F1 CALLDATASIZE PUSH1 0x4 PUSH2 0x2FCE JUMP JUMPDEST PUSH2 0x1061 JUMP JUMPDEST PUSH2 0x303 PUSH2 0x504 CALLDATASIZE PUSH1 0x4 PUSH2 0x304D JUMP JUMPDEST PUSH2 0x1072 JUMP JUMPDEST CALLVALUE DUP1 ISZERO PUSH2 0x515 JUMPI PUSH1 0x0 DUP1 REVERT JUMPDEST POP PUSH2 0x303 PUSH2 0x524 CALLDATASIZE PUSH1 0x4 PUSH2 0x314E JUMP JUMPDEST PUSH2 0x1143 JUMP JUMPDEST CALLVALUE DUP1 ISZERO PUSH2 0x535 JUMPI PUSH1 0x0 DUP1 REVERT JUMPDEST POP PUSH2 0x2A6 PUSH2 0x11BF JUMP JUMPDEST CALLVALUE DUP1 ISZERO PUSH2 0x54A JUMPI PUSH1 0x0 DUP1 REVERT JUMPDEST POP PUSH2 0x137 SLOAD PUSH2 0x435 SWAP1 PUSH4 0xFFFFFFFF AND DUP2 JUMP JUMPDEST CALLVALUE DUP1 ISZERO PUSH2 0x568 JUMPI PUSH1 0x0 DUP1 REVERT JUMPDEST POP PUSH1 0x65 SLOAD PUSH1 0xFF AND PUSH2 0x46A JUMP JUMPDEST CALLVALUE DUP1 ISZERO PUSH2 0x580 JUMPI PUSH1 0x0 DUP1 REVERT JUMPDEST POP PUSH2 0x303 PUSH2 0x1272 JUMP JUMPDEST CALLVALUE DUP1 ISZERO PUSH2 0x595 JUMPI PUSH1 0x0 DUP1 REVERT JUMPDEST POP PUSH2 0x303 PUSH2 0x5A4 CALLDATASIZE PUSH1 0x4 PUSH2 0x2FCE JUMP JUMPDEST PUSH2 0x1284 JUMP JUMPDEST CALLVALUE DUP1 ISZERO PUSH2 0x5B5 JUMPI PUSH1 0x0 DUP1 REVERT JUMPDEST POP PUSH2 0x303 PUSH2 0x5C4 CALLDATASIZE PUSH1 0x4 PUSH2 0x2FEA JUMP JUMPDEST PUSH2 0x1305 JUMP JUMPDEST CALLVALUE DUP1 ISZERO PUSH2 0x5D5 JUMPI PUSH1 0x0 DUP1 REVERT JUMPDEST POP PUSH2 0x2A6 PUSH2 0x138 SLOAD DUP2 JUMP JUMPDEST CALLVALUE DUP1 ISZERO PUSH2 0x5EC JUMPI PUSH1 0x0 DUP1 REVERT JUMPDEST POP PUSH2 0x303 PUSH2 0x1310 JUMP JUMPDEST CALLVALUE DUP1 ISZERO PUSH2 0x601 JUMPI PUSH1 0x0 DUP1 REVERT JUMPDEST POP PUSH1 0x97 SLOAD PUSH1 0x1 PUSH1 0x1 PUSH1 0xA0 SHL SUB AND JUMPDEST PUSH1 0x40 MLOAD PUSH1 0x1 PUSH1 0x1 PUSH1 0xA0 SHL SUB SWAP1 SWAP2 AND DUP2 MSTORE PUSH1 0x20 ADD PUSH2 0x2B0 JUMP JUMPDEST CALLVALUE DUP1 ISZERO PUSH2 0x633 JUMPI PUSH1 0x0 DUP1 REVERT JUMPDEST POP PUSH2 0x2A6 PUSH2 0x13A SLOAD DUP2 JUMP JUMPDEST CALLVALUE DUP1 ISZERO PUSH2 0x64A JUMPI PUSH1 0x0 DUP1 REVERT JUMPDEST POP PUSH2 0x2A6 PUSH2 0x659 CALLDATASIZE PUSH1 0x4 PUSH2 0x3015 JUMP JUMPDEST PUSH2 0x1320 JUMP JUMPDEST CALLVALUE DUP1 ISZERO PUSH2 0x66A JUMPI PUSH1 0x0 DUP1 REVERT JUMPDEST POP PUSH2 0x12D SLOAD PUSH2 0x60F SWAP1 PUSH1 0x1 PUSH1 0x1 PUSH1 0xA0 SHL SUB AND DUP2 JUMP JUMPDEST CALLVALUE DUP1 ISZERO PUSH2 0x68B JUMPI PUSH1 0x0 DUP1 REVERT JUMPDEST POP PUSH2 0x2A6 PUSH32 0x0 DUP2 JUMP JUMPDEST CALLVALUE DUP1 ISZERO PUSH2 0x6BF JUMPI PUSH1 0x0 DUP1 REVERT JUMPDEST POP PUSH2 0x303 PUSH2 0x6CE CALLDATASIZE PUSH1 0x4 PUSH2 0x3136 JUMP JUMPDEST PUSH2 0x1466 JUMP JUMPDEST CALLVALUE DUP1 ISZERO PUSH2 0x6DF JUMPI PUSH1 0x0 DUP1 REVERT JUMPDEST POP PUSH2 0x303 PUSH2 0x6EE CALLDATASIZE PUSH1 0x4 PUSH2 0x310C JUMP JUMPDEST PUSH2 0x14D1 JUMP JUMPDEST CALLVALUE DUP1 ISZERO PUSH2 0x6FF JUMPI PUSH1 0x0 DUP1 REVERT JUMPDEST POP PUSH2 0x708 PUSH2 0x1801 JUMP JUMPDEST PUSH1 0x40 MLOAD PUSH2 0x2B0 SWAP2 SWAP1 PUSH2 0x318E JUMP JUMPDEST CALLVALUE DUP1 ISZERO PUSH2 0x721 JUMPI PUSH1 0x0 DUP1 REVERT JUMPDEST POP PUSH2 0x130 SLOAD PUSH2 0x131 SLOAD PUSH2 0x3C5 SWAP2 SWAP1 DUP3 JUMP JUMPDEST CALLVALUE DUP1 ISZERO PUSH2 0x73E JUMPI PUSH1 0x0 DUP1 REVERT JUMPDEST POP PUSH2 0x2A6 PUSH2 0x13B SLOAD DUP2 JUMP JUMPDEST CALLVALUE DUP1 ISZERO PUSH2 0x755 JUMPI PUSH1 0x0 DUP1 REVERT JUMPDEST POP PUSH2 0x2A6 PUSH2 0x764 CALLDATASIZE PUSH1 0x4 PUSH2 0x2FCE JUMP JUMPDEST PUSH2 0x1813 JUMP JUMPDEST CALLVALUE DUP1 ISZERO PUSH2 0x775 JUMPI PUSH1 0x0 DUP1 REVERT JUMPDEST POP PUSH2 0x303 PUSH2 0x784 CALLDATASIZE PUSH1 0x4 PUSH2 0x3136 JUMP JUMPDEST PUSH2 0x181F JUMP JUMPDEST CALLVALUE DUP1 ISZERO PUSH2 0x795 JUMPI PUSH1 0x0 DUP1 REVERT JUMPDEST POP PUSH2 0x132 SLOAD PUSH2 0x133 SLOAD PUSH2 0x3C5 SWAP2 SWAP1 DUP3 JUMP JUMPDEST CALLVALUE DUP1 ISZERO PUSH2 0x7B2 JUMPI PUSH1 0x0 DUP1 REVERT JUMPDEST POP PUSH2 0x303 PUSH2 0x7C1 CALLDATASIZE PUSH1 0x4 PUSH2 0x2FCE JUMP JUMPDEST PUSH2 0x19DF JUMP JUMPDEST CALLVALUE DUP1 ISZERO PUSH2 0x7D2 JUMPI PUSH1 0x0 DUP1 REVERT JUMPDEST POP PUSH2 0x7E6 PUSH2 0x7E1 CALLDATASIZE PUSH1 0x4 PUSH2 0x2FCE JUMP JUMPDEST PUSH2 0x1A55 JUMP JUMPDEST PUSH1 0x40 MLOAD PUSH2 0x2B0 SWAP2 SWAP1 PUSH2 0x31DB JUMP JUMPDEST CALLVALUE DUP1 ISZERO PUSH2 0x7FF JUMPI PUSH1 0x0 DUP1 REVERT JUMPDEST POP PUSH2 0x303 PUSH2 0x80E CALLDATASIZE PUSH1 0x4 PUSH2 0x314E JUMP JUMPDEST PUSH2 0x1B78 JUMP JUMPDEST CALLVALUE DUP1 ISZERO PUSH2 0x81F JUMPI PUSH1 0x0 DUP1 REVERT JUMPDEST POP PUSH2 0x861 PUSH2 0x82E CALLDATASIZE PUSH1 0x4 PUSH2 0x3015 JUMP JUMPDEST PUSH2 0x135 PUSH1 0x20 SWAP1 DUP2 MSTORE PUSH1 0x0 SWAP3 DUP4 MSTORE PUSH1 0x40 DUP1 DUP5 KECCAK256 SWAP1 SWAP2 MSTORE SWAP1 DUP3 MSTORE SWAP1 KECCAK256 DUP1 SLOAD PUSH1 0x1 DUP3 ADD SLOAD PUSH1 0x2 DUP4 ADD SLOAD PUSH1 0x3 SWAP1 SWAP4 ADD SLOAD SWAP2 SWAP3 SWAP1 SWAP2 DUP5 JUMP JUMPDEST PUSH1 0x40 DUP1 MLOAD SWAP5 DUP6 MSTORE PUSH1 0x20 DUP6 ADD SWAP4 SWAP1 SWAP4 MSTORE SWAP2 DUP4 ADD MSTORE PUSH1 0x60 DUP3 ADD MSTORE PUSH1 0x80 ADD PUSH2 0x2B0 JUMP JUMPDEST PUSH1 0x1 PUSH1 0x1 PUSH1 0xA0 SHL SUB DUP3 AND PUSH1 0x0 SWAP1 DUP2 MSTORE PUSH2 0x136 PUSH1 0x20 MSTORE PUSH1 0x40 DUP2 KECCAK256 DUP2 DUP1 PUSH2 0x8B8 DUP4 SLOAD PUSH1 0xF DUP2 DUP2 SIGNEXTEND DUP2 SIGNEXTEND PUSH1 0x1 PUSH1 0x80 SHL SWAP1 SWAP3 DIV DUP2 SIGNEXTEND SWAP1 SIGNEXTEND SUB SWAP1 JUMP JUMPDEST SWAP1 POP PUSH1 0x0 JUMPDEST DUP2 DUP2 LT ISZERO PUSH2 0x935 JUMPI PUSH1 0x0 DUP1 PUSH2 0x8E6 PUSH2 0x8D5 DUP8 DUP6 PUSH2 0x1BD9 JUMP JUMPDEST PUSH1 0x20 DUP2 SWAP1 SHR SWAP2 PUSH4 0xFFFFFFFF SWAP1 SWAP2 AND SWAP1 JUMP JUMPDEST PUSH2 0x137 SLOAD SWAP2 SWAP4 POP SWAP2 POP DUP9 SWAP1 PUSH2 0x909 SWAP1 PUSH5 0x100000000 SWAP1 DIV PUSH4 0xFFFFFFFF AND DUP4 PUSH2 0x33C9 JUMP JUMPDEST GT ISZERO PUSH2 0x916 JUMPI POP POP PUSH2 0x935 JUMP JUMPDEST PUSH2 0x920 DUP3 DUP7 PUSH2 0x33C9 JUMP JUMPDEST SWAP5 POP POP POP DUP1 PUSH2 0x92E SWAP1 PUSH2 0x3463 JUMP JUMPDEST SWAP1 POP PUSH2 0x8BD JUMP JUMPDEST POP SWAP1 SWAP3 POP POP POP JUMPDEST SWAP3 SWAP2 POP POP JUMP JUMPDEST PUSH2 0x94A PUSH2 0x1C54 JUMP JUMPDEST PUSH32 0x0 CALLVALUE LT ISZERO PUSH2 0x9CE JUMPI PUSH1 0x40 MLOAD PUSH3 0x461BCD PUSH1 0xE5 SHL DUP2 MSTORE PUSH1 0x20 PUSH1 0x4 DUP3 ADD MSTORE PUSH1 0x26 PUSH1 0x24 DUP3 ADD MSTORE PUSH32 0x5374616B6520616D6F756E74206D757374203E3D204D494E5F5354414B455F41 PUSH1 0x44 DUP3 ADD MSTORE PUSH6 0x26A7AAA72A17 PUSH1 0xD1 SHL PUSH1 0x64 DUP3 ADD MSTORE PUSH1 0x84 ADD JUMPDEST PUSH1 0x40 MLOAD DUP1 SWAP2 SUB SWAP1 REVERT JUMPDEST PUSH2 0x9D7 DUP2 PUSH2 0xCE8 JUMP JUMPDEST PUSH2 0x9F3 JUMPI PUSH1 0x40 MLOAD PUSH3 0x461BCD PUSH1 0xE5 SHL DUP2 MSTORE PUSH1 0x4 ADD PUSH2 0x9C5 SWAP1 PUSH2 0x3340 JUMP JUMPDEST PUSH1 0x0 DUP1 PUSH2 0x9FE PUSH2 0x1C9A JUMP JUMPDEST PUSH1 0x1 PUSH1 0x1 PUSH1 0xA0 SHL SUB DUP6 AND PUSH1 0x0 DUP2 DUP2 MSTORE PUSH1 0x0 DUP1 MLOAD PUSH1 0x20 PUSH2 0x34C0 DUP4 CODECOPY DUP2 MLOAD SWAP2 MSTORE PUSH1 0x20 SWAP1 DUP2 MSTORE PUSH1 0x40 DUP1 DUP4 KECCAK256 DUP2 MLOAD PUSH1 0x80 DUP1 DUP3 ADD DUP5 MSTORE DUP3 SLOAD DUP3 MSTORE PUSH1 0x1 DUP1 DUP5 ADD SLOAD DUP4 DUP8 ADD MSTORE PUSH1 0x2 DUP1 DUP6 ADD SLOAD DUP5 DUP8 ADD MSTORE PUSH1 0x3 SWAP5 DUP6 ADD SLOAD PUSH1 0x60 DUP1 DUP7 ADD SWAP2 SWAP1 SWAP2 MSTORE SWAP9 DUP9 MSTORE PUSH2 0x135 DUP8 MSTORE DUP6 DUP9 KECCAK256 CALLER DUP10 MSTORE DUP8 MSTORE SWAP7 DUP6 SWAP1 KECCAK256 DUP6 MLOAD SWAP3 DUP4 ADD DUP7 MSTORE DUP1 SLOAD DUP4 MSTORE SWAP1 DUP2 ADD SLOAD SWAP6 DUP3 ADD SWAP6 SWAP1 SWAP6 MSTORE SWAP5 DUP5 ADD SLOAD SWAP3 DUP6 ADD SWAP3 SWAP1 SWAP3 MSTORE SWAP2 SWAP1 SWAP2 ADD SLOAD SWAP3 DUP3 ADD SWAP3 SWAP1 SWAP3 MSTORE SWAP3 SWAP5 POP SWAP1 SWAP3 POP SWAP1 PUSH2 0xAA8 DUP5 DUP4 PUSH2 0x1D3E JUMP JUMPDEST PUSH2 0xAB2 DUP4 DUP3 PUSH2 0x1D3E JUMP JUMPDEST CALLVALUE DUP3 PUSH1 0x0 ADD DUP2 DUP2 MLOAD PUSH2 0xAC4 SWAP2 SWAP1 PUSH2 0x33C9 JUMP JUMPDEST SWAP1 MSTORE POP DUP1 MLOAD CALLVALUE SWAP1 DUP3 SWAP1 PUSH2 0xAD8 SWAP1 DUP4 SWAP1 PUSH2 0x33C9 JUMP JUMPDEST SWAP1 MSTORE POP PUSH2 0xAE5 DUP5 DUP4 PUSH2 0x1D93 JUMP JUMPDEST PUSH2 0xAEF DUP4 DUP3 PUSH2 0x1D93 JUMP JUMPDEST NUMBER PUSH1 0x60 DUP1 DUP5 ADD DUP3 DUP2 MSTORE SWAP1 DUP4 ADD SWAP2 DUP3 MSTORE PUSH1 0x1 PUSH1 0x1 PUSH1 0xA0 SHL SUB DUP8 AND PUSH1 0x0 SWAP1 DUP2 MSTORE PUSH1 0x0 DUP1 MLOAD PUSH1 0x20 PUSH2 0x34C0 DUP4 CODECOPY DUP2 MLOAD SWAP2 MSTORE PUSH1 0x20 SWAP1 DUP2 MSTORE PUSH1 0x40 DUP1 DUP4 KECCAK256 DUP8 MLOAD DUP2 SSTORE DUP3 DUP9 ADD MLOAD PUSH1 0x1 DUP1 DUP4 ADD SWAP2 SWAP1 SWAP2 SSTORE DUP3 DUP10 ADD MLOAD PUSH1 0x2 DUP1 DUP5 ADD SWAP2 SWAP1 SWAP2 SSTORE SWAP6 MLOAD PUSH1 0x3 SWAP3 DUP4 ADD SSTORE PUSH2 0x135 DUP5 MSTORE DUP3 DUP6 KECCAK256 CALLER DUP7 MSTORE DUP5 MSTORE DUP3 DUP6 KECCAK256 DUP9 MLOAD DUP2 SSTORE SWAP4 DUP9 ADD MLOAD SWAP1 DUP5 ADD SSTORE SWAP1 DUP7 ADD MLOAD SWAP4 DUP3 ADD SWAP4 SWAP1 SWAP4 SSTORE SWAP3 MLOAD SWAP3 SWAP1 SWAP2 ADD SWAP2 SWAP1 SWAP2 SSTORE PUSH2 0x13B DUP1 SLOAD CALLVALUE SWAP3 SWAP1 PUSH2 0xB90 SWAP1 DUP5 SWAP1 PUSH2 0x33C9 JUMP JUMPDEST SWAP3 POP POP DUP2 SWAP1 SSTORE POP CALLVALUE PUSH2 0x13A PUSH1 0x0 DUP3 DUP3 SLOAD PUSH2 0xBAA SWAP2 SWAP1 PUSH2 0x33C9 JUMP JUMPDEST SWAP1 SWAP2 SSTORE POP POP PUSH1 0x40 MLOAD CALLVALUE DUP2 MSTORE PUSH1 0x1 PUSH1 0x1 PUSH1 0xA0 SHL SUB DUP7 AND SWAP1 CALLER SWAP1 PUSH32 0x99039FCF0A98F484616C5196EE8B2ECFA971BABF0B519848289EA4DB381F85F7 SWAP1 PUSH1 0x20 ADD PUSH1 0x40 MLOAD DUP1 SWAP2 SUB SWAP1 LOG3 POP POP POP POP POP JUMP JUMPDEST ADDRESS PUSH1 0x1 PUSH1 0x1 PUSH1 0xA0 SHL SUB PUSH32 0x0 AND EQ ISZERO PUSH2 0xC3F JUMPI PUSH1 0x40 MLOAD PUSH3 0x461BCD PUSH1 0xE5 SHL DUP2 MSTORE PUSH1 0x4 ADD PUSH2 0x9C5 SWAP1 PUSH2 0x325D JUMP JUMPDEST PUSH32 0x0 PUSH1 0x1 PUSH1 0x1 PUSH1 0xA0 SHL SUB AND PUSH2 0xC88 PUSH1 0x0 DUP1 MLOAD PUSH1 0x20 PUSH2 0x34E0 DUP4 CODECOPY DUP2 MLOAD SWAP2 MSTORE SLOAD PUSH1 0x1 PUSH1 0x1 PUSH1 0xA0 SHL SUB AND SWAP1 JUMP JUMPDEST PUSH1 0x1 PUSH1 0x1 PUSH1 0xA0 SHL SUB AND EQ PUSH2 0xCAE JUMPI PUSH1 0x40 MLOAD PUSH3 0x461BCD PUSH1 0xE5 SHL DUP2 MSTORE PUSH1 0x4 ADD PUSH2 0x9C5 SWAP1 PUSH2 0x32A9 JUMP JUMPDEST PUSH2 0xCB7 DUP2 PUSH2 0x1DBD JUMP JUMPDEST PUSH1 0x40 DUP1 MLOAD PUSH1 0x0 DUP1 DUP3 MSTORE PUSH1 0x20 DUP3 ADD SWAP1 SWAP3 MSTORE PUSH2 0xCD3 SWAP2 DUP4 SWAP2 SWAP1 PUSH2 0x1E22 JUMP JUMPDEST POP JUMP JUMPDEST PUSH2 0xCDE PUSH2 0x1F9C JUMP JUMPDEST PUSH2 0xCE6 PUSH2 0x1FF6 JUMP JUMPDEST JUMP JUMPDEST PUSH1 0x0 PUSH2 0x93C PUSH2 0x12E DUP4 PUSH2 0x2048 JUMP JUMPDEST PUSH2 0xCFE PUSH2 0x1F9C JUMP JUMPDEST PUSH1 0x1 PUSH2 0xD0B PUSH2 0x12E PUSH2 0x206D JUMP JUMPDEST GT PUSH2 0xD62 JUMPI PUSH1 0x40 MLOAD PUSH3 0x461BCD PUSH1 0xE5 SHL DUP2 MSTORE PUSH1 0x20 PUSH1 0x4 DUP3 ADD MSTORE PUSH1 0x21 PUSH1 0x24 DUP3 ADD MSTORE PUSH32 0x43616E6E6F742072656D6F766520746865206F6E6C792076616C696461746F72 PUSH1 0x44 DUP3 ADD MSTORE PUSH1 0x17 PUSH1 0xF9 SHL PUSH1 0x64 DUP3 ADD MSTORE PUSH1 0x84 ADD PUSH2 0x9C5 JUMP JUMPDEST PUSH2 0xD6B DUP2 PUSH2 0xCE8 JUMP JUMPDEST PUSH2 0xD87 JUMPI PUSH1 0x40 MLOAD PUSH3 0x461BCD PUSH1 0xE5 SHL DUP2 MSTORE PUSH1 0x4 ADD PUSH2 0x9C5 SWAP1 PUSH2 0x3340 JUMP JUMPDEST PUSH1 0x0 DUP1 PUSH2 0xD92 PUSH2 0x1C9A JUMP JUMPDEST PUSH1 0x1 PUSH1 0x1 PUSH1 0xA0 SHL SUB DUP6 AND PUSH1 0x0 SWAP1 DUP2 MSTORE PUSH1 0x0 DUP1 MLOAD PUSH1 0x20 PUSH2 0x34C0 DUP4 CODECOPY DUP2 MLOAD SWAP2 MSTORE PUSH1 0x20 SWAP1 DUP2 MSTORE PUSH1 0x40 SWAP2 DUP3 SWAP1 KECCAK256 DUP3 MLOAD PUSH1 0x80 DUP2 ADD DUP5 MSTORE DUP2 SLOAD DUP2 MSTORE PUSH1 0x1 DUP3 ADD SLOAD SWAP3 DUP2 ADD SWAP3 SWAP1 SWAP3 MSTORE PUSH1 0x2 DUP2 ADD SLOAD SWAP3 DUP3 ADD SWAP3 SWAP1 SWAP3 MSTORE PUSH1 0x3 SWAP1 SWAP2 ADD SLOAD PUSH1 0x60 DUP3 ADD MSTORE SWAP2 SWAP4 POP SWAP2 POP PUSH2 0xDF9 DUP4 DUP3 PUSH2 0x1D3E JUMP JUMPDEST PUSH2 0xE03 DUP4 DUP3 PUSH2 0x1D93 JUMP JUMPDEST NUMBER PUSH1 0x60 DUP3 ADD SWAP1 DUP2 MSTORE PUSH1 0x1 PUSH1 0x1 PUSH1 0xA0 SHL SUB DUP6 AND PUSH1 0x0 SWAP1 DUP2 MSTORE PUSH1 0x0 DUP1 MLOAD PUSH1 0x20 PUSH2 0x34C0 DUP4 CODECOPY DUP2 MLOAD SWAP2 MSTORE PUSH1 0x20 SWAP1 DUP2 MSTORE PUSH1 0x40 SWAP2 DUP3 SWAP1 KECCAK256 DUP5 MLOAD DUP2 SSTORE SWAP1 DUP5 ADD MLOAD PUSH1 0x1 DUP3 ADD SSTORE SWAP1 DUP4 ADD MLOAD PUSH1 0x2 DUP3 ADD SSTORE SWAP1 MLOAD PUSH1 0x3 SWAP1 SWAP2 ADD SSTORE PUSH2 0xE5E PUSH2 0x12E DUP6 PUSH2 0x2077 JUMP JUMPDEST POP PUSH1 0x1 PUSH1 0x1 PUSH1 0xA0 SHL SUB DUP5 AND PUSH1 0x0 SWAP1 DUP2 MSTORE PUSH2 0x134 PUSH1 0x20 SWAP1 DUP2 MSTORE PUSH1 0x40 DUP3 KECCAK256 DUP5 MLOAD DUP2 SSTORE SWAP1 DUP5 ADD MLOAD PUSH1 0x1 SWAP1 SWAP2 ADD SSTORE DUP2 MLOAD PUSH2 0x13B DUP1 SLOAD SWAP2 SWAP3 SWAP1 SWAP2 PUSH2 0xE9E SWAP1 DUP5 SWAP1 PUSH2 0x3420 JUMP JUMPDEST SWAP1 SWAP2 SSTORE POP POP PUSH1 0x40 DUP1 MLOAD PUSH1 0x1 PUSH1 0x1 PUSH1 0xA0 SHL SUB DUP7 AND DUP2 MSTORE PUSH1 0x0 PUSH1 0x20 DUP3 ADD MSTORE PUSH32 0xD2B4A3AE4917617AAA5E6CAA5541A3331944D66BAA187EF6C350F1CE4012D819 SWAP2 ADD PUSH1 0x40 MLOAD DUP1 SWAP2 SUB SWAP1 LOG1 POP POP POP POP JUMP JUMPDEST PUSH1 0x0 SLOAD PUSH2 0x100 SWAP1 DIV PUSH1 0xFF AND ISZERO DUP1 DUP1 ISZERO PUSH2 0xF0B JUMPI POP PUSH1 0x0 SLOAD PUSH1 0x1 PUSH1 0xFF SWAP1 SWAP2 AND LT JUMPDEST DUP1 PUSH2 0xF25 JUMPI POP ADDRESS EXTCODESIZE ISZERO DUP1 ISZERO PUSH2 0xF25 JUMPI POP PUSH1 0x0 SLOAD PUSH1 0xFF AND PUSH1 0x1 EQ JUMPDEST PUSH2 0xF88 JUMPI PUSH1 0x40 MLOAD PUSH3 0x461BCD PUSH1 0xE5 SHL DUP2 MSTORE PUSH1 0x20 PUSH1 0x4 DUP3 ADD MSTORE PUSH1 0x2E PUSH1 0x24 DUP3 ADD MSTORE PUSH32 0x496E697469616C697A61626C653A20636F6E747261637420697320616C726561 PUSH1 0x44 DUP3 ADD MSTORE PUSH14 0x191E481A5B9A5D1A585B1A5E9959 PUSH1 0x92 SHL PUSH1 0x64 DUP3 ADD MSTORE PUSH1 0x84 ADD PUSH2 0x9C5 JUMP JUMPDEST PUSH1 0x0 DUP1 SLOAD PUSH1 0xFF NOT AND PUSH1 0x1 OR SWAP1 SSTORE DUP1 ISZERO PUSH2 0xFAB JUMPI PUSH1 0x0 DUP1 SLOAD PUSH2 0xFF00 NOT AND PUSH2 0x100 OR SWAP1 SSTORE JUMPDEST PUSH2 0xFB3 PUSH2 0x208C JUMP JUMPDEST PUSH2 0xFBB PUSH2 0x20BB JUMP JUMPDEST PUSH2 0xFC4 DUP4 PUSH2 0x20EA JUMP JUMPDEST PUSH2 0xFCC PUSH2 0x213C JUMP JUMPDEST PUSH2 0x12D DUP1 SLOAD PUSH1 0x1 PUSH1 0x1 PUSH1 0xA0 SHL SUB NOT AND CALLER OR SWAP1 SSTORE PUSH2 0x137 DUP1 SLOAD PUSH4 0xFFFFFFFF NOT AND PUSH1 0x15 OR SWAP1 SSTORE PUSH2 0x1001 PUSH8 0x4563918244F40000 PUSH2 0x2163 JUMP JUMPDEST PUSH2 0x100D PUSH3 0x93A80 PUSH2 0x21C9 JUMP JUMPDEST PUSH2 0x1016 DUP3 PUSH2 0x2220 JUMP JUMPDEST DUP1 ISZERO PUSH2 0x105C JUMPI PUSH1 0x0 DUP1 SLOAD PUSH2 0xFF00 NOT AND SWAP1 SSTORE PUSH1 0x40 MLOAD PUSH1 0x1 DUP2 MSTORE PUSH32 0x7F26B83FF96E1F2B6A682F133852F6798A09C465DA95921460CEFB3847402498 SWAP1 PUSH1 0x20 ADD PUSH1 0x40 MLOAD DUP1 SWAP2 SUB SWAP1 LOG1 JUMPDEST POP POP POP JUMP JUMPDEST PUSH2 0x1069 PUSH2 0x1F9C JUMP JUMPDEST PUSH2 0xCD3 DUP2 PUSH2 0x2220 JUMP JUMPDEST ADDRESS PUSH1 0x1 PUSH1 0x1 PUSH1 0xA0 SHL SUB PUSH32 0x0 AND EQ ISZERO PUSH2 0x10BB JUMPI PUSH1 0x40 MLOAD PUSH3 0x461BCD PUSH1 0xE5 SHL DUP2 MSTORE PUSH1 0x4 ADD PUSH2 0x9C5 SWAP1 PUSH2 0x325D JUMP JUMPDEST PUSH32 0x0 PUSH1 0x1 PUSH1 0x1 PUSH1 0xA0 SHL SUB AND PUSH2 0x1104 PUSH1 0x0 DUP1 MLOAD PUSH1 0x20 PUSH2 0x34E0 DUP4 CODECOPY DUP2 MLOAD SWAP2 MSTORE SLOAD PUSH1 0x1 PUSH1 0x1 PUSH1 0xA0 SHL SUB AND SWAP1 JUMP JUMPDEST PUSH1 0x1 PUSH1 0x1 PUSH1 0xA0 SHL SUB AND EQ PUSH2 0x112A JUMPI PUSH1 0x40 MLOAD PUSH3 0x461BCD PUSH1 0xE5 SHL DUP2 MSTORE PUSH1 0x4 ADD PUSH2 0x9C5 SWAP1 PUSH2 0x32A9 JUMP JUMPDEST PUSH2 0x1133 DUP3 PUSH2 0x1DBD JUMP JUMPDEST PUSH2 0x113F DUP3 DUP3 PUSH1 0x1 PUSH2 0x1E22 JUMP JUMPDEST POP POP JUMP JUMPDEST PUSH2 0x114B PUSH2 0x1F9C JUMP JUMPDEST PUSH2 0x1156 PUSH2 0x12E PUSH2 0x206D JUMP JUMPDEST DUP2 PUSH4 0xFFFFFFFF AND LT ISZERO PUSH2 0x11A2 JUMPI PUSH1 0x40 MLOAD PUSH3 0x461BCD PUSH1 0xE5 SHL DUP2 MSTORE PUSH1 0x20 PUSH1 0x4 DUP3 ADD MSTORE PUSH1 0x14 PUSH1 0x24 DUP3 ADD MSTORE PUSH20 0x24B73B30B634B2103634B6B4BA103B30B63AB297 PUSH1 0x61 SHL PUSH1 0x44 DUP3 ADD MSTORE PUSH1 0x64 ADD PUSH2 0x9C5 JUMP JUMPDEST PUSH2 0x137 DUP1 SLOAD PUSH4 0xFFFFFFFF NOT AND PUSH4 0xFFFFFFFF SWAP3 SWAP1 SWAP3 AND SWAP2 SWAP1 SWAP2 OR SWAP1 SSTORE JUMP JUMPDEST PUSH1 0x0 ADDRESS PUSH1 0x1 PUSH1 0x1 PUSH1 0xA0 SHL SUB PUSH32 0x0 AND EQ PUSH2 0x125F JUMPI PUSH1 0x40 MLOAD PUSH3 0x461BCD PUSH1 0xE5 SHL DUP2 MSTORE PUSH1 0x20 PUSH1 0x4 DUP3 ADD MSTORE PUSH1 0x38 PUSH1 0x24 DUP3 ADD MSTORE PUSH32 0x555550535570677261646561626C653A206D757374206E6F742062652063616C PUSH1 0x44 DUP3 ADD MSTORE PUSH32 0x6C6564207468726F7567682064656C656761746563616C6C0000000000000000 PUSH1 0x64 DUP3 ADD MSTORE PUSH1 0x84 ADD PUSH2 0x9C5 JUMP JUMPDEST POP PUSH1 0x0 DUP1 MLOAD PUSH1 0x20 PUSH2 0x34E0 DUP4 CODECOPY DUP2 MLOAD SWAP2 MSTORE SWAP1 JUMP JUMPDEST PUSH2 0x127A PUSH2 0x1F9C JUMP JUMPDEST PUSH2 0xCE6 PUSH1 0x0 PUSH2 0x20EA JUMP JUMPDEST PUSH2 0x128C PUSH2 0x1F9C JUMP JUMPDEST PUSH1 0x1 PUSH1 0x1 PUSH1 0xA0 SHL SUB DUP2 AND PUSH2 0x12E2 JUMPI PUSH1 0x40 MLOAD PUSH3 0x461BCD PUSH1 0xE5 SHL DUP2 MSTORE PUSH1 0x20 PUSH1 0x4 DUP3 ADD MSTORE PUSH1 0x17 PUSH1 0x24 DUP3 ADD MSTORE PUSH32 0x496E76616C6964206B656570657220616464726573732E000000000000000000 PUSH1 0x44 DUP3 ADD MSTORE PUSH1 0x64 ADD PUSH2 0x9C5 JUMP JUMPDEST PUSH2 0x12D DUP1 SLOAD PUSH1 0x1 PUSH1 0x1 PUSH1 0xA0 SHL SUB NOT AND PUSH1 0x1 PUSH1 0x1 PUSH1 0xA0 SHL SUB SWAP3 SWAP1 SWAP3 AND SWAP2 SWAP1 SWAP2 OR SWAP1 SSTORE JUMP JUMPDEST PUSH2 0x113F CALLER DUP4 DUP4 PUSH2 0x238A JUMP JUMPDEST PUSH2 0x1318 PUSH2 0x1F9C JUMP JUMPDEST PUSH2 0xCE6 PUSH2 0x253E JUMP JUMPDEST PUSH1 0x1 PUSH1 0x1 PUSH1 0xA0 SHL SUB DUP3 DUP2 AND PUSH1 0x0 DUP2 DUP2 MSTORE PUSH2 0x135 PUSH1 0x20 SWAP1 DUP2 MSTORE PUSH1 0x40 DUP1 DUP4 KECCAK256 SWAP5 DUP7 AND DUP4 MSTORE SWAP4 DUP2 MSTORE DUP4 DUP3 KECCAK256 DUP5 MLOAD PUSH1 0x80 DUP2 ADD DUP7 MSTORE DUP2 SLOAD DUP2 MSTORE PUSH1 0x1 DUP3 ADD SLOAD DUP2 DUP5 ADD MSTORE PUSH1 0x2 DUP3 ADD SLOAD DUP2 DUP8 ADD MSTORE PUSH1 0x3 SWAP1 SWAP2 ADD SLOAD PUSH1 0x60 DUP3 ADD MSTORE DUP5 MLOAD DUP1 DUP7 ADD SWAP1 SWAP6 MSTORE DUP3 DUP6 MSTORE SWAP1 DUP5 ADD DUP3 SWAP1 MSTORE SWAP1 SWAP3 SWAP1 SWAP2 PUSH2 0x13DC JUMPI PUSH2 0x1393 DUP5 PUSH2 0xCE8 JUMP JUMPDEST ISZERO PUSH2 0x13D0 JUMPI POP PUSH1 0x40 DUP1 MLOAD DUP1 DUP3 ADD SWAP1 SWAP2 MSTORE PUSH2 0x130 SLOAD DUP2 MSTORE PUSH2 0x131 SLOAD PUSH1 0x20 DUP3 ADD MSTORE PUSH2 0x138 SLOAD PUSH2 0x13B SLOAD PUSH2 0x13C5 SWAP2 DUP4 SWAP2 PUSH2 0x257B JUMP JUMPDEST POP PUSH2 0x13D0 DUP2 DUP4 PUSH2 0x1D3E JUMP JUMPDEST POP PUSH1 0x40 ADD MLOAD SWAP1 POP PUSH2 0x93C JUMP JUMPDEST PUSH2 0x13E5 DUP6 PUSH2 0xCE8 JUMP JUMPDEST ISZERO PUSH2 0x141D JUMPI POP PUSH1 0x40 DUP1 MLOAD DUP1 DUP3 ADD SWAP1 SWAP2 MSTORE PUSH2 0x132 SLOAD DUP2 MSTORE PUSH2 0x133 SLOAD PUSH1 0x20 DUP3 ADD MSTORE PUSH2 0x139 SLOAD PUSH2 0x13B SLOAD PUSH2 0x1417 SWAP2 DUP4 SWAP2 PUSH2 0x257B JUMP JUMPDEST POP PUSH2 0x1450 JUMP JUMPDEST POP PUSH1 0x1 PUSH1 0x1 PUSH1 0xA0 SHL SUB DUP5 AND PUSH1 0x0 SWAP1 DUP2 MSTORE PUSH2 0x134 PUSH1 0x20 SWAP1 DUP2 MSTORE PUSH1 0x40 SWAP2 DUP3 SWAP1 KECCAK256 DUP3 MLOAD DUP1 DUP5 ADD SWAP1 SWAP4 MSTORE DUP1 SLOAD DUP4 MSTORE PUSH1 0x1 ADD SLOAD SWAP1 DUP3 ADD MSTORE JUMPDEST PUSH2 0x145A DUP2 DUP4 PUSH2 0x1D3E JUMP JUMPDEST POP PUSH1 0x40 ADD MLOAD SWAP4 SWAP3 POP POP POP JUMP JUMPDEST PUSH2 0x146E PUSH2 0x1F9C JUMP JUMPDEST PUSH1 0x0 DUP2 GT PUSH2 0x14BE JUMPI PUSH1 0x40 MLOAD PUSH3 0x461BCD PUSH1 0xE5 SHL DUP2 MSTORE PUSH1 0x20 PUSH1 0x4 DUP3 ADD MSTORE PUSH1 0x19 PUSH1 0x24 DUP3 ADD MSTORE PUSH32 0x496E76616C6964207265776172642070657220626C6F636B2E00000000000000 PUSH1 0x44 DUP3 ADD MSTORE PUSH1 0x64 ADD PUSH2 0x9C5 JUMP JUMPDEST PUSH2 0x14C6 PUSH2 0x1C9A JUMP JUMPDEST POP POP PUSH2 0xCD3 DUP2 PUSH2 0x2163 JUMP JUMPDEST PUSH1 0x2 PUSH1 0x1 SLOAD EQ ISZERO PUSH2 0x1524 JUMPI PUSH1 0x40 MLOAD PUSH3 0x461BCD PUSH1 0xE5 SHL DUP2 MSTORE PUSH1 0x20 PUSH1 0x4 DUP3 ADD MSTORE PUSH1 0x1F PUSH1 0x24 DUP3 ADD MSTORE PUSH32 0x5265656E7472616E637947756172643A207265656E7472616E742063616C6C00 PUSH1 0x44 DUP3 ADD MSTORE PUSH1 0x64 ADD PUSH2 0x9C5 JUMP JUMPDEST PUSH1 0x2 PUSH1 0x1 SSTORE PUSH2 0x1531 PUSH2 0x1C54 JUMP JUMPDEST PUSH1 0x0 DUP1 PUSH2 0x153C PUSH2 0x1C9A JUMP JUMPDEST PUSH1 0x1 PUSH1 0x1 PUSH1 0xA0 SHL SUB DUP7 AND PUSH1 0x0 DUP2 DUP2 MSTORE PUSH1 0x0 DUP1 MLOAD PUSH1 0x20 PUSH2 0x34C0 DUP4 CODECOPY DUP2 MLOAD SWAP2 MSTORE PUSH1 0x20 SWAP1 DUP2 MSTORE PUSH1 0x40 DUP1 DUP4 KECCAK256 DUP2 MLOAD PUSH1 0x80 DUP1 DUP3 ADD DUP5 MSTORE DUP3 SLOAD DUP3 MSTORE PUSH1 0x1 DUP1 DUP5 ADD SLOAD DUP4 DUP8 ADD MSTORE PUSH1 0x2 DUP1 DUP6 ADD SLOAD DUP5 DUP8 ADD MSTORE PUSH1 0x3 SWAP5 DUP6 ADD SLOAD PUSH1 0x60 DUP1 DUP7 ADD SWAP2 SWAP1 SWAP2 MSTORE DUP10 DUP10 MSTORE PUSH2 0x135 DUP9 MSTORE DUP7 DUP10 KECCAK256 CALLER DUP11 MSTORE DUP9 MSTORE SWAP8 DUP7 SWAP1 KECCAK256 DUP7 MLOAD SWAP4 DUP5 ADD DUP8 MSTORE DUP1 SLOAD DUP5 MSTORE SWAP2 DUP3 ADD SLOAD SWAP7 DUP4 ADD SWAP7 SWAP1 SWAP7 MSTORE SWAP5 DUP6 ADD SLOAD SWAP4 DUP2 ADD SWAP4 SWAP1 SWAP4 MSTORE SWAP3 ADD SLOAD SWAP3 DUP2 ADD SWAP3 SWAP1 SWAP3 MSTORE SWAP4 SWAP6 POP SWAP2 SWAP4 POP ISZERO DUP1 ISZERO SWAP1 PUSH2 0x15EA JUMPI POP PUSH1 0x60 DUP2 ADD MLOAD ISZERO ISZERO JUMPDEST PUSH2 0x1636 JUMPI PUSH1 0x40 MLOAD PUSH3 0x461BCD PUSH1 0xE5 SHL DUP2 MSTORE PUSH1 0x20 PUSH1 0x4 DUP3 ADD MSTORE PUSH1 0x17 PUSH1 0x24 DUP3 ADD MSTORE PUSH32 0x5374616B65207265636F7264206E6F7420666F756E642E000000000000000000 PUSH1 0x44 DUP3 ADD MSTORE PUSH1 0x64 ADD PUSH2 0x9C5 JUMP JUMPDEST PUSH1 0x0 DUP1 PUSH2 0x1642 DUP9 PUSH2 0xCE8 JUMP JUMPDEST ISZERO PUSH2 0x169D JUMPI PUSH2 0x1651 DUP7 DUP6 PUSH2 0x1D3E JUMP JUMPDEST PUSH2 0x165B DUP6 DUP5 PUSH2 0x1D3E JUMP JUMPDEST PUSH2 0x1666 DUP5 DUP5 DUP10 PUSH2 0x25FE JUMP JUMPDEST SWAP1 SWAP3 POP SWAP1 POP PUSH2 0x1675 DUP7 DUP6 PUSH2 0x1D93 JUMP JUMPDEST PUSH2 0x167F DUP6 DUP5 PUSH2 0x1D93 JUMP JUMPDEST DUP2 PUSH2 0x13B PUSH1 0x0 DUP3 DUP3 SLOAD PUSH2 0x1692 SWAP2 SWAP1 PUSH2 0x3420 JUMP JUMPDEST SWAP1 SWAP2 SSTORE POP PUSH2 0x16F4 SWAP1 POP JUMP JUMPDEST PUSH1 0x1 PUSH1 0x1 PUSH1 0xA0 SHL SUB DUP9 AND PUSH1 0x0 SWAP1 DUP2 MSTORE PUSH2 0x134 PUSH1 0x20 SWAP1 DUP2 MSTORE PUSH1 0x40 SWAP2 DUP3 SWAP1 KECCAK256 DUP3 MLOAD DUP1 DUP5 ADD SWAP1 SWAP4 MSTORE DUP1 SLOAD DUP4 MSTORE PUSH1 0x1 ADD SLOAD SWAP1 DUP3 ADD MSTORE SWAP5 POP PUSH2 0x16DA DUP6 DUP5 PUSH2 0x1D3E JUMP JUMPDEST PUSH2 0x16E5 DUP5 DUP5 DUP10 PUSH2 0x25FE JUMP JUMPDEST SWAP1 SWAP3 POP SWAP1 POP PUSH2 0x16F4 DUP6 DUP5 PUSH2 0x1D93 JUMP JUMPDEST NUMBER PUSH1 0x60 DUP1 DUP7 ADD DUP3 DUP2 MSTORE SWAP1 DUP6 ADD SWAP2 DUP3 MSTORE PUSH1 0x1 PUSH1 0x1 PUSH1 0xA0 SHL SUB DUP11 AND PUSH1 0x0 SWAP1 DUP2 MSTORE PUSH1 0x0 DUP1 MLOAD PUSH1 0x20 PUSH2 0x34C0 DUP4 CODECOPY DUP2 MLOAD SWAP2 MSTORE PUSH1 0x20 SWAP1 DUP2 MSTORE PUSH1 0x40 DUP1 DUP4 KECCAK256 DUP10 MLOAD DUP2 SSTORE DUP3 DUP11 ADD MLOAD PUSH1 0x1 DUP1 DUP4 ADD SWAP2 SWAP1 SWAP2 SSTORE DUP3 DUP12 ADD MLOAD PUSH1 0x2 DUP1 DUP5 ADD SWAP2 SWAP1 SWAP2 SSTORE SWAP6 MLOAD PUSH1 0x3 SWAP3 DUP4 ADD SSTORE PUSH2 0x135 DUP5 MSTORE DUP3 DUP6 KECCAK256 CALLER DUP7 MSTORE DUP5 MSTORE DUP3 DUP6 KECCAK256 DUP11 MLOAD DUP2 SSTORE SWAP4 DUP11 ADD MLOAD SWAP1 DUP5 ADD SSTORE SWAP1 DUP9 ADD MLOAD SWAP4 DUP3 ADD SWAP4 SWAP1 SWAP4 SSTORE SWAP3 MLOAD SWAP3 SWAP1 SWAP2 ADD SWAP2 SWAP1 SWAP2 SSTORE PUSH2 0x13A DUP1 SLOAD DUP5 SWAP3 SWAP1 PUSH2 0x1795 SWAP1 DUP5 SWAP1 PUSH2 0x3420 JUMP JUMPDEST SWAP1 SWAP2 SSTORE POP POP PUSH1 0x40 DUP1 MLOAD DUP4 DUP2 MSTORE PUSH1 0x20 DUP2 ADD DUP4 SWAP1 MSTORE PUSH1 0x1 PUSH1 0x1 PUSH1 0xA0 SHL SUB DUP11 AND SWAP2 CALLER SWAP2 PUSH32 0x18EDD09E80386CD99DF397E2E0D87D2BB259423EAE08645E776321A36FE680EF SWAP2 ADD PUSH1 0x40 MLOAD DUP1 SWAP2 SUB SWAP1 LOG3 PUSH2 0x17F3 CALLER PUSH2 0x17EE DUP4 DUP6 PUSH2 0x33C9 JUMP JUMPDEST PUSH2 0x26E5 JUMP JUMPDEST POP POP PUSH1 0x1 DUP1 SSTORE POP POP POP POP POP POP JUMP JUMPDEST PUSH1 0x60 PUSH2 0x180E PUSH2 0x12E PUSH2 0x281D JUMP JUMPDEST SWAP1 POP SWAP1 JUMP JUMPDEST PUSH1 0x0 PUSH2 0x93C DUP3 TIMESTAMP PUSH2 0x881 JUMP JUMPDEST PUSH1 0x2 PUSH1 0x1 SLOAD EQ ISZERO PUSH2 0x1872 JUMPI PUSH1 0x40 MLOAD PUSH3 0x461BCD PUSH1 0xE5 SHL DUP2 MSTORE PUSH1 0x20 PUSH1 0x4 DUP3 ADD MSTORE PUSH1 0x1F PUSH1 0x24 DUP3 ADD MSTORE PUSH32 0x5265656E7472616E637947756172643A207265656E7472616E742063616C6C00 PUSH1 0x44 DUP3 ADD MSTORE PUSH1 0x64 ADD PUSH2 0x9C5 JUMP JUMPDEST PUSH1 0x2 PUSH1 0x1 SSTORE PUSH2 0x187F PUSH2 0x1C54 JUMP JUMPDEST PUSH1 0x0 PUSH2 0x1889 PUSH2 0x1C9A JUMP JUMPDEST POP CALLER PUSH1 0x0 DUP2 DUP2 MSTORE PUSH1 0x0 DUP1 MLOAD PUSH1 0x20 PUSH2 0x34C0 DUP4 CODECOPY DUP2 MLOAD SWAP2 MSTORE PUSH1 0x20 SWAP1 DUP2 MSTORE PUSH1 0x40 SWAP2 DUP3 SWAP1 KECCAK256 DUP3 MLOAD PUSH1 0x80 DUP2 ADD DUP5 MSTORE DUP2 SLOAD DUP2 MSTORE PUSH1 0x1 DUP3 ADD SLOAD SWAP3 DUP2 ADD SWAP3 SWAP1 SWAP3 MSTORE PUSH1 0x2 DUP2 ADD SLOAD SWAP3 DUP3 ADD SWAP3 SWAP1 SWAP3 MSTORE PUSH1 0x3 SWAP1 SWAP2 ADD SLOAD PUSH1 0x60 DUP3 ADD MSTORE SWAP2 SWAP3 POP PUSH2 0x18E5 SWAP1 PUSH2 0xCE8 JUMP JUMPDEST ISZERO PUSH2 0x18FE JUMPI PUSH2 0x18F4 DUP3 DUP3 PUSH2 0x1D3E JUMP JUMPDEST PUSH2 0x18FE DUP3 DUP3 PUSH2 0x1D93 JUMP JUMPDEST PUSH1 0x0 DUP4 GT DUP1 ISZERO PUSH2 0x1912 JUMPI POP DUP1 PUSH1 0x40 ADD MLOAD DUP4 GT ISZERO JUMPDEST PUSH2 0x196E JUMPI PUSH1 0x40 MLOAD PUSH3 0x461BCD PUSH1 0xE5 SHL DUP2 MSTORE PUSH1 0x20 PUSH1 0x4 DUP3 ADD MSTORE PUSH1 0x27 PUSH1 0x24 DUP3 ADD MSTORE PUSH32 0x496E76616C696420616D6F756E74206F7220696E73756666696369656E742062 PUSH1 0x44 DUP3 ADD MSTORE PUSH7 0x30B630B731B297 PUSH1 0xC9 SHL PUSH1 0x64 DUP3 ADD MSTORE PUSH1 0x84 ADD PUSH2 0x9C5 JUMP JUMPDEST DUP3 DUP2 PUSH1 0x40 ADD DUP2 DUP2 MLOAD PUSH2 0x1980 SWAP2 SWAP1 PUSH2 0x3420 JUMP JUMPDEST SWAP1 MSTORE POP NUMBER PUSH1 0x60 DUP3 ADD SWAP1 DUP2 MSTORE CALLER PUSH1 0x0 DUP2 DUP2 MSTORE PUSH1 0x0 DUP1 MLOAD PUSH1 0x20 PUSH2 0x34C0 DUP4 CODECOPY DUP2 MLOAD SWAP2 MSTORE PUSH1 0x20 SWAP1 DUP2 MSTORE PUSH1 0x40 SWAP2 DUP3 SWAP1 KECCAK256 DUP6 MLOAD DUP2 SSTORE SWAP1 DUP6 ADD MLOAD PUSH1 0x1 DUP3 ADD SSTORE SWAP1 DUP5 ADD MLOAD PUSH1 0x2 DUP3 ADD SSTORE SWAP2 MLOAD PUSH1 0x3 SWAP1 SWAP3 ADD SWAP2 SWAP1 SWAP2 SSTORE PUSH2 0x19D6 SWAP1 DUP5 PUSH2 0x26E5 JUMP JUMPDEST POP POP PUSH1 0x1 DUP1 SSTORE POP JUMP JUMPDEST PUSH2 0x19E7 PUSH2 0x1F9C JUMP JUMPDEST PUSH1 0x1 PUSH1 0x1 PUSH1 0xA0 SHL SUB DUP2 AND PUSH2 0x1A4C JUMPI PUSH1 0x40 MLOAD PUSH3 0x461BCD PUSH1 0xE5 SHL DUP2 MSTORE PUSH1 0x20 PUSH1 0x4 DUP3 ADD MSTORE PUSH1 0x26 PUSH1 0x24 DUP3 ADD MSTORE PUSH32 0x4F776E61626C653A206E6577206F776E657220697320746865207A65726F2061 PUSH1 0x44 DUP3 ADD MSTORE PUSH6 0x646472657373 PUSH1 0xD0 SHL PUSH1 0x64 DUP3 ADD MSTORE PUSH1 0x84 ADD PUSH2 0x9C5 JUMP JUMPDEST PUSH2 0xCD3 DUP2 PUSH2 0x20EA JUMP JUMPDEST PUSH1 0x1 PUSH1 0x1 PUSH1 0xA0 SHL SUB DUP2 AND PUSH1 0x0 SWAP1 DUP2 MSTORE PUSH2 0x136 PUSH1 0x20 MSTORE PUSH1 0x40 DUP2 KECCAK256 PUSH1 0x60 SWAP2 PUSH2 0x1A8D DUP3 SLOAD PUSH1 0xF DUP2 DUP2 SIGNEXTEND DUP2 SIGNEXTEND PUSH1 0x1 PUSH1 0x80 SHL SWAP1 SWAP3 DIV DUP2 SIGNEXTEND SWAP1 SIGNEXTEND SUB SWAP1 JUMP JUMPDEST SWAP1 POP DUP1 PUSH8 0xFFFFFFFFFFFFFFFF DUP2 GT ISZERO PUSH2 0x1AB6 JUMPI PUSH4 0x4E487B71 PUSH1 0xE0 SHL PUSH1 0x0 MSTORE PUSH1 0x41 PUSH1 0x4 MSTORE PUSH1 0x24 PUSH1 0x0 REVERT JUMPDEST PUSH1 0x40 MLOAD SWAP1 DUP1 DUP3 MSTORE DUP1 PUSH1 0x20 MUL PUSH1 0x20 ADD DUP3 ADD PUSH1 0x40 MSTORE DUP1 ISZERO PUSH2 0x1AFB JUMPI DUP2 PUSH1 0x20 ADD JUMPDEST PUSH1 0x40 DUP1 MLOAD DUP1 DUP3 ADD SWAP1 SWAP2 MSTORE PUSH1 0x0 DUP1 DUP3 MSTORE PUSH1 0x20 DUP3 ADD MSTORE DUP2 MSTORE PUSH1 0x20 ADD SWAP1 PUSH1 0x1 SWAP1 SUB SWAP1 DUP2 PUSH2 0x1AD4 JUMPI SWAP1 POP JUMPDEST POP SWAP3 POP PUSH1 0x0 JUMPDEST DUP2 DUP2 LT ISZERO PUSH2 0x1B70 JUMPI PUSH1 0x0 DUP1 PUSH2 0x1B19 PUSH2 0x8D5 DUP7 DUP6 PUSH2 0x1BD9 JUMP JUMPDEST SWAP2 POP SWAP2 POP PUSH1 0x40 MLOAD DUP1 PUSH1 0x40 ADD PUSH1 0x40 MSTORE DUP1 DUP4 DUP2 MSTORE PUSH1 0x20 ADD DUP3 DUP2 MSTORE POP DUP7 DUP5 DUP2 MLOAD DUP2 LT PUSH2 0x1B52 JUMPI PUSH4 0x4E487B71 PUSH1 0xE0 SHL PUSH1 0x0 MSTORE PUSH1 0x32 PUSH1 0x4 MSTORE PUSH1 0x24 PUSH1 0x0 REVERT JUMPDEST PUSH1 0x20 MUL PUSH1 0x20 ADD ADD DUP2 SWAP1 MSTORE POP POP POP DUP1 PUSH2 0x1B69 SWAP1 PUSH2 0x3463 JUMP JUMPDEST SWAP1 POP PUSH2 0x1B01 JUMP JUMPDEST POP POP POP SWAP2 SWAP1 POP JUMP JUMPDEST PUSH2 0x1B80 PUSH2 0x1F9C JUMP JUMPDEST PUSH3 0x15180 DUP2 PUSH4 0xFFFFFFFF AND LT ISZERO PUSH2 0x1BD0 JUMPI PUSH1 0x40 MLOAD PUSH3 0x461BCD PUSH1 0xE5 SHL DUP2 MSTORE PUSH1 0x20 PUSH1 0x4 DUP3 ADD MSTORE PUSH1 0x14 PUSH1 0x24 DUP3 ADD MSTORE PUSH20 0x24B73B30B634B2103637B1B5903832B934B7B217 PUSH1 0x61 SHL PUSH1 0x44 DUP3 ADD MSTORE PUSH1 0x64 ADD PUSH2 0x9C5 JUMP JUMPDEST PUSH2 0xCD3 DUP2 PUSH2 0x21C9 JUMP JUMPDEST PUSH1 0x0 DUP1 PUSH2 0x1C00 PUSH2 0x1BE8 DUP5 PUSH2 0x282A JUMP JUMPDEST DUP6 SLOAD PUSH2 0x1BFB SWAP2 SWAP1 PUSH1 0xF SWAP1 DUP2 SIGNEXTEND SWAP1 SIGNEXTEND PUSH2 0x3388 JUMP JUMPDEST PUSH2 0x2898 JUMP JUMPDEST DUP5 SLOAD SWAP1 SWAP2 POP PUSH1 0x1 PUSH1 0x80 SHL SWAP1 DIV PUSH1 0xF SWAP1 DUP2 SIGNEXTEND DUP2 SIGNEXTEND SWAP1 DUP3 SWAP1 SIGNEXTEND SLT PUSH2 0x1C35 JUMPI PUSH1 0x40 MLOAD PUSH4 0x2D0483C5 PUSH1 0xE2 SHL DUP2 MSTORE PUSH1 0x4 ADD PUSH1 0x40 MLOAD DUP1 SWAP2 SUB SWAP1 REVERT JUMPDEST PUSH1 0xF SWAP1 DUP2 SIGNEXTEND SWAP1 SIGNEXTEND PUSH1 0x0 SWAP1 DUP2 MSTORE PUSH1 0x1 SWAP4 SWAP1 SWAP4 ADD PUSH1 0x20 MSTORE POP POP PUSH1 0x40 SWAP1 KECCAK256 SLOAD SWAP1 JUMP JUMPDEST PUSH1 0x65 SLOAD PUSH1 0xFF AND ISZERO PUSH2 0xCE6 JUMPI PUSH1 0x40 MLOAD PUSH3 0x461BCD PUSH1 0xE5 SHL DUP2 MSTORE PUSH1 0x20 PUSH1 0x4 DUP3 ADD MSTORE PUSH1 0x10 PUSH1 0x24 DUP3 ADD MSTORE PUSH16 0x14185D5CD8589B194E881C185D5CD959 PUSH1 0x82 SHL PUSH1 0x44 DUP3 ADD MSTORE PUSH1 0x64 ADD PUSH2 0x9C5 JUMP JUMPDEST PUSH1 0x40 DUP1 MLOAD DUP1 DUP3 ADD SWAP1 SWAP2 MSTORE PUSH1 0x0 DUP1 DUP3 MSTORE PUSH1 0x20 DUP3 ADD MSTORE PUSH1 0x40 DUP1 MLOAD DUP1 DUP3 ADD SWAP1 SWAP2 MSTORE PUSH1 0x0 DUP1 DUP3 MSTORE PUSH1 0x20 DUP3 ADD MSTORE PUSH1 0x40 DUP1 MLOAD DUP1 DUP3 ADD SWAP1 SWAP2 MSTORE PUSH2 0x130 SLOAD DUP2 MSTORE PUSH2 0x131 SLOAD PUSH1 0x20 DUP3 ADD MSTORE PUSH2 0x138 SLOAD PUSH2 0x13B SLOAD PUSH2 0x1CEE SWAP3 SWAP2 SWAP1 PUSH2 0x257B JUMP JUMPDEST PUSH1 0x40 DUP1 MLOAD DUP1 DUP3 ADD SWAP1 SWAP2 MSTORE PUSH2 0x132 SLOAD DUP2 MSTORE PUSH2 0x133 SLOAD PUSH1 0x20 DUP3 ADD MSTORE PUSH2 0x139 SLOAD PUSH2 0x13B SLOAD SWAP3 SWAP5 POP PUSH2 0x1D1B SWAP3 PUSH2 0x257B JUMP JUMPDEST DUP3 MLOAD PUSH2 0x130 SSTORE PUSH1 0x20 DUP1 DUP5 ADD MLOAD PUSH2 0x131 SSTORE DUP2 MLOAD PUSH2 0x132 SSTORE DUP2 ADD MLOAD PUSH2 0x133 SSTORE SWAP2 SWAP3 SWAP1 POP JUMP JUMPDEST PUSH1 0x60 DUP2 ADD MLOAD PUSH2 0x1D4B JUMPI POP POP JUMP JUMPDEST PUSH1 0x20 DUP2 ADD MLOAD DUP3 MLOAD DUP3 MLOAD PUSH8 0xDE0B6B3A7640000 SWAP2 PUSH2 0x1D67 SWAP2 PUSH2 0x3401 JUMP JUMPDEST PUSH2 0x1D71 SWAP2 SWAP1 PUSH2 0x33E1 JUMP JUMPDEST PUSH2 0x1D7B SWAP2 SWAP1 PUSH2 0x3420 JUMP JUMPDEST DUP2 PUSH1 0x40 ADD DUP2 DUP2 MLOAD PUSH2 0x1D8C SWAP2 SWAP1 PUSH2 0x33C9 JUMP JUMPDEST SWAP1 MSTORE POP POP POP JUMP JUMPDEST DUP2 MLOAD DUP2 MLOAD PUSH8 0xDE0B6B3A7640000 SWAP2 PUSH2 0x1DAA SWAP2 PUSH2 0x3401 JUMP JUMPDEST PUSH2 0x1DB4 SWAP2 SWAP1 PUSH2 0x33E1 JUMP JUMPDEST PUSH1 0x20 SWAP1 SWAP2 ADD MSTORE POP JUMP JUMPDEST PUSH2 0x12D SLOAD PUSH1 0x1 PUSH1 0x1 PUSH1 0xA0 SHL SUB AND CALLER EQ PUSH2 0xCD3 JUMPI PUSH1 0x40 MLOAD PUSH3 0x461BCD PUSH1 0xE5 SHL DUP2 MSTORE PUSH1 0x20 PUSH1 0x4 DUP3 ADD MSTORE PUSH1 0x21 PUSH1 0x24 DUP3 ADD MSTORE PUSH32 0x4F6E6C79206B65657065722063616E207570677261646520636F6E7472616374 PUSH1 0x44 DUP3 ADD MSTORE PUSH1 0x17 PUSH1 0xF9 SHL PUSH1 0x64 DUP3 ADD MSTORE PUSH1 0x84 ADD PUSH2 0x9C5 JUMP JUMPDEST PUSH32 0x4910FDFA16FED3260ED0E7147F7CC6DA11A60208B5B9406D12A635614FFD9143 SLOAD PUSH1 0xFF AND ISZERO PUSH2 0x1E55 JUMPI PUSH2 0x105C DUP4 PUSH2 0x2927 JUMP JUMPDEST DUP3 PUSH1 0x1 PUSH1 0x1 PUSH1 0xA0 SHL SUB AND PUSH4 0x52D1902D PUSH1 0x40 MLOAD DUP2 PUSH4 0xFFFFFFFF AND PUSH1 0xE0 SHL DUP2 MSTORE PUSH1 0x4 ADD PUSH1 0x20 PUSH1 0x40 MLOAD DUP1 DUP4 SUB DUP2 DUP7 DUP1 EXTCODESIZE ISZERO DUP1 ISZERO PUSH2 0x1E8E JUMPI PUSH1 0x0 DUP1 REVERT JUMPDEST POP GAS STATICCALL SWAP3 POP POP POP DUP1 ISZERO PUSH2 0x1EBE JUMPI POP PUSH1 0x40 DUP1 MLOAD PUSH1 0x1F RETURNDATASIZE SWAP1 DUP2 ADD PUSH1 0x1F NOT AND DUP3 ADD SWAP1 SWAP3 MSTORE PUSH2 0x1EBB SWAP2 DUP2 ADD SWAP1 PUSH2 0x311E JUMP JUMPDEST PUSH1 0x1 JUMPDEST PUSH2 0x1F21 JUMPI PUSH1 0x40 MLOAD PUSH3 0x461BCD PUSH1 0xE5 SHL DUP2 MSTORE PUSH1 0x20 PUSH1 0x4 DUP3 ADD MSTORE PUSH1 0x2E PUSH1 0x24 DUP3 ADD MSTORE PUSH32 0x45524331393637557067726164653A206E657720696D706C656D656E74617469 PUSH1 0x44 DUP3 ADD MSTORE PUSH14 0x6F6E206973206E6F742055555053 PUSH1 0x90 SHL PUSH1 0x64 DUP3 ADD MSTORE PUSH1 0x84 ADD PUSH2 0x9C5 JUMP JUMPDEST PUSH1 0x0 DUP1 MLOAD PUSH1 0x20 PUSH2 0x34E0 DUP4 CODECOPY DUP2 MLOAD SWAP2 MSTORE DUP2 EQ PUSH2 0x1F90 JUMPI PUSH1 0x40 MLOAD PUSH3 0x461BCD PUSH1 0xE5 SHL DUP2 MSTORE PUSH1 0x20 PUSH1 0x4 DUP3 ADD MSTORE PUSH1 0x29 PUSH1 0x24 DUP3 ADD MSTORE PUSH32 0x45524331393637557067726164653A20756E737570706F727465642070726F78 PUSH1 0x44 DUP3 ADD MSTORE PUSH9 0x1A58589B1955555251 PUSH1 0xBA SHL PUSH1 0x64 DUP3 ADD MSTORE PUSH1 0x84 ADD PUSH2 0x9C5 JUMP JUMPDEST POP PUSH2 0x105C DUP4 DUP4 DUP4 PUSH2 0x29C3 JUMP JUMPDEST PUSH1 0x97 SLOAD PUSH1 0x1 PUSH1 0x1 PUSH1 0xA0 SHL SUB AND CALLER EQ PUSH2 0xCE6 JUMPI PUSH1 0x40 MLOAD PUSH3 0x461BCD PUSH1 0xE5 SHL DUP2 MSTORE PUSH1 0x20 PUSH1 0x4 DUP3 ADD DUP2 SWAP1 MSTORE PUSH1 0x24 DUP3 ADD MSTORE PUSH32 0x4F776E61626C653A2063616C6C6572206973206E6F7420746865206F776E6572 PUSH1 0x44 DUP3 ADD MSTORE PUSH1 0x64 ADD PUSH2 0x9C5 JUMP JUMPDEST PUSH2 0x1FFE PUSH2 0x29EE JUMP JUMPDEST PUSH1 0x65 DUP1 SLOAD PUSH1 0xFF NOT AND SWAP1 SSTORE PUSH32 0x5DB9EE0A495BF2E6FF9C91A7834C1BA4FDD244A5E8AA4E537BD38AEAE4B073AA CALLER JUMPDEST PUSH1 0x40 MLOAD PUSH1 0x1 PUSH1 0x1 PUSH1 0xA0 SHL SUB SWAP1 SWAP2 AND DUP2 MSTORE PUSH1 0x20 ADD PUSH1 0x40 MLOAD DUP1 SWAP2 SUB SWAP1 LOG1 JUMP JUMPDEST PUSH1 0x1 PUSH1 0x1 PUSH1 0xA0 SHL SUB DUP2 AND PUSH1 0x0 SWAP1 DUP2 MSTORE PUSH1 0x1 DUP4 ADD PUSH1 0x20 MSTORE PUSH1 0x40 DUP2 KECCAK256 SLOAD ISZERO ISZERO JUMPDEST SWAP4 SWAP3 POP POP POP JUMP JUMPDEST PUSH1 0x0 PUSH2 0x93C DUP3 SLOAD SWAP1 JUMP JUMPDEST PUSH1 0x0 PUSH2 0x2066 DUP4 PUSH1 0x1 PUSH1 0x1 PUSH1 0xA0 SHL SUB DUP5 AND PUSH2 0x2A37 JUMP JUMPDEST PUSH1 0x0 SLOAD PUSH2 0x100 SWAP1 DIV PUSH1 0xFF AND PUSH2 0x20B3 JUMPI PUSH1 0x40 MLOAD PUSH3 0x461BCD PUSH1 0xE5 SHL DUP2 MSTORE PUSH1 0x4 ADD PUSH2 0x9C5 SWAP1 PUSH2 0x32F5 JUMP JUMPDEST PUSH2 0xCE6 PUSH2 0x2B54 JUMP JUMPDEST PUSH1 0x0 SLOAD PUSH2 0x100 SWAP1 DIV PUSH1 0xFF AND PUSH2 0x20E2 JUMPI PUSH1 0x40 MLOAD PUSH3 0x461BCD PUSH1 0xE5 SHL DUP2 MSTORE PUSH1 0x4 ADD PUSH2 0x9C5 SWAP1 PUSH2 0x32F5 JUMP JUMPDEST PUSH2 0xCE6 PUSH2 0x2B81 JUMP JUMPDEST PUSH1 0x97 DUP1 SLOAD PUSH1 0x1 PUSH1 0x1 PUSH1 0xA0 SHL SUB DUP4 DUP2 AND PUSH1 0x1 PUSH1 0x1 PUSH1 0xA0 SHL SUB NOT DUP4 AND DUP2 OR SWAP1 SWAP4 SSTORE PUSH1 0x40 MLOAD SWAP2 AND SWAP2 SWAP1 DUP3 SWAP1 PUSH32 0x8BE0079C531659141344CD1FD0A4F28419497F9722A3DAAFE3B4186F6B6457E0 SWAP1 PUSH1 0x0 SWAP1 LOG3 POP POP JUMP JUMPDEST PUSH1 0x0 SLOAD PUSH2 0x100 SWAP1 DIV PUSH1 0xFF AND PUSH2 0xCE6 JUMPI PUSH1 0x40 MLOAD PUSH3 0x461BCD PUSH1 0xE5 SHL DUP2 MSTORE PUSH1 0x4 ADD PUSH2 0x9C5 SWAP1 PUSH2 0x32F5 JUMP JUMPDEST PUSH2 0x216E PUSH1 0x5 DUP3 PUSH2 0x33E1 JUMP JUMPDEST PUSH2 0x138 DUP2 SWAP1 SSTORE PUSH2 0x217E SWAP1 DUP3 PUSH2 0x3420 JUMP JUMPDEST PUSH2 0x139 DUP2 SWAP1 SSTORE PUSH2 0x138 SLOAD PUSH1 0x40 MLOAD PUSH32 0x79A5349732F93288ABBB68E251C3DFC325BF3EE6FDE7786D919155D39733E0F5 SWAP3 PUSH2 0x21BE SWAP3 DUP3 MSTORE PUSH1 0x20 DUP3 ADD MSTORE PUSH1 0x40 ADD SWAP1 JUMP JUMPDEST PUSH1 0x40 MLOAD DUP1 SWAP2 SUB SWAP1 LOG1 POP JUMP JUMPDEST PUSH2 0x137 DUP1 SLOAD PUSH8 0xFFFFFFFF00000000 NOT AND PUSH5 0x100000000 PUSH4 0xFFFFFFFF DUP5 AND SWAP1 DUP2 MUL SWAP2 SWAP1 SWAP2 OR SWAP1 SWAP2 SSTORE PUSH1 0x40 MLOAD SWAP1 DUP2 MSTORE PUSH32 0x401DAE40EDAC291EC00AD4F9E16968C6C86B73FCD6FAAD7E35A55A27FA64D048 SWAP1 PUSH1 0x20 ADD PUSH2 0x21BE JUMP JUMPDEST PUSH1 0x1 PUSH1 0x1 PUSH1 0xA0 SHL SUB DUP2 AND PUSH2 0x2269 JUMPI PUSH1 0x40 MLOAD PUSH3 0x461BCD PUSH1 0xE5 SHL DUP2 MSTORE PUSH1 0x20 PUSH1 0x4 DUP3 ADD MSTORE PUSH1 0x10 PUSH1 0x24 DUP3 ADD MSTORE PUSH16 0x24B73B30B634B21030B2323932B9B997 PUSH1 0x81 SHL PUSH1 0x44 DUP3 ADD MSTORE PUSH1 0x64 ADD PUSH2 0x9C5 JUMP JUMPDEST PUSH2 0x137 SLOAD PUSH4 0xFFFFFFFF AND PUSH2 0x227E PUSH2 0x12E PUSH2 0x206D JUMP JUMPDEST LT PUSH2 0x22C2 JUMPI PUSH1 0x40 MLOAD PUSH3 0x461BCD PUSH1 0xE5 SHL DUP2 MSTORE PUSH1 0x20 PUSH1 0x4 DUP3 ADD MSTORE PUSH1 0x14 PUSH1 0x24 DUP3 ADD MSTORE PUSH20 0x2B30B634B230BA37B9399030B93290333AB63617 PUSH1 0x61 SHL PUSH1 0x44 DUP3 ADD MSTORE PUSH1 0x64 ADD PUSH2 0x9C5 JUMP JUMPDEST PUSH2 0x22CB DUP2 PUSH2 0xCE8 JUMP JUMPDEST ISZERO DUP1 ISZERO PUSH2 0x22F2 JUMPI POP PUSH1 0x1 PUSH1 0x1 PUSH1 0xA0 SHL SUB DUP2 AND PUSH1 0x0 SWAP1 DUP2 MSTORE PUSH2 0x134 PUSH1 0x20 MSTORE PUSH1 0x40 SWAP1 KECCAK256 PUSH1 0x1 ADD SLOAD ISZERO JUMPDEST PUSH2 0x233E JUMPI PUSH1 0x40 MLOAD PUSH3 0x461BCD PUSH1 0xE5 SHL DUP2 MSTORE PUSH1 0x20 PUSH1 0x4 DUP3 ADD MSTORE PUSH1 0x19 PUSH1 0x24 DUP3 ADD MSTORE PUSH32 0x56616C696461746F7220686164206265656E2061646465642E00000000000000 PUSH1 0x44 DUP3 ADD MSTORE PUSH1 0x64 ADD PUSH2 0x9C5 JUMP JUMPDEST PUSH2 0x234A PUSH2 0x12E DUP3 PUSH2 0x2BB4 JUMP JUMPDEST POP PUSH1 0x40 DUP1 MLOAD PUSH1 0x1 PUSH1 0x1 PUSH1 0xA0 SHL SUB DUP4 AND DUP2 MSTORE PUSH1 0x1 PUSH1 0x20 DUP3 ADD MSTORE PUSH32 0xD2B4A3AE4917617AAA5E6CAA5541A3331944D66BAA187EF6C350F1CE4012D819 SWAP2 ADD PUSH2 0x21BE JUMP JUMPDEST PUSH1 0x1 PUSH1 0x1 PUSH1 0xA0 SHL SUB DUP4 AND PUSH1 0x0 SWAP1 DUP2 MSTORE PUSH2 0x136 PUSH1 0x20 MSTORE PUSH1 0x40 DUP2 KECCAK256 SWAP1 JUMPDEST DUP2 SLOAD PUSH1 0xF DUP2 DUP2 SIGNEXTEND DUP2 SIGNEXTEND PUSH1 0x1 PUSH1 0x80 SHL SWAP1 SWAP3 DIV DUP2 SIGNEXTEND SWAP1 SIGNEXTEND SGT ISZERO PUSH2 0x2487 JUMPI PUSH1 0x0 DUP1 PUSH2 0x23CF PUSH2 0x8D5 DUP6 PUSH2 0x2BC9 JUMP JUMPDEST PUSH2 0x137 SLOAD SWAP2 SWAP4 POP SWAP2 POP TIMESTAMP SWAP1 PUSH2 0x23F2 SWAP1 PUSH5 0x100000000 SWAP1 DIV PUSH4 0xFFFFFFFF AND DUP4 PUSH2 0x33C9 JUMP JUMPDEST GT ISZERO PUSH2 0x23FF JUMPI POP POP PUSH2 0x2487 JUMP JUMPDEST PUSH2 0x2409 DUP3 DUP5 PUSH2 0x33C9 JUMP JUMPDEST SWAP3 POP PUSH2 0x2414 DUP5 PUSH2 0x2C27 JUMP JUMPDEST POP DUP5 DUP4 GT ISZERO PUSH2 0x2480 JUMPI PUSH2 0x2476 PUSH2 0x2433 PUSH2 0x242D DUP8 DUP7 PUSH2 0x3420 JUMP JUMPDEST DUP4 PUSH2 0x2CAA JUMP JUMPDEST DUP6 SWAP1 DUP2 SLOAD PUSH1 0xF SWAP1 DUP2 SIGNEXTEND PUSH1 0x0 NOT ADD DUP2 SIGNEXTEND SWAP1 DUP2 SWAP1 SIGNEXTEND PUSH1 0x0 SWAP1 DUP2 MSTORE PUSH1 0x1 DUP5 ADD PUSH1 0x20 MSTORE PUSH1 0x40 SWAP1 KECCAK256 SWAP2 SWAP1 SWAP2 SSTORE DUP2 SLOAD PUSH1 0x1 PUSH1 0x1 PUSH1 0x80 SHL SUB NOT AND PUSH1 0x1 PUSH1 0x1 PUSH1 0x80 SHL SUB SWAP1 SWAP2 AND OR SWAP1 SSTORE JUMP JUMPDEST DUP5 SWAP3 POP POP POP PUSH2 0x2487 JUMP JUMPDEST POP POP PUSH2 0x23A5 JUMP JUMPDEST DUP3 DUP2 EQ PUSH2 0x24E0 JUMPI PUSH1 0x40 MLOAD PUSH3 0x461BCD PUSH1 0xE5 SHL DUP2 MSTORE PUSH1 0x20 PUSH1 0x4 DUP3 ADD MSTORE PUSH1 0x21 PUSH1 0x24 DUP3 ADD MSTORE PUSH32 0x496E73756666696369656E7420776974686472617761626C6520616D6F756E74 PUSH1 0x44 DUP3 ADD MSTORE PUSH1 0x17 PUSH1 0xF9 SHL PUSH1 0x64 DUP3 ADD MSTORE PUSH1 0x84 ADD PUSH2 0x9C5 JUMP JUMPDEST DUP4 PUSH1 0x1 PUSH1 0x1 PUSH1 0xA0 SHL SUB AND DUP6 PUSH1 0x1 PUSH1 0x1 PUSH1 0xA0 SHL SUB AND PUSH32 0xB00382203B46C3B6AD0A2D7AF0268E334BD9406256A7C7BA8F7FC8BC47F8CDE9 DUP6 PUSH1 0x40 MLOAD PUSH2 0x2525 SWAP2 DUP2 MSTORE PUSH1 0x20 ADD SWAP1 JUMP JUMPDEST PUSH1 0x40 MLOAD DUP1 SWAP2 SUB SWAP1 LOG3 PUSH2 0x2537 DUP5 DUP5 PUSH2 0x2D13 JUMP JUMPDEST POP POP POP POP POP JUMP JUMPDEST PUSH2 0x2546 PUSH2 0x1C54 JUMP JUMPDEST PUSH1 0x65 DUP1 SLOAD PUSH1 0xFF NOT AND PUSH1 0x1 OR SWAP1 SSTORE PUSH32 0x62E78CEA01BEE320CD4E420270B5EA74000D11B0C9F74754EBDBFC544B05A258 PUSH2 0x202B CALLER SWAP1 JUMP JUMPDEST PUSH1 0x40 DUP1 MLOAD DUP1 DUP3 ADD SWAP1 SWAP2 MSTORE PUSH1 0x0 DUP1 DUP3 MSTORE PUSH1 0x20 DUP3 ADD MSTORE DUP2 PUSH2 0x25A1 JUMPI POP NUMBER PUSH1 0x20 DUP5 ADD MSTORE DUP3 PUSH2 0x2066 JUMP JUMPDEST PUSH1 0x0 DUP4 DUP6 PUSH1 0x20 ADD MLOAD NUMBER PUSH2 0x25B4 SWAP2 SWAP1 PUSH2 0x3420 JUMP JUMPDEST PUSH2 0x25BE SWAP2 SWAP1 PUSH2 0x3401 JUMP JUMPDEST SWAP1 POP DUP3 PUSH2 0x25D3 PUSH8 0xDE0B6B3A7640000 DUP4 PUSH2 0x3401 JUMP JUMPDEST PUSH2 0x25DD SWAP2 SWAP1 PUSH2 0x33E1 JUMP JUMPDEST DUP6 MLOAD DUP7 SWAP1 PUSH2 0x25EC SWAP1 DUP4 SWAP1 PUSH2 0x33C9 JUMP JUMPDEST SWAP1 MSTORE POP POP NUMBER PUSH1 0x20 DUP6 ADD MSTORE POP SWAP2 SWAP3 SWAP2 POP POP JUMP JUMPDEST PUSH1 0x0 DUP1 PUSH1 0x0 DUP5 PUSH1 0x40 ADD MLOAD DUP6 PUSH1 0x0 ADD MLOAD PUSH2 0x2617 SWAP2 SWAP1 PUSH2 0x33C9 JUMP JUMPDEST SWAP1 POP DUP1 DUP5 GT ISZERO PUSH2 0x2661 JUMPI PUSH1 0x40 MLOAD PUSH3 0x461BCD PUSH1 0xE5 SHL DUP2 MSTORE PUSH1 0x20 PUSH1 0x4 DUP3 ADD MSTORE PUSH1 0x15 PUSH1 0x24 DUP3 ADD MSTORE PUSH21 0x24B739BAB33334B1B4B2B73A103130B630B731B297 PUSH1 0x59 SHL PUSH1 0x44 DUP3 ADD MSTORE PUSH1 0x64 ADD PUSH2 0x9C5 JUMP JUMPDEST PUSH1 0x40 DUP6 ADD MLOAD SWAP2 POP DUP4 PUSH2 0x2675 JUMPI DUP1 SWAP4 POP PUSH2 0x269F JUMP JUMPDEST DUP2 DUP5 GT PUSH2 0x269F JUMPI DUP4 DUP6 PUSH1 0x40 ADD DUP2 DUP2 MLOAD PUSH2 0x268E SWAP2 SWAP1 PUSH2 0x3420 JUMP JUMPDEST SWAP1 MSTORE POP PUSH1 0x0 SWAP3 POP DUP4 SWAP2 POP PUSH2 0x26DD SWAP1 POP JUMP JUMPDEST PUSH1 0x0 PUSH1 0x40 DUP7 ADD MSTORE PUSH2 0x26B0 DUP3 DUP6 PUSH2 0x3420 JUMP JUMPDEST SWAP3 POP DUP3 DUP7 PUSH1 0x0 ADD DUP2 DUP2 MLOAD PUSH2 0x26C4 SWAP2 SWAP1 PUSH2 0x3420 JUMP JUMPDEST SWAP1 MSTORE POP DUP5 MLOAD DUP4 SWAP1 DUP7 SWAP1 PUSH2 0x26D8 SWAP1 DUP4 SWAP1 PUSH2 0x3420 JUMP JUMPDEST SWAP1 MSTORE POP POP JUMPDEST SWAP4 POP SWAP4 SWAP2 POP POP JUMP JUMPDEST PUSH32 0x0 DUP2 LT ISZERO PUSH2 0x2769 JUMPI PUSH1 0x40 MLOAD PUSH3 0x461BCD PUSH1 0xE5 SHL DUP2 MSTORE PUSH1 0x20 PUSH1 0x4 DUP3 ADD MSTORE PUSH1 0x2B PUSH1 0x24 DUP3 ADD MSTORE PUSH32 0x776974686472617720616D6F756E74206D757374203E3D204D494E5F57495448 PUSH1 0x44 DUP3 ADD MSTORE PUSH11 0x11149055D7D05353D55395 PUSH1 0xAA SHL PUSH1 0x64 DUP3 ADD MSTORE PUSH1 0x84 ADD PUSH2 0x9C5 JUMP JUMPDEST PUSH2 0x27D6 PUSH2 0x2776 DUP3 TIMESTAMP PUSH2 0x2CAA JUMP JUMPDEST PUSH1 0x1 PUSH1 0x1 PUSH1 0xA0 SHL SUB DUP5 AND PUSH1 0x0 SWAP1 DUP2 MSTORE PUSH2 0x136 PUSH1 0x20 MSTORE PUSH1 0x40 SWAP1 KECCAK256 SWAP1 DUP2 SLOAD PUSH1 0x1 PUSH1 0x80 SHL SWAP1 DUP2 SWAP1 DIV PUSH1 0xF SWAP1 DUP2 SIGNEXTEND DUP1 DUP3 SIGNEXTEND DUP3 SIGNEXTEND PUSH1 0x0 SWAP1 DUP2 MSTORE PUSH1 0x1 DUP1 DUP8 ADD PUSH1 0x20 MSTORE PUSH1 0x40 SWAP1 SWAP2 KECCAK256 SWAP5 SWAP1 SWAP5 SSTORE DUP5 SLOAD SWAP4 ADD SWAP1 SIGNEXTEND PUSH1 0x1 PUSH1 0x1 PUSH1 0x80 SHL SUB SWAP1 DUP2 AND SWAP1 SWAP2 MUL SWAP2 AND OR SWAP1 SSTORE JUMP JUMPDEST DUP2 PUSH1 0x1 PUSH1 0x1 PUSH1 0xA0 SHL SUB AND PUSH32 0x6D92F7D3303F995BF21956BB0C51B388BAE348EAF45C23DEBD2CFA3FCD9EC646 DUP3 PUSH1 0x40 MLOAD PUSH2 0x2811 SWAP2 DUP2 MSTORE PUSH1 0x20 ADD SWAP1 JUMP JUMPDEST PUSH1 0x40 MLOAD DUP1 SWAP2 SUB SWAP1 LOG2 POP POP JUMP JUMPDEST PUSH1 0x60 PUSH1 0x0 PUSH2 0x2066 DUP4 PUSH2 0x2DB6 JUMP JUMPDEST PUSH1 0x0 PUSH1 0x1 PUSH1 0x1 PUSH1 0xFF SHL SUB DUP3 GT ISZERO PUSH2 0x2894 JUMPI PUSH1 0x40 MLOAD PUSH3 0x461BCD PUSH1 0xE5 SHL DUP2 MSTORE PUSH1 0x20 PUSH1 0x4 DUP3 ADD MSTORE PUSH1 0x28 PUSH1 0x24 DUP3 ADD MSTORE PUSH32 0x53616665436173743A2076616C756520646F65736E27742066697420696E2061 PUSH1 0x44 DUP3 ADD MSTORE PUSH8 0x371034B73A191A9B PUSH1 0xC1 SHL PUSH1 0x64 DUP3 ADD MSTORE PUSH1 0x84 ADD PUSH2 0x9C5 JUMP JUMPDEST POP SWAP1 JUMP JUMPDEST PUSH1 0x0 PUSH16 0x7FFFFFFFFFFFFFFFFFFFFFFFFFFFFFFF NOT DUP3 SLT DUP1 ISZERO SWAP1 PUSH2 0x28CB JUMPI POP PUSH16 0x7FFFFFFFFFFFFFFFFFFFFFFFFFFFFFFF DUP3 SGT ISZERO JUMPDEST PUSH2 0x2894 JUMPI PUSH1 0x40 MLOAD PUSH3 0x461BCD PUSH1 0xE5 SHL DUP2 MSTORE PUSH1 0x20 PUSH1 0x4 DUP3 ADD MSTORE PUSH1 0x27 PUSH1 0x24 DUP3 ADD MSTORE PUSH32 0x53616665436173743A2076616C756520646F65736E27742066697420696E2031 PUSH1 0x44 DUP3 ADD MSTORE PUSH7 0x32382062697473 PUSH1 0xC8 SHL PUSH1 0x64 DUP3 ADD MSTORE PUSH1 0x84 ADD PUSH2 0x9C5 JUMP JUMPDEST PUSH1 0x1 PUSH1 0x1 PUSH1 0xA0 SHL SUB DUP2 AND EXTCODESIZE PUSH2 0x2994 JUMPI PUSH1 0x40 MLOAD PUSH3 0x461BCD PUSH1 0xE5 SHL DUP2 MSTORE PUSH1 0x20 PUSH1 0x4 DUP3 ADD MSTORE PUSH1 0x2D PUSH1 0x24 DUP3 ADD MSTORE PUSH32 0x455243313936373A206E657720696D706C656D656E746174696F6E206973206E PUSH1 0x44 DUP3 ADD MSTORE PUSH13 0x1BDD08184818DBDB9D1C9858DD PUSH1 0x9A SHL PUSH1 0x64 DUP3 ADD MSTORE PUSH1 0x84 ADD PUSH2 0x9C5 JUMP JUMPDEST PUSH1 0x0 DUP1 MLOAD PUSH1 0x20 PUSH2 0x34E0 DUP4 CODECOPY DUP2 MLOAD SWAP2 MSTORE DUP1 SLOAD PUSH1 0x1 PUSH1 0x1 PUSH1 0xA0 SHL SUB NOT AND PUSH1 0x1 PUSH1 0x1 PUSH1 0xA0 SHL SUB SWAP3 SWAP1 SWAP3 AND SWAP2 SWAP1 SWAP2 OR SWAP1 SSTORE JUMP JUMPDEST PUSH2 0x29CC DUP4 PUSH2 0x2E12 JUMP JUMPDEST PUSH1 0x0 DUP3 MLOAD GT DUP1 PUSH2 0x29D9 JUMPI POP DUP1 JUMPDEST ISZERO PUSH2 0x105C JUMPI PUSH2 0x29E8 DUP4 DUP4 PUSH2 0x2E52 JUMP JUMPDEST POP POP POP POP JUMP JUMPDEST PUSH1 0x65 SLOAD PUSH1 0xFF AND PUSH2 0xCE6 JUMPI PUSH1 0x40 MLOAD PUSH3 0x461BCD PUSH1 0xE5 SHL DUP2 MSTORE PUSH1 0x20 PUSH1 0x4 DUP3 ADD MSTORE PUSH1 0x14 PUSH1 0x24 DUP3 ADD MSTORE PUSH20 0x14185D5CD8589B194E881B9BDD081C185D5CD959 PUSH1 0x62 SHL PUSH1 0x44 DUP3 ADD MSTORE PUSH1 0x64 ADD PUSH2 0x9C5 JUMP JUMPDEST PUSH1 0x0 DUP2 DUP2 MSTORE PUSH1 0x1 DUP4 ADD PUSH1 0x20 MSTORE PUSH1 0x40 DUP2 KECCAK256 SLOAD DUP1 ISZERO PUSH2 0x2B4A JUMPI PUSH1 0x0 PUSH2 0x2A5B PUSH1 0x1 DUP4 PUSH2 0x3420 JUMP JUMPDEST DUP6 SLOAD SWAP1 SWAP2 POP PUSH1 0x0 SWAP1 PUSH2 0x2A6F SWAP1 PUSH1 0x1 SWAP1 PUSH2 0x3420 JUMP JUMPDEST SWAP1 POP DUP2 DUP2 EQ PUSH2 0x2AF0 JUMPI PUSH1 0x0 DUP7 PUSH1 0x0 ADD DUP3 DUP2 SLOAD DUP2 LT PUSH2 0x2A9D JUMPI PUSH4 0x4E487B71 PUSH1 0xE0 SHL PUSH1 0x0 MSTORE PUSH1 0x32 PUSH1 0x4 MSTORE PUSH1 0x24 PUSH1 0x0 REVERT JUMPDEST SWAP1 PUSH1 0x0 MSTORE PUSH1 0x20 PUSH1 0x0 KECCAK256 ADD SLOAD SWAP1 POP DUP1 DUP8 PUSH1 0x0 ADD DUP5 DUP2 SLOAD DUP2 LT PUSH2 0x2ACE JUMPI PUSH4 0x4E487B71 PUSH1 0xE0 SHL PUSH1 0x0 MSTORE PUSH1 0x32 PUSH1 0x4 MSTORE PUSH1 0x24 PUSH1 0x0 REVERT JUMPDEST PUSH1 0x0 SWAP2 DUP3 MSTORE PUSH1 0x20 DUP1 DUP4 KECCAK256 SWAP1 SWAP2 ADD SWAP3 SWAP1 SWAP3 SSTORE SWAP2 DUP3 MSTORE PUSH1 0x1 DUP9 ADD SWAP1 MSTORE PUSH1 0x40 SWAP1 KECCAK256 DUP4 SWAP1 SSTORE JUMPDEST DUP6 SLOAD DUP7 SWAP1 DUP1 PUSH2 0x2B0F JUMPI PUSH4 0x4E487B71 PUSH1 0xE0 SHL PUSH1 0x0 MSTORE PUSH1 0x31 PUSH1 0x4 MSTORE PUSH1 0x24 PUSH1 0x0 REVERT JUMPDEST PUSH1 0x1 SWAP1 SUB DUP2 DUP2 SWAP1 PUSH1 0x0 MSTORE PUSH1 0x20 PUSH1 0x0 KECCAK256 ADD PUSH1 0x0 SWAP1 SSTORE SWAP1 SSTORE DUP6 PUSH1 0x1 ADD PUSH1 0x0 DUP7 DUP2 MSTORE PUSH1 0x20 ADD SWAP1 DUP2 MSTORE PUSH1 0x20 ADD PUSH1 0x0 KECCAK256 PUSH1 0x0 SWAP1 SSTORE PUSH1 0x1 SWAP4 POP POP POP POP PUSH2 0x93C JUMP JUMPDEST PUSH1 0x0 SWAP2 POP POP PUSH2 0x93C JUMP JUMPDEST PUSH1 0x0 SLOAD PUSH2 0x100 SWAP1 DIV PUSH1 0xFF AND PUSH2 0x2B7B JUMPI PUSH1 0x40 MLOAD PUSH3 0x461BCD PUSH1 0xE5 SHL DUP2 MSTORE PUSH1 0x4 ADD PUSH2 0x9C5 SWAP1 PUSH2 0x32F5 JUMP JUMPDEST PUSH1 0x1 DUP1 SSTORE JUMP JUMPDEST PUSH1 0x0 SLOAD PUSH2 0x100 SWAP1 DIV PUSH1 0xFF AND PUSH2 0x2BA8 JUMPI PUSH1 0x40 MLOAD PUSH3 0x461BCD PUSH1 0xE5 SHL DUP2 MSTORE PUSH1 0x4 ADD PUSH2 0x9C5 SWAP1 PUSH2 0x32F5 JUMP JUMPDEST PUSH1 0x65 DUP1 SLOAD PUSH1 0xFF NOT AND SWAP1 SSTORE JUMP JUMPDEST PUSH1 0x0 PUSH2 0x2066 DUP4 PUSH1 0x1 PUSH1 0x1 PUSH1 0xA0 SHL SUB DUP5 AND PUSH2 0x2F46 JUMP JUMPDEST PUSH1 0x0 PUSH2 0x2BE8 DUP3 SLOAD PUSH1 0xF DUP2 DUP2 SIGNEXTEND DUP2 SIGNEXTEND PUSH1 0x1 PUSH1 0x80 SHL SWAP1 SWAP3 DIV DUP2 SIGNEXTEND SWAP1 SIGNEXTEND SGT ISZERO SWAP1 JUMP JUMPDEST ISZERO PUSH2 0x2C06 JUMPI PUSH1 0x40 MLOAD PUSH4 0x1ED95095 PUSH1 0xE1 SHL DUP2 MSTORE PUSH1 0x4 ADD PUSH1 0x40 MLOAD DUP1 SWAP2 SUB SWAP1 REVERT JUMPDEST POP DUP1 SLOAD PUSH1 0xF SWAP1 DUP2 SIGNEXTEND DUP2 SIGNEXTEND SWAP1 SIGNEXTEND PUSH1 0x0 SWAP1 DUP2 MSTORE PUSH1 0x1 SWAP1 SWAP2 ADD PUSH1 0x20 MSTORE PUSH1 0x40 SWAP1 KECCAK256 SLOAD SWAP1 JUMP JUMPDEST PUSH1 0x0 PUSH2 0x2C46 DUP3 SLOAD PUSH1 0xF DUP2 DUP2 SIGNEXTEND DUP2 SIGNEXTEND PUSH1 0x1 PUSH1 0x80 SHL SWAP1 SWAP3 DIV DUP2 SIGNEXTEND SWAP1 SIGNEXTEND SGT ISZERO SWAP1 JUMP JUMPDEST ISZERO PUSH2 0x2C64 JUMPI PUSH1 0x40 MLOAD PUSH4 0x1ED95095 PUSH1 0xE1 SHL DUP2 MSTORE PUSH1 0x4 ADD PUSH1 0x40 MLOAD DUP1 SWAP2 SUB SWAP1 REVERT JUMPDEST POP DUP1 SLOAD PUSH1 0xF SWAP1 DUP2 SIGNEXTEND DUP1 DUP3 SIGNEXTEND DUP3 SIGNEXTEND PUSH1 0x0 SWAP1 DUP2 MSTORE PUSH1 0x1 DUP1 DUP6 ADD PUSH1 0x20 MSTORE PUSH1 0x40 DUP3 KECCAK256 DUP1 SLOAD SWAP3 SWAP1 SSTORE DUP5 SLOAD SWAP3 ADD SWAP1 SWAP3 SIGNEXTEND PUSH1 0x1 PUSH1 0x1 PUSH1 0x80 SHL SUB AND PUSH1 0x1 PUSH1 0x1 PUSH1 0x80 SHL SUB NOT SWAP1 SWAP2 AND OR SWAP1 SWAP2 SSTORE SWAP1 JUMP JUMPDEST PUSH1 0x0 PUSH1 0x1 PUSH1 0x1 PUSH1 0xE0 SHL SUB DUP4 GT DUP1 ISZERO SWAP1 PUSH2 0x2CC7 JUMPI POP PUSH4 0xFFFFFFFF DUP3 GT ISZERO JUMPDEST PUSH2 0x2D08 JUMPI PUSH1 0x40 MLOAD PUSH3 0x461BCD PUSH1 0xE5 SHL DUP2 MSTORE PUSH1 0x20 PUSH1 0x4 DUP3 ADD MSTORE PUSH1 0x12 PUSH1 0x24 DUP3 ADD MSTORE PUSH18 0x125B9D985B1A59081DDA5D1A191C985DD85B PUSH1 0x72 SHL PUSH1 0x44 DUP3 ADD MSTORE PUSH1 0x64 ADD PUSH2 0x9C5 JUMP JUMPDEST POP PUSH1 0x20 SWAP2 SWAP1 SWAP2 SHL OR SWAP1 JUMP JUMPDEST PUSH1 0x0 DUP3 PUSH1 0x1 PUSH1 0x1 PUSH1 0xA0 SHL SUB AND DUP3 PUSH1 0x40 MLOAD PUSH1 0x0 PUSH1 0x40 MLOAD DUP1 DUP4 SUB DUP2 DUP6 DUP8 GAS CALL SWAP3 POP POP POP RETURNDATASIZE DUP1 PUSH1 0x0 DUP2 EQ PUSH2 0x2D60 JUMPI PUSH1 0x40 MLOAD SWAP2 POP PUSH1 0x1F NOT PUSH1 0x3F RETURNDATASIZE ADD AND DUP3 ADD PUSH1 0x40 MSTORE RETURNDATASIZE DUP3 MSTORE RETURNDATASIZE PUSH1 0x0 PUSH1 0x20 DUP5 ADD RETURNDATACOPY PUSH2 0x2D65 JUMP JUMPDEST PUSH1 0x60 SWAP2 POP JUMPDEST POP POP SWAP1 POP DUP1 PUSH2 0x105C JUMPI PUSH1 0x40 MLOAD PUSH3 0x461BCD PUSH1 0xE5 SHL DUP2 MSTORE PUSH1 0x20 PUSH1 0x4 DUP3 ADD MSTORE PUSH1 0x1C PUSH1 0x24 DUP3 ADD MSTORE PUSH32 0x4661696C656420746F2073656E64206E617469766520746F6B656E2E00000000 PUSH1 0x44 DUP3 ADD MSTORE PUSH1 0x64 ADD PUSH2 0x9C5 JUMP JUMPDEST PUSH1 0x60 DUP2 PUSH1 0x0 ADD DUP1 SLOAD DUP1 PUSH1 0x20 MUL PUSH1 0x20 ADD PUSH1 0x40 MLOAD SWAP1 DUP2 ADD PUSH1 0x40 MSTORE DUP1 SWAP3 SWAP2 SWAP1 DUP2 DUP2 MSTORE PUSH1 0x20 ADD DUP3 DUP1 SLOAD DUP1 ISZERO PUSH2 0x2E06 JUMPI PUSH1 0x20 MUL DUP3 ADD SWAP2 SWAP1 PUSH1 0x0 MSTORE PUSH1 0x20 PUSH1 0x0 KECCAK256 SWAP1 JUMPDEST DUP2 SLOAD DUP2 MSTORE PUSH1 0x20 ADD SWAP1 PUSH1 0x1 ADD SWAP1 DUP1 DUP4 GT PUSH2 0x2DF2 JUMPI JUMPDEST POP POP POP POP POP SWAP1 POP SWAP2 SWAP1 POP JUMP JUMPDEST PUSH2 0x2E1B DUP2 PUSH2 0x2927 JUMP JUMPDEST PUSH1 0x40 MLOAD PUSH1 0x1 PUSH1 0x1 PUSH1 0xA0 SHL SUB DUP3 AND SWAP1 PUSH32 0xBC7CD75A20EE27FD9ADEBAB32041F755214DBC6BFFA90CC0225B39DA2E5C2D3B SWAP1 PUSH1 0x0 SWAP1 LOG2 POP JUMP JUMPDEST PUSH1 0x60 PUSH1 0x1 PUSH1 0x1 PUSH1 0xA0 SHL SUB DUP4 AND EXTCODESIZE PUSH2 0x2EBA JUMPI PUSH1 0x40 MLOAD PUSH3 0x461BCD PUSH1 0xE5 SHL DUP2 MSTORE PUSH1 0x20 PUSH1 0x4 DUP3 ADD MSTORE PUSH1 0x26 PUSH1 0x24 DUP3 ADD MSTORE PUSH32 0x416464726573733A2064656C65676174652063616C6C20746F206E6F6E2D636F PUSH1 0x44 DUP3 ADD MSTORE PUSH6 0x1B9D1C9858DD PUSH1 0xD2 SHL PUSH1 0x64 DUP3 ADD MSTORE PUSH1 0x84 ADD PUSH2 0x9C5 JUMP JUMPDEST PUSH1 0x0 DUP1 DUP5 PUSH1 0x1 PUSH1 0x1 PUSH1 0xA0 SHL SUB AND DUP5 PUSH1 0x40 MLOAD PUSH2 0x2ED5 SWAP2 SWAP1 PUSH2 0x3172 JUMP JUMPDEST PUSH1 0x0 PUSH1 0x40 MLOAD DUP1 DUP4 SUB DUP2 DUP6 GAS DELEGATECALL SWAP2 POP POP RETURNDATASIZE DUP1 PUSH1 0x0 DUP2 EQ PUSH2 0x2F10 JUMPI PUSH1 0x40 MLOAD SWAP2 POP PUSH1 0x1F NOT PUSH1 0x3F RETURNDATASIZE ADD AND DUP3 ADD PUSH1 0x40 MSTORE RETURNDATASIZE DUP3 MSTORE RETURNDATASIZE PUSH1 0x0 PUSH1 0x20 DUP5 ADD RETURNDATACOPY PUSH2 0x2F15 JUMP JUMPDEST PUSH1 0x60 SWAP2 POP JUMPDEST POP SWAP2 POP SWAP2 POP PUSH2 0x2F3D DUP3 DUP3 PUSH1 0x40 MLOAD DUP1 PUSH1 0x60 ADD PUSH1 0x40 MSTORE DUP1 PUSH1 0x27 DUP2 MSTORE PUSH1 0x20 ADD PUSH2 0x3500 PUSH1 0x27 SWAP2 CODECOPY PUSH2 0x2F95 JUMP JUMPDEST SWAP6 SWAP5 POP POP POP POP POP JUMP JUMPDEST PUSH1 0x0 DUP2 DUP2 MSTORE PUSH1 0x1 DUP4 ADD PUSH1 0x20 MSTORE PUSH1 0x40 DUP2 KECCAK256 SLOAD PUSH2 0x2F8D JUMPI POP DUP2 SLOAD PUSH1 0x1 DUP2 DUP2 ADD DUP5 SSTORE PUSH1 0x0 DUP5 DUP2 MSTORE PUSH1 0x20 DUP1 DUP3 KECCAK256 SWAP1 SWAP4 ADD DUP5 SWAP1 SSTORE DUP5 SLOAD DUP5 DUP3 MSTORE DUP3 DUP7 ADD SWAP1 SWAP4 MSTORE PUSH1 0x40 SWAP1 KECCAK256 SWAP2 SWAP1 SWAP2 SSTORE PUSH2 0x93C JUMP JUMPDEST POP PUSH1 0x0 PUSH2 0x93C JUMP JUMPDEST PUSH1 0x60 DUP4 ISZERO PUSH2 0x2FA4 JUMPI POP DUP2 PUSH2 0x2066 JUMP JUMPDEST DUP3 MLOAD ISZERO PUSH2 0x2FB4 JUMPI DUP3 MLOAD DUP1 DUP5 PUSH1 0x20 ADD REVERT JUMPDEST DUP2 PUSH1 0x40 MLOAD PUSH3 0x461BCD PUSH1 0xE5 SHL DUP2 MSTORE PUSH1 0x4 ADD PUSH2 0x9C5 SWAP2 SWAP1 PUSH2 0x322A JUMP JUMPDEST PUSH1 0x0 PUSH1 0x20 DUP3 DUP5 SUB SLT ISZERO PUSH2 0x2FDF JUMPI DUP1 DUP2 REVERT JUMPDEST DUP2 CALLDATALOAD PUSH2 0x2066 DUP2 PUSH2 0x34AA JUMP JUMPDEST PUSH1 0x0 DUP1 PUSH1 0x40 DUP4 DUP6 SUB SLT ISZERO PUSH2 0x2FFC JUMPI DUP1 DUP2 REVERT JUMPDEST DUP3 CALLDATALOAD PUSH2 0x3007 DUP2 PUSH2 0x34AA JUMP JUMPDEST SWAP5 PUSH1 0x20 SWAP4 SWAP1 SWAP4 ADD CALLDATALOAD SWAP4 POP POP POP JUMP JUMPDEST PUSH1 0x0 DUP1 PUSH1 0x40 DUP4 DUP6 SUB SLT ISZERO PUSH2 0x3027 JUMPI DUP2 DUP3 REVERT JUMPDEST DUP3 CALLDATALOAD PUSH2 0x3032 DUP2 PUSH2 0x34AA JUMP JUMPDEST SWAP2 POP PUSH1 0x20 DUP4 ADD CALLDATALOAD PUSH2 0x3042 DUP2 PUSH2 0x34AA JUMP JUMPDEST DUP1 SWAP2 POP POP SWAP3 POP SWAP3 SWAP1 POP JUMP JUMPDEST PUSH1 0x0 DUP1 PUSH1 0x40 DUP4 DUP6 SUB SLT ISZERO PUSH2 0x305F JUMPI DUP2 DUP3 REVERT JUMPDEST DUP3 CALLDATALOAD PUSH2 0x306A DUP2 PUSH2 0x34AA JUMP JUMPDEST SWAP2 POP PUSH1 0x20 DUP4 ADD CALLDATALOAD PUSH8 0xFFFFFFFFFFFFFFFF DUP1 DUP3 GT ISZERO PUSH2 0x3086 JUMPI DUP3 DUP4 REVERT JUMPDEST DUP2 DUP6 ADD SWAP2 POP DUP6 PUSH1 0x1F DUP4 ADD SLT PUSH2 0x3099 JUMPI DUP3 DUP4 REVERT JUMPDEST DUP2 CALLDATALOAD DUP2 DUP2 GT ISZERO PUSH2 0x30AB JUMPI PUSH2 0x30AB PUSH2 0x3494 JUMP JUMPDEST PUSH1 0x40 MLOAD PUSH1 0x1F DUP3 ADD PUSH1 0x1F NOT SWAP1 DUP2 AND PUSH1 0x3F ADD AND DUP2 ADD SWAP1 DUP4 DUP3 GT DUP2 DUP4 LT OR ISZERO PUSH2 0x30D3 JUMPI PUSH2 0x30D3 PUSH2 0x3494 JUMP JUMPDEST DUP2 PUSH1 0x40 MSTORE DUP3 DUP2 MSTORE DUP9 PUSH1 0x20 DUP5 DUP8 ADD ADD GT ISZERO PUSH2 0x30EB JUMPI DUP6 DUP7 REVERT JUMPDEST DUP3 PUSH1 0x20 DUP7 ADD PUSH1 0x20 DUP4 ADD CALLDATACOPY DUP6 PUSH1 0x20 DUP5 DUP4 ADD ADD MSTORE DUP1 SWAP6 POP POP POP POP POP POP SWAP3 POP SWAP3 SWAP1 POP JUMP JUMPDEST PUSH1 0x0 DUP1 PUSH1 0x40 DUP4 DUP6 SUB SLT ISZERO PUSH2 0x2FFC JUMPI DUP2 DUP3 REVERT JUMPDEST PUSH1 0x0 PUSH1 0x20 DUP3 DUP5 SUB SLT ISZERO PUSH2 0x312F JUMPI DUP1 DUP2 REVERT JUMPDEST POP MLOAD SWAP2 SWAP1 POP JUMP JUMPDEST PUSH1 0x0 PUSH1 0x20 DUP3 DUP5 SUB SLT ISZERO PUSH2 0x3147 JUMPI DUP1 DUP2 REVERT JUMPDEST POP CALLDATALOAD SWAP2 SWAP1 POP JUMP JUMPDEST PUSH1 0x0 PUSH1 0x20 DUP3 DUP5 SUB SLT ISZERO PUSH2 0x315F JUMPI DUP1 DUP2 REVERT JUMPDEST DUP2 CALLDATALOAD PUSH4 0xFFFFFFFF DUP2 AND DUP2 EQ PUSH2 0x2066 JUMPI DUP2 DUP3 REVERT JUMPDEST PUSH1 0x0 DUP3 MLOAD PUSH2 0x3184 DUP2 DUP5 PUSH1 0x20 DUP8 ADD PUSH2 0x3437 JUMP JUMPDEST SWAP2 SWAP1 SWAP2 ADD SWAP3 SWAP2 POP POP JUMP JUMPDEST PUSH1 0x20 DUP1 DUP3 MSTORE DUP3 MLOAD DUP3 DUP3 ADD DUP2 SWAP1 MSTORE PUSH1 0x0 SWAP2 SWAP1 DUP5 DUP3 ADD SWAP1 PUSH1 0x40 DUP6 ADD SWAP1 DUP5 JUMPDEST DUP2 DUP2 LT ISZERO PUSH2 0x31CF JUMPI DUP4 MLOAD PUSH1 0x1 PUSH1 0x1 PUSH1 0xA0 SHL SUB AND DUP4 MSTORE SWAP3 DUP5 ADD SWAP3 SWAP2 DUP5 ADD SWAP2 PUSH1 0x1 ADD PUSH2 0x31AA JUMP JUMPDEST POP SWAP1 SWAP7 SWAP6 POP POP POP POP POP POP JUMP JUMPDEST PUSH1 0x20 DUP1 DUP3 MSTORE DUP3 MLOAD DUP3 DUP3 ADD DUP2 SWAP1 MSTORE PUSH1 0x0 SWAP2 SWAP1 PUSH1 0x40 SWAP1 DUP2 DUP6 ADD SWAP1 DUP7 DUP5 ADD DUP6 JUMPDEST DUP3 DUP2 LT ISZERO PUSH2 0x321D JUMPI DUP2 MLOAD DUP1 MLOAD DUP6 MSTORE DUP7 ADD MLOAD DUP7 DUP6 ADD MSTORE SWAP3 DUP5 ADD SWAP3 SWAP1 DUP6 ADD SWAP1 PUSH1 0x1 ADD PUSH2 0x31F8 JUMP JUMPDEST POP SWAP2 SWAP8 SWAP7 POP POP POP POP POP POP POP JUMP JUMPDEST PUSH1 0x20 DUP2 MSTORE PUSH1 0x0 DUP3 MLOAD DUP1 PUSH1 0x20 DUP5 ADD MSTORE PUSH2 0x3249 DUP2 PUSH1 0x40 DUP6 ADD PUSH1 0x20 DUP8 ADD PUSH2 0x3437 JUMP JUMPDEST PUSH1 0x1F ADD PUSH1 0x1F NOT AND SWAP2 SWAP1 SWAP2 ADD PUSH1 0x40 ADD SWAP3 SWAP2 POP POP JUMP JUMPDEST PUSH1 0x20 DUP1 DUP3 MSTORE PUSH1 0x2C SWAP1 DUP3 ADD MSTORE PUSH32 0x46756E6374696F6E206D7573742062652063616C6C6564207468726F75676820 PUSH1 0x40 DUP3 ADD MSTORE PUSH12 0x19195B1959D85D1958D85B1B PUSH1 0xA2 SHL PUSH1 0x60 DUP3 ADD MSTORE PUSH1 0x80 ADD SWAP1 JUMP JUMPDEST PUSH1 0x20 DUP1 DUP3 MSTORE PUSH1 0x2C SWAP1 DUP3 ADD MSTORE PUSH32 0x46756E6374696F6E206D7573742062652063616C6C6564207468726F75676820 PUSH1 0x40 DUP3 ADD MSTORE PUSH12 0x6163746976652070726F7879 PUSH1 0xA0 SHL PUSH1 0x60 DUP3 ADD MSTORE PUSH1 0x80 ADD SWAP1 JUMP JUMPDEST PUSH1 0x20 DUP1 DUP3 MSTORE PUSH1 0x2B SWAP1 DUP3 ADD MSTORE PUSH32 0x496E697469616C697A61626C653A20636F6E7472616374206973206E6F742069 PUSH1 0x40 DUP3 ADD MSTORE PUSH11 0x6E697469616C697A696E67 PUSH1 0xA8 SHL PUSH1 0x60 DUP3 ADD MSTORE PUSH1 0x80 ADD SWAP1 JUMP JUMPDEST PUSH1 0x20 DUP1 DUP3 MSTORE PUSH1 0x28 SWAP1 DUP3 ADD MSTORE PUSH32 0x56616C696461746F72206E6F74206578697374206F7220686173206265656E20 PUSH1 0x40 DUP3 ADD MSTORE PUSH8 0x3932B6B7BB32B217 PUSH1 0xC1 SHL PUSH1 0x60 DUP3 ADD MSTORE PUSH1 0x80 ADD SWAP1 JUMP JUMPDEST PUSH1 0x0 DUP1 DUP3 SLT DUP1 ISZERO PUSH1 0x1 PUSH1 0x1 PUSH1 0xFF SHL SUB DUP5 SWAP1 SUB DUP6 SGT AND ISZERO PUSH2 0x33AA JUMPI PUSH2 0x33AA PUSH2 0x347E JUMP JUMPDEST PUSH1 0x1 PUSH1 0xFF SHL DUP4 SWAP1 SUB DUP5 SLT DUP2 AND ISZERO PUSH2 0x33C3 JUMPI PUSH2 0x33C3 PUSH2 0x347E JUMP JUMPDEST POP POP ADD SWAP1 JUMP JUMPDEST PUSH1 0x0 DUP3 NOT DUP3 GT ISZERO PUSH2 0x33DC JUMPI PUSH2 0x33DC PUSH2 0x347E JUMP JUMPDEST POP ADD SWAP1 JUMP JUMPDEST PUSH1 0x0 DUP3 PUSH2 0x33FC JUMPI PUSH4 0x4E487B71 PUSH1 0xE0 SHL DUP2 MSTORE PUSH1 0x12 PUSH1 0x4 MSTORE PUSH1 0x24 DUP2 REVERT JUMPDEST POP DIV SWAP1 JUMP JUMPDEST PUSH1 0x0 DUP2 PUSH1 0x0 NOT DIV DUP4 GT DUP3 ISZERO ISZERO AND ISZERO PUSH2 0x341B JUMPI PUSH2 0x341B PUSH2 0x347E JUMP JUMPDEST POP MUL SWAP1 JUMP JUMPDEST PUSH1 0x0 DUP3 DUP3 LT ISZERO PUSH2 0x3432 JUMPI PUSH2 0x3432 PUSH2 0x347E JUMP JUMPDEST POP SUB SWAP1 JUMP JUMPDEST PUSH1 0x0 JUMPDEST DUP4 DUP2 LT ISZERO PUSH2 0x3452 JUMPI DUP2 DUP2 ADD MLOAD DUP4 DUP3 ADD MSTORE PUSH1 0x20 ADD PUSH2 0x343A JUMP JUMPDEST DUP4 DUP2 GT ISZERO PUSH2 0x29E8 JUMPI POP POP PUSH1 0x0 SWAP2 ADD MSTORE JUMP JUMPDEST PUSH1 0x0 PUSH1 0x0 NOT DUP3 EQ ISZERO PUSH2 0x3477 JUMPI PUSH2 0x3477 PUSH2 0x347E JUMP JUMPDEST POP PUSH1 0x1 ADD SWAP1 JUMP JUMPDEST PUSH4 0x4E487B71 PUSH1 0xE0 SHL PUSH1 0x0 MSTORE PUSH1 0x11 PUSH1 0x4 MSTORE PUSH1 0x24 PUSH1 0x0 REVERT JUMPDEST PUSH4 0x4E487B71 PUSH1 0xE0 SHL PUSH1 0x0 MSTORE PUSH1 0x41 PUSH1 0x4 MSTORE PUSH1 0x24 PUSH1 0x0 REVERT JUMPDEST PUSH1 0x1 PUSH1 0x1 PUSH1 0xA0 SHL SUB DUP2 AND DUP2 EQ PUSH2 0xCD3 JUMPI PUSH1 0x0 DUP1 REVERT INVALID JUMPDEST KECCAK256 DELEGATECALL 0xC 0xB5 0xE9 0xE6 CALLVALUE 0xA9 0xD 0xF9 0xA7 0x2B MLOAD PUSH13 0x11CC52281A4D1B7B67E672E2FE SLOAD 0x4F CALLCODE 0x2F CALLDATASIZE ADDMOD SWAP5 LOG1 EXTCODESIZE LOG1 LOG3 0x21 MOD PUSH8 0xC828492DB98DCA3E KECCAK256 PUSH23 0xCC3735A920A3CA505D382BBC416464726573733A206C6F PUSH24 0x2D6C6576656C2064656C65676174652063616C6C20666169 PUSH13 0x6564A26469706673582212206A LOG2 0xCC 0xE0 PUSH22 0x230D2464B2E4142EEEBF77B830D3CF4D7F9AAB68802B ADDRESS COINBASE OR DUP7 0xA5 PUSH5 0x736F6C6343 STOP ADDMOD DIV STOP CALLER "},"methodIdentifiers":{"AUR_PREC()":"45f7b8f4","MIN_STAKE_AMOUNT()":"27ed7188","MIN_WITHDRAW_AMOUNT()":"b6857844","activeStakeAmount()":"d849a502","activeValidators()":"d2d49c4b","addValidator(address)":"4d238c8e","completeWithdraw(address,uint256)":"7b66394c","dueWithdrawalAmount(address)":"dab31689","dueWithdrawalAmount(address,uint256)":"19d41774","getVersion()":"0d8e6e2c","inactivePools(address)":"340c5a25","initialize(address,address)":"485cc955","isActiveValidator(address)":"40550a1c","keeper()":"aced1661","lockPeriod()":"3fd8b02f","owner()":"8da5cb5b","pause()":"8456cb59","paused()":"5c975abb","pendingReward(address,address)":"9ced7e76","pendingWithdrawals(address)":"f3f43703","proxiableUUID()":"52d1902d","removeValidator(address)":"40a141ff","renounceOwnership()":"715018a6","setKeeper(address)":"748747e6","setLockPeriod(uint32)":"f489f23b","setRewardPerBlock(uint256)":"bb872b4a","setValidatorLimit(uint32)":"522abc40","stake(address)":"26476204","stakeTable(address,address)":"f6a2314a","stakerPool()":"f0544ac8","stakerRewardPerBlock()":"24e770d0","totalStakeAmount()":"94409a56","transferOwnership(address)":"f2fde38b","unpause()":"3f4ba83a","unstake(address,uint256)":"c2a672e0","upgradeTo(address)":"3659cfe6","upgradeToAndCall(address,bytes)":"4f1ef286","validatorLimit()":"57525cbc","validatorPool()":"d4c6d1de","validatorRewardPerBlock()":"7ea5db42","validatorWithdraw(uint256)":"eaf7c9dc","withdrawTable(address)":"29451893"}},"storageLayout":{"storage":[{"astId":527,"contract":"contracts/mock/CMTStakingMock.sol:CMTStakingMock","label":"_initialized","offset":0,"slot":"0","type":"t_uint8"},{"astId":530,"contract":"contracts/mock/CMTStakingMock.sol:CMTStakingMock","label":"_initializing","offset":1,"slot":"0","type":"t_bool"},{"astId":948,"contract":"contracts/mock/CMTStakingMock.sol:CMTStakingMock","label":"_status","offset":0,"slot":"1","type":"t_uint256"},{"astId":992,"contract":"contracts/mock/CMTStakingMock.sol:CMTStakingMock","label":"__gap","offset":0,"slot":"2","type":"t_array(t_uint256)49_storage"},{"astId":1277,"contract":"contracts/mock/CMTStakingMock.sol:CMTStakingMock","label":"__gap","offset":0,"slot":"51","type":"t_array(t_uint256)50_storage"},{"astId":828,"contract":"contracts/mock/CMTStakingMock.sol:CMTStakingMock","label":"_paused","offset":0,"slot":"101","type":"t_bool"},{"astId":933,"contract":"contracts/mock/CMTStakingMock.sol:CMTStakingMock","label":"__gap","offset":0,"slot":"102","type":"t_array(t_uint256)49_storage"},{"astId":10,"contract":"contracts/mock/CMTStakingMock.sol:CMTStakingMock","label":"_owner","offset":0,"slot":"151","type":"t_address"},{"astId":130,"contract":"contracts/mock/CMTStakingMock.sol:CMTStakingMock","label":"__gap","offset":0,"slot":"152","type":"t_array(t_uint256)49_storage"},{"astId":509,"contract":"contracts/mock/CMTStakingMock.sol:CMTStakingMock","label":"__gap","offset":0,"slot":"201","type":"t_array(t_uint256)50_storage"},{"astId":806,"contract":"contracts/mock/CMTStakingMock.sol:CMTStakingMock","label":"__gap","offset":0,"slot":"251","type":"t_array(t_uint256)50_storage"},{"astId":5867,"contract":"contracts/mock/CMTStakingMock.sol:CMTStakingMock","label":"keeper","offset":0,"slot":"301","type":"t_address"},{"astId":5870,"contract":"contracts/mock/CMTStakingMock.sol:CMTStakingMock","label":"_validators","offset":0,"slot":"302","type":"t_struct(AddressSet)3842_storage"},{"astId":5873,"contract":"contracts/mock/CMTStakingMock.sol:CMTStakingMock","label":"validatorPool","offset":0,"slot":"304","type":"t_struct(Pool)5851_storage"},{"astId":5876,"contract":"contracts/mock/CMTStakingMock.sol:CMTStakingMock","label":"stakerPool","offset":0,"slot":"306","type":"t_struct(Pool)5851_storage"},{"astId":5881,"contract":"contracts/mock/CMTStakingMock.sol:CMTStakingMock","label":"inactivePools","offset":0,"slot":"308","type":"t_mapping(t_address,t_struct(Pool)5851_storage)"},{"astId":5888,"contract":"contracts/mock/CMTStakingMock.sol:CMTStakingMock","label":"stakeTable","offset":0,"slot":"309","type":"t_mapping(t_address,t_mapping(t_address,t_struct(StakeInfo)5860_storage))"},{"astId":5893,"contract":"contracts/mock/CMTStakingMock.sol:CMTStakingMock","label":"withdrawTable","offset":0,"slot":"310","type":"t_mapping(t_address,t_struct(Bytes32Deque)3208_storage)"},{"astId":5895,"contract":"contracts/mock/CMTStakingMock.sol:CMTStakingMock","label":"validatorLimit","offset":0,"slot":"311","type":"t_uint32"},{"astId":5897,"contract":"contracts/mock/CMTStakingMock.sol:CMTStakingMock","label":"lockPeriod","offset":4,"slot":"311","type":"t_uint32"},{"astId":5899,"contract":"contracts/mock/CMTStakingMock.sol:CMTStakingMock","label":"validatorRewardPerBlock","offset":0,"slot":"312","type":"t_uint256"},{"astId":5901,"contract":"contracts/mock/CMTStakingMock.sol:CMTStakingMock","label":"stakerRewardPerBlock","offset":0,"slot":"313","type":"t_uint256"},{"astId":5903,"contract":"contracts/mock/CMTStakingMock.sol:CMTStakingMock","label":"totalStakeAmount","offset":0,"slot":"314","type":"t_uint256"},{"astId":5905,"contract":"contracts/mock/CMTStakingMock.sol:CMTStakingMock","label":"activeStakeAmount","offset":0,"slot":"315","type":"t_uint256"}],"types":{"t_address":{"encoding":"inplace","label":"address","numberOfBytes":"20"},"t_array(t_bytes32)dyn_storage":{"base":"t_bytes32","encoding":"dynamic_array","label":"bytes32[]","numberOfBytes":"32"},"t_array(t_uint256)49_storage":{"base":"t_uint256","encoding":"inplace","label":"uint256[49]","numberOfBytes":"1568"},"t_array(t_uint256)50_storage":{"base":"t_uint256","encoding":"inplace","label":"uint256[50]","numberOfBytes":"1600"},"t_bool":{"encoding":"inplace","label":"bool","numberOfBytes":"1"},"t_bytes32":{"encoding":"inplace","label":"bytes32","numberOfBytes":"32"},"t_int128":{"encoding":"inplace","label":"int128","numberOfBytes":"16"},"t_mapping(t_address,t_mapping(t_address,t_struct(StakeInfo)5860_storage))":{"encoding":"mapping","key":"t_address","label":"mapping(address => mapping(address => struct CMTStakingMock.StakeInfo))","numberOfBytes":"32","value":"t_mapping(t_address,t_struct(StakeInfo)5860_storage)"},"t_mapping(t_address,t_struct(Bytes32Deque)3208_storage)":{"encoding":"mapping","key":"t_address","label":"mapping(address => struct DoubleEndedQueue.Bytes32Deque)","numberOfBytes":"32","value":"t_struct(Bytes32Deque)3208_storage"},"t_mapping(t_address,t_struct(Pool)5851_storage)":{"encoding":"mapping","key":"t_address","label":"mapping(address => struct CMTStakingMock.Pool)","numberOfBytes":"32","value":"t_struct(Pool)5851_storage"},"t_mapping(t_address,t_struct(StakeInfo)5860_storage)":{"encoding":"mapping","key":"t_address","label":"mapping(address => struct CMTStakingMock.StakeInfo)","numberOfBytes":"32","value":"t_struct(StakeInfo)5860_storage"},"t_mapping(t_bytes32,t_uint256)":{"encoding":"mapping","key":"t_bytes32","label":"mapping(bytes32 => uint256)","numberOfBytes":"32","value":"t_uint256"},"t_mapping(t_int128,t_bytes32)":{"encoding":"mapping","key":"t_int128","label":"mapping(int128 => bytes32)","numberOfBytes":"32","value":"t_bytes32"},"t_struct(AddressSet)3842_storage":{"encoding":"inplace","label":"struct EnumerableSet.AddressSet","members":[{"astId":3841,"contract":"contracts/mock/CMTStakingMock.sol:CMTStakingMock","label":"_inner","offset":0,"slot":"0","type":"t_struct(Set)3541_storage"}],"numberOfBytes":"64"},"t_struct(Bytes32Deque)3208_storage":{"encoding":"inplace","label":"struct DoubleEndedQueue.Bytes32Deque","members":[{"astId":3201,"contract":"contracts/mock/CMTStakingMock.sol:CMTStakingMock","label":"_begin","offset":0,"slot":"0","type":"t_int128"},{"astId":3203,"contract":"contracts/mock/CMTStakingMock.sol:CMTStakingMock","label":"_end","offset":16,"slot":"0","type":"t_int128"},{"astId":3207,"contract":"contracts/mock/CMTStakingMock.sol:CMTStakingMock","label":"_data","offset":0,"slot":"1","type":"t_mapping(t_int128,t_bytes32)"}],"numberOfBytes":"64"},"t_struct(Pool)5851_storage":{"encoding":"inplace","label":"struct CMTStakingMock.Pool","members":[{"astId":5848,"contract":"contracts/mock/CMTStakingMock.sol:CMTStakingMock","label":"lastAUR","offset":0,"slot":"0","type":"t_uint256"},{"astId":5850,"contract":"contracts/mock/CMTStakingMock.sol:CMTStakingMock","label":"updateBlock","offset":0,"slot":"1","type":"t_uint256"}],"numberOfBytes":"64"},"t_struct(Set)3541_storage":{"encoding":"inplace","label":"struct EnumerableSet.Set","members":[{"astId":3536,"contract":"contracts/mock/CMTStakingMock.sol:CMTStakingMock","label":"_values","offset":0,"slot":"0","type":"t_array(t_bytes32)dyn_storage"},{"astId":3540,"contract":"contracts/mock/CMTStakingMock.sol:CMTStakingMock","label":"_indexes","offset":0,"slot":"1","type":"t_mapping(t_bytes32,t_uint256)"}],"numberOfBytes":"64"},"t_struct(StakeInfo)5860_storage":{"encoding":"inplace","label":"struct CMTStakingMock.StakeInfo","members":[{"astId":5853,"contract":"contracts/mock/CMTStakingMock.sol:CMTStakingMock","label":"stakeAmount","offset":0,"slot":"0","type":"t_uint256"},{"astId":5855,"contract":"contracts/mock/CMTStakingMock.sol:CMTStakingMock","label":"rewardDebt","offset":0,"slot":"1","type":"t_uint256"},{"astId":5857,"contract":"contracts/mock/CMTStakingMock.sol:CMTStakingMock","label":"pendingReward","offset":0,"slot":"2","type":"t_uint256"},{"astId":5859,"contract":"contracts/mock/CMTStakingMock.sol:CMTStakingMock","label":"updateBlock","offset":0,"slot":"3","type":"t_uint256"}],"numberOfBytes":"128"},"t_uint256":{"encoding":"inplace","label":"uint256","numberOfBytes":"32"},"t_uint32":{"encoding":"inplace","label":"uint32","numberOfBytes":"4"},"t_uint8":{"encoding":"inplace","label":"uint8","numberOfBytes":"1"}}}}}}