{"contracts/CMTStaking.sol":{"CMTStaking":{"abi":[{"inputs":[{"internalType":"uint256","name":"minStakeAmount","type":"uint256"},{"internalType":"uint256","name":"minWithdrawAmount","type":"uint256"}],"stateMutability":"nonpayable","type":"constructor"},{"anonymous":false,"inputs":[{"indexed":false,"internalType":"address","name":"previousAdmin","type":"address"},{"indexed":false,"internalType":"address","name":"newAdmin","type":"address"}],"name":"AdminChanged","type":"event"},{"anonymous":false,"inputs":[{"indexed":true,"internalType":"address","name":"beacon","type":"address"}],"name":"BeaconUpgraded","type":"event"},{"anonymous":false,"inputs":[{"indexed":false,"internalType":"uint8","name":"version","type":"uint8"}],"name":"Initialized","type":"event"},{"anonymous":false,"inputs":[{"indexed":false,"internalType":"uint32","name":"newLockPeriod","type":"uint32"}],"name":"LockPeriodChanged","type":"event"},{"anonymous":false,"inputs":[{"indexed":true,"internalType":"address","name":"previousOwner","type":"address"},{"indexed":true,"internalType":"address","name":"newOwner","type":"address"}],"name":"OwnershipTransferred","type":"event"},{"anonymous":false,"inputs":[{"indexed":false,"internalType":"address","name":"account","type":"address"}],"name":"Paused","type":"event"},{"anonymous":false,"inputs":[{"indexed":true,"internalType":"address","name":"sender","type":"address"},{"indexed":false,"internalType":"uint256","name":"amount","type":"uint256"}],"name":"Received","type":"event"},{"anonymous":false,"inputs":[{"indexed":false,"internalType":"uint256","name":"validatorReward","type":"uint256"},{"indexed":false,"internalType":"uint256","name":"stakerReward","type":"uint256"}],"name":"RewardPerBlockChanged","type":"event"},{"anonymous":false,"inputs":[{"indexed":true,"internalType":"address","name":"staker","type":"address"},{"indexed":true,"internalType":"address","name":"validator","type":"address"},{"indexed":false,"internalType":"uint256","name":"amount","type":"uint256"}],"name":"Stake","type":"event"},{"anonymous":false,"inputs":[{"indexed":false,"internalType":"address","name":"account","type":"address"}],"name":"Unpaused","type":"event"},{"anonymous":false,"inputs":[{"indexed":true,"internalType":"address","name":"staker","type":"address"},{"indexed":true,"internalType":"address","name":"validator","type":"address"},{"indexed":false,"internalType":"uint256","name":"unstakeAmount","type":"uint256"},{"indexed":false,"internalType":"uint256","name":"claimedReward","type":"uint256"},{"indexed":false,"internalType":"uint256","name":"withdrawalId","type":"uint256"}],"name":"Unstake","type":"event"},{"anonymous":false,"inputs":[{"indexed":true,"internalType":"address","name":"implementation","type":"address"}],"name":"Upgraded","type":"event"},{"anonymous":false,"inputs":[{"indexed":false,"internalType":"address","name":"validator","type":"address"},{"indexed":false,"internalType":"bool","name":"isValid","type":"bool"}],"name":"ValidatorChanged","type":"event"},{"anonymous":false,"inputs":[{"indexed":true,"internalType":"address","name":"account","type":"address"},{"indexed":true,"internalType":"address","name":"recipient","type":"address"},{"indexed":false,"internalType":"uint256","name":"withdrawalId","type":"uint256"},{"indexed":false,"internalType":"uint256","name":"amount","type":"uint256"}],"name":"WithdrawalCompleted","type":"event"},{"anonymous":false,"inputs":[{"indexed":true,"internalType":"address","name":"account","type":"address"},{"indexed":false,"internalType":"uint256","name":"withdrawalId","type":"uint256"},{"indexed":false,"internalType":"uint256","name":"amount","type":"uint256"}],"name":"WithdrawalInitiated","type":"event"},{"inputs":[],"name":"AUR_PREC","outputs":[{"internalType":"uint256","name":"","type":"uint256"}],"stateMutability":"view","type":"function"},{"inputs":[],"name":"MIN_STAKE_AMOUNT","outputs":[{"internalType":"uint256","name":"","type":"uint256"}],"stateMutability":"view","type":"function"},{"inputs":[],"name":"MIN_WITHDRAW_AMOUNT","outputs":[{"internalType":"uint256","name":"","type":"uint256"}],"stateMutability":"view","type":"function"},{"inputs":[],"name":"activeStakeAmount","outputs":[{"internalType":"uint256","name":"","type":"uint256"}],"stateMutability":"view","type":"function"},{"inputs":[],"name":"activeValidators","outputs":[{"internalType":"address[]","name":"","type":"address[]"}],"stateMutability":"view","type":"function"},{"inputs":[{"internalType":"address","name":"validator","type":"address"}],"name":"addValidator","outputs":[],"stateMutability":"nonpayable","type":"function"},{"inputs":[{"internalType":"address payable","name":"recipient","type":"address"},{"internalType":"uint256","name":"withdrawalId","type":"uint256"}],"name":"completeWithdraw","outputs":[],"stateMutability":"nonpayable","type":"function"},{"inputs":[{"internalType":"address","name":"account","type":"address"},{"internalType":"uint256","name":"timestamp","type":"uint256"}],"name":"dueWithdrawalCount","outputs":[{"internalType":"uint256","name":"","type":"uint256"}],"stateMutability":"view","type":"function"},{"inputs":[],"name":"getVersion","outputs":[{"internalType":"uint256","name":"","type":"uint256"}],"stateMutability":"pure","type":"function"},{"inputs":[{"internalType":"address","name":"","type":"address"}],"name":"inactivePools","outputs":[{"internalType":"uint256","name":"lastAUR","type":"uint256"},{"internalType":"uint256","name":"updateBlock","type":"uint256"}],"stateMutability":"view","type":"function"},{"inputs":[{"internalType":"address","name":"owner","type":"address"},{"internalType":"address","name":"validator","type":"address"}],"name":"initialize","outputs":[],"stateMutability":"nonpayable","type":"function"},{"inputs":[{"internalType":"address","name":"validator","type":"address"}],"name":"isActiveValidator","outputs":[{"internalType":"bool","name":"","type":"bool"}],"stateMutability":"view","type":"function"},{"inputs":[],"name":"keeper","outputs":[{"internalType":"address","name":"","type":"address"}],"stateMutability":"view","type":"function"},{"inputs":[],"name":"lockPeriod","outputs":[{"internalType":"uint32","name":"","type":"uint32"}],"stateMutability":"view","type":"function"},{"inputs":[],"name":"owner","outputs":[{"internalType":"address","name":"","type":"address"}],"stateMutability":"view","type":"function"},{"inputs":[],"name":"pause","outputs":[],"stateMutability":"nonpayable","type":"function"},{"inputs":[],"name":"paused","outputs":[{"internalType":"bool","name":"","type":"bool"}],"stateMutability":"view","type":"function"},{"inputs":[{"internalType":"address","name":"validator","type":"address"},{"internalType":"address","name":"staker","type":"address"}],"name":"pendingReward","outputs":[{"internalType":"uint256","name":"","type":"uint256"}],"stateMutability":"view","type":"function"},{"inputs":[],"name":"proxiableUUID","outputs":[{"internalType":"bytes32","name":"","type":"bytes32"}],"stateMutability":"view","type":"function"},{"inputs":[{"internalType":"address","name":"validator","type":"address"}],"name":"removeValidator","outputs":[],"stateMutability":"nonpayable","type":"function"},{"inputs":[],"name":"renounceOwnership","outputs":[],"stateMutability":"nonpayable","type":"function"},{"inputs":[{"internalType":"address","name":"newKeeper","type":"address"}],"name":"setKeeper","outputs":[],"stateMutability":"nonpayable","type":"function"},{"inputs":[{"internalType":"uint32","name":"period","type":"uint32"}],"name":"setLockPeriod","outputs":[],"stateMutability":"nonpayable","type":"function"},{"inputs":[{"internalType":"uint256","name":"amount","type":"uint256"}],"name":"setRewardPerBlock","outputs":[],"stateMutability":"nonpayable","type":"function"},{"inputs":[{"internalType":"uint32","name":"limit","type":"uint32"}],"name":"setValidatorLimit","outputs":[],"stateMutability":"nonpayable","type":"function"},{"inputs":[{"internalType":"address","name":"validator","type":"address"}],"name":"stake","outputs":[],"stateMutability":"payable","type":"function"},{"inputs":[{"internalType":"address","name":"","type":"address"},{"internalType":"address","name":"","type":"address"}],"name":"stakeTable","outputs":[{"internalType":"uint256","name":"stakeAmount","type":"uint256"},{"internalType":"uint256","name":"rewardDebt","type":"uint256"},{"internalType":"uint256","name":"pendingReward","type":"uint256"},{"internalType":"uint256","name":"updateBlock","type":"uint256"}],"stateMutability":"view","type":"function"},{"inputs":[],"name":"stakerPool","outputs":[{"internalType":"uint256","name":"lastAUR","type":"uint256"},{"internalType":"uint256","name":"updateBlock","type":"uint256"}],"stateMutability":"view","type":"function"},{"inputs":[],"name":"stakerRewardPerBlock","outputs":[{"internalType":"uint256","name":"","type":"uint256"}],"stateMutability":"view","type":"function"},{"inputs":[],"name":"totalStakeAmount","outputs":[{"internalType":"uint256","name":"","type":"uint256"}],"stateMutability":"view","type":"function"},{"inputs":[{"internalType":"address","name":"newOwner","type":"address"}],"name":"transferOwnership","outputs":[],"stateMutability":"nonpayable","type":"function"},{"inputs":[],"name":"unpause","outputs":[],"stateMutability":"nonpayable","type":"function"},{"inputs":[{"internalType":"address","name":"validator","type":"address"},{"internalType":"uint256","name":"amount","type":"uint256"}],"name":"unstake","outputs":[],"stateMutability":"nonpayable","type":"function"},{"inputs":[{"internalType":"address","name":"newImplementation","type":"address"}],"name":"upgradeTo","outputs":[],"stateMutability":"nonpayable","type":"function"},{"inputs":[{"internalType":"address","name":"newImplementation","type":"address"},{"internalType":"bytes","name":"data","type":"bytes"}],"name":"upgradeToAndCall","outputs":[],"stateMutability":"payable","type":"function"},{"inputs":[],"name":"validatorLimit","outputs":[{"internalType":"uint32","name":"","type":"uint32"}],"stateMutability":"view","type":"function"},{"inputs":[],"name":"validatorPool","outputs":[{"internalType":"uint256","name":"lastAUR","type":"uint256"},{"internalType":"uint256","name":"updateBlock","type":"uint256"}],"stateMutability":"view","type":"function"},{"inputs":[],"name":"validatorRewardPerBlock","outputs":[{"internalType":"uint256","name":"","type":"uint256"}],"stateMutability":"view","type":"function"},{"inputs":[{"internalType":"uint256","name":"amount","type":"uint256"}],"name":"validatorWithdraw","outputs":[],"stateMutability":"nonpayable","type":"function"},{"inputs":[{"internalType":"address","name":"","type":"address"},{"internalType":"uint256","name":"","type":"uint256"}],"name":"withdrawTable","outputs":[{"internalType":"uint256","name":"amount","type":"uint256"},{"internalType":"bool","name":"completed","type":"bool"},{"internalType":"uint64","name":"timestamp","type":"uint64"}],"stateMutability":"view","type":"function"},{"stateMutability":"payable","type":"receive"}],"evm":{"bytecode":{"linkReferences":{},"object":"60e06040523060601b6080523480156200001857600080fd5b506040516200334e3803806200334e8339810160408190526200003b916200016d565b62000045620000ae565b633b9aca008210156200009f5760405162461bcd60e51b815260206004820152601d60248201527f496e76616c6964206d696e696d616c207374616b6520616d6f756e742e00000060448201526064015b60405180910390fd5b60a09190915260c05262000191565b600054610100900460ff1615620001185760405162461bcd60e51b815260206004820152602760248201527f496e697469616c697a61626c653a20636f6e747261637420697320696e697469604482015266616c697a696e6760c81b606482015260840162000096565b60005460ff90811610156200016b576000805460ff191660ff9081179091556040519081527f7f26b83ff96e1f2b6a682f133852f6798a09c465da95921460cefb38474024989060200160405180910390a15b565b6000806040838503121562000180578182fd5b505080516020909101519092909150565b60805160601c60a05160c051613160620001ee6000396000818161066901526125960152600081816103260152610866015260008181610b1b01528181610b5b015281816110d901528181611119015261122801526131606000f3fe60806040526004361061023f5760003560e01c8063715018a61161012e578063bb872b4a116100ab578063eaf7c9dc1161006f578063eaf7c9dc14610721578063f0544ac814610741578063f2fde38b1461075e578063f489f23b1461077e578063f6a2314a1461079e57600080fd5b8063bb872b4a1461068b578063c2a672e0146106ab578063d2d49c4b146106cb578063d4c6d1de146106ed578063d849a5021461070a57600080fd5b80638da5cb5b116100f25780638da5cb5b146105cd57806394409a56146105ff5780639ced7e7614610616578063aced166114610636578063b68578441461065757600080fd5b8063715018a61461054c578063748747e6146105615780637b66394c146105815780637ea5db42146105a15780638456cb59146105b857600080fd5b806340550a1c116101bc5780634f1ef286116101805780634f1ef286146104ce578063522abc40146104e157806352d1902d1461050157806357525cbc146105165780635c975abb1461053457600080fd5b806340550a1c1461042257806340a141ff1461045257806345f7b8f414610472578063485cc9551461048e5780634d238c8e146104ae57600080fd5b8063340c5a2511610203578063340c5a25146103485780633659cfe6146103925780633ec18284146103b25780633f4ba83a146103d25780633fd8b02f146103e757600080fd5b80630d8e6e2c146102805780630efa2fed146102a357806324e770d0146102e857806326476204146102ff57806327ed71881461031457600080fd5b3661027b5760405134815233907f88a5966d370b9919b20f3e2c13ff65706f196a4e32cc2c12bf57088f885258749060200160405180910390a2005b600080fd5b34801561028c57600080fd5b5060015b6040519081526020015b60405180910390f35b3480156102af57600080fd5b506102c36102be366004612d8f565b61080c565b60408051938452911515602084015267ffffffffffffffff169082015260600161029a565b3480156102f457600080fd5b506102906101395481565b61031261030d366004612c51565b61085c565b005b34801561032057600080fd5b506102907f000000000000000000000000000000000000000000000000000000000000000081565b34801561035457600080fd5b5061037d610363366004612c51565b610134602052600090815260409020805460019091015482565b6040805192835260208301919091520161029a565b34801561039e57600080fd5b506103126103ad366004612c51565b610b10565b3480156103be57600080fd5b506102906103cd366004612d8f565b610bf0565b3480156103de57600080fd5b50610312610d32565b3480156103f357600080fd5b506101375461040d90640100000000900463ffffffff1681565b60405163ffffffff909116815260200161029a565b34801561042e57600080fd5b5061044261043d366004612c51565b610d44565b604051901515815260200161029a565b34801561045e57600080fd5b5061031261046d366004612c51565b610d52565b34801561047e57600080fd5b50610290670de0b6b3a764000081565b34801561049a57600080fd5b506103126104a9366004612c98565b610f47565b3480156104ba57600080fd5b506103126104c9366004612c51565b6110bd565b6103126104dc366004612cd0565b6110ce565b3480156104ed57600080fd5b506103126104fc366004612dd1565b61119f565b34801561050d57600080fd5b5061029061121b565b34801561052257600080fd5b506101375461040d9063ffffffff1681565b34801561054057600080fd5b5060655460ff16610442565b34801561055857600080fd5b506103126112ce565b34801561056d57600080fd5b5061031261057c366004612c51565b6112e0565b34801561058d57600080fd5b5061031261059c366004612c6d565b611361565b3480156105ad57600080fd5b506102906101385481565b3480156105c457600080fd5b5061031261136c565b3480156105d957600080fd5b506097546001600160a01b03165b6040516001600160a01b03909116815260200161029a565b34801561060b57600080fd5b5061029061013a5481565b34801561062257600080fd5b50610290610631366004612c98565b61137c565b34801561064257600080fd5b5061012d546105e7906001600160a01b031681565b34801561066357600080fd5b506102907f000000000000000000000000000000000000000000000000000000000000000081565b34801561069757600080fd5b506103126106a6366004612db9565b6114c2565b3480156106b757600080fd5b506103126106c6366004612d8f565b61152d565b3480156106d757600080fd5b506106e0611874565b60405161029a9190612e11565b3480156106f957600080fd5b50610130546101315461037d919082565b34801561071657600080fd5b5061029061013b5481565b34801561072d57600080fd5b5061031261073c366004612db9565b611886565b34801561074d57600080fd5b50610132546101335461037d919082565b34801561076a57600080fd5b50610312610779366004612c51565b611a46565b34801561078a57600080fd5b50610312610799366004612dd1565b611abc565b3480156107aa57600080fd5b506107ec6107b9366004612c98565b61013560209081526000928352604080842090915290825290208054600182015460028301546003909301549192909184565b60408051948552602085019390935291830152606082015260800161029a565b610136602052816000526040600020818154811061082957600080fd5b60009182526020909120600290910201805460019091015490925060ff81169150610100900467ffffffffffffffff1683565b610864611b1d565b7f00000000000000000000000000000000000000000000000000000000000000003410156108e85760405162461bcd60e51b815260206004820152602660248201527f5374616b6520616d6f756e74206d757374203e3d204d494e5f5354414b455f4160448201526526a7aaa72a1760d11b60648201526084015b60405180910390fd5b6108f181610d44565b61090d5760405162461bcd60e51b81526004016108df90612f74565b600080610918611b63565b6001600160a01b03851660008181526000805160206130c4833981519152602090815260408083208151608080820184528254825260018084015483870152600280850154848701526003948501546060808601919091529888526101358752858820338952875296859020855192830186528054835290810154958201959095529484015492850192909252919091015492820192909252929450909250906109c28483611c07565b6109cc8382611c07565b34826000018181516109de9190612fbc565b9052508051349082906109f2908390612fbc565b9052506109ff8483611c5c565b610a098382611c5c565b4360608084018281529083019182526001600160a01b03871660009081526000805160206130c48339815191526020908152604080832087518155828801516001808301919091558289015160028084019190915595516003928301556101358452828520338652845282852088518155938801519084015590860151938201939093559251929091019190915561013b8054349290610aaa908490612fbc565b925050819055503461013a6000828254610ac49190612fbc565b90915550506040513481526001600160a01b0386169033907f99039fcf0a98f484616c5196ee8b2ecfa971babf0b519848289ea4db381f85f79060200160405180910390a35050505050565b306001600160a01b037f0000000000000000000000000000000000000000000000000000000000000000161415610b595760405162461bcd60e51b81526004016108df90612e91565b7f00000000000000000000000000000000000000000000000000000000000000006001600160a01b0316610ba26000805160206130e4833981519152546001600160a01b031690565b6001600160a01b031614610bc85760405162461bcd60e51b81526004016108df90612edd565b610bd181611c86565b60408051600080825260208201909252610bed91839190611ceb565b50565b6001600160a01b03821660009081526101366020908152604080832080548251818502810185019093528083528493849084015b82821015610c7f57600084815260209081902060408051606081018252600286029092018054835260019081015460ff8116151584860152610100900467ffffffffffffffff16918301919091529083529092019101610c24565b505050509050600080825190505b80821015610d275760006002610ca38385612fbc565b610cad9190613000565b610137548551919250640100000000900463ffffffff1690859083908110610ce557634e487b7160e01b600052603260045260246000fd5b602002602001015160400151610cfb9190612fd4565b67ffffffffffffffff168610610d1d57610d16816001612fbc565b9250610d21565b8091505b50610c8d565b925050505b92915050565b610d3a611e65565b610d42611ebf565b565b6000610d2c61012e83611f11565b610d5a611e65565b6001610d6761012e611f36565b11610dbe5760405162461bcd60e51b815260206004820152602160248201527f43616e6e6f742072656d6f766520746865206f6e6c792076616c696461746f726044820152601760f91b60648201526084016108df565b610dc781610d44565b610de35760405162461bcd60e51b81526004016108df90612f74565b600080610dee611b63565b6001600160a01b03851660009081526000805160206130c4833981519152602090815260409182902082516080810184528154815260018201549281019290925260028101549282019290925260039091015460608201529193509150610e558382611c07565b610e5f8382611c5c565b43606082019081526001600160a01b03851660009081526000805160206130c48339815191526020908152604091829020845181559084015160018201559083015160028201559051600390910155610eba61012e85611f40565b506001600160a01b03841660009081526101346020908152604082208451815590840151600190910155815161013b805491929091610efa90849061303f565b9091555050604080516001600160a01b0386168152600060208201527fd2b4a3ae4917617aaa5e6caa5541a3331944d66baa187ef6c350f1ce4012d819910160405180910390a150505050565b600054610100900460ff1615808015610f675750600054600160ff909116105b80610f815750303b158015610f81575060005460ff166001145b610fe45760405162461bcd60e51b815260206004820152602e60248201527f496e697469616c697a61626c653a20636f6e747261637420697320616c72656160448201526d191e481a5b9a5d1a585b1a5e995960921b60648201526084016108df565b6000805460ff191660011790558015611007576000805461ff0019166101001790555b61100f611f55565b611017611f84565b61102083611fb3565b611028612005565b61012d80546001600160a01b03191633179055610137805463ffffffff1916601517905561105d674563918244f4000061202c565b61106962093a80612092565b611072826120e9565b80156110b8576000805461ff0019169055604051600181527f7f26b83ff96e1f2b6a682f133852f6798a09c465da95921460cefb38474024989060200160405180910390a15b505050565b6110c5611e65565b610bed816120e9565b306001600160a01b037f00000000000000000000000000000000000000000000000000000000000000001614156111175760405162461bcd60e51b81526004016108df90612e91565b7f00000000000000000000000000000000000000000000000000000000000000006001600160a01b03166111606000805160206130e4833981519152546001600160a01b031690565b6001600160a01b0316146111865760405162461bcd60e51b81526004016108df90612edd565b61118f82611c86565b61119b82826001611ceb565b5050565b6111a7611e65565b6111b261012e611f36565b8163ffffffff1610156111fe5760405162461bcd60e51b815260206004820152601460248201527324b73b30b634b2103634b6b4ba103b30b63ab29760611b60448201526064016108df565b610137805463ffffffff191663ffffffff92909216919091179055565b6000306001600160a01b037f000000000000000000000000000000000000000000000000000000000000000016146112bb5760405162461bcd60e51b815260206004820152603860248201527f555550535570677261646561626c653a206d757374206e6f742062652063616c60448201527f6c6564207468726f7567682064656c656761746563616c6c000000000000000060648201526084016108df565b506000805160206130e483398151915290565b6112d6611e65565b610d426000611fb3565b6112e8611e65565b6001600160a01b03811661133e5760405162461bcd60e51b815260206004820152601760248201527f496e76616c6964206b656570657220616464726573732e00000000000000000060448201526064016108df565b61012d80546001600160a01b0319166001600160a01b0392909216919091179055565b61119b338383612253565b611374611e65565b610d426123ed565b6001600160a01b0382811660008181526101356020908152604080832094861683529381528382208451608081018652815481526001820154818401526002820154818701526003909101546060820152845180860190955282855290840182905290929091611438576113ef84610d44565b1561142c5750604080518082019091526101305481526101315460208201526101385461013b5461142191839161242a565b5061142c8183611c07565b50604001519050610d2c565b61144185610d44565b156114795750604080518082019091526101325481526101335460208201526101395461013b5461147391839161242a565b506114ac565b506001600160a01b0384166000908152610134602090815260409182902082518084019093528054835260010154908201525b6114b68183611c07565b50604001519392505050565b6114ca611e65565b6000811161151a5760405162461bcd60e51b815260206004820152601960248201527f496e76616c6964207265776172642070657220626c6f636b2e0000000000000060448201526064016108df565b611522611b63565b5050610bed8161202c565b600260015414156115805760405162461bcd60e51b815260206004820152601f60248201527f5265656e7472616e637947756172643a207265656e7472616e742063616c6c0060448201526064016108df565b600260015561158d611b1d565b600080611598611b63565b6001600160a01b03861660008181526000805160206130c4833981519152602090815260408083208151608080820184528254825260018084015483870152600280850154848701526003948501546060808601919091528989526101358852868920338a5288529786902086519384018752805484529182015496830196909652948501549381019390935292015492810192909252939550919350158015906116465750606081015115155b6116925760405162461bcd60e51b815260206004820152601760248201527f5374616b65207265636f7264206e6f7420666f756e642e00000000000000000060448201526064016108df565b60008061169e88610d44565b156116f9576116ad8685611c07565b6116b78584611c07565b6116c28484896124ad565b90925090506116d18685611c5c565b6116db8584611c5c565b8161013b60008282546116ee919061303f565b909155506117509050565b6001600160a01b03881660009081526101346020908152604091829020825180840190935280548352600101549082015294506117368584611c07565b6117418484896124ad565b90925090506117508584611c5c565b4360608086018281529085019182526001600160a01b038a1660009081526000805160206130c48339815191526020908152604080832089518155828a0151600180830191909155828b01516002808401919091559551600392830155610135845282852033865284528285208a518155938a01519084015590880151938201939093559251929091019190915561013a80548492906117f190849061303f565b909155505033600081815261013660209081526040918290205482518681529182018590528183015290516001600160a01b038b1692917ffe7007b2e89d80edda76299251df08366480cac22e5e260f5e662e850b1f7a32919081900360600190a3611866336118618385612fbc565b612594565b505060018055505050505050565b606061188161012e6126f6565b905090565b600260015414156118d95760405162461bcd60e51b815260206004820152601f60248201527f5265656e7472616e637947756172643a207265656e7472616e742063616c6c0060448201526064016108df565b60026001556118e6611b1d565b60006118f0611b63565b503360008181526000805160206130c48339815191526020908152604091829020825160808101845281548152600182015492810192909252600281015492820192909252600390910154606082015291925061194c90610d44565b156119655761195b8282611c07565b6119658282611c5c565b600083118015611979575080604001518311155b6119d55760405162461bcd60e51b815260206004820152602760248201527f496e76616c696420616d6f756e74206f7220696e73756666696369656e74206260448201526630b630b731b29760c91b60648201526084016108df565b82816040018181516119e7919061303f565b90525043606082019081523360008181526000805160206130c48339815191526020908152604091829020855181559085015160018201559084015160028201559151600390920191909155611a3d9084612594565b50506001805550565b611a4e611e65565b6001600160a01b038116611ab35760405162461bcd60e51b815260206004820152602660248201527f4f776e61626c653a206e6577206f776e657220697320746865207a65726f206160448201526564647265737360d01b60648201526084016108df565b610bed81611fb3565b611ac4611e65565b620151808163ffffffff161015611b145760405162461bcd60e51b815260206004820152601460248201527324b73b30b634b2103637b1b5903832b934b7b21760611b60448201526064016108df565b610bed81612092565b60655460ff1615610d425760405162461bcd60e51b815260206004820152601060248201526f14185d5cd8589b194e881c185d5cd95960821b60448201526064016108df565b60408051808201909152600080825260208201526040805180820190915260008082526020820152604080518082019091526101305481526101315460208201526101385461013b54611bb792919061242a565b604080518082019091526101325481526101335460208201526101395461013b54929450611be49261242a565b825161013055602080840151610131558151610132558101516101335591929050565b6060810151611c14575050565b602081015182518251670de0b6b3a764000091611c3091613020565b611c3a9190613000565b611c44919061303f565b81604001818151611c559190612fbc565b9052505050565b81518151670de0b6b3a764000091611c7391613020565b611c7d9190613000565b60209091015250565b61012d546001600160a01b03163314610bed5760405162461bcd60e51b815260206004820152602160248201527f4f6e6c79206b65657065722063616e207570677261646520636f6e74726163746044820152601760f91b60648201526084016108df565b7f4910fdfa16fed3260ed0e7147f7cc6da11a60208b5b9406d12a635614ffd91435460ff1615611d1e576110b883612703565b826001600160a01b03166352d1902d6040518163ffffffff1660e01b815260040160206040518083038186803b158015611d5757600080fd5b505afa925050508015611d87575060408051601f3d908101601f19168201909252611d8491810190612da1565b60015b611dea5760405162461bcd60e51b815260206004820152602e60248201527f45524331393637557067726164653a206e657720696d706c656d656e7461746960448201526d6f6e206973206e6f74205555505360901b60648201526084016108df565b6000805160206130e48339815191528114611e595760405162461bcd60e51b815260206004820152602960248201527f45524331393637557067726164653a20756e737570706f727465642070726f786044820152681a58589b195555525160ba1b60648201526084016108df565b506110b883838361279f565b6097546001600160a01b03163314610d425760405162461bcd60e51b815260206004820181905260248201527f4f776e61626c653a2063616c6c6572206973206e6f7420746865206f776e657260448201526064016108df565b611ec76127c4565b6065805460ff191690557f5db9ee0a495bf2e6ff9c91a7834c1ba4fdd244a5e8aa4e537bd38aeae4b073aa335b6040516001600160a01b03909116815260200160405180910390a1565b6001600160a01b038116600090815260018301602052604081205415155b9392505050565b6000610d2c825490565b6000611f2f836001600160a01b03841661280d565b600054610100900460ff16611f7c5760405162461bcd60e51b81526004016108df90612f29565b610d4261292a565b600054610100900460ff16611fab5760405162461bcd60e51b81526004016108df90612f29565b610d42612957565b609780546001600160a01b038381166001600160a01b0319831681179093556040519116919082907f8be0079c531659141344cd1fd0a4f28419497f9722a3daafe3b4186f6b6457e090600090a35050565b600054610100900460ff16610d425760405162461bcd60e51b81526004016108df90612f29565b612037600582613000565b610138819055612047908261303f565b610139819055610138546040517f79a5349732f93288abbb68e251c3dfc325bf3ee6fde7786d919155d39733e0f592612087928252602082015260400190565b60405180910390a150565b610137805467ffffffff00000000191664010000000063ffffffff8416908102919091179091556040519081527f401dae40edac291ec00ad4f9e16968c6c86b73fcd6faad7e35a55a27fa64d04890602001612087565b6001600160a01b0381166121325760405162461bcd60e51b815260206004820152601060248201526f24b73b30b634b21030b2323932b9b99760811b60448201526064016108df565b6101375463ffffffff1661214761012e611f36565b1061218b5760405162461bcd60e51b81526020600482015260146024820152732b30b634b230ba37b9399030b93290333ab6361760611b60448201526064016108df565b61219481610d44565b1580156121bb57506001600160a01b03811660009081526101346020526040902060010154155b6122075760405162461bcd60e51b815260206004820152601960248201527f56616c696461746f7220686164206265656e2061646465642e0000000000000060448201526064016108df565b61221361012e8261298a565b50604080516001600160a01b0383168152600160208201527fd2b4a3ae4917617aaa5e6caa5541a3331944d66baa187ef6c350f1ce4012d8199101612087565b6001600160a01b03831660009081526101366020526040812080548390811061228c57634e487b7160e01b600052603260045260246000fd5b60009182526020909120600290910201600181015490915060ff16156122f45760405162461bcd60e51b815260206004820152601860248201527f5769746864726177616c20697320636f6d706c657465642e000000000000000060448201526064016108df565b61013754600182015461232491640100000000900463ffffffff1690610100900467ffffffffffffffff16612fd4565b67ffffffffffffffff1642101561237d5760405162461bcd60e51b815260206004820152601d60248201527f5769746864726177616c20697320696e206c6f636b20706572696f642e00000060448201526064016108df565b6001818101805460ff1916909117905580546040805184815260208101929092526001600160a01b0385811692908716917fe01911a56be554fae2e8c04ebcc1c56c757ce4583c883b878180a6ce99fc8a09910160405180910390a36123e783826000015461299f565b50505050565b6123f5611b1d565b6065805460ff191660011790557f62e78cea01bee320cd4e420270b5ea74000d11b0c9f74754ebdbfc544b05a258611ef43390565b604080518082019091526000808252602082015281612450575043602084015282611f2f565b600083856020015143612463919061303f565b61246d9190613020565b905082612482670de0b6b3a764000083613020565b61248c9190613000565b8551869061249b908390612fbc565b90525050436020850152509192915050565b6000806000846040015185600001516124c69190612fbc565b9050808411156125105760405162461bcd60e51b815260206004820152601560248201527424b739bab33334b1b4b2b73a103130b630b731b29760591b60448201526064016108df565b60408501519150836125245780935061254e565b81841161254e57838560400181815161253d919061303f565b9052506000925083915061258c9050565b6000604086015261255f828561303f565b92508286600001818151612573919061303f565b90525084518390869061258790839061303f565b905250505b935093915050565b7f000000000000000000000000000000000000000000000000000000000000000081101561261b5760405162461bcd60e51b815260206004820152602e60248201527f5769746864726177616c20616d6f756e74206d757374203e3d204d494e5f574960448201526d2a24222920abafa0a6a7aaa72a1760911b60648201526084016108df565b6001600160a01b0382166000818152610136602090815260408083208054825160608101845287815280850186815267ffffffffffffffff4281168387019081526001808601875595895296909720915160028402909201918255519201805494519095166101000268ffffffffffffffff00199215159290921668ffffffffffffffffff19909416939093171790925590519091907f31f69201fab7912e3ec9850e3ab705964bf46d9d4276bdcbb6d05e965e5f5401906126e99084908690918252602082015260400190565b60405180910390a2505050565b60606000611f2f83612a42565b6001600160a01b0381163b6127705760405162461bcd60e51b815260206004820152602d60248201527f455243313936373a206e657720696d706c656d656e746174696f6e206973206e60448201526c1bdd08184818dbdb9d1c9858dd609a1b60648201526084016108df565b6000805160206130e483398151915280546001600160a01b0319166001600160a01b0392909216919091179055565b6127a883612a9e565b6000825111806127b55750805b156110b8576123e78383612ade565b60655460ff16610d425760405162461bcd60e51b815260206004820152601460248201527314185d5cd8589b194e881b9bdd081c185d5cd95960621b60448201526064016108df565b6000818152600183016020526040812054801561292057600061283160018361303f565b85549091506000906128459060019061303f565b90508181146128c657600086600001828154811061287357634e487b7160e01b600052603260045260246000fd5b90600052602060002001549050808760000184815481106128a457634e487b7160e01b600052603260045260246000fd5b6000918252602080832090910192909255918252600188019052604090208390555b85548690806128e557634e487b7160e01b600052603160045260246000fd5b600190038181906000526020600020016000905590558560010160008681526020019081526020016000206000905560019350505050610d2c565b6000915050610d2c565b600054610100900460ff166129515760405162461bcd60e51b81526004016108df90612f29565b60018055565b600054610100900460ff1661297e5760405162461bcd60e51b81526004016108df90612f29565b6065805460ff19169055565b6000611f2f836001600160a01b038416612bc9565b6000826001600160a01b03168260405160006040518083038185875af1925050503d80600081146129ec576040519150601f19603f3d011682016040523d82523d6000602084013e6129f1565b606091505b50509050806110b85760405162461bcd60e51b815260206004820152601c60248201527f4661696c656420746f2073656e64206e617469766520746f6b656e2e0000000060448201526064016108df565b606081600001805480602002602001604051908101604052809291908181526020018280548015612a9257602002820191906000526020600020905b815481526020019060010190808311612a7e575b50505050509050919050565b612aa781612703565b6040516001600160a01b038216907fbc7cd75a20ee27fd9adebab32041f755214dbc6bffa90cc0225b39da2e5c2d3b90600090a250565b60606001600160a01b0383163b612b465760405162461bcd60e51b815260206004820152602660248201527f416464726573733a2064656c65676174652063616c6c20746f206e6f6e2d636f6044820152651b9d1c9858dd60d21b60648201526084016108df565b600080846001600160a01b031684604051612b619190612df5565b600060405180830381855af49150503d8060008114612b9c576040519150601f19603f3d011682016040523d82523d6000602084013e612ba1565b606091505b5091509150610d27828260405180606001604052806027815260200161310460279139612c18565b6000818152600183016020526040812054612c1057508154600181810184556000848152602080822090930184905584548482528286019093526040902091909155610d2c565b506000610d2c565b60608315612c27575081611f2f565b825115612c375782518084602001fd5b8160405162461bcd60e51b81526004016108df9190612e5e565b600060208284031215612c62578081fd5b8135611f2f816130ae565b60008060408385031215612c7f578081fd5b8235612c8a816130ae565b946020939093013593505050565b60008060408385031215612caa578182fd5b8235612cb5816130ae565b91506020830135612cc5816130ae565b809150509250929050565b60008060408385031215612ce2578182fd5b8235612ced816130ae565b9150602083013567ffffffffffffffff80821115612d09578283fd5b818501915085601f830112612d1c578283fd5b813581811115612d2e57612d2e613098565b604051601f8201601f19908116603f01168101908382118183101715612d5657612d56613098565b81604052828152886020848701011115612d6e578586fd5b82602086016020830137856020848301015280955050505050509250929050565b60008060408385031215612c7f578182fd5b600060208284031215612db2578081fd5b5051919050565b600060208284031215612dca578081fd5b5035919050565b600060208284031215612de2578081fd5b813563ffffffff81168114611f2f578182fd5b60008251612e07818460208701613056565b9190910192915050565b6020808252825182820181905260009190848201906040850190845b81811015612e525783516001600160a01b031683529284019291840191600101612e2d565b50909695505050505050565b6020815260008251806020840152612e7d816040850160208701613056565b601f01601f19169190910160400192915050565b6020808252602c908201527f46756e6374696f6e206d7573742062652063616c6c6564207468726f7567682060408201526b19195b1959d85d1958d85b1b60a21b606082015260800190565b6020808252602c908201527f46756e6374696f6e206d7573742062652063616c6c6564207468726f7567682060408201526b6163746976652070726f787960a01b606082015260800190565b6020808252602b908201527f496e697469616c697a61626c653a20636f6e7472616374206973206e6f74206960408201526a6e697469616c697a696e6760a81b606082015260800190565b60208082526028908201527f56616c696461746f72206e6f74206578697374206f7220686173206265656e206040820152673932b6b7bb32b21760c11b606082015260800190565b60008219821115612fcf57612fcf613082565b500190565b600067ffffffffffffffff808316818516808303821115612ff757612ff7613082565b01949350505050565b60008261301b57634e487b7160e01b81526012600452602481fd5b500490565b600081600019048311821515161561303a5761303a613082565b500290565b60008282101561305157613051613082565b500390565b60005b83811015613071578181015183820152602001613059565b838111156123e75750506000910152565b634e487b7160e01b600052601160045260246000fd5b634e487b7160e01b600052604160045260246000fd5b6001600160a01b0381168114610bed57600080fdfe5b20f40cb5e9e634a90df9a72b516c11cc52281a4d1b7b67e672e2fe544ff22f360894a13ba1a3210667c828492db98dca3e2076cc3735a920a3ca505d382bbc416464726573733a206c6f772d6c6576656c2064656c65676174652063616c6c206661696c6564a2646970667358221220842b752c64339850501a346b049986b07388a7de5d9f854bc89f507b3585cbc564736f6c63430008040033","opcodes":"PUSH1 0xE0 PUSH1 0x40 MSTORE ADDRESS PUSH1 0x60 SHL PUSH1 0x80 MSTORE CALLVALUE DUP1 ISZERO PUSH3 0x18 JUMPI PUSH1 0x0 DUP1 REVERT JUMPDEST POP PUSH1 0x40 MLOAD PUSH3 0x334E CODESIZE SUB DUP1 PUSH3 0x334E DUP4 CODECOPY DUP2 ADD PUSH1 0x40 DUP2 SWAP1 MSTORE PUSH3 0x3B SWAP2 PUSH3 0x16D JUMP JUMPDEST PUSH3 0x45 PUSH3 0xAE JUMP JUMPDEST PUSH4 0x3B9ACA00 DUP3 LT ISZERO PUSH3 0x9F JUMPI PUSH1 0x40 MLOAD PUSH3 0x461BCD PUSH1 0xE5 SHL DUP2 MSTORE PUSH1 0x20 PUSH1 0x4 DUP3 ADD MSTORE PUSH1 0x1D PUSH1 0x24 DUP3 ADD MSTORE PUSH32 0x496E76616C6964206D696E696D616C207374616B6520616D6F756E742E000000 PUSH1 0x44 DUP3 ADD MSTORE PUSH1 0x64 ADD JUMPDEST PUSH1 0x40 MLOAD DUP1 SWAP2 SUB SWAP1 REVERT JUMPDEST PUSH1 0xA0 SWAP2 SWAP1 SWAP2 MSTORE PUSH1 0xC0 MSTORE PUSH3 0x191 JUMP JUMPDEST PUSH1 0x0 SLOAD PUSH2 0x100 SWAP1 DIV PUSH1 0xFF AND ISZERO PUSH3 0x118 JUMPI PUSH1 0x40 MLOAD PUSH3 0x461BCD PUSH1 0xE5 SHL DUP2 MSTORE PUSH1 0x20 PUSH1 0x4 DUP3 ADD MSTORE PUSH1 0x27 PUSH1 0x24 DUP3 ADD MSTORE PUSH32 0x496E697469616C697A61626C653A20636F6E747261637420697320696E697469 PUSH1 0x44 DUP3 ADD MSTORE PUSH7 0x616C697A696E67 PUSH1 0xC8 SHL PUSH1 0x64 DUP3 ADD MSTORE PUSH1 0x84 ADD PUSH3 0x96 JUMP JUMPDEST PUSH1 0x0 SLOAD PUSH1 0xFF SWAP1 DUP2 AND LT ISZERO PUSH3 0x16B JUMPI PUSH1 0x0 DUP1 SLOAD PUSH1 0xFF NOT AND PUSH1 0xFF SWAP1 DUP2 OR SWAP1 SWAP2 SSTORE PUSH1 0x40 MLOAD SWAP1 DUP2 MSTORE PUSH32 0x7F26B83FF96E1F2B6A682F133852F6798A09C465DA95921460CEFB3847402498 SWAP1 PUSH1 0x20 ADD PUSH1 0x40 MLOAD DUP1 SWAP2 SUB SWAP1 LOG1 JUMPDEST JUMP JUMPDEST PUSH1 0x0 DUP1 PUSH1 0x40 DUP4 DUP6 SUB SLT ISZERO PUSH3 0x180 JUMPI DUP2 DUP3 REVERT JUMPDEST POP POP DUP1 MLOAD PUSH1 0x20 SWAP1 SWAP2 ADD MLOAD SWAP1 SWAP3 SWAP1 SWAP2 POP JUMP JUMPDEST PUSH1 0x80 MLOAD PUSH1 0x60 SHR PUSH1 0xA0 MLOAD PUSH1 0xC0 MLOAD PUSH2 0x3160 PUSH3 0x1EE PUSH1 0x0 CODECOPY PUSH1 0x0 DUP2 DUP2 PUSH2 0x669 ADD MSTORE PUSH2 0x2596 ADD MSTORE PUSH1 0x0 DUP2 DUP2 PUSH2 0x326 ADD MSTORE PUSH2 0x866 ADD MSTORE PUSH1 0x0 DUP2 DUP2 PUSH2 0xB1B ADD MSTORE DUP2 DUP2 PUSH2 0xB5B ADD MSTORE DUP2 DUP2 PUSH2 0x10D9 ADD MSTORE DUP2 DUP2 PUSH2 0x1119 ADD MSTORE PUSH2 0x1228 ADD MSTORE PUSH2 0x3160 PUSH1 0x0 RETURN INVALID PUSH1 0x80 PUSH1 0x40 MSTORE PUSH1 0x4 CALLDATASIZE LT PUSH2 0x23F JUMPI PUSH1 0x0 CALLDATALOAD PUSH1 0xE0 SHR DUP1 PUSH4 0x715018A6 GT PUSH2 0x12E JUMPI DUP1 PUSH4 0xBB872B4A GT PUSH2 0xAB JUMPI DUP1 PUSH4 0xEAF7C9DC GT PUSH2 0x6F JUMPI DUP1 PUSH4 0xEAF7C9DC EQ PUSH2 0x721 JUMPI DUP1 PUSH4 0xF0544AC8 EQ PUSH2 0x741 JUMPI DUP1 PUSH4 0xF2FDE38B EQ PUSH2 0x75E JUMPI DUP1 PUSH4 0xF489F23B EQ PUSH2 0x77E JUMPI DUP1 PUSH4 0xF6A2314A EQ PUSH2 0x79E JUMPI PUSH1 0x0 DUP1 REVERT JUMPDEST DUP1 PUSH4 0xBB872B4A EQ PUSH2 0x68B JUMPI DUP1 PUSH4 0xC2A672E0 EQ PUSH2 0x6AB JUMPI DUP1 PUSH4 0xD2D49C4B EQ PUSH2 0x6CB JUMPI DUP1 PUSH4 0xD4C6D1DE EQ PUSH2 0x6ED JUMPI DUP1 PUSH4 0xD849A502 EQ PUSH2 0x70A JUMPI PUSH1 0x0 DUP1 REVERT JUMPDEST DUP1 PUSH4 0x8DA5CB5B GT PUSH2 0xF2 JUMPI DUP1 PUSH4 0x8DA5CB5B EQ PUSH2 0x5CD JUMPI DUP1 PUSH4 0x94409A56 EQ PUSH2 0x5FF JUMPI DUP1 PUSH4 0x9CED7E76 EQ PUSH2 0x616 JUMPI DUP1 PUSH4 0xACED1661 EQ PUSH2 0x636 JUMPI DUP1 PUSH4 0xB6857844 EQ PUSH2 0x657 JUMPI PUSH1 0x0 DUP1 REVERT JUMPDEST DUP1 PUSH4 0x715018A6 EQ PUSH2 0x54C JUMPI DUP1 PUSH4 0x748747E6 EQ PUSH2 0x561 JUMPI DUP1 PUSH4 0x7B66394C EQ PUSH2 0x581 JUMPI DUP1 PUSH4 0x7EA5DB42 EQ PUSH2 0x5A1 JUMPI DUP1 PUSH4 0x8456CB59 EQ PUSH2 0x5B8 JUMPI PUSH1 0x0 DUP1 REVERT JUMPDEST DUP1 PUSH4 0x40550A1C GT PUSH2 0x1BC JUMPI DUP1 PUSH4 0x4F1EF286 GT PUSH2 0x180 JUMPI DUP1 PUSH4 0x4F1EF286 EQ PUSH2 0x4CE JUMPI DUP1 PUSH4 0x522ABC40 EQ PUSH2 0x4E1 JUMPI DUP1 PUSH4 0x52D1902D EQ PUSH2 0x501 JUMPI DUP1 PUSH4 0x57525CBC EQ PUSH2 0x516 JUMPI DUP1 PUSH4 0x5C975ABB EQ PUSH2 0x534 JUMPI PUSH1 0x0 DUP1 REVERT JUMPDEST DUP1 PUSH4 0x40550A1C EQ PUSH2 0x422 JUMPI DUP1 PUSH4 0x40A141FF EQ PUSH2 0x452 JUMPI DUP1 PUSH4 0x45F7B8F4 EQ PUSH2 0x472 JUMPI DUP1 PUSH4 0x485CC955 EQ PUSH2 0x48E JUMPI DUP1 PUSH4 0x4D238C8E EQ PUSH2 0x4AE JUMPI PUSH1 0x0 DUP1 REVERT JUMPDEST DUP1 PUSH4 0x340C5A25 GT PUSH2 0x203 JUMPI DUP1 PUSH4 0x340C5A25 EQ PUSH2 0x348 JUMPI DUP1 PUSH4 0x3659CFE6 EQ PUSH2 0x392 JUMPI DUP1 PUSH4 0x3EC18284 EQ PUSH2 0x3B2 JUMPI DUP1 PUSH4 0x3F4BA83A EQ PUSH2 0x3D2 JUMPI DUP1 PUSH4 0x3FD8B02F EQ PUSH2 0x3E7 JUMPI PUSH1 0x0 DUP1 REVERT JUMPDEST DUP1 PUSH4 0xD8E6E2C EQ PUSH2 0x280 JUMPI DUP1 PUSH4 0xEFA2FED EQ PUSH2 0x2A3 JUMPI DUP1 PUSH4 0x24E770D0 EQ PUSH2 0x2E8 JUMPI DUP1 PUSH4 0x26476204 EQ PUSH2 0x2FF JUMPI DUP1 PUSH4 0x27ED7188 EQ PUSH2 0x314 JUMPI PUSH1 0x0 DUP1 REVERT JUMPDEST CALLDATASIZE PUSH2 0x27B JUMPI PUSH1 0x40 MLOAD CALLVALUE DUP2 MSTORE CALLER SWAP1 PUSH32 0x88A5966D370B9919B20F3E2C13FF65706F196A4E32CC2C12BF57088F88525874 SWAP1 PUSH1 0x20 ADD PUSH1 0x40 MLOAD DUP1 SWAP2 SUB SWAP1 LOG2 STOP JUMPDEST PUSH1 0x0 DUP1 REVERT JUMPDEST CALLVALUE DUP1 ISZERO PUSH2 0x28C JUMPI PUSH1 0x0 DUP1 REVERT JUMPDEST POP PUSH1 0x1 JUMPDEST PUSH1 0x40 MLOAD SWAP1 DUP2 MSTORE PUSH1 0x20 ADD JUMPDEST PUSH1 0x40 MLOAD DUP1 SWAP2 SUB SWAP1 RETURN JUMPDEST CALLVALUE DUP1 ISZERO PUSH2 0x2AF JUMPI PUSH1 0x0 DUP1 REVERT JUMPDEST POP PUSH2 0x2C3 PUSH2 0x2BE CALLDATASIZE PUSH1 0x4 PUSH2 0x2D8F JUMP JUMPDEST PUSH2 0x80C JUMP JUMPDEST PUSH1 0x40 DUP1 MLOAD SWAP4 DUP5 MSTORE SWAP2 ISZERO ISZERO PUSH1 0x20 DUP5 ADD MSTORE PUSH8 0xFFFFFFFFFFFFFFFF AND SWAP1 DUP3 ADD MSTORE PUSH1 0x60 ADD PUSH2 0x29A JUMP JUMPDEST CALLVALUE DUP1 ISZERO PUSH2 0x2F4 JUMPI PUSH1 0x0 DUP1 REVERT JUMPDEST POP PUSH2 0x290 PUSH2 0x139 SLOAD DUP2 JUMP JUMPDEST PUSH2 0x312 PUSH2 0x30D CALLDATASIZE PUSH1 0x4 PUSH2 0x2C51 JUMP JUMPDEST PUSH2 0x85C JUMP JUMPDEST STOP JUMPDEST CALLVALUE DUP1 ISZERO PUSH2 0x320 JUMPI PUSH1 0x0 DUP1 REVERT JUMPDEST POP PUSH2 0x290 PUSH32 0x0 DUP2 JUMP JUMPDEST CALLVALUE DUP1 ISZERO PUSH2 0x354 JUMPI PUSH1 0x0 DUP1 REVERT JUMPDEST POP PUSH2 0x37D PUSH2 0x363 CALLDATASIZE PUSH1 0x4 PUSH2 0x2C51 JUMP JUMPDEST PUSH2 0x134 PUSH1 0x20 MSTORE PUSH1 0x0 SWAP1 DUP2 MSTORE PUSH1 0x40 SWAP1 KECCAK256 DUP1 SLOAD PUSH1 0x1 SWAP1 SWAP2 ADD SLOAD DUP3 JUMP JUMPDEST PUSH1 0x40 DUP1 MLOAD SWAP3 DUP4 MSTORE PUSH1 0x20 DUP4 ADD SWAP2 SWAP1 SWAP2 MSTORE ADD PUSH2 0x29A JUMP JUMPDEST CALLVALUE DUP1 ISZERO PUSH2 0x39E JUMPI PUSH1 0x0 DUP1 REVERT JUMPDEST POP PUSH2 0x312 PUSH2 0x3AD CALLDATASIZE PUSH1 0x4 PUSH2 0x2C51 JUMP JUMPDEST PUSH2 0xB10 JUMP JUMPDEST CALLVALUE DUP1 ISZERO PUSH2 0x3BE JUMPI PUSH1 0x0 DUP1 REVERT JUMPDEST POP PUSH2 0x290 PUSH2 0x3CD CALLDATASIZE PUSH1 0x4 PUSH2 0x2D8F JUMP JUMPDEST PUSH2 0xBF0 JUMP JUMPDEST CALLVALUE DUP1 ISZERO PUSH2 0x3DE JUMPI PUSH1 0x0 DUP1 REVERT JUMPDEST POP PUSH2 0x312 PUSH2 0xD32 JUMP JUMPDEST CALLVALUE DUP1 ISZERO PUSH2 0x3F3 JUMPI PUSH1 0x0 DUP1 REVERT JUMPDEST POP PUSH2 0x137 SLOAD PUSH2 0x40D SWAP1 PUSH5 0x100000000 SWAP1 DIV PUSH4 0xFFFFFFFF AND DUP2 JUMP JUMPDEST PUSH1 0x40 MLOAD PUSH4 0xFFFFFFFF SWAP1 SWAP2 AND DUP2 MSTORE PUSH1 0x20 ADD PUSH2 0x29A JUMP JUMPDEST CALLVALUE DUP1 ISZERO PUSH2 0x42E JUMPI PUSH1 0x0 DUP1 REVERT JUMPDEST POP PUSH2 0x442 PUSH2 0x43D CALLDATASIZE PUSH1 0x4 PUSH2 0x2C51 JUMP JUMPDEST PUSH2 0xD44 JUMP JUMPDEST PUSH1 0x40 MLOAD SWAP1 ISZERO ISZERO DUP2 MSTORE PUSH1 0x20 ADD PUSH2 0x29A JUMP JUMPDEST CALLVALUE DUP1 ISZERO PUSH2 0x45E JUMPI PUSH1 0x0 DUP1 REVERT JUMPDEST POP PUSH2 0x312 PUSH2 0x46D CALLDATASIZE PUSH1 0x4 PUSH2 0x2C51 JUMP JUMPDEST PUSH2 0xD52 JUMP JUMPDEST CALLVALUE DUP1 ISZERO PUSH2 0x47E JUMPI PUSH1 0x0 DUP1 REVERT JUMPDEST POP PUSH2 0x290 PUSH8 0xDE0B6B3A7640000 DUP2 JUMP JUMPDEST CALLVALUE DUP1 ISZERO PUSH2 0x49A JUMPI PUSH1 0x0 DUP1 REVERT JUMPDEST POP PUSH2 0x312 PUSH2 0x4A9 CALLDATASIZE PUSH1 0x4 PUSH2 0x2C98 JUMP JUMPDEST PUSH2 0xF47 JUMP JUMPDEST CALLVALUE DUP1 ISZERO PUSH2 0x4BA JUMPI PUSH1 0x0 DUP1 REVERT JUMPDEST POP PUSH2 0x312 PUSH2 0x4C9 CALLDATASIZE PUSH1 0x4 PUSH2 0x2C51 JUMP JUMPDEST PUSH2 0x10BD JUMP JUMPDEST PUSH2 0x312 PUSH2 0x4DC CALLDATASIZE PUSH1 0x4 PUSH2 0x2CD0 JUMP JUMPDEST PUSH2 0x10CE JUMP JUMPDEST CALLVALUE DUP1 ISZERO PUSH2 0x4ED JUMPI PUSH1 0x0 DUP1 REVERT JUMPDEST POP PUSH2 0x312 PUSH2 0x4FC CALLDATASIZE PUSH1 0x4 PUSH2 0x2DD1 JUMP JUMPDEST PUSH2 0x119F JUMP JUMPDEST CALLVALUE DUP1 ISZERO PUSH2 0x50D JUMPI PUSH1 0x0 DUP1 REVERT JUMPDEST POP PUSH2 0x290 PUSH2 0x121B JUMP JUMPDEST CALLVALUE DUP1 ISZERO PUSH2 0x522 JUMPI PUSH1 0x0 DUP1 REVERT JUMPDEST POP PUSH2 0x137 SLOAD PUSH2 0x40D SWAP1 PUSH4 0xFFFFFFFF AND DUP2 JUMP JUMPDEST CALLVALUE DUP1 ISZERO PUSH2 0x540 JUMPI PUSH1 0x0 DUP1 REVERT JUMPDEST POP PUSH1 0x65 SLOAD PUSH1 0xFF AND PUSH2 0x442 JUMP JUMPDEST CALLVALUE DUP1 ISZERO PUSH2 0x558 JUMPI PUSH1 0x0 DUP1 REVERT JUMPDEST POP PUSH2 0x312 PUSH2 0x12CE JUMP JUMPDEST CALLVALUE DUP1 ISZERO PUSH2 0x56D JUMPI PUSH1 0x0 DUP1 REVERT JUMPDEST POP PUSH2 0x312 PUSH2 0x57C CALLDATASIZE PUSH1 0x4 PUSH2 0x2C51 JUMP JUMPDEST PUSH2 0x12E0 JUMP JUMPDEST CALLVALUE DUP1 ISZERO PUSH2 0x58D JUMPI PUSH1 0x0 DUP1 REVERT JUMPDEST POP PUSH2 0x312 PUSH2 0x59C CALLDATASIZE PUSH1 0x4 PUSH2 0x2C6D JUMP JUMPDEST PUSH2 0x1361 JUMP JUMPDEST CALLVALUE DUP1 ISZERO PUSH2 0x5AD JUMPI PUSH1 0x0 DUP1 REVERT JUMPDEST POP PUSH2 0x290 PUSH2 0x138 SLOAD DUP2 JUMP JUMPDEST CALLVALUE DUP1 ISZERO PUSH2 0x5C4 JUMPI PUSH1 0x0 DUP1 REVERT JUMPDEST POP PUSH2 0x312 PUSH2 0x136C JUMP JUMPDEST CALLVALUE DUP1 ISZERO PUSH2 0x5D9 JUMPI PUSH1 0x0 DUP1 REVERT JUMPDEST POP PUSH1 0x97 SLOAD PUSH1 0x1 PUSH1 0x1 PUSH1 0xA0 SHL SUB AND JUMPDEST PUSH1 0x40 MLOAD PUSH1 0x1 PUSH1 0x1 PUSH1 0xA0 SHL SUB SWAP1 SWAP2 AND DUP2 MSTORE PUSH1 0x20 ADD PUSH2 0x29A JUMP JUMPDEST CALLVALUE DUP1 ISZERO PUSH2 0x60B JUMPI PUSH1 0x0 DUP1 REVERT JUMPDEST POP PUSH2 0x290 PUSH2 0x13A SLOAD DUP2 JUMP JUMPDEST CALLVALUE DUP1 ISZERO PUSH2 0x622 JUMPI PUSH1 0x0 DUP1 REVERT JUMPDEST POP PUSH2 0x290 PUSH2 0x631 CALLDATASIZE PUSH1 0x4 PUSH2 0x2C98 JUMP JUMPDEST PUSH2 0x137C JUMP JUMPDEST CALLVALUE DUP1 ISZERO PUSH2 0x642 JUMPI PUSH1 0x0 DUP1 REVERT JUMPDEST POP PUSH2 0x12D SLOAD PUSH2 0x5E7 SWAP1 PUSH1 0x1 PUSH1 0x1 PUSH1 0xA0 SHL SUB AND DUP2 JUMP JUMPDEST CALLVALUE DUP1 ISZERO PUSH2 0x663 JUMPI PUSH1 0x0 DUP1 REVERT JUMPDEST POP PUSH2 0x290 PUSH32 0x0 DUP2 JUMP JUMPDEST CALLVALUE DUP1 ISZERO PUSH2 0x697 JUMPI PUSH1 0x0 DUP1 REVERT JUMPDEST POP PUSH2 0x312 PUSH2 0x6A6 CALLDATASIZE PUSH1 0x4 PUSH2 0x2DB9 JUMP JUMPDEST PUSH2 0x14C2 JUMP JUMPDEST CALLVALUE DUP1 ISZERO PUSH2 0x6B7 JUMPI PUSH1 0x0 DUP1 REVERT JUMPDEST POP PUSH2 0x312 PUSH2 0x6C6 CALLDATASIZE PUSH1 0x4 PUSH2 0x2D8F JUMP JUMPDEST PUSH2 0x152D JUMP JUMPDEST CALLVALUE DUP1 ISZERO PUSH2 0x6D7 JUMPI PUSH1 0x0 DUP1 REVERT JUMPDEST POP PUSH2 0x6E0 PUSH2 0x1874 JUMP JUMPDEST PUSH1 0x40 MLOAD PUSH2 0x29A SWAP2 SWAP1 PUSH2 0x2E11 JUMP JUMPDEST CALLVALUE DUP1 ISZERO PUSH2 0x6F9 JUMPI PUSH1 0x0 DUP1 REVERT JUMPDEST POP PUSH2 0x130 SLOAD PUSH2 0x131 SLOAD PUSH2 0x37D SWAP2 SWAP1 DUP3 JUMP JUMPDEST CALLVALUE DUP1 ISZERO PUSH2 0x716 JUMPI PUSH1 0x0 DUP1 REVERT JUMPDEST POP PUSH2 0x290 PUSH2 0x13B SLOAD DUP2 JUMP JUMPDEST CALLVALUE DUP1 ISZERO PUSH2 0x72D JUMPI PUSH1 0x0 DUP1 REVERT JUMPDEST POP PUSH2 0x312 PUSH2 0x73C CALLDATASIZE PUSH1 0x4 PUSH2 0x2DB9 JUMP JUMPDEST PUSH2 0x1886 JUMP JUMPDEST CALLVALUE DUP1 ISZERO PUSH2 0x74D JUMPI PUSH1 0x0 DUP1 REVERT JUMPDEST POP PUSH2 0x132 SLOAD PUSH2 0x133 SLOAD PUSH2 0x37D SWAP2 SWAP1 DUP3 JUMP JUMPDEST CALLVALUE DUP1 ISZERO PUSH2 0x76A JUMPI PUSH1 0x0 DUP1 REVERT JUMPDEST POP PUSH2 0x312 PUSH2 0x779 CALLDATASIZE PUSH1 0x4 PUSH2 0x2C51 JUMP JUMPDEST PUSH2 0x1A46 JUMP JUMPDEST CALLVALUE DUP1 ISZERO PUSH2 0x78A JUMPI PUSH1 0x0 DUP1 REVERT JUMPDEST POP PUSH2 0x312 PUSH2 0x799 CALLDATASIZE PUSH1 0x4 PUSH2 0x2DD1 JUMP JUMPDEST PUSH2 0x1ABC JUMP JUMPDEST CALLVALUE DUP1 ISZERO PUSH2 0x7AA JUMPI PUSH1 0x0 DUP1 REVERT JUMPDEST POP PUSH2 0x7EC PUSH2 0x7B9 CALLDATASIZE PUSH1 0x4 PUSH2 0x2C98 JUMP JUMPDEST PUSH2 0x135 PUSH1 0x20 SWAP1 DUP2 MSTORE PUSH1 0x0 SWAP3 DUP4 MSTORE PUSH1 0x40 DUP1 DUP5 KECCAK256 SWAP1 SWAP2 MSTORE SWAP1 DUP3 MSTORE SWAP1 KECCAK256 DUP1 SLOAD PUSH1 0x1 DUP3 ADD SLOAD PUSH1 0x2 DUP4 ADD SLOAD PUSH1 0x3 SWAP1 SWAP4 ADD SLOAD SWAP2 SWAP3 SWAP1 SWAP2 DUP5 JUMP JUMPDEST PUSH1 0x40 DUP1 MLOAD SWAP5 DUP6 MSTORE PUSH1 0x20 DUP6 ADD SWAP4 SWAP1 SWAP4 MSTORE SWAP2 DUP4 ADD MSTORE PUSH1 0x60 DUP3 ADD MSTORE PUSH1 0x80 ADD PUSH2 0x29A JUMP JUMPDEST PUSH2 0x136 PUSH1 0x20 MSTORE DUP2 PUSH1 0x0 MSTORE PUSH1 0x40 PUSH1 0x0 KECCAK256 DUP2 DUP2 SLOAD DUP2 LT PUSH2 0x829 JUMPI PUSH1 0x0 DUP1 REVERT JUMPDEST PUSH1 0x0 SWAP2 DUP3 MSTORE PUSH1 0x20 SWAP1 SWAP2 KECCAK256 PUSH1 0x2 SWAP1 SWAP2 MUL ADD DUP1 SLOAD PUSH1 0x1 SWAP1 SWAP2 ADD SLOAD SWAP1 SWAP3 POP PUSH1 0xFF DUP2 AND SWAP2 POP PUSH2 0x100 SWAP1 DIV PUSH8 0xFFFFFFFFFFFFFFFF AND DUP4 JUMP JUMPDEST PUSH2 0x864 PUSH2 0x1B1D JUMP JUMPDEST PUSH32 0x0 CALLVALUE LT ISZERO PUSH2 0x8E8 JUMPI PUSH1 0x40 MLOAD PUSH3 0x461BCD PUSH1 0xE5 SHL DUP2 MSTORE PUSH1 0x20 PUSH1 0x4 DUP3 ADD MSTORE PUSH1 0x26 PUSH1 0x24 DUP3 ADD MSTORE PUSH32 0x5374616B6520616D6F756E74206D757374203E3D204D494E5F5354414B455F41 PUSH1 0x44 DUP3 ADD MSTORE PUSH6 0x26A7AAA72A17 PUSH1 0xD1 SHL PUSH1 0x64 DUP3 ADD MSTORE PUSH1 0x84 ADD JUMPDEST PUSH1 0x40 MLOAD DUP1 SWAP2 SUB SWAP1 REVERT JUMPDEST PUSH2 0x8F1 DUP2 PUSH2 0xD44 JUMP JUMPDEST PUSH2 0x90D JUMPI PUSH1 0x40 MLOAD PUSH3 0x461BCD PUSH1 0xE5 SHL DUP2 MSTORE PUSH1 0x4 ADD PUSH2 0x8DF SWAP1 PUSH2 0x2F74 JUMP JUMPDEST PUSH1 0x0 DUP1 PUSH2 0x918 PUSH2 0x1B63 JUMP JUMPDEST PUSH1 0x1 PUSH1 0x1 PUSH1 0xA0 SHL SUB DUP6 AND PUSH1 0x0 DUP2 DUP2 MSTORE PUSH1 0x0 DUP1 MLOAD PUSH1 0x20 PUSH2 0x30C4 DUP4 CODECOPY DUP2 MLOAD SWAP2 MSTORE PUSH1 0x20 SWAP1 DUP2 MSTORE PUSH1 0x40 DUP1 DUP4 KECCAK256 DUP2 MLOAD PUSH1 0x80 DUP1 DUP3 ADD DUP5 MSTORE DUP3 SLOAD DUP3 MSTORE PUSH1 0x1 DUP1 DUP5 ADD SLOAD DUP4 DUP8 ADD MSTORE PUSH1 0x2 DUP1 DUP6 ADD SLOAD DUP5 DUP8 ADD MSTORE PUSH1 0x3 SWAP5 DUP6 ADD SLOAD PUSH1 0x60 DUP1 DUP7 ADD SWAP2 SWAP1 SWAP2 MSTORE SWAP9 DUP9 MSTORE PUSH2 0x135 DUP8 MSTORE DUP6 DUP9 KECCAK256 CALLER DUP10 MSTORE DUP8 MSTORE SWAP7 DUP6 SWAP1 KECCAK256 DUP6 MLOAD SWAP3 DUP4 ADD DUP7 MSTORE DUP1 SLOAD DUP4 MSTORE SWAP1 DUP2 ADD SLOAD SWAP6 DUP3 ADD SWAP6 SWAP1 SWAP6 MSTORE SWAP5 DUP5 ADD SLOAD SWAP3 DUP6 ADD SWAP3 SWAP1 SWAP3 MSTORE SWAP2 SWAP1 SWAP2 ADD SLOAD SWAP3 DUP3 ADD SWAP3 SWAP1 SWAP3 MSTORE SWAP3 SWAP5 POP SWAP1 SWAP3 POP SWAP1 PUSH2 0x9C2 DUP5 DUP4 PUSH2 0x1C07 JUMP JUMPDEST PUSH2 0x9CC DUP4 DUP3 PUSH2 0x1C07 JUMP JUMPDEST CALLVALUE DUP3 PUSH1 0x0 ADD DUP2 DUP2 MLOAD PUSH2 0x9DE SWAP2 SWAP1 PUSH2 0x2FBC JUMP JUMPDEST SWAP1 MSTORE POP DUP1 MLOAD CALLVALUE SWAP1 DUP3 SWAP1 PUSH2 0x9F2 SWAP1 DUP4 SWAP1 PUSH2 0x2FBC JUMP JUMPDEST SWAP1 MSTORE POP PUSH2 0x9FF DUP5 DUP4 PUSH2 0x1C5C JUMP JUMPDEST PUSH2 0xA09 DUP4 DUP3 PUSH2 0x1C5C JUMP JUMPDEST NUMBER PUSH1 0x60 DUP1 DUP5 ADD DUP3 DUP2 MSTORE SWAP1 DUP4 ADD SWAP2 DUP3 MSTORE PUSH1 0x1 PUSH1 0x1 PUSH1 0xA0 SHL SUB DUP8 AND PUSH1 0x0 SWAP1 DUP2 MSTORE PUSH1 0x0 DUP1 MLOAD PUSH1 0x20 PUSH2 0x30C4 DUP4 CODECOPY DUP2 MLOAD SWAP2 MSTORE PUSH1 0x20 SWAP1 DUP2 MSTORE PUSH1 0x40 DUP1 DUP4 KECCAK256 DUP8 MLOAD DUP2 SSTORE DUP3 DUP9 ADD MLOAD PUSH1 0x1 DUP1 DUP4 ADD SWAP2 SWAP1 SWAP2 SSTORE DUP3 DUP10 ADD MLOAD PUSH1 0x2 DUP1 DUP5 ADD SWAP2 SWAP1 SWAP2 SSTORE SWAP6 MLOAD PUSH1 0x3 SWAP3 DUP4 ADD SSTORE PUSH2 0x135 DUP5 MSTORE DUP3 DUP6 KECCAK256 CALLER DUP7 MSTORE DUP5 MSTORE DUP3 DUP6 KECCAK256 DUP9 MLOAD DUP2 SSTORE SWAP4 DUP9 ADD MLOAD SWAP1 DUP5 ADD SSTORE SWAP1 DUP7 ADD MLOAD SWAP4 DUP3 ADD SWAP4 SWAP1 SWAP4 SSTORE SWAP3 MLOAD SWAP3 SWAP1 SWAP2 ADD SWAP2 SWAP1 SWAP2 SSTORE PUSH2 0x13B DUP1 SLOAD CALLVALUE SWAP3 SWAP1 PUSH2 0xAAA SWAP1 DUP5 SWAP1 PUSH2 0x2FBC JUMP JUMPDEST SWAP3 POP POP DUP2 SWAP1 SSTORE POP CALLVALUE PUSH2 0x13A PUSH1 0x0 DUP3 DUP3 SLOAD PUSH2 0xAC4 SWAP2 SWAP1 PUSH2 0x2FBC JUMP JUMPDEST SWAP1 SWAP2 SSTORE POP POP PUSH1 0x40 MLOAD CALLVALUE DUP2 MSTORE PUSH1 0x1 PUSH1 0x1 PUSH1 0xA0 SHL SUB DUP7 AND SWAP1 CALLER SWAP1 PUSH32 0x99039FCF0A98F484616C5196EE8B2ECFA971BABF0B519848289EA4DB381F85F7 SWAP1 PUSH1 0x20 ADD PUSH1 0x40 MLOAD DUP1 SWAP2 SUB SWAP1 LOG3 POP POP POP POP POP JUMP JUMPDEST ADDRESS PUSH1 0x1 PUSH1 0x1 PUSH1 0xA0 SHL SUB PUSH32 0x0 AND EQ ISZERO PUSH2 0xB59 JUMPI PUSH1 0x40 MLOAD PUSH3 0x461BCD PUSH1 0xE5 SHL DUP2 MSTORE PUSH1 0x4 ADD PUSH2 0x8DF SWAP1 PUSH2 0x2E91 JUMP JUMPDEST PUSH32 0x0 PUSH1 0x1 PUSH1 0x1 PUSH1 0xA0 SHL SUB AND PUSH2 0xBA2 PUSH1 0x0 DUP1 MLOAD PUSH1 0x20 PUSH2 0x30E4 DUP4 CODECOPY DUP2 MLOAD SWAP2 MSTORE SLOAD PUSH1 0x1 PUSH1 0x1 PUSH1 0xA0 SHL SUB AND SWAP1 JUMP JUMPDEST PUSH1 0x1 PUSH1 0x1 PUSH1 0xA0 SHL SUB AND EQ PUSH2 0xBC8 JUMPI PUSH1 0x40 MLOAD PUSH3 0x461BCD PUSH1 0xE5 SHL DUP2 MSTORE PUSH1 0x4 ADD PUSH2 0x8DF SWAP1 PUSH2 0x2EDD JUMP JUMPDEST PUSH2 0xBD1 DUP2 PUSH2 0x1C86 JUMP JUMPDEST PUSH1 0x40 DUP1 MLOAD PUSH1 0x0 DUP1 DUP3 MSTORE PUSH1 0x20 DUP3 ADD SWAP1 SWAP3 MSTORE PUSH2 0xBED SWAP2 DUP4 SWAP2 SWAP1 PUSH2 0x1CEB JUMP JUMPDEST POP JUMP JUMPDEST PUSH1 0x1 PUSH1 0x1 PUSH1 0xA0 SHL SUB DUP3 AND PUSH1 0x0 SWAP1 DUP2 MSTORE PUSH2 0x136 PUSH1 0x20 SWAP1 DUP2 MSTORE PUSH1 0x40 DUP1 DUP4 KECCAK256 DUP1 SLOAD DUP3 MLOAD DUP2 DUP6 MUL DUP2 ADD DUP6 ADD SWAP1 SWAP4 MSTORE DUP1 DUP4 MSTORE DUP5 SWAP4 DUP5 SWAP1 DUP5 ADD JUMPDEST DUP3 DUP3 LT ISZERO PUSH2 0xC7F JUMPI PUSH1 0x0 DUP5 DUP2 MSTORE PUSH1 0x20 SWAP1 DUP2 SWAP1 KECCAK256 PUSH1 0x40 DUP1 MLOAD PUSH1 0x60 DUP2 ADD DUP3 MSTORE PUSH1 0x2 DUP7 MUL SWAP1 SWAP3 ADD DUP1 SLOAD DUP4 MSTORE PUSH1 0x1 SWAP1 DUP2 ADD SLOAD PUSH1 0xFF DUP2 AND ISZERO ISZERO DUP5 DUP7 ADD MSTORE PUSH2 0x100 SWAP1 DIV PUSH8 0xFFFFFFFFFFFFFFFF AND SWAP2 DUP4 ADD SWAP2 SWAP1 SWAP2 MSTORE SWAP1 DUP4 MSTORE SWAP1 SWAP3 ADD SWAP2 ADD PUSH2 0xC24 JUMP JUMPDEST POP POP POP POP SWAP1 POP PUSH1 0x0 DUP1 DUP3 MLOAD SWAP1 POP JUMPDEST DUP1 DUP3 LT ISZERO PUSH2 0xD27 JUMPI PUSH1 0x0 PUSH1 0x2 PUSH2 0xCA3 DUP4 DUP6 PUSH2 0x2FBC JUMP JUMPDEST PUSH2 0xCAD SWAP2 SWAP1 PUSH2 0x3000 JUMP JUMPDEST PUSH2 0x137 SLOAD DUP6 MLOAD SWAP2 SWAP3 POP PUSH5 0x100000000 SWAP1 DIV PUSH4 0xFFFFFFFF AND SWAP1 DUP6 SWAP1 DUP4 SWAP1 DUP2 LT PUSH2 0xCE5 JUMPI PUSH4 0x4E487B71 PUSH1 0xE0 SHL PUSH1 0x0 MSTORE PUSH1 0x32 PUSH1 0x4 MSTORE PUSH1 0x24 PUSH1 0x0 REVERT JUMPDEST PUSH1 0x20 MUL PUSH1 0x20 ADD ADD MLOAD PUSH1 0x40 ADD MLOAD PUSH2 0xCFB SWAP2 SWAP1 PUSH2 0x2FD4 JUMP JUMPDEST PUSH8 0xFFFFFFFFFFFFFFFF AND DUP7 LT PUSH2 0xD1D JUMPI PUSH2 0xD16 DUP2 PUSH1 0x1 PUSH2 0x2FBC JUMP JUMPDEST SWAP3 POP PUSH2 0xD21 JUMP JUMPDEST DUP1 SWAP2 POP JUMPDEST POP PUSH2 0xC8D JUMP JUMPDEST SWAP3 POP POP POP JUMPDEST SWAP3 SWAP2 POP POP JUMP JUMPDEST PUSH2 0xD3A PUSH2 0x1E65 JUMP JUMPDEST PUSH2 0xD42 PUSH2 0x1EBF JUMP JUMPDEST JUMP JUMPDEST PUSH1 0x0 PUSH2 0xD2C PUSH2 0x12E DUP4 PUSH2 0x1F11 JUMP JUMPDEST PUSH2 0xD5A PUSH2 0x1E65 JUMP JUMPDEST PUSH1 0x1 PUSH2 0xD67 PUSH2 0x12E PUSH2 0x1F36 JUMP JUMPDEST GT PUSH2 0xDBE JUMPI PUSH1 0x40 MLOAD PUSH3 0x461BCD PUSH1 0xE5 SHL DUP2 MSTORE PUSH1 0x20 PUSH1 0x4 DUP3 ADD MSTORE PUSH1 0x21 PUSH1 0x24 DUP3 ADD MSTORE PUSH32 0x43616E6E6F742072656D6F766520746865206F6E6C792076616C696461746F72 PUSH1 0x44 DUP3 ADD MSTORE PUSH1 0x17 PUSH1 0xF9 SHL PUSH1 0x64 DUP3 ADD MSTORE PUSH1 0x84 ADD PUSH2 0x8DF JUMP JUMPDEST PUSH2 0xDC7 DUP2 PUSH2 0xD44 JUMP JUMPDEST PUSH2 0xDE3 JUMPI PUSH1 0x40 MLOAD PUSH3 0x461BCD PUSH1 0xE5 SHL DUP2 MSTORE PUSH1 0x4 ADD PUSH2 0x8DF SWAP1 PUSH2 0x2F74 JUMP JUMPDEST PUSH1 0x0 DUP1 PUSH2 0xDEE PUSH2 0x1B63 JUMP JUMPDEST PUSH1 0x1 PUSH1 0x1 PUSH1 0xA0 SHL SUB DUP6 AND PUSH1 0x0 SWAP1 DUP2 MSTORE PUSH1 0x0 DUP1 MLOAD PUSH1 0x20 PUSH2 0x30C4 DUP4 CODECOPY DUP2 MLOAD SWAP2 MSTORE PUSH1 0x20 SWAP1 DUP2 MSTORE PUSH1 0x40 SWAP2 DUP3 SWAP1 KECCAK256 DUP3 MLOAD PUSH1 0x80 DUP2 ADD DUP5 MSTORE DUP2 SLOAD DUP2 MSTORE PUSH1 0x1 DUP3 ADD SLOAD SWAP3 DUP2 ADD SWAP3 SWAP1 SWAP3 MSTORE PUSH1 0x2 DUP2 ADD SLOAD SWAP3 DUP3 ADD SWAP3 SWAP1 SWAP3 MSTORE PUSH1 0x3 SWAP1 SWAP2 ADD SLOAD PUSH1 0x60 DUP3 ADD MSTORE SWAP2 SWAP4 POP SWAP2 POP PUSH2 0xE55 DUP4 DUP3 PUSH2 0x1C07 JUMP JUMPDEST PUSH2 0xE5F DUP4 DUP3 PUSH2 0x1C5C JUMP JUMPDEST NUMBER PUSH1 0x60 DUP3 ADD SWAP1 DUP2 MSTORE PUSH1 0x1 PUSH1 0x1 PUSH1 0xA0 SHL SUB DUP6 AND PUSH1 0x0 SWAP1 DUP2 MSTORE PUSH1 0x0 DUP1 MLOAD PUSH1 0x20 PUSH2 0x30C4 DUP4 CODECOPY DUP2 MLOAD SWAP2 MSTORE PUSH1 0x20 SWAP1 DUP2 MSTORE PUSH1 0x40 SWAP2 DUP3 SWAP1 KECCAK256 DUP5 MLOAD DUP2 SSTORE SWAP1 DUP5 ADD MLOAD PUSH1 0x1 DUP3 ADD SSTORE SWAP1 DUP4 ADD MLOAD PUSH1 0x2 DUP3 ADD SSTORE SWAP1 MLOAD PUSH1 0x3 SWAP1 SWAP2 ADD SSTORE PUSH2 0xEBA PUSH2 0x12E DUP6 PUSH2 0x1F40 JUMP JUMPDEST POP PUSH1 0x1 PUSH1 0x1 PUSH1 0xA0 SHL SUB DUP5 AND PUSH1 0x0 SWAP1 DUP2 MSTORE PUSH2 0x134 PUSH1 0x20 SWAP1 DUP2 MSTORE PUSH1 0x40 DUP3 KECCAK256 DUP5 MLOAD DUP2 SSTORE SWAP1 DUP5 ADD MLOAD PUSH1 0x1 SWAP1 SWAP2 ADD SSTORE DUP2 MLOAD PUSH2 0x13B DUP1 SLOAD SWAP2 SWAP3 SWAP1 SWAP2 PUSH2 0xEFA SWAP1 DUP5 SWAP1 PUSH2 0x303F JUMP JUMPDEST SWAP1 SWAP2 SSTORE POP POP PUSH1 0x40 DUP1 MLOAD PUSH1 0x1 PUSH1 0x1 PUSH1 0xA0 SHL SUB DUP7 AND DUP2 MSTORE PUSH1 0x0 PUSH1 0x20 DUP3 ADD MSTORE PUSH32 0xD2B4A3AE4917617AAA5E6CAA5541A3331944D66BAA187EF6C350F1CE4012D819 SWAP2 ADD PUSH1 0x40 MLOAD DUP1 SWAP2 SUB SWAP1 LOG1 POP POP POP POP JUMP JUMPDEST PUSH1 0x0 SLOAD PUSH2 0x100 SWAP1 DIV PUSH1 0xFF AND ISZERO DUP1 DUP1 ISZERO PUSH2 0xF67 JUMPI POP PUSH1 0x0 SLOAD PUSH1 0x1 PUSH1 0xFF SWAP1 SWAP2 AND LT JUMPDEST DUP1 PUSH2 0xF81 JUMPI POP ADDRESS EXTCODESIZE ISZERO DUP1 ISZERO PUSH2 0xF81 JUMPI POP PUSH1 0x0 SLOAD PUSH1 0xFF AND PUSH1 0x1 EQ JUMPDEST PUSH2 0xFE4 JUMPI PUSH1 0x40 MLOAD PUSH3 0x461BCD PUSH1 0xE5 SHL DUP2 MSTORE PUSH1 0x20 PUSH1 0x4 DUP3 ADD MSTORE PUSH1 0x2E PUSH1 0x24 DUP3 ADD MSTORE PUSH32 0x496E697469616C697A61626C653A20636F6E747261637420697320616C726561 PUSH1 0x44 DUP3 ADD MSTORE PUSH14 0x191E481A5B9A5D1A585B1A5E9959 PUSH1 0x92 SHL PUSH1 0x64 DUP3 ADD MSTORE PUSH1 0x84 ADD PUSH2 0x8DF JUMP JUMPDEST PUSH1 0x0 DUP1 SLOAD PUSH1 0xFF NOT AND PUSH1 0x1 OR SWAP1 SSTORE DUP1 ISZERO PUSH2 0x1007 JUMPI PUSH1 0x0 DUP1 SLOAD PUSH2 0xFF00 NOT AND PUSH2 0x100 OR SWAP1 SSTORE JUMPDEST PUSH2 0x100F PUSH2 0x1F55 JUMP JUMPDEST PUSH2 0x1017 PUSH2 0x1F84 JUMP JUMPDEST PUSH2 0x1020 DUP4 PUSH2 0x1FB3 JUMP JUMPDEST PUSH2 0x1028 PUSH2 0x2005 JUMP JUMPDEST PUSH2 0x12D DUP1 SLOAD PUSH1 0x1 PUSH1 0x1 PUSH1 0xA0 SHL SUB NOT AND CALLER OR SWAP1 SSTORE PUSH2 0x137 DUP1 SLOAD PUSH4 0xFFFFFFFF NOT AND PUSH1 0x15 OR SWAP1 SSTORE PUSH2 0x105D PUSH8 0x4563918244F40000 PUSH2 0x202C JUMP JUMPDEST PUSH2 0x1069 PUSH3 0x93A80 PUSH2 0x2092 JUMP JUMPDEST PUSH2 0x1072 DUP3 PUSH2 0x20E9 JUMP JUMPDEST DUP1 ISZERO PUSH2 0x10B8 JUMPI PUSH1 0x0 DUP1 SLOAD PUSH2 0xFF00 NOT AND SWAP1 SSTORE PUSH1 0x40 MLOAD PUSH1 0x1 DUP2 MSTORE PUSH32 0x7F26B83FF96E1F2B6A682F133852F6798A09C465DA95921460CEFB3847402498 SWAP1 PUSH1 0x20 ADD PUSH1 0x40 MLOAD DUP1 SWAP2 SUB SWAP1 LOG1 JUMPDEST POP POP POP JUMP JUMPDEST PUSH2 0x10C5 PUSH2 0x1E65 JUMP JUMPDEST PUSH2 0xBED DUP2 PUSH2 0x20E9 JUMP JUMPDEST ADDRESS PUSH1 0x1 PUSH1 0x1 PUSH1 0xA0 SHL SUB PUSH32 0x0 AND EQ ISZERO PUSH2 0x1117 JUMPI PUSH1 0x40 MLOAD PUSH3 0x461BCD PUSH1 0xE5 SHL DUP2 MSTORE PUSH1 0x4 ADD PUSH2 0x8DF SWAP1 PUSH2 0x2E91 JUMP JUMPDEST PUSH32 0x0 PUSH1 0x1 PUSH1 0x1 PUSH1 0xA0 SHL SUB AND PUSH2 0x1160 PUSH1 0x0 DUP1 MLOAD PUSH1 0x20 PUSH2 0x30E4 DUP4 CODECOPY DUP2 MLOAD SWAP2 MSTORE SLOAD PUSH1 0x1 PUSH1 0x1 PUSH1 0xA0 SHL SUB AND SWAP1 JUMP JUMPDEST PUSH1 0x1 PUSH1 0x1 PUSH1 0xA0 SHL SUB AND EQ PUSH2 0x1186 JUMPI PUSH1 0x40 MLOAD PUSH3 0x461BCD PUSH1 0xE5 SHL DUP2 MSTORE PUSH1 0x4 ADD PUSH2 0x8DF SWAP1 PUSH2 0x2EDD JUMP JUMPDEST PUSH2 0x118F DUP3 PUSH2 0x1C86 JUMP JUMPDEST PUSH2 0x119B DUP3 DUP3 PUSH1 0x1 PUSH2 0x1CEB JUMP JUMPDEST POP POP JUMP JUMPDEST PUSH2 0x11A7 PUSH2 0x1E65 JUMP JUMPDEST PUSH2 0x11B2 PUSH2 0x12E PUSH2 0x1F36 JUMP JUMPDEST DUP2 PUSH4 0xFFFFFFFF AND LT ISZERO PUSH2 0x11FE JUMPI PUSH1 0x40 MLOAD PUSH3 0x461BCD PUSH1 0xE5 SHL DUP2 MSTORE PUSH1 0x20 PUSH1 0x4 DUP3 ADD MSTORE PUSH1 0x14 PUSH1 0x24 DUP3 ADD MSTORE PUSH20 0x24B73B30B634B2103634B6B4BA103B30B63AB297 PUSH1 0x61 SHL PUSH1 0x44 DUP3 ADD MSTORE PUSH1 0x64 ADD PUSH2 0x8DF JUMP JUMPDEST PUSH2 0x137 DUP1 SLOAD PUSH4 0xFFFFFFFF NOT AND PUSH4 0xFFFFFFFF SWAP3 SWAP1 SWAP3 AND SWAP2 SWAP1 SWAP2 OR SWAP1 SSTORE JUMP JUMPDEST PUSH1 0x0 ADDRESS PUSH1 0x1 PUSH1 0x1 PUSH1 0xA0 SHL SUB PUSH32 0x0 AND EQ PUSH2 0x12BB JUMPI PUSH1 0x40 MLOAD PUSH3 0x461BCD PUSH1 0xE5 SHL DUP2 MSTORE PUSH1 0x20 PUSH1 0x4 DUP3 ADD MSTORE PUSH1 0x38 PUSH1 0x24 DUP3 ADD MSTORE PUSH32 0x555550535570677261646561626C653A206D757374206E6F742062652063616C PUSH1 0x44 DUP3 ADD MSTORE PUSH32 0x6C6564207468726F7567682064656C656761746563616C6C0000000000000000 PUSH1 0x64 DUP3 ADD MSTORE PUSH1 0x84 ADD PUSH2 0x8DF JUMP JUMPDEST POP PUSH1 0x0 DUP1 MLOAD PUSH1 0x20 PUSH2 0x30E4 DUP4 CODECOPY DUP2 MLOAD SWAP2 MSTORE SWAP1 JUMP JUMPDEST PUSH2 0x12D6 PUSH2 0x1E65 JUMP JUMPDEST PUSH2 0xD42 PUSH1 0x0 PUSH2 0x1FB3 JUMP JUMPDEST PUSH2 0x12E8 PUSH2 0x1E65 JUMP JUMPDEST PUSH1 0x1 PUSH1 0x1 PUSH1 0xA0 SHL SUB DUP2 AND PUSH2 0x133E JUMPI PUSH1 0x40 MLOAD PUSH3 0x461BCD PUSH1 0xE5 SHL DUP2 MSTORE PUSH1 0x20 PUSH1 0x4 DUP3 ADD MSTORE PUSH1 0x17 PUSH1 0x24 DUP3 ADD MSTORE PUSH32 0x496E76616C6964206B656570657220616464726573732E000000000000000000 PUSH1 0x44 DUP3 ADD MSTORE PUSH1 0x64 ADD PUSH2 0x8DF JUMP JUMPDEST PUSH2 0x12D DUP1 SLOAD PUSH1 0x1 PUSH1 0x1 PUSH1 0xA0 SHL SUB NOT AND PUSH1 0x1 PUSH1 0x1 PUSH1 0xA0 SHL SUB SWAP3 SWAP1 SWAP3 AND SWAP2 SWAP1 SWAP2 OR SWAP1 SSTORE JUMP JUMPDEST PUSH2 0x119B CALLER DUP4 DUP4 PUSH2 0x2253 JUMP JUMPDEST PUSH2 0x1374 PUSH2 0x1E65 JUMP JUMPDEST PUSH2 0xD42 PUSH2 0x23ED JUMP JUMPDEST PUSH1 0x1 PUSH1 0x1 PUSH1 0xA0 SHL SUB DUP3 DUP2 AND PUSH1 0x0 DUP2 DUP2 MSTORE PUSH2 0x135 PUSH1 0x20 SWAP1 DUP2 MSTORE PUSH1 0x40 DUP1 DUP4 KECCAK256 SWAP5 DUP7 AND DUP4 MSTORE SWAP4 DUP2 MSTORE DUP4 DUP3 KECCAK256 DUP5 MLOAD PUSH1 0x80 DUP2 ADD DUP7 MSTORE DUP2 SLOAD DUP2 MSTORE PUSH1 0x1 DUP3 ADD SLOAD DUP2 DUP5 ADD MSTORE PUSH1 0x2 DUP3 ADD SLOAD DUP2 DUP8 ADD MSTORE PUSH1 0x3 SWAP1 SWAP2 ADD SLOAD PUSH1 0x60 DUP3 ADD MSTORE DUP5 MLOAD DUP1 DUP7 ADD SWAP1 SWAP6 MSTORE DUP3 DUP6 MSTORE SWAP1 DUP5 ADD DUP3 SWAP1 MSTORE SWAP1 SWAP3 SWAP1 SWAP2 PUSH2 0x1438 JUMPI PUSH2 0x13EF DUP5 PUSH2 0xD44 JUMP JUMPDEST ISZERO PUSH2 0x142C JUMPI POP PUSH1 0x40 DUP1 MLOAD DUP1 DUP3 ADD SWAP1 SWAP2 MSTORE PUSH2 0x130 SLOAD DUP2 MSTORE PUSH2 0x131 SLOAD PUSH1 0x20 DUP3 ADD MSTORE PUSH2 0x138 SLOAD PUSH2 0x13B SLOAD PUSH2 0x1421 SWAP2 DUP4 SWAP2 PUSH2 0x242A JUMP JUMPDEST POP PUSH2 0x142C DUP2 DUP4 PUSH2 0x1C07 JUMP JUMPDEST POP PUSH1 0x40 ADD MLOAD SWAP1 POP PUSH2 0xD2C JUMP JUMPDEST PUSH2 0x1441 DUP6 PUSH2 0xD44 JUMP JUMPDEST ISZERO PUSH2 0x1479 JUMPI POP PUSH1 0x40 DUP1 MLOAD DUP1 DUP3 ADD SWAP1 SWAP2 MSTORE PUSH2 0x132 SLOAD DUP2 MSTORE PUSH2 0x133 SLOAD PUSH1 0x20 DUP3 ADD MSTORE PUSH2 0x139 SLOAD PUSH2 0x13B SLOAD PUSH2 0x1473 SWAP2 DUP4 SWAP2 PUSH2 0x242A JUMP JUMPDEST POP PUSH2 0x14AC JUMP JUMPDEST POP PUSH1 0x1 PUSH1 0x1 PUSH1 0xA0 SHL SUB DUP5 AND PUSH1 0x0 SWAP1 DUP2 MSTORE PUSH2 0x134 PUSH1 0x20 SWAP1 DUP2 MSTORE PUSH1 0x40 SWAP2 DUP3 SWAP1 KECCAK256 DUP3 MLOAD DUP1 DUP5 ADD SWAP1 SWAP4 MSTORE DUP1 SLOAD DUP4 MSTORE PUSH1 0x1 ADD SLOAD SWAP1 DUP3 ADD MSTORE JUMPDEST PUSH2 0x14B6 DUP2 DUP4 PUSH2 0x1C07 JUMP JUMPDEST POP PUSH1 0x40 ADD MLOAD SWAP4 SWAP3 POP POP POP JUMP JUMPDEST PUSH2 0x14CA PUSH2 0x1E65 JUMP JUMPDEST PUSH1 0x0 DUP2 GT PUSH2 0x151A JUMPI PUSH1 0x40 MLOAD PUSH3 0x461BCD PUSH1 0xE5 SHL DUP2 MSTORE PUSH1 0x20 PUSH1 0x4 DUP3 ADD MSTORE PUSH1 0x19 PUSH1 0x24 DUP3 ADD MSTORE PUSH32 0x496E76616C6964207265776172642070657220626C6F636B2E00000000000000 PUSH1 0x44 DUP3 ADD MSTORE PUSH1 0x64 ADD PUSH2 0x8DF JUMP JUMPDEST PUSH2 0x1522 PUSH2 0x1B63 JUMP JUMPDEST POP POP PUSH2 0xBED DUP2 PUSH2 0x202C JUMP JUMPDEST PUSH1 0x2 PUSH1 0x1 SLOAD EQ ISZERO PUSH2 0x1580 JUMPI PUSH1 0x40 MLOAD PUSH3 0x461BCD PUSH1 0xE5 SHL DUP2 MSTORE PUSH1 0x20 PUSH1 0x4 DUP3 ADD MSTORE PUSH1 0x1F PUSH1 0x24 DUP3 ADD MSTORE PUSH32 0x5265656E7472616E637947756172643A207265656E7472616E742063616C6C00 PUSH1 0x44 DUP3 ADD MSTORE PUSH1 0x64 ADD PUSH2 0x8DF JUMP JUMPDEST PUSH1 0x2 PUSH1 0x1 SSTORE PUSH2 0x158D PUSH2 0x1B1D JUMP JUMPDEST PUSH1 0x0 DUP1 PUSH2 0x1598 PUSH2 0x1B63 JUMP JUMPDEST PUSH1 0x1 PUSH1 0x1 PUSH1 0xA0 SHL SUB DUP7 AND PUSH1 0x0 DUP2 DUP2 MSTORE PUSH1 0x0 DUP1 MLOAD PUSH1 0x20 PUSH2 0x30C4 DUP4 CODECOPY DUP2 MLOAD SWAP2 MSTORE PUSH1 0x20 SWAP1 DUP2 MSTORE PUSH1 0x40 DUP1 DUP4 KECCAK256 DUP2 MLOAD PUSH1 0x80 DUP1 DUP3 ADD DUP5 MSTORE DUP3 SLOAD DUP3 MSTORE PUSH1 0x1 DUP1 DUP5 ADD SLOAD DUP4 DUP8 ADD MSTORE PUSH1 0x2 DUP1 DUP6 ADD SLOAD DUP5 DUP8 ADD MSTORE PUSH1 0x3 SWAP5 DUP6 ADD SLOAD PUSH1 0x60 DUP1 DUP7 ADD SWAP2 SWAP1 SWAP2 MSTORE DUP10 DUP10 MSTORE PUSH2 0x135 DUP9 MSTORE DUP7 DUP10 KECCAK256 CALLER DUP11 MSTORE DUP9 MSTORE SWAP8 DUP7 SWAP1 KECCAK256 DUP7 MLOAD SWAP4 DUP5 ADD DUP8 MSTORE DUP1 SLOAD DUP5 MSTORE SWAP2 DUP3 ADD SLOAD SWAP7 DUP4 ADD SWAP7 SWAP1 SWAP7 MSTORE SWAP5 DUP6 ADD SLOAD SWAP4 DUP2 ADD SWAP4 SWAP1 SWAP4 MSTORE SWAP3 ADD SLOAD SWAP3 DUP2 ADD SWAP3 SWAP1 SWAP3 MSTORE SWAP4 SWAP6 POP SWAP2 SWAP4 POP ISZERO DUP1 ISZERO SWAP1 PUSH2 0x1646 JUMPI POP PUSH1 0x60 DUP2 ADD MLOAD ISZERO ISZERO JUMPDEST PUSH2 0x1692 JUMPI PUSH1 0x40 MLOAD PUSH3 0x461BCD PUSH1 0xE5 SHL DUP2 MSTORE PUSH1 0x20 PUSH1 0x4 DUP3 ADD MSTORE PUSH1 0x17 PUSH1 0x24 DUP3 ADD MSTORE PUSH32 0x5374616B65207265636F7264206E6F7420666F756E642E000000000000000000 PUSH1 0x44 DUP3 ADD MSTORE PUSH1 0x64 ADD PUSH2 0x8DF JUMP JUMPDEST PUSH1 0x0 DUP1 PUSH2 0x169E DUP9 PUSH2 0xD44 JUMP JUMPDEST ISZERO PUSH2 0x16F9 JUMPI PUSH2 0x16AD DUP7 DUP6 PUSH2 0x1C07 JUMP JUMPDEST PUSH2 0x16B7 DUP6 DUP5 PUSH2 0x1C07 JUMP JUMPDEST PUSH2 0x16C2 DUP5 DUP5 DUP10 PUSH2 0x24AD JUMP JUMPDEST SWAP1 SWAP3 POP SWAP1 POP PUSH2 0x16D1 DUP7 DUP6 PUSH2 0x1C5C JUMP JUMPDEST PUSH2 0x16DB DUP6 DUP5 PUSH2 0x1C5C JUMP JUMPDEST DUP2 PUSH2 0x13B PUSH1 0x0 DUP3 DUP3 SLOAD PUSH2 0x16EE SWAP2 SWAP1 PUSH2 0x303F JUMP JUMPDEST SWAP1 SWAP2 SSTORE POP PUSH2 0x1750 SWAP1 POP JUMP JUMPDEST PUSH1 0x1 PUSH1 0x1 PUSH1 0xA0 SHL SUB DUP9 AND PUSH1 0x0 SWAP1 DUP2 MSTORE PUSH2 0x134 PUSH1 0x20 SWAP1 DUP2 MSTORE PUSH1 0x40 SWAP2 DUP3 SWAP1 KECCAK256 DUP3 MLOAD DUP1 DUP5 ADD SWAP1 SWAP4 MSTORE DUP1 SLOAD DUP4 MSTORE PUSH1 0x1 ADD SLOAD SWAP1 DUP3 ADD MSTORE SWAP5 POP PUSH2 0x1736 DUP6 DUP5 PUSH2 0x1C07 JUMP JUMPDEST PUSH2 0x1741 DUP5 DUP5 DUP10 PUSH2 0x24AD JUMP JUMPDEST SWAP1 SWAP3 POP SWAP1 POP PUSH2 0x1750 DUP6 DUP5 PUSH2 0x1C5C JUMP JUMPDEST NUMBER PUSH1 0x60 DUP1 DUP7 ADD DUP3 DUP2 MSTORE SWAP1 DUP6 ADD SWAP2 DUP3 MSTORE PUSH1 0x1 PUSH1 0x1 PUSH1 0xA0 SHL SUB DUP11 AND PUSH1 0x0 SWAP1 DUP2 MSTORE PUSH1 0x0 DUP1 MLOAD PUSH1 0x20 PUSH2 0x30C4 DUP4 CODECOPY DUP2 MLOAD SWAP2 MSTORE PUSH1 0x20 SWAP1 DUP2 MSTORE PUSH1 0x40 DUP1 DUP4 KECCAK256 DUP10 MLOAD DUP2 SSTORE DUP3 DUP11 ADD MLOAD PUSH1 0x1 DUP1 DUP4 ADD SWAP2 SWAP1 SWAP2 SSTORE DUP3 DUP12 ADD MLOAD PUSH1 0x2 DUP1 DUP5 ADD SWAP2 SWAP1 SWAP2 SSTORE SWAP6 MLOAD PUSH1 0x3 SWAP3 DUP4 ADD SSTORE PUSH2 0x135 DUP5 MSTORE DUP3 DUP6 KECCAK256 CALLER DUP7 MSTORE DUP5 MSTORE DUP3 DUP6 KECCAK256 DUP11 MLOAD DUP2 SSTORE SWAP4 DUP11 ADD MLOAD SWAP1 DUP5 ADD SSTORE SWAP1 DUP9 ADD MLOAD SWAP4 DUP3 ADD SWAP4 SWAP1 SWAP4 SSTORE SWAP3 MLOAD SWAP3 SWAP1 SWAP2 ADD SWAP2 SWAP1 SWAP2 SSTORE PUSH2 0x13A DUP1 SLOAD DUP5 SWAP3 SWAP1 PUSH2 0x17F1 SWAP1 DUP5 SWAP1 PUSH2 0x303F JUMP JUMPDEST SWAP1 SWAP2 SSTORE POP POP CALLER PUSH1 0x0 DUP2 DUP2 MSTORE PUSH2 0x136 PUSH1 0x20 SWAP1 DUP2 MSTORE PUSH1 0x40 SWAP2 DUP3 SWAP1 KECCAK256 SLOAD DUP3 MLOAD DUP7 DUP2 MSTORE SWAP2 DUP3 ADD DUP6 SWAP1 MSTORE DUP2 DUP4 ADD MSTORE SWAP1 MLOAD PUSH1 0x1 PUSH1 0x1 PUSH1 0xA0 SHL SUB DUP12 AND SWAP3 SWAP2 PUSH32 0xFE7007B2E89D80EDDA76299251DF08366480CAC22E5E260F5E662E850B1F7A32 SWAP2 SWAP1 DUP2 SWAP1 SUB PUSH1 0x60 ADD SWAP1 LOG3 PUSH2 0x1866 CALLER PUSH2 0x1861 DUP4 DUP6 PUSH2 0x2FBC JUMP JUMPDEST PUSH2 0x2594 JUMP JUMPDEST POP POP PUSH1 0x1 DUP1 SSTORE POP POP POP POP POP POP JUMP JUMPDEST PUSH1 0x60 PUSH2 0x1881 PUSH2 0x12E PUSH2 0x26F6 JUMP JUMPDEST SWAP1 POP SWAP1 JUMP JUMPDEST PUSH1 0x2 PUSH1 0x1 SLOAD EQ ISZERO PUSH2 0x18D9 JUMPI PUSH1 0x40 MLOAD PUSH3 0x461BCD PUSH1 0xE5 SHL DUP2 MSTORE PUSH1 0x20 PUSH1 0x4 DUP3 ADD MSTORE PUSH1 0x1F PUSH1 0x24 DUP3 ADD MSTORE PUSH32 0x5265656E7472616E637947756172643A207265656E7472616E742063616C6C00 PUSH1 0x44 DUP3 ADD MSTORE PUSH1 0x64 ADD PUSH2 0x8DF JUMP JUMPDEST PUSH1 0x2 PUSH1 0x1 SSTORE PUSH2 0x18E6 PUSH2 0x1B1D JUMP JUMPDEST PUSH1 0x0 PUSH2 0x18F0 PUSH2 0x1B63 JUMP JUMPDEST POP CALLER PUSH1 0x0 DUP2 DUP2 MSTORE PUSH1 0x0 DUP1 MLOAD PUSH1 0x20 PUSH2 0x30C4 DUP4 CODECOPY DUP2 MLOAD SWAP2 MSTORE PUSH1 0x20 SWAP1 DUP2 MSTORE PUSH1 0x40 SWAP2 DUP3 SWAP1 KECCAK256 DUP3 MLOAD PUSH1 0x80 DUP2 ADD DUP5 MSTORE DUP2 SLOAD DUP2 MSTORE PUSH1 0x1 DUP3 ADD SLOAD SWAP3 DUP2 ADD SWAP3 SWAP1 SWAP3 MSTORE PUSH1 0x2 DUP2 ADD SLOAD SWAP3 DUP3 ADD SWAP3 SWAP1 SWAP3 MSTORE PUSH1 0x3 SWAP1 SWAP2 ADD SLOAD PUSH1 0x60 DUP3 ADD MSTORE SWAP2 SWAP3 POP PUSH2 0x194C SWAP1 PUSH2 0xD44 JUMP JUMPDEST ISZERO PUSH2 0x1965 JUMPI PUSH2 0x195B DUP3 DUP3 PUSH2 0x1C07 JUMP JUMPDEST PUSH2 0x1965 DUP3 DUP3 PUSH2 0x1C5C JUMP JUMPDEST PUSH1 0x0 DUP4 GT DUP1 ISZERO PUSH2 0x1979 JUMPI POP DUP1 PUSH1 0x40 ADD MLOAD DUP4 GT ISZERO JUMPDEST PUSH2 0x19D5 JUMPI PUSH1 0x40 MLOAD PUSH3 0x461BCD PUSH1 0xE5 SHL DUP2 MSTORE PUSH1 0x20 PUSH1 0x4 DUP3 ADD MSTORE PUSH1 0x27 PUSH1 0x24 DUP3 ADD MSTORE PUSH32 0x496E76616C696420616D6F756E74206F7220696E73756666696369656E742062 PUSH1 0x44 DUP3 ADD MSTORE PUSH7 0x30B630B731B297 PUSH1 0xC9 SHL PUSH1 0x64 DUP3 ADD MSTORE PUSH1 0x84 ADD PUSH2 0x8DF JUMP JUMPDEST DUP3 DUP2 PUSH1 0x40 ADD DUP2 DUP2 MLOAD PUSH2 0x19E7 SWAP2 SWAP1 PUSH2 0x303F JUMP JUMPDEST SWAP1 MSTORE POP NUMBER PUSH1 0x60 DUP3 ADD SWAP1 DUP2 MSTORE CALLER PUSH1 0x0 DUP2 DUP2 MSTORE PUSH1 0x0 DUP1 MLOAD PUSH1 0x20 PUSH2 0x30C4 DUP4 CODECOPY DUP2 MLOAD SWAP2 MSTORE PUSH1 0x20 SWAP1 DUP2 MSTORE PUSH1 0x40 SWAP2 DUP3 SWAP1 KECCAK256 DUP6 MLOAD DUP2 SSTORE SWAP1 DUP6 ADD MLOAD PUSH1 0x1 DUP3 ADD SSTORE SWAP1 DUP5 ADD MLOAD PUSH1 0x2 DUP3 ADD SSTORE SWAP2 MLOAD PUSH1 0x3 SWAP1 SWAP3 ADD SWAP2 SWAP1 SWAP2 SSTORE PUSH2 0x1A3D SWAP1 DUP5 PUSH2 0x2594 JUMP JUMPDEST POP POP PUSH1 0x1 DUP1 SSTORE POP JUMP JUMPDEST PUSH2 0x1A4E PUSH2 0x1E65 JUMP JUMPDEST PUSH1 0x1 PUSH1 0x1 PUSH1 0xA0 SHL SUB DUP2 AND PUSH2 0x1AB3 JUMPI PUSH1 0x40 MLOAD PUSH3 0x461BCD PUSH1 0xE5 SHL DUP2 MSTORE PUSH1 0x20 PUSH1 0x4 DUP3 ADD MSTORE PUSH1 0x26 PUSH1 0x24 DUP3 ADD MSTORE PUSH32 0x4F776E61626C653A206E6577206F776E657220697320746865207A65726F2061 PUSH1 0x44 DUP3 ADD MSTORE PUSH6 0x646472657373 PUSH1 0xD0 SHL PUSH1 0x64 DUP3 ADD MSTORE PUSH1 0x84 ADD PUSH2 0x8DF JUMP JUMPDEST PUSH2 0xBED DUP2 PUSH2 0x1FB3 JUMP JUMPDEST PUSH2 0x1AC4 PUSH2 0x1E65 JUMP JUMPDEST PUSH3 0x15180 DUP2 PUSH4 0xFFFFFFFF AND LT ISZERO PUSH2 0x1B14 JUMPI PUSH1 0x40 MLOAD PUSH3 0x461BCD PUSH1 0xE5 SHL DUP2 MSTORE PUSH1 0x20 PUSH1 0x4 DUP3 ADD MSTORE PUSH1 0x14 PUSH1 0x24 DUP3 ADD MSTORE PUSH20 0x24B73B30B634B2103637B1B5903832B934B7B217 PUSH1 0x61 SHL PUSH1 0x44 DUP3 ADD MSTORE PUSH1 0x64 ADD PUSH2 0x8DF JUMP JUMPDEST PUSH2 0xBED DUP2 PUSH2 0x2092 JUMP JUMPDEST PUSH1 0x65 SLOAD PUSH1 0xFF AND ISZERO PUSH2 0xD42 JUMPI PUSH1 0x40 MLOAD PUSH3 0x461BCD PUSH1 0xE5 SHL DUP2 MSTORE PUSH1 0x20 PUSH1 0x4 DUP3 ADD MSTORE PUSH1 0x10 PUSH1 0x24 DUP3 ADD MSTORE PUSH16 0x14185D5CD8589B194E881C185D5CD959 PUSH1 0x82 SHL PUSH1 0x44 DUP3 ADD MSTORE PUSH1 0x64 ADD PUSH2 0x8DF JUMP JUMPDEST PUSH1 0x40 DUP1 MLOAD DUP1 DUP3 ADD SWAP1 SWAP2 MSTORE PUSH1 0x0 DUP1 DUP3 MSTORE PUSH1 0x20 DUP3 ADD MSTORE PUSH1 0x40 DUP1 MLOAD DUP1 DUP3 ADD SWAP1 SWAP2 MSTORE PUSH1 0x0 DUP1 DUP3 MSTORE PUSH1 0x20 DUP3 ADD MSTORE PUSH1 0x40 DUP1 MLOAD DUP1 DUP3 ADD SWAP1 SWAP2 MSTORE PUSH2 0x130 SLOAD DUP2 MSTORE PUSH2 0x131 SLOAD PUSH1 0x20 DUP3 ADD MSTORE PUSH2 0x138 SLOAD PUSH2 0x13B SLOAD PUSH2 0x1BB7 SWAP3 SWAP2 SWAP1 PUSH2 0x242A JUMP JUMPDEST PUSH1 0x40 DUP1 MLOAD DUP1 DUP3 ADD SWAP1 SWAP2 MSTORE PUSH2 0x132 SLOAD DUP2 MSTORE PUSH2 0x133 SLOAD PUSH1 0x20 DUP3 ADD MSTORE PUSH2 0x139 SLOAD PUSH2 0x13B SLOAD SWAP3 SWAP5 POP PUSH2 0x1BE4 SWAP3 PUSH2 0x242A JUMP JUMPDEST DUP3 MLOAD PUSH2 0x130 SSTORE PUSH1 0x20 DUP1 DUP5 ADD MLOAD PUSH2 0x131 SSTORE DUP2 MLOAD PUSH2 0x132 SSTORE DUP2 ADD MLOAD PUSH2 0x133 SSTORE SWAP2 SWAP3 SWAP1 POP JUMP JUMPDEST PUSH1 0x60 DUP2 ADD MLOAD PUSH2 0x1C14 JUMPI POP POP JUMP JUMPDEST PUSH1 0x20 DUP2 ADD MLOAD DUP3 MLOAD DUP3 MLOAD PUSH8 0xDE0B6B3A7640000 SWAP2 PUSH2 0x1C30 SWAP2 PUSH2 0x3020 JUMP JUMPDEST PUSH2 0x1C3A SWAP2 SWAP1 PUSH2 0x3000 JUMP JUMPDEST PUSH2 0x1C44 SWAP2 SWAP1 PUSH2 0x303F JUMP JUMPDEST DUP2 PUSH1 0x40 ADD DUP2 DUP2 MLOAD PUSH2 0x1C55 SWAP2 SWAP1 PUSH2 0x2FBC JUMP JUMPDEST SWAP1 MSTORE POP POP POP JUMP JUMPDEST DUP2 MLOAD DUP2 MLOAD PUSH8 0xDE0B6B3A7640000 SWAP2 PUSH2 0x1C73 SWAP2 PUSH2 0x3020 JUMP JUMPDEST PUSH2 0x1C7D SWAP2 SWAP1 PUSH2 0x3000 JUMP JUMPDEST PUSH1 0x20 SWAP1 SWAP2 ADD MSTORE POP JUMP JUMPDEST PUSH2 0x12D SLOAD PUSH1 0x1 PUSH1 0x1 PUSH1 0xA0 SHL SUB AND CALLER EQ PUSH2 0xBED JUMPI PUSH1 0x40 MLOAD PUSH3 0x461BCD PUSH1 0xE5 SHL DUP2 MSTORE PUSH1 0x20 PUSH1 0x4 DUP3 ADD MSTORE PUSH1 0x21 PUSH1 0x24 DUP3 ADD MSTORE PUSH32 0x4F6E6C79206B65657065722063616E207570677261646520636F6E7472616374 PUSH1 0x44 DUP3 ADD MSTORE PUSH1 0x17 PUSH1 0xF9 SHL PUSH1 0x64 DUP3 ADD MSTORE PUSH1 0x84 ADD PUSH2 0x8DF JUMP JUMPDEST PUSH32 0x4910FDFA16FED3260ED0E7147F7CC6DA11A60208B5B9406D12A635614FFD9143 SLOAD PUSH1 0xFF AND ISZERO PUSH2 0x1D1E JUMPI PUSH2 0x10B8 DUP4 PUSH2 0x2703 JUMP JUMPDEST DUP3 PUSH1 0x1 PUSH1 0x1 PUSH1 0xA0 SHL SUB AND PUSH4 0x52D1902D PUSH1 0x40 MLOAD DUP2 PUSH4 0xFFFFFFFF AND PUSH1 0xE0 SHL DUP2 MSTORE PUSH1 0x4 ADD PUSH1 0x20 PUSH1 0x40 MLOAD DUP1 DUP4 SUB DUP2 DUP7 DUP1 EXTCODESIZE ISZERO DUP1 ISZERO PUSH2 0x1D57 JUMPI PUSH1 0x0 DUP1 REVERT JUMPDEST POP GAS STATICCALL SWAP3 POP POP POP DUP1 ISZERO PUSH2 0x1D87 JUMPI POP PUSH1 0x40 DUP1 MLOAD PUSH1 0x1F RETURNDATASIZE SWAP1 DUP2 ADD PUSH1 0x1F NOT AND DUP3 ADD SWAP1 SWAP3 MSTORE PUSH2 0x1D84 SWAP2 DUP2 ADD SWAP1 PUSH2 0x2DA1 JUMP JUMPDEST PUSH1 0x1 JUMPDEST PUSH2 0x1DEA JUMPI PUSH1 0x40 MLOAD PUSH3 0x461BCD PUSH1 0xE5 SHL DUP2 MSTORE PUSH1 0x20 PUSH1 0x4 DUP3 ADD MSTORE PUSH1 0x2E PUSH1 0x24 DUP3 ADD MSTORE PUSH32 0x45524331393637557067726164653A206E657720696D706C656D656E74617469 PUSH1 0x44 DUP3 ADD MSTORE PUSH14 0x6F6E206973206E6F742055555053 PUSH1 0x90 SHL PUSH1 0x64 DUP3 ADD MSTORE PUSH1 0x84 ADD PUSH2 0x8DF JUMP JUMPDEST PUSH1 0x0 DUP1 MLOAD PUSH1 0x20 PUSH2 0x30E4 DUP4 CODECOPY DUP2 MLOAD SWAP2 MSTORE DUP2 EQ PUSH2 0x1E59 JUMPI PUSH1 0x40 MLOAD PUSH3 0x461BCD PUSH1 0xE5 SHL DUP2 MSTORE PUSH1 0x20 PUSH1 0x4 DUP3 ADD MSTORE PUSH1 0x29 PUSH1 0x24 DUP3 ADD MSTORE PUSH32 0x45524331393637557067726164653A20756E737570706F727465642070726F78 PUSH1 0x44 DUP3 ADD MSTORE PUSH9 0x1A58589B1955555251 PUSH1 0xBA SHL PUSH1 0x64 DUP3 ADD MSTORE PUSH1 0x84 ADD PUSH2 0x8DF JUMP JUMPDEST POP PUSH2 0x10B8 DUP4 DUP4 DUP4 PUSH2 0x279F JUMP JUMPDEST PUSH1 0x97 SLOAD PUSH1 0x1 PUSH1 0x1 PUSH1 0xA0 SHL SUB AND CALLER EQ PUSH2 0xD42 JUMPI PUSH1 0x40 MLOAD PUSH3 0x461BCD PUSH1 0xE5 SHL DUP2 MSTORE PUSH1 0x20 PUSH1 0x4 DUP3 ADD DUP2 SWAP1 MSTORE PUSH1 0x24 DUP3 ADD MSTORE PUSH32 0x4F776E61626C653A2063616C6C6572206973206E6F7420746865206F776E6572 PUSH1 0x44 DUP3 ADD MSTORE PUSH1 0x64 ADD PUSH2 0x8DF JUMP JUMPDEST PUSH2 0x1EC7 PUSH2 0x27C4 JUMP JUMPDEST PUSH1 0x65 DUP1 SLOAD PUSH1 0xFF NOT AND SWAP1 SSTORE PUSH32 0x5DB9EE0A495BF2E6FF9C91A7834C1BA4FDD244A5E8AA4E537BD38AEAE4B073AA CALLER JUMPDEST PUSH1 0x40 MLOAD PUSH1 0x1 PUSH1 0x1 PUSH1 0xA0 SHL SUB SWAP1 SWAP2 AND DUP2 MSTORE PUSH1 0x20 ADD PUSH1 0x40 MLOAD DUP1 SWAP2 SUB SWAP1 LOG1 JUMP JUMPDEST PUSH1 0x1 PUSH1 0x1 PUSH1 0xA0 SHL SUB DUP2 AND PUSH1 0x0 SWAP1 DUP2 MSTORE PUSH1 0x1 DUP4 ADD PUSH1 0x20 MSTORE PUSH1 0x40 DUP2 KECCAK256 SLOAD ISZERO ISZERO JUMPDEST SWAP4 SWAP3 POP POP POP JUMP JUMPDEST PUSH1 0x0 PUSH2 0xD2C DUP3 SLOAD SWAP1 JUMP JUMPDEST PUSH1 0x0 PUSH2 0x1F2F DUP4 PUSH1 0x1 PUSH1 0x1 PUSH1 0xA0 SHL SUB DUP5 AND PUSH2 0x280D JUMP JUMPDEST PUSH1 0x0 SLOAD PUSH2 0x100 SWAP1 DIV PUSH1 0xFF AND PUSH2 0x1F7C JUMPI PUSH1 0x40 MLOAD PUSH3 0x461BCD PUSH1 0xE5 SHL DUP2 MSTORE PUSH1 0x4 ADD PUSH2 0x8DF SWAP1 PUSH2 0x2F29 JUMP JUMPDEST PUSH2 0xD42 PUSH2 0x292A JUMP JUMPDEST PUSH1 0x0 SLOAD PUSH2 0x100 SWAP1 DIV PUSH1 0xFF AND PUSH2 0x1FAB JUMPI PUSH1 0x40 MLOAD PUSH3 0x461BCD PUSH1 0xE5 SHL DUP2 MSTORE PUSH1 0x4 ADD PUSH2 0x8DF SWAP1 PUSH2 0x2F29 JUMP JUMPDEST PUSH2 0xD42 PUSH2 0x2957 JUMP JUMPDEST PUSH1 0x97 DUP1 SLOAD PUSH1 0x1 PUSH1 0x1 PUSH1 0xA0 SHL SUB DUP4 DUP2 AND PUSH1 0x1 PUSH1 0x1 PUSH1 0xA0 SHL SUB NOT DUP4 AND DUP2 OR SWAP1 SWAP4 SSTORE PUSH1 0x40 MLOAD SWAP2 AND SWAP2 SWAP1 DUP3 SWAP1 PUSH32 0x8BE0079C531659141344CD1FD0A4F28419497F9722A3DAAFE3B4186F6B6457E0 SWAP1 PUSH1 0x0 SWAP1 LOG3 POP POP JUMP JUMPDEST PUSH1 0x0 SLOAD PUSH2 0x100 SWAP1 DIV PUSH1 0xFF AND PUSH2 0xD42 JUMPI PUSH1 0x40 MLOAD PUSH3 0x461BCD PUSH1 0xE5 SHL DUP2 MSTORE PUSH1 0x4 ADD PUSH2 0x8DF SWAP1 PUSH2 0x2F29 JUMP JUMPDEST PUSH2 0x2037 PUSH1 0x5 DUP3 PUSH2 0x3000 JUMP JUMPDEST PUSH2 0x138 DUP2 SWAP1 SSTORE PUSH2 0x2047 SWAP1 DUP3 PUSH2 0x303F JUMP JUMPDEST PUSH2 0x139 DUP2 SWAP1 SSTORE PUSH2 0x138 SLOAD PUSH1 0x40 MLOAD PUSH32 0x79A5349732F93288ABBB68E251C3DFC325BF3EE6FDE7786D919155D39733E0F5 SWAP3 PUSH2 0x2087 SWAP3 DUP3 MSTORE PUSH1 0x20 DUP3 ADD MSTORE PUSH1 0x40 ADD SWAP1 JUMP JUMPDEST PUSH1 0x40 MLOAD DUP1 SWAP2 SUB SWAP1 LOG1 POP JUMP JUMPDEST PUSH2 0x137 DUP1 SLOAD PUSH8 0xFFFFFFFF00000000 NOT AND PUSH5 0x100000000 PUSH4 0xFFFFFFFF DUP5 AND SWAP1 DUP2 MUL SWAP2 SWAP1 SWAP2 OR SWAP1 SWAP2 SSTORE PUSH1 0x40 MLOAD SWAP1 DUP2 MSTORE PUSH32 0x401DAE40EDAC291EC00AD4F9E16968C6C86B73FCD6FAAD7E35A55A27FA64D048 SWAP1 PUSH1 0x20 ADD PUSH2 0x2087 JUMP JUMPDEST PUSH1 0x1 PUSH1 0x1 PUSH1 0xA0 SHL SUB DUP2 AND PUSH2 0x2132 JUMPI PUSH1 0x40 MLOAD PUSH3 0x461BCD PUSH1 0xE5 SHL DUP2 MSTORE PUSH1 0x20 PUSH1 0x4 DUP3 ADD MSTORE PUSH1 0x10 PUSH1 0x24 DUP3 ADD MSTORE PUSH16 0x24B73B30B634B21030B2323932B9B997 PUSH1 0x81 SHL PUSH1 0x44 DUP3 ADD MSTORE PUSH1 0x64 ADD PUSH2 0x8DF JUMP JUMPDEST PUSH2 0x137 SLOAD PUSH4 0xFFFFFFFF AND PUSH2 0x2147 PUSH2 0x12E PUSH2 0x1F36 JUMP JUMPDEST LT PUSH2 0x218B JUMPI PUSH1 0x40 MLOAD PUSH3 0x461BCD PUSH1 0xE5 SHL DUP2 MSTORE PUSH1 0x20 PUSH1 0x4 DUP3 ADD MSTORE PUSH1 0x14 PUSH1 0x24 DUP3 ADD MSTORE PUSH20 0x2B30B634B230BA37B9399030B93290333AB63617 PUSH1 0x61 SHL PUSH1 0x44 DUP3 ADD MSTORE PUSH1 0x64 ADD PUSH2 0x8DF JUMP JUMPDEST PUSH2 0x2194 DUP2 PUSH2 0xD44 JUMP JUMPDEST ISZERO DUP1 ISZERO PUSH2 0x21BB JUMPI POP PUSH1 0x1 PUSH1 0x1 PUSH1 0xA0 SHL SUB DUP2 AND PUSH1 0x0 SWAP1 DUP2 MSTORE PUSH2 0x134 PUSH1 0x20 MSTORE PUSH1 0x40 SWAP1 KECCAK256 PUSH1 0x1 ADD SLOAD ISZERO JUMPDEST PUSH2 0x2207 JUMPI PUSH1 0x40 MLOAD PUSH3 0x461BCD PUSH1 0xE5 SHL DUP2 MSTORE PUSH1 0x20 PUSH1 0x4 DUP3 ADD MSTORE PUSH1 0x19 PUSH1 0x24 DUP3 ADD MSTORE PUSH32 0x56616C696461746F7220686164206265656E2061646465642E00000000000000 PUSH1 0x44 DUP3 ADD MSTORE PUSH1 0x64 ADD PUSH2 0x8DF JUMP JUMPDEST PUSH2 0x2213 PUSH2 0x12E DUP3 PUSH2 0x298A JUMP JUMPDEST POP PUSH1 0x40 DUP1 MLOAD PUSH1 0x1 PUSH1 0x1 PUSH1 0xA0 SHL SUB DUP4 AND DUP2 MSTORE PUSH1 0x1 PUSH1 0x20 DUP3 ADD MSTORE PUSH32 0xD2B4A3AE4917617AAA5E6CAA5541A3331944D66BAA187EF6C350F1CE4012D819 SWAP2 ADD PUSH2 0x2087 JUMP JUMPDEST PUSH1 0x1 PUSH1 0x1 PUSH1 0xA0 SHL SUB DUP4 AND PUSH1 0x0 SWAP1 DUP2 MSTORE PUSH2 0x136 PUSH1 0x20 MSTORE PUSH1 0x40 DUP2 KECCAK256 DUP1 SLOAD DUP4 SWAP1 DUP2 LT PUSH2 0x228C JUMPI PUSH4 0x4E487B71 PUSH1 0xE0 SHL PUSH1 0x0 MSTORE PUSH1 0x32 PUSH1 0x4 MSTORE PUSH1 0x24 PUSH1 0x0 REVERT JUMPDEST PUSH1 0x0 SWAP2 DUP3 MSTORE PUSH1 0x20 SWAP1 SWAP2 KECCAK256 PUSH1 0x2 SWAP1 SWAP2 MUL ADD PUSH1 0x1 DUP2 ADD SLOAD SWAP1 SWAP2 POP PUSH1 0xFF AND ISZERO PUSH2 0x22F4 JUMPI PUSH1 0x40 MLOAD PUSH3 0x461BCD PUSH1 0xE5 SHL DUP2 MSTORE PUSH1 0x20 PUSH1 0x4 DUP3 ADD MSTORE PUSH1 0x18 PUSH1 0x24 DUP3 ADD MSTORE PUSH32 0x5769746864726177616C20697320636F6D706C657465642E0000000000000000 PUSH1 0x44 DUP3 ADD MSTORE PUSH1 0x64 ADD PUSH2 0x8DF JUMP JUMPDEST PUSH2 0x137 SLOAD PUSH1 0x1 DUP3 ADD SLOAD PUSH2 0x2324 SWAP2 PUSH5 0x100000000 SWAP1 DIV PUSH4 0xFFFFFFFF AND SWAP1 PUSH2 0x100 SWAP1 DIV PUSH8 0xFFFFFFFFFFFFFFFF AND PUSH2 0x2FD4 JUMP JUMPDEST PUSH8 0xFFFFFFFFFFFFFFFF AND TIMESTAMP LT ISZERO PUSH2 0x237D JUMPI PUSH1 0x40 MLOAD PUSH3 0x461BCD PUSH1 0xE5 SHL DUP2 MSTORE PUSH1 0x20 PUSH1 0x4 DUP3 ADD MSTORE PUSH1 0x1D PUSH1 0x24 DUP3 ADD MSTORE PUSH32 0x5769746864726177616C20697320696E206C6F636B20706572696F642E000000 PUSH1 0x44 DUP3 ADD MSTORE PUSH1 0x64 ADD PUSH2 0x8DF JUMP JUMPDEST PUSH1 0x1 DUP2 DUP2 ADD DUP1 SLOAD PUSH1 0xFF NOT AND SWAP1 SWAP2 OR SWAP1 SSTORE DUP1 SLOAD PUSH1 0x40 DUP1 MLOAD DUP5 DUP2 MSTORE PUSH1 0x20 DUP2 ADD SWAP3 SWAP1 SWAP3 MSTORE PUSH1 0x1 PUSH1 0x1 PUSH1 0xA0 SHL SUB DUP6 DUP2 AND SWAP3 SWAP1 DUP8 AND SWAP2 PUSH32 0xE01911A56BE554FAE2E8C04EBCC1C56C757CE4583C883B878180A6CE99FC8A09 SWAP2 ADD PUSH1 0x40 MLOAD DUP1 SWAP2 SUB SWAP1 LOG3 PUSH2 0x23E7 DUP4 DUP3 PUSH1 0x0 ADD SLOAD PUSH2 0x299F JUMP JUMPDEST POP POP POP POP JUMP JUMPDEST PUSH2 0x23F5 PUSH2 0x1B1D JUMP JUMPDEST PUSH1 0x65 DUP1 SLOAD PUSH1 0xFF NOT AND PUSH1 0x1 OR SWAP1 SSTORE PUSH32 0x62E78CEA01BEE320CD4E420270B5EA74000D11B0C9F74754EBDBFC544B05A258 PUSH2 0x1EF4 CALLER SWAP1 JUMP JUMPDEST PUSH1 0x40 DUP1 MLOAD DUP1 DUP3 ADD SWAP1 SWAP2 MSTORE PUSH1 0x0 DUP1 DUP3 MSTORE PUSH1 0x20 DUP3 ADD MSTORE DUP2 PUSH2 0x2450 JUMPI POP NUMBER PUSH1 0x20 DUP5 ADD MSTORE DUP3 PUSH2 0x1F2F JUMP JUMPDEST PUSH1 0x0 DUP4 DUP6 PUSH1 0x20 ADD MLOAD NUMBER PUSH2 0x2463 SWAP2 SWAP1 PUSH2 0x303F JUMP JUMPDEST PUSH2 0x246D SWAP2 SWAP1 PUSH2 0x3020 JUMP JUMPDEST SWAP1 POP DUP3 PUSH2 0x2482 PUSH8 0xDE0B6B3A7640000 DUP4 PUSH2 0x3020 JUMP JUMPDEST PUSH2 0x248C SWAP2 SWAP1 PUSH2 0x3000 JUMP JUMPDEST DUP6 MLOAD DUP7 SWAP1 PUSH2 0x249B SWAP1 DUP4 SWAP1 PUSH2 0x2FBC JUMP JUMPDEST SWAP1 MSTORE POP POP NUMBER PUSH1 0x20 DUP6 ADD MSTORE POP SWAP2 SWAP3 SWAP2 POP POP JUMP JUMPDEST PUSH1 0x0 DUP1 PUSH1 0x0 DUP5 PUSH1 0x40 ADD MLOAD DUP6 PUSH1 0x0 ADD MLOAD PUSH2 0x24C6 SWAP2 SWAP1 PUSH2 0x2FBC JUMP JUMPDEST SWAP1 POP DUP1 DUP5 GT ISZERO PUSH2 0x2510 JUMPI PUSH1 0x40 MLOAD PUSH3 0x461BCD PUSH1 0xE5 SHL DUP2 MSTORE PUSH1 0x20 PUSH1 0x4 DUP3 ADD MSTORE PUSH1 0x15 PUSH1 0x24 DUP3 ADD MSTORE PUSH21 0x24B739BAB33334B1B4B2B73A103130B630B731B297 PUSH1 0x59 SHL PUSH1 0x44 DUP3 ADD MSTORE PUSH1 0x64 ADD PUSH2 0x8DF JUMP JUMPDEST PUSH1 0x40 DUP6 ADD MLOAD SWAP2 POP DUP4 PUSH2 0x2524 JUMPI DUP1 SWAP4 POP PUSH2 0x254E JUMP JUMPDEST DUP2 DUP5 GT PUSH2 0x254E JUMPI DUP4 DUP6 PUSH1 0x40 ADD DUP2 DUP2 MLOAD PUSH2 0x253D SWAP2 SWAP1 PUSH2 0x303F JUMP JUMPDEST SWAP1 MSTORE POP PUSH1 0x0 SWAP3 POP DUP4 SWAP2 POP PUSH2 0x258C SWAP1 POP JUMP JUMPDEST PUSH1 0x0 PUSH1 0x40 DUP7 ADD MSTORE PUSH2 0x255F DUP3 DUP6 PUSH2 0x303F JUMP JUMPDEST SWAP3 POP DUP3 DUP7 PUSH1 0x0 ADD DUP2 DUP2 MLOAD PUSH2 0x2573 SWAP2 SWAP1 PUSH2 0x303F JUMP JUMPDEST SWAP1 MSTORE POP DUP5 MLOAD DUP4 SWAP1 DUP7 SWAP1 PUSH2 0x2587 SWAP1 DUP4 SWAP1 PUSH2 0x303F JUMP JUMPDEST SWAP1 MSTORE POP POP JUMPDEST SWAP4 POP SWAP4 SWAP2 POP POP JUMP JUMPDEST PUSH32 0x0 DUP2 LT ISZERO PUSH2 0x261B JUMPI PUSH1 0x40 MLOAD PUSH3 0x461BCD PUSH1 0xE5 SHL DUP2 MSTORE PUSH1 0x20 PUSH1 0x4 DUP3 ADD MSTORE PUSH1 0x2E PUSH1 0x24 DUP3 ADD MSTORE PUSH32 0x5769746864726177616C20616D6F756E74206D757374203E3D204D494E5F5749 PUSH1 0x44 DUP3 ADD MSTORE PUSH14 0x2A24222920ABAFA0A6A7AAA72A17 PUSH1 0x91 SHL PUSH1 0x64 DUP3 ADD MSTORE PUSH1 0x84 ADD PUSH2 0x8DF JUMP JUMPDEST PUSH1 0x1 PUSH1 0x1 PUSH1 0xA0 SHL SUB DUP3 AND PUSH1 0x0 DUP2 DUP2 MSTORE PUSH2 0x136 PUSH1 0x20 SWAP1 DUP2 MSTORE PUSH1 0x40 DUP1 DUP4 KECCAK256 DUP1 SLOAD DUP3 MLOAD PUSH1 0x60 DUP2 ADD DUP5 MSTORE DUP8 DUP2 MSTORE DUP1 DUP6 ADD DUP7 DUP2 MSTORE PUSH8 0xFFFFFFFFFFFFFFFF TIMESTAMP DUP2 AND DUP4 DUP8 ADD SWAP1 DUP2 MSTORE PUSH1 0x1 DUP1 DUP7 ADD DUP8 SSTORE SWAP6 DUP10 MSTORE SWAP7 SWAP1 SWAP8 KECCAK256 SWAP2 MLOAD PUSH1 0x2 DUP5 MUL SWAP1 SWAP3 ADD SWAP2 DUP3 SSTORE MLOAD SWAP3 ADD DUP1 SLOAD SWAP5 MLOAD SWAP1 SWAP6 AND PUSH2 0x100 MUL PUSH9 0xFFFFFFFFFFFFFFFF00 NOT SWAP3 ISZERO ISZERO SWAP3 SWAP1 SWAP3 AND PUSH9 0xFFFFFFFFFFFFFFFFFF NOT SWAP1 SWAP5 AND SWAP4 SWAP1 SWAP4 OR OR SWAP1 SWAP3 SSTORE SWAP1 MLOAD SWAP1 SWAP2 SWAP1 PUSH32 0x31F69201FAB7912E3EC9850E3AB705964BF46D9D4276BDCBB6D05E965E5F5401 SWAP1 PUSH2 0x26E9 SWAP1 DUP5 SWAP1 DUP7 SWAP1 SWAP2 DUP3 MSTORE PUSH1 0x20 DUP3 ADD MSTORE PUSH1 0x40 ADD SWAP1 JUMP JUMPDEST PUSH1 0x40 MLOAD DUP1 SWAP2 SUB SWAP1 LOG2 POP POP POP JUMP JUMPDEST PUSH1 0x60 PUSH1 0x0 PUSH2 0x1F2F DUP4 PUSH2 0x2A42 JUMP JUMPDEST PUSH1 0x1 PUSH1 0x1 PUSH1 0xA0 SHL SUB DUP2 AND EXTCODESIZE PUSH2 0x2770 JUMPI PUSH1 0x40 MLOAD PUSH3 0x461BCD PUSH1 0xE5 SHL DUP2 MSTORE PUSH1 0x20 PUSH1 0x4 DUP3 ADD MSTORE PUSH1 0x2D PUSH1 0x24 DUP3 ADD MSTORE PUSH32 0x455243313936373A206E657720696D706C656D656E746174696F6E206973206E PUSH1 0x44 DUP3 ADD MSTORE PUSH13 0x1BDD08184818DBDB9D1C9858DD PUSH1 0x9A SHL PUSH1 0x64 DUP3 ADD MSTORE PUSH1 0x84 ADD PUSH2 0x8DF JUMP JUMPDEST PUSH1 0x0 DUP1 MLOAD PUSH1 0x20 PUSH2 0x30E4 DUP4 CODECOPY DUP2 MLOAD SWAP2 MSTORE DUP1 SLOAD PUSH1 0x1 PUSH1 0x1 PUSH1 0xA0 SHL SUB NOT AND PUSH1 0x1 PUSH1 0x1 PUSH1 0xA0 SHL SUB SWAP3 SWAP1 SWAP3 AND SWAP2 SWAP1 SWAP2 OR SWAP1 SSTORE JUMP JUMPDEST PUSH2 0x27A8 DUP4 PUSH2 0x2A9E JUMP JUMPDEST PUSH1 0x0 DUP3 MLOAD GT DUP1 PUSH2 0x27B5 JUMPI POP DUP1 JUMPDEST ISZERO PUSH2 0x10B8 JUMPI PUSH2 0x23E7 DUP4 DUP4 PUSH2 0x2ADE JUMP JUMPDEST PUSH1 0x65 SLOAD PUSH1 0xFF AND PUSH2 0xD42 JUMPI PUSH1 0x40 MLOAD PUSH3 0x461BCD PUSH1 0xE5 SHL DUP2 MSTORE PUSH1 0x20 PUSH1 0x4 DUP3 ADD MSTORE PUSH1 0x14 PUSH1 0x24 DUP3 ADD MSTORE PUSH20 0x14185D5CD8589B194E881B9BDD081C185D5CD959 PUSH1 0x62 SHL PUSH1 0x44 DUP3 ADD MSTORE PUSH1 0x64 ADD PUSH2 0x8DF JUMP JUMPDEST PUSH1 0x0 DUP2 DUP2 MSTORE PUSH1 0x1 DUP4 ADD PUSH1 0x20 MSTORE PUSH1 0x40 DUP2 KECCAK256 SLOAD DUP1 ISZERO PUSH2 0x2920 JUMPI PUSH1 0x0 PUSH2 0x2831 PUSH1 0x1 DUP4 PUSH2 0x303F JUMP JUMPDEST DUP6 SLOAD SWAP1 SWAP2 POP PUSH1 0x0 SWAP1 PUSH2 0x2845 SWAP1 PUSH1 0x1 SWAP1 PUSH2 0x303F JUMP JUMPDEST SWAP1 POP DUP2 DUP2 EQ PUSH2 0x28C6 JUMPI PUSH1 0x0 DUP7 PUSH1 0x0 ADD DUP3 DUP2 SLOAD DUP2 LT PUSH2 0x2873 JUMPI PUSH4 0x4E487B71 PUSH1 0xE0 SHL PUSH1 0x0 MSTORE PUSH1 0x32 PUSH1 0x4 MSTORE PUSH1 0x24 PUSH1 0x0 REVERT JUMPDEST SWAP1 PUSH1 0x0 MSTORE PUSH1 0x20 PUSH1 0x0 KECCAK256 ADD SLOAD SWAP1 POP DUP1 DUP8 PUSH1 0x0 ADD DUP5 DUP2 SLOAD DUP2 LT PUSH2 0x28A4 JUMPI PUSH4 0x4E487B71 PUSH1 0xE0 SHL PUSH1 0x0 MSTORE PUSH1 0x32 PUSH1 0x4 MSTORE PUSH1 0x24 PUSH1 0x0 REVERT JUMPDEST PUSH1 0x0 SWAP2 DUP3 MSTORE PUSH1 0x20 DUP1 DUP4 KECCAK256 SWAP1 SWAP2 ADD SWAP3 SWAP1 SWAP3 SSTORE SWAP2 DUP3 MSTORE PUSH1 0x1 DUP9 ADD SWAP1 MSTORE PUSH1 0x40 SWAP1 KECCAK256 DUP4 SWAP1 SSTORE JUMPDEST DUP6 SLOAD DUP7 SWAP1 DUP1 PUSH2 0x28E5 JUMPI PUSH4 0x4E487B71 PUSH1 0xE0 SHL PUSH1 0x0 MSTORE PUSH1 0x31 PUSH1 0x4 MSTORE PUSH1 0x24 PUSH1 0x0 REVERT JUMPDEST PUSH1 0x1 SWAP1 SUB DUP2 DUP2 SWAP1 PUSH1 0x0 MSTORE PUSH1 0x20 PUSH1 0x0 KECCAK256 ADD PUSH1 0x0 SWAP1 SSTORE SWAP1 SSTORE DUP6 PUSH1 0x1 ADD PUSH1 0x0 DUP7 DUP2 MSTORE PUSH1 0x20 ADD SWAP1 DUP2 MSTORE PUSH1 0x20 ADD PUSH1 0x0 KECCAK256 PUSH1 0x0 SWAP1 SSTORE PUSH1 0x1 SWAP4 POP POP POP POP PUSH2 0xD2C JUMP JUMPDEST PUSH1 0x0 SWAP2 POP POP PUSH2 0xD2C JUMP JUMPDEST PUSH1 0x0 SLOAD PUSH2 0x100 SWAP1 DIV PUSH1 0xFF AND PUSH2 0x2951 JUMPI PUSH1 0x40 MLOAD PUSH3 0x461BCD PUSH1 0xE5 SHL DUP2 MSTORE PUSH1 0x4 ADD PUSH2 0x8DF SWAP1 PUSH2 0x2F29 JUMP JUMPDEST PUSH1 0x1 DUP1 SSTORE JUMP JUMPDEST PUSH1 0x0 SLOAD PUSH2 0x100 SWAP1 DIV PUSH1 0xFF AND PUSH2 0x297E JUMPI PUSH1 0x40 MLOAD PUSH3 0x461BCD PUSH1 0xE5 SHL DUP2 MSTORE PUSH1 0x4 ADD PUSH2 0x8DF SWAP1 PUSH2 0x2F29 JUMP JUMPDEST PUSH1 0x65 DUP1 SLOAD PUSH1 0xFF NOT AND SWAP1 SSTORE JUMP JUMPDEST PUSH1 0x0 PUSH2 0x1F2F DUP4 PUSH1 0x1 PUSH1 0x1 PUSH1 0xA0 SHL SUB DUP5 AND PUSH2 0x2BC9 JUMP JUMPDEST PUSH1 0x0 DUP3 PUSH1 0x1 PUSH1 0x1 PUSH1 0xA0 SHL SUB AND DUP3 PUSH1 0x40 MLOAD PUSH1 0x0 PUSH1 0x40 MLOAD DUP1 DUP4 SUB DUP2 DUP6 DUP8 GAS CALL SWAP3 POP POP POP RETURNDATASIZE DUP1 PUSH1 0x0 DUP2 EQ PUSH2 0x29EC JUMPI PUSH1 0x40 MLOAD SWAP2 POP PUSH1 0x1F NOT PUSH1 0x3F RETURNDATASIZE ADD AND DUP3 ADD PUSH1 0x40 MSTORE RETURNDATASIZE DUP3 MSTORE RETURNDATASIZE PUSH1 0x0 PUSH1 0x20 DUP5 ADD RETURNDATACOPY PUSH2 0x29F1 JUMP JUMPDEST PUSH1 0x60 SWAP2 POP JUMPDEST POP POP SWAP1 POP DUP1 PUSH2 0x10B8 JUMPI PUSH1 0x40 MLOAD PUSH3 0x461BCD PUSH1 0xE5 SHL DUP2 MSTORE PUSH1 0x20 PUSH1 0x4 DUP3 ADD MSTORE PUSH1 0x1C PUSH1 0x24 DUP3 ADD MSTORE PUSH32 0x4661696C656420746F2073656E64206E617469766520746F6B656E2E00000000 PUSH1 0x44 DUP3 ADD MSTORE PUSH1 0x64 ADD PUSH2 0x8DF JUMP JUMPDEST PUSH1 0x60 DUP2 PUSH1 0x0 ADD DUP1 SLOAD DUP1 PUSH1 0x20 MUL PUSH1 0x20 ADD PUSH1 0x40 MLOAD SWAP1 DUP2 ADD PUSH1 0x40 MSTORE DUP1 SWAP3 SWAP2 SWAP1 DUP2 DUP2 MSTORE PUSH1 0x20 ADD DUP3 DUP1 SLOAD DUP1 ISZERO PUSH2 0x2A92 JUMPI PUSH1 0x20 MUL DUP3 ADD SWAP2 SWAP1 PUSH1 0x0 MSTORE PUSH1 0x20 PUSH1 0x0 KECCAK256 SWAP1 JUMPDEST DUP2 SLOAD DUP2 MSTORE PUSH1 0x20 ADD SWAP1 PUSH1 0x1 ADD SWAP1 DUP1 DUP4 GT PUSH2 0x2A7E JUMPI JUMPDEST POP POP POP POP POP SWAP1 POP SWAP2 SWAP1 POP JUMP JUMPDEST PUSH2 0x2AA7 DUP2 PUSH2 0x2703 JUMP JUMPDEST PUSH1 0x40 MLOAD PUSH1 0x1 PUSH1 0x1 PUSH1 0xA0 SHL SUB DUP3 AND SWAP1 PUSH32 0xBC7CD75A20EE27FD9ADEBAB32041F755214DBC6BFFA90CC0225B39DA2E5C2D3B SWAP1 PUSH1 0x0 SWAP1 LOG2 POP JUMP JUMPDEST PUSH1 0x60 PUSH1 0x1 PUSH1 0x1 PUSH1 0xA0 SHL SUB DUP4 AND EXTCODESIZE PUSH2 0x2B46 JUMPI PUSH1 0x40 MLOAD PUSH3 0x461BCD PUSH1 0xE5 SHL DUP2 MSTORE PUSH1 0x20 PUSH1 0x4 DUP3 ADD MSTORE PUSH1 0x26 PUSH1 0x24 DUP3 ADD MSTORE PUSH32 0x416464726573733A2064656C65676174652063616C6C20746F206E6F6E2D636F PUSH1 0x44 DUP3 ADD MSTORE PUSH6 0x1B9D1C9858DD PUSH1 0xD2 SHL PUSH1 0x64 DUP3 ADD MSTORE PUSH1 0x84 ADD PUSH2 0x8DF JUMP JUMPDEST PUSH1 0x0 DUP1 DUP5 PUSH1 0x1 PUSH1 0x1 PUSH1 0xA0 SHL SUB AND DUP5 PUSH1 0x40 MLOAD PUSH2 0x2B61 SWAP2 SWAP1 PUSH2 0x2DF5 JUMP JUMPDEST PUSH1 0x0 PUSH1 0x40 MLOAD DUP1 DUP4 SUB DUP2 DUP6 GAS DELEGATECALL SWAP2 POP POP RETURNDATASIZE DUP1 PUSH1 0x0 DUP2 EQ PUSH2 0x2B9C JUMPI PUSH1 0x40 MLOAD SWAP2 POP PUSH1 0x1F NOT PUSH1 0x3F RETURNDATASIZE ADD AND DUP3 ADD PUSH1 0x40 MSTORE RETURNDATASIZE DUP3 MSTORE RETURNDATASIZE PUSH1 0x0 PUSH1 0x20 DUP5 ADD RETURNDATACOPY PUSH2 0x2BA1 JUMP JUMPDEST PUSH1 0x60 SWAP2 POP JUMPDEST POP SWAP2 POP SWAP2 POP PUSH2 0xD27 DUP3 DUP3 PUSH1 0x40 MLOAD DUP1 PUSH1 0x60 ADD PUSH1 0x40 MSTORE DUP1 PUSH1 0x27 DUP2 MSTORE PUSH1 0x20 ADD PUSH2 0x3104 PUSH1 0x27 SWAP2 CODECOPY PUSH2 0x2C18 JUMP JUMPDEST PUSH1 0x0 DUP2 DUP2 MSTORE PUSH1 0x1 DUP4 ADD PUSH1 0x20 MSTORE PUSH1 0x40 DUP2 KECCAK256 SLOAD PUSH2 0x2C10 JUMPI POP DUP2 SLOAD PUSH1 0x1 DUP2 DUP2 ADD DUP5 SSTORE PUSH1 0x0 DUP5 DUP2 MSTORE PUSH1 0x20 DUP1 DUP3 KECCAK256 SWAP1 SWAP4 ADD DUP5 SWAP1 SSTORE DUP5 SLOAD DUP5 DUP3 MSTORE DUP3 DUP7 ADD SWAP1 SWAP4 MSTORE PUSH1 0x40 SWAP1 KECCAK256 SWAP2 SWAP1 SWAP2 SSTORE PUSH2 0xD2C JUMP JUMPDEST POP PUSH1 0x0 PUSH2 0xD2C JUMP JUMPDEST PUSH1 0x60 DUP4 ISZERO PUSH2 0x2C27 JUMPI POP DUP2 PUSH2 0x1F2F JUMP JUMPDEST DUP3 MLOAD ISZERO PUSH2 0x2C37 JUMPI DUP3 MLOAD DUP1 DUP5 PUSH1 0x20 ADD REVERT JUMPDEST DUP2 PUSH1 0x40 MLOAD PUSH3 0x461BCD PUSH1 0xE5 SHL DUP2 MSTORE PUSH1 0x4 ADD PUSH2 0x8DF SWAP2 SWAP1 PUSH2 0x2E5E JUMP JUMPDEST PUSH1 0x0 PUSH1 0x20 DUP3 DUP5 SUB SLT ISZERO PUSH2 0x2C62 JUMPI DUP1 DUP2 REVERT JUMPDEST DUP2 CALLDATALOAD PUSH2 0x1F2F DUP2 PUSH2 0x30AE JUMP JUMPDEST PUSH1 0x0 DUP1 PUSH1 0x40 DUP4 DUP6 SUB SLT ISZERO PUSH2 0x2C7F JUMPI DUP1 DUP2 REVERT JUMPDEST DUP3 CALLDATALOAD PUSH2 0x2C8A DUP2 PUSH2 0x30AE JUMP JUMPDEST SWAP5 PUSH1 0x20 SWAP4 SWAP1 SWAP4 ADD CALLDATALOAD SWAP4 POP POP POP JUMP JUMPDEST PUSH1 0x0 DUP1 PUSH1 0x40 DUP4 DUP6 SUB SLT ISZERO PUSH2 0x2CAA JUMPI DUP2 DUP3 REVERT JUMPDEST DUP3 CALLDATALOAD PUSH2 0x2CB5 DUP2 PUSH2 0x30AE JUMP JUMPDEST SWAP2 POP PUSH1 0x20 DUP4 ADD CALLDATALOAD PUSH2 0x2CC5 DUP2 PUSH2 0x30AE JUMP JUMPDEST DUP1 SWAP2 POP POP SWAP3 POP SWAP3 SWAP1 POP JUMP JUMPDEST PUSH1 0x0 DUP1 PUSH1 0x40 DUP4 DUP6 SUB SLT ISZERO PUSH2 0x2CE2 JUMPI DUP2 DUP3 REVERT JUMPDEST DUP3 CALLDATALOAD PUSH2 0x2CED DUP2 PUSH2 0x30AE JUMP JUMPDEST SWAP2 POP PUSH1 0x20 DUP4 ADD CALLDATALOAD PUSH8 0xFFFFFFFFFFFFFFFF DUP1 DUP3 GT ISZERO PUSH2 0x2D09 JUMPI DUP3 DUP4 REVERT JUMPDEST DUP2 DUP6 ADD SWAP2 POP DUP6 PUSH1 0x1F DUP4 ADD SLT PUSH2 0x2D1C JUMPI DUP3 DUP4 REVERT JUMPDEST DUP2 CALLDATALOAD DUP2 DUP2 GT ISZERO PUSH2 0x2D2E JUMPI PUSH2 0x2D2E PUSH2 0x3098 JUMP JUMPDEST PUSH1 0x40 MLOAD PUSH1 0x1F DUP3 ADD PUSH1 0x1F NOT SWAP1 DUP2 AND PUSH1 0x3F ADD AND DUP2 ADD SWAP1 DUP4 DUP3 GT DUP2 DUP4 LT OR ISZERO PUSH2 0x2D56 JUMPI PUSH2 0x2D56 PUSH2 0x3098 JUMP JUMPDEST DUP2 PUSH1 0x40 MSTORE DUP3 DUP2 MSTORE DUP9 PUSH1 0x20 DUP5 DUP8 ADD ADD GT ISZERO PUSH2 0x2D6E JUMPI DUP6 DUP7 REVERT JUMPDEST DUP3 PUSH1 0x20 DUP7 ADD PUSH1 0x20 DUP4 ADD CALLDATACOPY DUP6 PUSH1 0x20 DUP5 DUP4 ADD ADD MSTORE DUP1 SWAP6 POP POP POP POP POP POP SWAP3 POP SWAP3 SWAP1 POP JUMP JUMPDEST PUSH1 0x0 DUP1 PUSH1 0x40 DUP4 DUP6 SUB SLT ISZERO PUSH2 0x2C7F JUMPI DUP2 DUP3 REVERT JUMPDEST PUSH1 0x0 PUSH1 0x20 DUP3 DUP5 SUB SLT ISZERO PUSH2 0x2DB2 JUMPI DUP1 DUP2 REVERT JUMPDEST POP MLOAD SWAP2 SWAP1 POP JUMP JUMPDEST PUSH1 0x0 PUSH1 0x20 DUP3 DUP5 SUB SLT ISZERO PUSH2 0x2DCA JUMPI DUP1 DUP2 REVERT JUMPDEST POP CALLDATALOAD SWAP2 SWAP1 POP JUMP JUMPDEST PUSH1 0x0 PUSH1 0x20 DUP3 DUP5 SUB SLT ISZERO PUSH2 0x2DE2 JUMPI DUP1 DUP2 REVERT JUMPDEST DUP2 CALLDATALOAD PUSH4 0xFFFFFFFF DUP2 AND DUP2 EQ PUSH2 0x1F2F JUMPI DUP2 DUP3 REVERT JUMPDEST PUSH1 0x0 DUP3 MLOAD PUSH2 0x2E07 DUP2 DUP5 PUSH1 0x20 DUP8 ADD PUSH2 0x3056 JUMP JUMPDEST SWAP2 SWAP1 SWAP2 ADD SWAP3 SWAP2 POP POP JUMP JUMPDEST PUSH1 0x20 DUP1 DUP3 MSTORE DUP3 MLOAD DUP3 DUP3 ADD DUP2 SWAP1 MSTORE PUSH1 0x0 SWAP2 SWAP1 DUP5 DUP3 ADD SWAP1 PUSH1 0x40 DUP6 ADD SWAP1 DUP5 JUMPDEST DUP2 DUP2 LT ISZERO PUSH2 0x2E52 JUMPI DUP4 MLOAD PUSH1 0x1 PUSH1 0x1 PUSH1 0xA0 SHL SUB AND DUP4 MSTORE SWAP3 DUP5 ADD SWAP3 SWAP2 DUP5 ADD SWAP2 PUSH1 0x1 ADD PUSH2 0x2E2D JUMP JUMPDEST POP SWAP1 SWAP7 SWAP6 POP POP POP POP POP POP JUMP JUMPDEST PUSH1 0x20 DUP2 MSTORE PUSH1 0x0 DUP3 MLOAD DUP1 PUSH1 0x20 DUP5 ADD MSTORE PUSH2 0x2E7D DUP2 PUSH1 0x40 DUP6 ADD PUSH1 0x20 DUP8 ADD PUSH2 0x3056 JUMP JUMPDEST PUSH1 0x1F ADD PUSH1 0x1F NOT AND SWAP2 SWAP1 SWAP2 ADD PUSH1 0x40 ADD SWAP3 SWAP2 POP POP JUMP JUMPDEST PUSH1 0x20 DUP1 DUP3 MSTORE PUSH1 0x2C SWAP1 DUP3 ADD MSTORE PUSH32 0x46756E6374696F6E206D7573742062652063616C6C6564207468726F75676820 PUSH1 0x40 DUP3 ADD MSTORE PUSH12 0x19195B1959D85D1958D85B1B PUSH1 0xA2 SHL PUSH1 0x60 DUP3 ADD MSTORE PUSH1 0x80 ADD SWAP1 JUMP JUMPDEST PUSH1 0x20 DUP1 DUP3 MSTORE PUSH1 0x2C SWAP1 DUP3 ADD MSTORE PUSH32 0x46756E6374696F6E206D7573742062652063616C6C6564207468726F75676820 PUSH1 0x40 DUP3 ADD MSTORE PUSH12 0x6163746976652070726F7879 PUSH1 0xA0 SHL PUSH1 0x60 DUP3 ADD MSTORE PUSH1 0x80 ADD SWAP1 JUMP JUMPDEST PUSH1 0x20 DUP1 DUP3 MSTORE PUSH1 0x2B SWAP1 DUP3 ADD MSTORE PUSH32 0x496E697469616C697A61626C653A20636F6E7472616374206973206E6F742069 PUSH1 0x40 DUP3 ADD MSTORE PUSH11 0x6E697469616C697A696E67 PUSH1 0xA8 SHL PUSH1 0x60 DUP3 ADD MSTORE PUSH1 0x80 ADD SWAP1 JUMP JUMPDEST PUSH1 0x20 DUP1 DUP3 MSTORE PUSH1 0x28 SWAP1 DUP3 ADD MSTORE PUSH32 0x56616C696461746F72206E6F74206578697374206F7220686173206265656E20 PUSH1 0x40 DUP3 ADD MSTORE PUSH8 0x3932B6B7BB32B217 PUSH1 0xC1 SHL PUSH1 0x60 DUP3 ADD MSTORE PUSH1 0x80 ADD SWAP1 JUMP JUMPDEST PUSH1 0x0 DUP3 NOT DUP3 GT ISZERO PUSH2 0x2FCF JUMPI PUSH2 0x2FCF PUSH2 0x3082 JUMP JUMPDEST POP ADD SWAP1 JUMP JUMPDEST PUSH1 0x0 PUSH8 0xFFFFFFFFFFFFFFFF DUP1 DUP4 AND DUP2 DUP6 AND DUP1 DUP4 SUB DUP3 GT ISZERO PUSH2 0x2FF7 JUMPI PUSH2 0x2FF7 PUSH2 0x3082 JUMP JUMPDEST ADD SWAP5 SWAP4 POP POP POP POP JUMP JUMPDEST PUSH1 0x0 DUP3 PUSH2 0x301B JUMPI PUSH4 0x4E487B71 PUSH1 0xE0 SHL DUP2 MSTORE PUSH1 0x12 PUSH1 0x4 MSTORE PUSH1 0x24 DUP2 REVERT JUMPDEST POP DIV SWAP1 JUMP JUMPDEST PUSH1 0x0 DUP2 PUSH1 0x0 NOT DIV DUP4 GT DUP3 ISZERO ISZERO AND ISZERO PUSH2 0x303A JUMPI PUSH2 0x303A PUSH2 0x3082 JUMP JUMPDEST POP MUL SWAP1 JUMP JUMPDEST PUSH1 0x0 DUP3 DUP3 LT ISZERO PUSH2 0x3051 JUMPI PUSH2 0x3051 PUSH2 0x3082 JUMP JUMPDEST POP SUB SWAP1 JUMP JUMPDEST PUSH1 0x0 JUMPDEST DUP4 DUP2 LT ISZERO PUSH2 0x3071 JUMPI DUP2 DUP2 ADD MLOAD DUP4 DUP3 ADD MSTORE PUSH1 0x20 ADD PUSH2 0x3059 JUMP JUMPDEST DUP4 DUP2 GT ISZERO PUSH2 0x23E7 JUMPI POP POP PUSH1 0x0 SWAP2 ADD MSTORE JUMP JUMPDEST PUSH4 0x4E487B71 PUSH1 0xE0 SHL PUSH1 0x0 MSTORE PUSH1 0x11 PUSH1 0x4 MSTORE PUSH1 0x24 PUSH1 0x0 REVERT JUMPDEST PUSH4 0x4E487B71 PUSH1 0xE0 SHL PUSH1 0x0 MSTORE PUSH1 0x41 PUSH1 0x4 MSTORE PUSH1 0x24 PUSH1 0x0 REVERT JUMPDEST PUSH1 0x1 PUSH1 0x1 PUSH1 0xA0 SHL SUB DUP2 AND DUP2 EQ PUSH2 0xBED JUMPI PUSH1 0x0 DUP1 REVERT INVALID JUMPDEST KECCAK256 DELEGATECALL 0xC 0xB5 0xE9 0xE6 CALLVALUE 0xA9 0xD 0xF9 0xA7 0x2B MLOAD PUSH13 0x11CC52281A4D1B7B67E672E2FE SLOAD 0x4F CALLCODE 0x2F CALLDATASIZE ADDMOD SWAP5 LOG1 EXTCODESIZE LOG1 LOG3 0x21 MOD PUSH8 0xC828492DB98DCA3E KECCAK256 PUSH23 0xCC3735A920A3CA505D382BBC416464726573733A206C6F PUSH24 0x2D6C6576656C2064656C65676174652063616C6C20666169 PUSH13 0x6564A264697066735822122084 0x2B PUSH22 0x2C64339850501A346B049986B07388A7DE5D9F854BC8 SWAP16 POP PUSH28 0x3585CBC564736F6C6343000804003300000000000000000000000000 "},"methodIdentifiers":{"AUR_PREC()":"45f7b8f4","MIN_STAKE_AMOUNT()":"27ed7188","MIN_WITHDRAW_AMOUNT()":"b6857844","activeStakeAmount()":"d849a502","activeValidators()":"d2d49c4b","addValidator(address)":"4d238c8e","completeWithdraw(address,uint256)":"7b66394c","dueWithdrawalCount(address,uint256)":"3ec18284","getVersion()":"0d8e6e2c","inactivePools(address)":"340c5a25","initialize(address,address)":"485cc955","isActiveValidator(address)":"40550a1c","keeper()":"aced1661","lockPeriod()":"3fd8b02f","owner()":"8da5cb5b","pause()":"8456cb59","paused()":"5c975abb","pendingReward(address,address)":"9ced7e76","proxiableUUID()":"52d1902d","removeValidator(address)":"40a141ff","renounceOwnership()":"715018a6","setKeeper(address)":"748747e6","setLockPeriod(uint32)":"f489f23b","setRewardPerBlock(uint256)":"bb872b4a","setValidatorLimit(uint32)":"522abc40","stake(address)":"26476204","stakeTable(address,address)":"f6a2314a","stakerPool()":"f0544ac8","stakerRewardPerBlock()":"24e770d0","totalStakeAmount()":"94409a56","transferOwnership(address)":"f2fde38b","unpause()":"3f4ba83a","unstake(address,uint256)":"c2a672e0","upgradeTo(address)":"3659cfe6","upgradeToAndCall(address,bytes)":"4f1ef286","validatorLimit()":"57525cbc","validatorPool()":"d4c6d1de","validatorRewardPerBlock()":"7ea5db42","validatorWithdraw(uint256)":"eaf7c9dc","withdrawTable(address,uint256)":"0efa2fed"}},"storageLayout":{"storage":[{"astId":527,"contract":"contracts/CMTStaking.sol:CMTStaking","label":"_initialized","offset":0,"slot":"0","type":"t_uint8"},{"astId":530,"contract":"contracts/CMTStaking.sol:CMTStaking","label":"_initializing","offset":1,"slot":"0","type":"t_bool"},{"astId":948,"contract":"contracts/CMTStaking.sol:CMTStaking","label":"_status","offset":0,"slot":"1","type":"t_uint256"},{"astId":992,"contract":"contracts/CMTStaking.sol:CMTStaking","label":"__gap","offset":0,"slot":"2","type":"t_array(t_uint256)49_storage"},{"astId":1277,"contract":"contracts/CMTStaking.sol:CMTStaking","label":"__gap","offset":0,"slot":"51","type":"t_array(t_uint256)50_storage"},{"astId":828,"contract":"contracts/CMTStaking.sol:CMTStaking","label":"_paused","offset":0,"slot":"101","type":"t_bool"},{"astId":933,"contract":"contracts/CMTStaking.sol:CMTStaking","label":"__gap","offset":0,"slot":"102","type":"t_array(t_uint256)49_storage"},{"astId":10,"contract":"contracts/CMTStaking.sol:CMTStaking","label":"_owner","offset":0,"slot":"151","type":"t_address"},{"astId":130,"contract":"contracts/CMTStaking.sol:CMTStaking","label":"__gap","offset":0,"slot":"152","type":"t_array(t_uint256)49_storage"},{"astId":509,"contract":"contracts/CMTStaking.sol:CMTStaking","label":"__gap","offset":0,"slot":"201","type":"t_array(t_uint256)50_storage"},{"astId":806,"contract":"contracts/CMTStaking.sol:CMTStaking","label":"__gap","offset":0,"slot":"251","type":"t_array(t_uint256)50_storage"},{"astId":1982,"contract":"contracts/CMTStaking.sol:CMTStaking","label":"keeper","offset":0,"slot":"301","type":"t_address"},{"astId":1985,"contract":"contracts/CMTStaking.sol:CMTStaking","label":"_validators","offset":0,"slot":"302","type":"t_struct(AddressSet)1650_storage"},{"astId":1988,"contract":"contracts/CMTStaking.sol:CMTStaking","label":"validatorPool","offset":0,"slot":"304","type":"t_struct(Pool)1964_storage"},{"astId":1991,"contract":"contracts/CMTStaking.sol:CMTStaking","label":"stakerPool","offset":0,"slot":"306","type":"t_struct(Pool)1964_storage"},{"astId":1996,"contract":"contracts/CMTStaking.sol:CMTStaking","label":"inactivePools","offset":0,"slot":"308","type":"t_mapping(t_address,t_struct(Pool)1964_storage)"},{"astId":2003,"contract":"contracts/CMTStaking.sol:CMTStaking","label":"stakeTable","offset":0,"slot":"309","type":"t_mapping(t_address,t_mapping(t_address,t_struct(StakeInfo)1973_storage))"},{"astId":2009,"contract":"contracts/CMTStaking.sol:CMTStaking","label":"withdrawTable","offset":0,"slot":"310","type":"t_mapping(t_address,t_array(t_struct(Withdrawal)1980_storage)dyn_storage)"},{"astId":2011,"contract":"contracts/CMTStaking.sol:CMTStaking","label":"validatorLimit","offset":0,"slot":"311","type":"t_uint32"},{"astId":2013,"contract":"contracts/CMTStaking.sol:CMTStaking","label":"lockPeriod","offset":4,"slot":"311","type":"t_uint32"},{"astId":2015,"contract":"contracts/CMTStaking.sol:CMTStaking","label":"validatorRewardPerBlock","offset":0,"slot":"312","type":"t_uint256"},{"astId":2017,"contract":"contracts/CMTStaking.sol:CMTStaking","label":"stakerRewardPerBlock","offset":0,"slot":"313","type":"t_uint256"},{"astId":2019,"contract":"contracts/CMTStaking.sol:CMTStaking","label":"totalStakeAmount","offset":0,"slot":"314","type":"t_uint256"},{"astId":2021,"contract":"contracts/CMTStaking.sol:CMTStaking","label":"activeStakeAmount","offset":0,"slot":"315","type":"t_uint256"}],"types":{"t_address":{"encoding":"inplace","label":"address","numberOfBytes":"20"},"t_array(t_bytes32)dyn_storage":{"base":"t_bytes32","encoding":"dynamic_array","label":"bytes32[]","numberOfBytes":"32"},"t_array(t_struct(Withdrawal)1980_storage)dyn_storage":{"base":"t_struct(Withdrawal)1980_storage","encoding":"dynamic_array","label":"struct CMTStaking.Withdrawal[]","numberOfBytes":"32"},"t_array(t_uint256)49_storage":{"base":"t_uint256","encoding":"inplace","label":"uint256[49]","numberOfBytes":"1568"},"t_array(t_uint256)50_storage":{"base":"t_uint256","encoding":"inplace","label":"uint256[50]","numberOfBytes":"1600"},"t_bool":{"encoding":"inplace","label":"bool","numberOfBytes":"1"},"t_bytes32":{"encoding":"inplace","label":"bytes32","numberOfBytes":"32"},"t_mapping(t_address,t_array(t_struct(Withdrawal)1980_storage)dyn_storage)":{"encoding":"mapping","key":"t_address","label":"mapping(address => struct CMTStaking.Withdrawal[])","numberOfBytes":"32","value":"t_array(t_struct(Withdrawal)1980_storage)dyn_storage"},"t_mapping(t_address,t_mapping(t_address,t_struct(StakeInfo)1973_storage))":{"encoding":"mapping","key":"t_address","label":"mapping(address => mapping(address => struct CMTStaking.StakeInfo))","numberOfBytes":"32","value":"t_mapping(t_address,t_struct(StakeInfo)1973_storage)"},"t_mapping(t_address,t_struct(Pool)1964_storage)":{"encoding":"mapping","key":"t_address","label":"mapping(address => struct CMTStaking.Pool)","numberOfBytes":"32","value":"t_struct(Pool)1964_storage"},"t_mapping(t_address,t_struct(StakeInfo)1973_storage)":{"encoding":"mapping","key":"t_address","label":"mapping(address => struct CMTStaking.StakeInfo)","numberOfBytes":"32","value":"t_struct(StakeInfo)1973_storage"},"t_mapping(t_bytes32,t_uint256)":{"encoding":"mapping","key":"t_bytes32","label":"mapping(bytes32 => uint256)","numberOfBytes":"32","value":"t_uint256"},"t_struct(AddressSet)1650_storage":{"encoding":"inplace","label":"struct EnumerableSet.AddressSet","members":[{"astId":1649,"contract":"contracts/CMTStaking.sol:CMTStaking","label":"_inner","offset":0,"slot":"0","type":"t_struct(Set)1349_storage"}],"numberOfBytes":"64"},"t_struct(Pool)1964_storage":{"encoding":"inplace","label":"struct CMTStaking.Pool","members":[{"astId":1961,"contract":"contracts/CMTStaking.sol:CMTStaking","label":"lastAUR","offset":0,"slot":"0","type":"t_uint256"},{"astId":1963,"contract":"contracts/CMTStaking.sol:CMTStaking","label":"updateBlock","offset":0,"slot":"1","type":"t_uint256"}],"numberOfBytes":"64"},"t_struct(Set)1349_storage":{"encoding":"inplace","label":"struct EnumerableSet.Set","members":[{"astId":1344,"contract":"contracts/CMTStaking.sol:CMTStaking","label":"_values","offset":0,"slot":"0","type":"t_array(t_bytes32)dyn_storage"},{"astId":1348,"contract":"contracts/CMTStaking.sol:CMTStaking","label":"_indexes","offset":0,"slot":"1","type":"t_mapping(t_bytes32,t_uint256)"}],"numberOfBytes":"64"},"t_struct(StakeInfo)1973_storage":{"encoding":"inplace","label":"struct CMTStaking.StakeInfo","members":[{"astId":1966,"contract":"contracts/CMTStaking.sol:CMTStaking","label":"stakeAmount","offset":0,"slot":"0","type":"t_uint256"},{"astId":1968,"contract":"contracts/CMTStaking.sol:CMTStaking","label":"rewardDebt","offset":0,"slot":"1","type":"t_uint256"},{"astId":1970,"contract":"contracts/CMTStaking.sol:CMTStaking","label":"pendingReward","offset":0,"slot":"2","type":"t_uint256"},{"astId":1972,"contract":"contracts/CMTStaking.sol:CMTStaking","label":"updateBlock","offset":0,"slot":"3","type":"t_uint256"}],"numberOfBytes":"128"},"t_struct(Withdrawal)1980_storage":{"encoding":"inplace","label":"struct CMTStaking.Withdrawal","members":[{"astId":1975,"contract":"contracts/CMTStaking.sol:CMTStaking","label":"amount","offset":0,"slot":"0","type":"t_uint256"},{"astId":1977,"contract":"contracts/CMTStaking.sol:CMTStaking","label":"completed","offset":0,"slot":"1","type":"t_bool"},{"astId":1979,"contract":"contracts/CMTStaking.sol:CMTStaking","label":"timestamp","offset":1,"slot":"1","type":"t_uint64"}],"numberOfBytes":"64"},"t_uint256":{"encoding":"inplace","label":"uint256","numberOfBytes":"32"},"t_uint32":{"encoding":"inplace","label":"uint32","numberOfBytes":"4"},"t_uint64":{"encoding":"inplace","label":"uint64","numberOfBytes":"8"},"t_uint8":{"encoding":"inplace","label":"uint8","numberOfBytes":"1"}}}}}}