{
  "_format": "hh-sol-artifact-1",
  "contractName": "CMTStakingMock",
  "sourceName": "contracts/mock/CMTStakingMock.sol",
  "abi": [
    {
      "inputs": [
        {
          "internalType": "uint256",
          "name": "minStakeAmount",
          "type": "uint256"
        },
        {
          "internalType": "uint256",
          "name": "minWithdrawAmount",
          "type": "uint256"
        }
      ],
      "stateMutability": "nonpayable",
      "type": "constructor"
    },
    {
      "anonymous": false,
      "inputs": [
        {
          "indexed": false,
          "internalType": "address",
          "name": "previousAdmin",
          "type": "address"
        },
        {
          "indexed": false,
          "internalType": "address",
          "name": "newAdmin",
          "type": "address"
        }
      ],
      "name": "AdminChanged",
      "type": "event"
    },
    {
      "anonymous": false,
      "inputs": [
        {
          "indexed": true,
          "internalType": "address",
          "name": "beacon",
          "type": "address"
        }
      ],
      "name": "BeaconUpgraded",
      "type": "event"
    },
    {
      "anonymous": false,
      "inputs": [
        {
          "indexed": false,
          "internalType": "uint8",
          "name": "version",
          "type": "uint8"
        }
      ],
      "name": "Initialized",
      "type": "event"
    },
    {
      "anonymous": false,
      "inputs": [
        {
          "indexed": false,
          "internalType": "uint32",
          "name": "newLockPeriod",
          "type": "uint32"
        }
      ],
      "name": "LockPeriodChanged",
      "type": "event"
    },
    {
      "anonymous": false,
      "inputs": [
        {
          "indexed": true,
          "internalType": "address",
          "name": "previousOwner",
          "type": "address"
        },
        {
          "indexed": true,
          "internalType": "address",
          "name": "newOwner",
          "type": "address"
        }
      ],
      "name": "OwnershipTransferred",
      "type": "event"
    },
    {
      "anonymous": false,
      "inputs": [
        {
          "indexed": false,
          "internalType": "address",
          "name": "account",
          "type": "address"
        }
      ],
      "name": "Paused",
      "type": "event"
    },
    {
      "anonymous": false,
      "inputs": [
        {
          "indexed": true,
          "internalType": "address",
          "name": "sender",
          "type": "address"
        },
        {
          "indexed": false,
          "internalType": "uint256",
          "name": "amount",
          "type": "uint256"
        }
      ],
      "name": "Received",
      "type": "event"
    },
    {
      "anonymous": false,
      "inputs": [
        {
          "indexed": false,
          "internalType": "uint256",
          "name": "validatorReward",
          "type": "uint256"
        },
        {
          "indexed": false,
          "internalType": "uint256",
          "name": "stakerReward",
          "type": "uint256"
        }
      ],
      "name": "RewardPerBlockChanged",
      "type": "event"
    },
    {
      "anonymous": false,
      "inputs": [
        {
          "indexed": true,
          "internalType": "address",
          "name": "staker",
          "type": "address"
        },
        {
          "indexed": true,
          "internalType": "address",
          "name": "validator",
          "type": "address"
        },
        {
          "indexed": false,
          "internalType": "uint256",
          "name": "amount",
          "type": "uint256"
        }
      ],
      "name": "Stake",
      "type": "event"
    },
    {
      "anonymous": false,
      "inputs": [
        {
          "indexed": false,
          "internalType": "address",
          "name": "account",
          "type": "address"
        }
      ],
      "name": "Unpaused",
      "type": "event"
    },
    {
      "anonymous": false,
      "inputs": [
        {
          "indexed": true,
          "internalType": "address",
          "name": "staker",
          "type": "address"
        },
        {
          "indexed": true,
          "internalType": "address",
          "name": "validator",
          "type": "address"
        },
        {
          "indexed": false,
          "internalType": "uint256",
          "name": "unstakeAmount",
          "type": "uint256"
        },
        {
          "indexed": false,
          "internalType": "uint256",
          "name": "claimedReward",
          "type": "uint256"
        },
        {
          "indexed": false,
          "internalType": "uint256",
          "name": "withdrawalId",
          "type": "uint256"
        }
      ],
      "name": "Unstake",
      "type": "event"
    },
    {
      "anonymous": false,
      "inputs": [
        {
          "indexed": true,
          "internalType": "address",
          "name": "implementation",
          "type": "address"
        }
      ],
      "name": "Upgraded",
      "type": "event"
    },
    {
      "anonymous": false,
      "inputs": [
        {
          "indexed": false,
          "internalType": "address",
          "name": "validator",
          "type": "address"
        },
        {
          "indexed": false,
          "internalType": "bool",
          "name": "isValid",
          "type": "bool"
        }
      ],
      "name": "ValidatorChanged",
      "type": "event"
    },
    {
      "anonymous": false,
      "inputs": [
        {
          "indexed": true,
          "internalType": "address",
          "name": "account",
          "type": "address"
        },
        {
          "indexed": true,
          "internalType": "address",
          "name": "recipient",
          "type": "address"
        },
        {
          "indexed": false,
          "internalType": "uint256",
          "name": "withdrawalId",
          "type": "uint256"
        },
        {
          "indexed": false,
          "internalType": "uint256",
          "name": "amount",
          "type": "uint256"
        }
      ],
      "name": "WithdrawalCompleted",
      "type": "event"
    },
    {
      "anonymous": false,
      "inputs": [
        {
          "indexed": true,
          "internalType": "address",
          "name": "account",
          "type": "address"
        },
        {
          "indexed": false,
          "internalType": "uint256",
          "name": "withdrawalId",
          "type": "uint256"
        },
        {
          "indexed": false,
          "internalType": "uint256",
          "name": "amount",
          "type": "uint256"
        }
      ],
      "name": "WithdrawalInitiated",
      "type": "event"
    },
    {
      "inputs": [],
      "name": "AUR_PREC",
      "outputs": [
        {
          "internalType": "uint256",
          "name": "",
          "type": "uint256"
        }
      ],
      "stateMutability": "view",
      "type": "function"
    },
    {
      "inputs": [],
      "name": "MIN_STAKE_AMOUNT",
      "outputs": [
        {
          "internalType": "uint256",
          "name": "",
          "type": "uint256"
        }
      ],
      "stateMutability": "view",
      "type": "function"
    },
    {
      "inputs": [],
      "name": "MIN_WITHDRAW_AMOUNT",
      "outputs": [
        {
          "internalType": "uint256",
          "name": "",
          "type": "uint256"
        }
      ],
      "stateMutability": "view",
      "type": "function"
    },
    {
      "inputs": [],
      "name": "activeStakeAmount",
      "outputs": [
        {
          "internalType": "uint256",
          "name": "",
          "type": "uint256"
        }
      ],
      "stateMutability": "view",
      "type": "function"
    },
    {
      "inputs": [],
      "name": "activeValidators",
      "outputs": [
        {
          "internalType": "address[]",
          "name": "",
          "type": "address[]"
        }
      ],
      "stateMutability": "view",
      "type": "function"
    },
    {
      "inputs": [
        {
          "internalType": "address",
          "name": "validator",
          "type": "address"
        }
      ],
      "name": "addValidator",
      "outputs": [],
      "stateMutability": "nonpayable",
      "type": "function"
    },
    {
      "inputs": [
        {
          "internalType": "address payable",
          "name": "recipient",
          "type": "address"
        },
        {
          "internalType": "uint256",
          "name": "withdrawalId",
          "type": "uint256"
        }
      ],
      "name": "completeWithdraw",
      "outputs": [],
      "stateMutability": "nonpayable",
      "type": "function"
    },
    {
      "inputs": [
        {
          "internalType": "address",
          "name": "account",
          "type": "address"
        },
        {
          "internalType": "uint256",
          "name": "timestamp",
          "type": "uint256"
        }
      ],
      "name": "dueWithdrawalCount",
      "outputs": [
        {
          "internalType": "uint256",
          "name": "",
          "type": "uint256"
        }
      ],
      "stateMutability": "view",
      "type": "function"
    },
    {
      "inputs": [],
      "name": "getVersion",
      "outputs": [
        {
          "internalType": "uint256",
          "name": "",
          "type": "uint256"
        }
      ],
      "stateMutability": "pure",
      "type": "function"
    },
    {
      "inputs": [
        {
          "internalType": "address",
          "name": "",
          "type": "address"
        }
      ],
      "name": "inactivePools",
      "outputs": [
        {
          "internalType": "uint256",
          "name": "lastAUR",
          "type": "uint256"
        },
        {
          "internalType": "uint256",
          "name": "updateBlock",
          "type": "uint256"
        }
      ],
      "stateMutability": "view",
      "type": "function"
    },
    {
      "inputs": [
        {
          "internalType": "address",
          "name": "owner",
          "type": "address"
        },
        {
          "internalType": "address",
          "name": "validator",
          "type": "address"
        }
      ],
      "name": "initialize",
      "outputs": [],
      "stateMutability": "nonpayable",
      "type": "function"
    },
    {
      "inputs": [
        {
          "internalType": "address",
          "name": "validator",
          "type": "address"
        }
      ],
      "name": "isActiveValidator",
      "outputs": [
        {
          "internalType": "bool",
          "name": "",
          "type": "bool"
        }
      ],
      "stateMutability": "view",
      "type": "function"
    },
    {
      "inputs": [],
      "name": "keeper",
      "outputs": [
        {
          "internalType": "address",
          "name": "",
          "type": "address"
        }
      ],
      "stateMutability": "view",
      "type": "function"
    },
    {
      "inputs": [],
      "name": "lockPeriod",
      "outputs": [
        {
          "internalType": "uint32",
          "name": "",
          "type": "uint32"
        }
      ],
      "stateMutability": "view",
      "type": "function"
    },
    {
      "inputs": [],
      "name": "owner",
      "outputs": [
        {
          "internalType": "address",
          "name": "",
          "type": "address"
        }
      ],
      "stateMutability": "view",
      "type": "function"
    },
    {
      "inputs": [],
      "name": "pause",
      "outputs": [],
      "stateMutability": "nonpayable",
      "type": "function"
    },
    {
      "inputs": [],
      "name": "paused",
      "outputs": [
        {
          "internalType": "bool",
          "name": "",
          "type": "bool"
        }
      ],
      "stateMutability": "view",
      "type": "function"
    },
    {
      "inputs": [
        {
          "internalType": "address",
          "name": "validator",
          "type": "address"
        },
        {
          "internalType": "address",
          "name": "staker",
          "type": "address"
        }
      ],
      "name": "pendingReward",
      "outputs": [
        {
          "internalType": "uint256",
          "name": "",
          "type": "uint256"
        }
      ],
      "stateMutability": "view",
      "type": "function"
    },
    {
      "inputs": [],
      "name": "proxiableUUID",
      "outputs": [
        {
          "internalType": "bytes32",
          "name": "",
          "type": "bytes32"
        }
      ],
      "stateMutability": "view",
      "type": "function"
    },
    {
      "inputs": [
        {
          "internalType": "address",
          "name": "validator",
          "type": "address"
        }
      ],
      "name": "removeValidator",
      "outputs": [],
      "stateMutability": "nonpayable",
      "type": "function"
    },
    {
      "inputs": [],
      "name": "renounceOwnership",
      "outputs": [],
      "stateMutability": "nonpayable",
      "type": "function"
    },
    {
      "inputs": [
        {
          "internalType": "address",
          "name": "newKeeper",
          "type": "address"
        }
      ],
      "name": "setKeeper",
      "outputs": [],
      "stateMutability": "nonpayable",
      "type": "function"
    },
    {
      "inputs": [
        {
          "internalType": "uint32",
          "name": "period",
          "type": "uint32"
        }
      ],
      "name": "setLockPeriod",
      "outputs": [],
      "stateMutability": "nonpayable",
      "type": "function"
    },
    {
      "inputs": [
        {
          "internalType": "uint256",
          "name": "amount",
          "type": "uint256"
        }
      ],
      "name": "setRewardPerBlock",
      "outputs": [],
      "stateMutability": "nonpayable",
      "type": "function"
    },
    {
      "inputs": [
        {
          "internalType": "uint32",
          "name": "limit",
          "type": "uint32"
        }
      ],
      "name": "setValidatorLimit",
      "outputs": [],
      "stateMutability": "nonpayable",
      "type": "function"
    },
    {
      "inputs": [
        {
          "internalType": "address",
          "name": "validator",
          "type": "address"
        }
      ],
      "name": "stake",
      "outputs": [],
      "stateMutability": "payable",
      "type": "function"
    },
    {
      "inputs": [
        {
          "internalType": "address",
          "name": "",
          "type": "address"
        },
        {
          "internalType": "address",
          "name": "",
          "type": "address"
        }
      ],
      "name": "stakeTable",
      "outputs": [
        {
          "internalType": "uint256",
          "name": "stakeAmount",
          "type": "uint256"
        },
        {
          "internalType": "uint256",
          "name": "rewardDebt",
          "type": "uint256"
        },
        {
          "internalType": "uint256",
          "name": "pendingReward",
          "type": "uint256"
        },
        {
          "internalType": "uint256",
          "name": "updateBlock",
          "type": "uint256"
        }
      ],
      "stateMutability": "view",
      "type": "function"
    },
    {
      "inputs": [],
      "name": "stakerPool",
      "outputs": [
        {
          "internalType": "uint256",
          "name": "lastAUR",
          "type": "uint256"
        },
        {
          "internalType": "uint256",
          "name": "updateBlock",
          "type": "uint256"
        }
      ],
      "stateMutability": "view",
      "type": "function"
    },
    {
      "inputs": [],
      "name": "stakerRewardPerBlock",
      "outputs": [
        {
          "internalType": "uint256",
          "name": "",
          "type": "uint256"
        }
      ],
      "stateMutability": "view",
      "type": "function"
    },
    {
      "inputs": [],
      "name": "totalStakeAmount",
      "outputs": [
        {
          "internalType": "uint256",
          "name": "",
          "type": "uint256"
        }
      ],
      "stateMutability": "view",
      "type": "function"
    },
    {
      "inputs": [
        {
          "internalType": "address",
          "name": "newOwner",
          "type": "address"
        }
      ],
      "name": "transferOwnership",
      "outputs": [],
      "stateMutability": "nonpayable",
      "type": "function"
    },
    {
      "inputs": [],
      "name": "unpause",
      "outputs": [],
      "stateMutability": "nonpayable",
      "type": "function"
    },
    {
      "inputs": [
        {
          "internalType": "address",
          "name": "validator",
          "type": "address"
        },
        {
          "internalType": "uint256",
          "name": "amount",
          "type": "uint256"
        }
      ],
      "name": "unstake",
      "outputs": [],
      "stateMutability": "nonpayable",
      "type": "function"
    },
    {
      "inputs": [
        {
          "internalType": "address",
          "name": "newImplementation",
          "type": "address"
        }
      ],
      "name": "upgradeTo",
      "outputs": [],
      "stateMutability": "nonpayable",
      "type": "function"
    },
    {
      "inputs": [
        {
          "internalType": "address",
          "name": "newImplementation",
          "type": "address"
        },
        {
          "internalType": "bytes",
          "name": "data",
          "type": "bytes"
        }
      ],
      "name": "upgradeToAndCall",
      "outputs": [],
      "stateMutability": "payable",
      "type": "function"
    },
    {
      "inputs": [],
      "name": "validatorLimit",
      "outputs": [
        {
          "internalType": "uint32",
          "name": "",
          "type": "uint32"
        }
      ],
      "stateMutability": "view",
      "type": "function"
    },
    {
      "inputs": [],
      "name": "validatorPool",
      "outputs": [
        {
          "internalType": "uint256",
          "name": "lastAUR",
          "type": "uint256"
        },
        {
          "internalType": "uint256",
          "name": "updateBlock",
          "type": "uint256"
        }
      ],
      "stateMutability": "view",
      "type": "function"
    },
    {
      "inputs": [],
      "name": "validatorRewardPerBlock",
      "outputs": [
        {
          "internalType": "uint256",
          "name": "",
          "type": "uint256"
        }
      ],
      "stateMutability": "view",
      "type": "function"
    },
    {
      "inputs": [
        {
          "internalType": "uint256",
          "name": "amount",
          "type": "uint256"
        }
      ],
      "name": "validatorWithdraw",
      "outputs": [],
      "stateMutability": "nonpayable",
      "type": "function"
    },
    {
      "inputs": [
        {
          "internalType": "address",
          "name": "",
          "type": "address"
        },
        {
          "internalType": "uint256",
          "name": "",
          "type": "uint256"
        }
      ],
      "name": "withdrawTable",
      "outputs": [
        {
          "internalType": "uint256",
          "name": "amount",
          "type": "uint256"
        },
        {
          "internalType": "bool",
          "name": "completed",
          "type": "bool"
        },
        {
          "internalType": "uint64",
          "name": "timestamp",
          "type": "uint64"
        }
      ],
      "stateMutability": "view",
      "type": "function"
    },
    {
      "stateMutability": "payable",
      "type": "receive"
    }
  ],
  "bytecode": "0x60e06040523060601b6080523480156200001857600080fd5b506040516200334e3803806200334e8339810160408190526200003b916200016d565b62000045620000ae565b633b9aca008210156200009f5760405162461bcd60e51b815260206004820152601d60248201527f496e76616c6964206d696e696d616c207374616b6520616d6f756e742e00000060448201526064015b60405180910390fd5b60a09190915260c05262000191565b600054610100900460ff1615620001185760405162461bcd60e51b815260206004820152602760248201527f496e697469616c697a61626c653a20636f6e747261637420697320696e697469604482015266616c697a696e6760c81b606482015260840162000096565b60005460ff90811610156200016b576000805460ff191660ff9081179091556040519081527f7f26b83ff96e1f2b6a682f133852f6798a09c465da95921460cefb38474024989060200160405180910390a15b565b6000806040838503121562000180578182fd5b505080516020909101519092909150565b60805160601c60a05160c051613160620001ee6000396000818161066901526125960152600081816103260152610866015260008181610b1b01528181610b5b015281816110d901528181611119015261122801526131606000f3fe60806040526004361061023f5760003560e01c8063715018a61161012e578063bb872b4a116100ab578063eaf7c9dc1161006f578063eaf7c9dc14610721578063f0544ac814610741578063f2fde38b1461075e578063f489f23b1461077e578063f6a2314a1461079e57600080fd5b8063bb872b4a1461068b578063c2a672e0146106ab578063d2d49c4b146106cb578063d4c6d1de146106ed578063d849a5021461070a57600080fd5b80638da5cb5b116100f25780638da5cb5b146105cd57806394409a56146105ff5780639ced7e7614610616578063aced166114610636578063b68578441461065757600080fd5b8063715018a61461054c578063748747e6146105615780637b66394c146105815780637ea5db42146105a15780638456cb59146105b857600080fd5b806340550a1c116101bc5780634f1ef286116101805780634f1ef286146104ce578063522abc40146104e157806352d1902d1461050157806357525cbc146105165780635c975abb1461053457600080fd5b806340550a1c1461042257806340a141ff1461045257806345f7b8f414610472578063485cc9551461048e5780634d238c8e146104ae57600080fd5b8063340c5a2511610203578063340c5a25146103485780633659cfe6146103925780633ec18284146103b25780633f4ba83a146103d25780633fd8b02f146103e757600080fd5b80630d8e6e2c146102805780630efa2fed146102a357806324e770d0146102e857806326476204146102ff57806327ed71881461031457600080fd5b3661027b5760405134815233907f88a5966d370b9919b20f3e2c13ff65706f196a4e32cc2c12bf57088f885258749060200160405180910390a2005b600080fd5b34801561028c57600080fd5b5060025b6040519081526020015b60405180910390f35b3480156102af57600080fd5b506102c36102be366004612d8f565b61080c565b60408051938452911515602084015267ffffffffffffffff169082015260600161029a565b3480156102f457600080fd5b506102906101395481565b61031261030d366004612c51565b61085c565b005b34801561032057600080fd5b506102907f000000000000000000000000000000000000000000000000000000000000000081565b34801561035457600080fd5b5061037d610363366004612c51565b610134602052600090815260409020805460019091015482565b6040805192835260208301919091520161029a565b34801561039e57600080fd5b506103126103ad366004612c51565b610b10565b3480156103be57600080fd5b506102906103cd366004612d8f565b610bf0565b3480156103de57600080fd5b50610312610d32565b3480156103f357600080fd5b506101375461040d90640100000000900463ffffffff1681565b60405163ffffffff909116815260200161029a565b34801561042e57600080fd5b5061044261043d366004612c51565b610d44565b604051901515815260200161029a565b34801561045e57600080fd5b5061031261046d366004612c51565b610d52565b34801561047e57600080fd5b50610290670de0b6b3a764000081565b34801561049a57600080fd5b506103126104a9366004612c98565b610f47565b3480156104ba57600080fd5b506103126104c9366004612c51565b6110bd565b6103126104dc366004612cd0565b6110ce565b3480156104ed57600080fd5b506103126104fc366004612dd1565b61119f565b34801561050d57600080fd5b5061029061121b565b34801561052257600080fd5b506101375461040d9063ffffffff1681565b34801561054057600080fd5b5060655460ff16610442565b34801561055857600080fd5b506103126112ce565b34801561056d57600080fd5b5061031261057c366004612c51565b6112e0565b34801561058d57600080fd5b5061031261059c366004612c6d565b611361565b3480156105ad57600080fd5b506102906101385481565b3480156105c457600080fd5b5061031261136c565b3480156105d957600080fd5b506097546001600160a01b03165b6040516001600160a01b03909116815260200161029a565b34801561060b57600080fd5b5061029061013a5481565b34801561062257600080fd5b50610290610631366004612c98565b61137c565b34801561064257600080fd5b5061012d546105e7906001600160a01b031681565b34801561066357600080fd5b506102907f000000000000000000000000000000000000000000000000000000000000000081565b34801561069757600080fd5b506103126106a6366004612db9565b6114c2565b3480156106b757600080fd5b506103126106c6366004612d8f565b61152d565b3480156106d757600080fd5b506106e0611874565b60405161029a9190612e11565b3480156106f957600080fd5b50610130546101315461037d919082565b34801561071657600080fd5b5061029061013b5481565b34801561072d57600080fd5b5061031261073c366004612db9565b611886565b34801561074d57600080fd5b50610132546101335461037d919082565b34801561076a57600080fd5b50610312610779366004612c51565b611a46565b34801561078a57600080fd5b50610312610799366004612dd1565b611abc565b3480156107aa57600080fd5b506107ec6107b9366004612c98565b61013560209081526000928352604080842090915290825290208054600182015460028301546003909301549192909184565b60408051948552602085019390935291830152606082015260800161029a565b610136602052816000526040600020818154811061082957600080fd5b60009182526020909120600290910201805460019091015490925060ff81169150610100900467ffffffffffffffff1683565b610864611b1d565b7f00000000000000000000000000000000000000000000000000000000000000003410156108e85760405162461bcd60e51b815260206004820152602660248201527f5374616b6520616d6f756e74206d757374203e3d204d494e5f5354414b455f4160448201526526a7aaa72a1760d11b60648201526084015b60405180910390fd5b6108f181610d44565b61090d5760405162461bcd60e51b81526004016108df90612f74565b600080610918611b63565b6001600160a01b03851660008181526000805160206130c4833981519152602090815260408083208151608080820184528254825260018084015483870152600280850154848701526003948501546060808601919091529888526101358752858820338952875296859020855192830186528054835290810154958201959095529484015492850192909252919091015492820192909252929450909250906109c28483611c07565b6109cc8382611c07565b34826000018181516109de9190612fbc565b9052508051349082906109f2908390612fbc565b9052506109ff8483611c5c565b610a098382611c5c565b4360608084018281529083019182526001600160a01b03871660009081526000805160206130c48339815191526020908152604080832087518155828801516001808301919091558289015160028084019190915595516003928301556101358452828520338652845282852088518155938801519084015590860151938201939093559251929091019190915561013b8054349290610aaa908490612fbc565b925050819055503461013a6000828254610ac49190612fbc565b90915550506040513481526001600160a01b0386169033907f99039fcf0a98f484616c5196ee8b2ecfa971babf0b519848289ea4db381f85f79060200160405180910390a35050505050565b306001600160a01b037f0000000000000000000000000000000000000000000000000000000000000000161415610b595760405162461bcd60e51b81526004016108df90612e91565b7f00000000000000000000000000000000000000000000000000000000000000006001600160a01b0316610ba26000805160206130e4833981519152546001600160a01b031690565b6001600160a01b031614610bc85760405162461bcd60e51b81526004016108df90612edd565b610bd181611c86565b60408051600080825260208201909252610bed91839190611ceb565b50565b6001600160a01b03821660009081526101366020908152604080832080548251818502810185019093528083528493849084015b82821015610c7f57600084815260209081902060408051606081018252600286029092018054835260019081015460ff8116151584860152610100900467ffffffffffffffff16918301919091529083529092019101610c24565b505050509050600080825190505b80821015610d275760006002610ca38385612fbc565b610cad9190613000565b610137548551919250640100000000900463ffffffff1690859083908110610ce557634e487b7160e01b600052603260045260246000fd5b602002602001015160400151610cfb9190612fd4565b67ffffffffffffffff168610610d1d57610d16816001612fbc565b9250610d21565b8091505b50610c8d565b925050505b92915050565b610d3a611e65565b610d42611ebf565b565b6000610d2c61012e83611f11565b610d5a611e65565b6001610d6761012e611f36565b11610dbe5760405162461bcd60e51b815260206004820152602160248201527f43616e6e6f742072656d6f766520746865206f6e6c792076616c696461746f726044820152601760f91b60648201526084016108df565b610dc781610d44565b610de35760405162461bcd60e51b81526004016108df90612f74565b600080610dee611b63565b6001600160a01b03851660009081526000805160206130c4833981519152602090815260409182902082516080810184528154815260018201549281019290925260028101549282019290925260039091015460608201529193509150610e558382611c07565b610e5f8382611c5c565b43606082019081526001600160a01b03851660009081526000805160206130c48339815191526020908152604091829020845181559084015160018201559083015160028201559051600390910155610eba61012e85611f40565b506001600160a01b03841660009081526101346020908152604082208451815590840151600190910155815161013b805491929091610efa90849061303f565b9091555050604080516001600160a01b0386168152600060208201527fd2b4a3ae4917617aaa5e6caa5541a3331944d66baa187ef6c350f1ce4012d819910160405180910390a150505050565b600054610100900460ff1615808015610f675750600054600160ff909116105b80610f815750303b158015610f81575060005460ff166001145b610fe45760405162461bcd60e51b815260206004820152602e60248201527f496e697469616c697a61626c653a20636f6e747261637420697320616c72656160448201526d191e481a5b9a5d1a585b1a5e995960921b60648201526084016108df565b6000805460ff191660011790558015611007576000805461ff0019166101001790555b61100f611f55565b611017611f84565b61102083611fb3565b611028612005565b61012d80546001600160a01b03191633179055610137805463ffffffff1916601517905561105d674563918244f4000061202c565b61106962093a80612092565b611072826120e9565b80156110b8576000805461ff0019169055604051600181527f7f26b83ff96e1f2b6a682f133852f6798a09c465da95921460cefb38474024989060200160405180910390a15b505050565b6110c5611e65565b610bed816120e9565b306001600160a01b037f00000000000000000000000000000000000000000000000000000000000000001614156111175760405162461bcd60e51b81526004016108df90612e91565b7f00000000000000000000000000000000000000000000000000000000000000006001600160a01b03166111606000805160206130e4833981519152546001600160a01b031690565b6001600160a01b0316146111865760405162461bcd60e51b81526004016108df90612edd565b61118f82611c86565b61119b82826001611ceb565b5050565b6111a7611e65565b6111b261012e611f36565b8163ffffffff1610156111fe5760405162461bcd60e51b815260206004820152601460248201527324b73b30b634b2103634b6b4ba103b30b63ab29760611b60448201526064016108df565b610137805463ffffffff191663ffffffff92909216919091179055565b6000306001600160a01b037f000000000000000000000000000000000000000000000000000000000000000016146112bb5760405162461bcd60e51b815260206004820152603860248201527f555550535570677261646561626c653a206d757374206e6f742062652063616c60448201527f6c6564207468726f7567682064656c656761746563616c6c000000000000000060648201526084016108df565b506000805160206130e483398151915290565b6112d6611e65565b610d426000611fb3565b6112e8611e65565b6001600160a01b03811661133e5760405162461bcd60e51b815260206004820152601760248201527f496e76616c6964206b656570657220616464726573732e00000000000000000060448201526064016108df565b61012d80546001600160a01b0319166001600160a01b0392909216919091179055565b61119b338383612253565b611374611e65565b610d426123ed565b6001600160a01b0382811660008181526101356020908152604080832094861683529381528382208451608081018652815481526001820154818401526002820154818701526003909101546060820152845180860190955282855290840182905290929091611438576113ef84610d44565b1561142c5750604080518082019091526101305481526101315460208201526101385461013b5461142191839161242a565b5061142c8183611c07565b50604001519050610d2c565b61144185610d44565b156114795750604080518082019091526101325481526101335460208201526101395461013b5461147391839161242a565b506114ac565b506001600160a01b0384166000908152610134602090815260409182902082518084019093528054835260010154908201525b6114b68183611c07565b50604001519392505050565b6114ca611e65565b6000811161151a5760405162461bcd60e51b815260206004820152601960248201527f496e76616c6964207265776172642070657220626c6f636b2e0000000000000060448201526064016108df565b611522611b63565b5050610bed8161202c565b600260015414156115805760405162461bcd60e51b815260206004820152601f60248201527f5265656e7472616e637947756172643a207265656e7472616e742063616c6c0060448201526064016108df565b600260015561158d611b1d565b600080611598611b63565b6001600160a01b03861660008181526000805160206130c4833981519152602090815260408083208151608080820184528254825260018084015483870152600280850154848701526003948501546060808601919091528989526101358852868920338a5288529786902086519384018752805484529182015496830196909652948501549381019390935292015492810192909252939550919350158015906116465750606081015115155b6116925760405162461bcd60e51b815260206004820152601760248201527f5374616b65207265636f7264206e6f7420666f756e642e00000000000000000060448201526064016108df565b60008061169e88610d44565b156116f9576116ad8685611c07565b6116b78584611c07565b6116c28484896124ad565b90925090506116d18685611c5c565b6116db8584611c5c565b8161013b60008282546116ee919061303f565b909155506117509050565b6001600160a01b03881660009081526101346020908152604091829020825180840190935280548352600101549082015294506117368584611c07565b6117418484896124ad565b90925090506117508584611c5c565b4360608086018281529085019182526001600160a01b038a1660009081526000805160206130c48339815191526020908152604080832089518155828a0151600180830191909155828b01516002808401919091559551600392830155610135845282852033865284528285208a518155938a01519084015590880151938201939093559251929091019190915561013a80548492906117f190849061303f565b909155505033600081815261013660209081526040918290205482518681529182018590528183015290516001600160a01b038b1692917ffe7007b2e89d80edda76299251df08366480cac22e5e260f5e662e850b1f7a32919081900360600190a3611866336118618385612fbc565b612594565b505060018055505050505050565b606061188161012e6126f6565b905090565b600260015414156118d95760405162461bcd60e51b815260206004820152601f60248201527f5265656e7472616e637947756172643a207265656e7472616e742063616c6c0060448201526064016108df565b60026001556118e6611b1d565b60006118f0611b63565b503360008181526000805160206130c48339815191526020908152604091829020825160808101845281548152600182015492810192909252600281015492820192909252600390910154606082015291925061194c90610d44565b156119655761195b8282611c07565b6119658282611c5c565b600083118015611979575080604001518311155b6119d55760405162461bcd60e51b815260206004820152602760248201527f496e76616c696420616d6f756e74206f7220696e73756666696369656e74206260448201526630b630b731b29760c91b60648201526084016108df565b82816040018181516119e7919061303f565b90525043606082019081523360008181526000805160206130c48339815191526020908152604091829020855181559085015160018201559084015160028201559151600390920191909155611a3d9084612594565b50506001805550565b611a4e611e65565b6001600160a01b038116611ab35760405162461bcd60e51b815260206004820152602660248201527f4f776e61626c653a206e6577206f776e657220697320746865207a65726f206160448201526564647265737360d01b60648201526084016108df565b610bed81611fb3565b611ac4611e65565b620151808163ffffffff161015611b145760405162461bcd60e51b815260206004820152601460248201527324b73b30b634b2103637b1b5903832b934b7b21760611b60448201526064016108df565b610bed81612092565b60655460ff1615610d425760405162461bcd60e51b815260206004820152601060248201526f14185d5cd8589b194e881c185d5cd95960821b60448201526064016108df565b60408051808201909152600080825260208201526040805180820190915260008082526020820152604080518082019091526101305481526101315460208201526101385461013b54611bb792919061242a565b604080518082019091526101325481526101335460208201526101395461013b54929450611be49261242a565b825161013055602080840151610131558151610132558101516101335591929050565b6060810151611c14575050565b602081015182518251670de0b6b3a764000091611c3091613020565b611c3a9190613000565b611c44919061303f565b81604001818151611c559190612fbc565b9052505050565b81518151670de0b6b3a764000091611c7391613020565b611c7d9190613000565b60209091015250565b61012d546001600160a01b03163314610bed5760405162461bcd60e51b815260206004820152602160248201527f4f6e6c79206b65657065722063616e207570677261646520636f6e74726163746044820152601760f91b60648201526084016108df565b7f4910fdfa16fed3260ed0e7147f7cc6da11a60208b5b9406d12a635614ffd91435460ff1615611d1e576110b883612703565b826001600160a01b03166352d1902d6040518163ffffffff1660e01b815260040160206040518083038186803b158015611d5757600080fd5b505afa925050508015611d87575060408051601f3d908101601f19168201909252611d8491810190612da1565b60015b611dea5760405162461bcd60e51b815260206004820152602e60248201527f45524331393637557067726164653a206e657720696d706c656d656e7461746960448201526d6f6e206973206e6f74205555505360901b60648201526084016108df565b6000805160206130e48339815191528114611e595760405162461bcd60e51b815260206004820152602960248201527f45524331393637557067726164653a20756e737570706f727465642070726f786044820152681a58589b195555525160ba1b60648201526084016108df565b506110b883838361279f565b6097546001600160a01b03163314610d425760405162461bcd60e51b815260206004820181905260248201527f4f776e61626c653a2063616c6c6572206973206e6f7420746865206f776e657260448201526064016108df565b611ec76127c4565b6065805460ff191690557f5db9ee0a495bf2e6ff9c91a7834c1ba4fdd244a5e8aa4e537bd38aeae4b073aa335b6040516001600160a01b03909116815260200160405180910390a1565b6001600160a01b038116600090815260018301602052604081205415155b9392505050565b6000610d2c825490565b6000611f2f836001600160a01b03841661280d565b600054610100900460ff16611f7c5760405162461bcd60e51b81526004016108df90612f29565b610d4261292a565b600054610100900460ff16611fab5760405162461bcd60e51b81526004016108df90612f29565b610d42612957565b609780546001600160a01b038381166001600160a01b0319831681179093556040519116919082907f8be0079c531659141344cd1fd0a4f28419497f9722a3daafe3b4186f6b6457e090600090a35050565b600054610100900460ff16610d425760405162461bcd60e51b81526004016108df90612f29565b612037600582613000565b610138819055612047908261303f565b610139819055610138546040517f79a5349732f93288abbb68e251c3dfc325bf3ee6fde7786d919155d39733e0f592612087928252602082015260400190565b60405180910390a150565b610137805467ffffffff00000000191664010000000063ffffffff8416908102919091179091556040519081527f401dae40edac291ec00ad4f9e16968c6c86b73fcd6faad7e35a55a27fa64d04890602001612087565b6001600160a01b0381166121325760405162461bcd60e51b815260206004820152601060248201526f24b73b30b634b21030b2323932b9b99760811b60448201526064016108df565b6101375463ffffffff1661214761012e611f36565b1061218b5760405162461bcd60e51b81526020600482015260146024820152732b30b634b230ba37b9399030b93290333ab6361760611b60448201526064016108df565b61219481610d44565b1580156121bb57506001600160a01b03811660009081526101346020526040902060010154155b6122075760405162461bcd60e51b815260206004820152601960248201527f56616c696461746f7220686164206265656e2061646465642e0000000000000060448201526064016108df565b61221361012e8261298a565b50604080516001600160a01b0383168152600160208201527fd2b4a3ae4917617aaa5e6caa5541a3331944d66baa187ef6c350f1ce4012d8199101612087565b6001600160a01b03831660009081526101366020526040812080548390811061228c57634e487b7160e01b600052603260045260246000fd5b60009182526020909120600290910201600181015490915060ff16156122f45760405162461bcd60e51b815260206004820152601860248201527f5769746864726177616c20697320636f6d706c657465642e000000000000000060448201526064016108df565b61013754600182015461232491640100000000900463ffffffff1690610100900467ffffffffffffffff16612fd4565b67ffffffffffffffff1642101561237d5760405162461bcd60e51b815260206004820152601d60248201527f5769746864726177616c20697320696e206c6f636b20706572696f642e00000060448201526064016108df565b6001818101805460ff1916909117905580546040805184815260208101929092526001600160a01b0385811692908716917fe01911a56be554fae2e8c04ebcc1c56c757ce4583c883b878180a6ce99fc8a09910160405180910390a36123e783826000015461299f565b50505050565b6123f5611b1d565b6065805460ff191660011790557f62e78cea01bee320cd4e420270b5ea74000d11b0c9f74754ebdbfc544b05a258611ef43390565b604080518082019091526000808252602082015281612450575043602084015282611f2f565b600083856020015143612463919061303f565b61246d9190613020565b905082612482670de0b6b3a764000083613020565b61248c9190613000565b8551869061249b908390612fbc565b90525050436020850152509192915050565b6000806000846040015185600001516124c69190612fbc565b9050808411156125105760405162461bcd60e51b815260206004820152601560248201527424b739bab33334b1b4b2b73a103130b630b731b29760591b60448201526064016108df565b60408501519150836125245780935061254e565b81841161254e57838560400181815161253d919061303f565b9052506000925083915061258c9050565b6000604086015261255f828561303f565b92508286600001818151612573919061303f565b90525084518390869061258790839061303f565b905250505b935093915050565b7f000000000000000000000000000000000000000000000000000000000000000081101561261b5760405162461bcd60e51b815260206004820152602e60248201527f5769746864726177616c20616d6f756e74206d757374203e3d204d494e5f574960448201526d2a24222920abafa0a6a7aaa72a1760911b60648201526084016108df565b6001600160a01b0382166000818152610136602090815260408083208054825160608101845287815280850186815267ffffffffffffffff4281168387019081526001808601875595895296909720915160028402909201918255519201805494519095166101000268ffffffffffffffff00199215159290921668ffffffffffffffffff19909416939093171790925590519091907f31f69201fab7912e3ec9850e3ab705964bf46d9d4276bdcbb6d05e965e5f5401906126e99084908690918252602082015260400190565b60405180910390a2505050565b60606000611f2f83612a42565b6001600160a01b0381163b6127705760405162461bcd60e51b815260206004820152602d60248201527f455243313936373a206e657720696d706c656d656e746174696f6e206973206e60448201526c1bdd08184818dbdb9d1c9858dd609a1b60648201526084016108df565b6000805160206130e483398151915280546001600160a01b0319166001600160a01b0392909216919091179055565b6127a883612a9e565b6000825111806127b55750805b156110b8576123e78383612ade565b60655460ff16610d425760405162461bcd60e51b815260206004820152601460248201527314185d5cd8589b194e881b9bdd081c185d5cd95960621b60448201526064016108df565b6000818152600183016020526040812054801561292057600061283160018361303f565b85549091506000906128459060019061303f565b90508181146128c657600086600001828154811061287357634e487b7160e01b600052603260045260246000fd5b90600052602060002001549050808760000184815481106128a457634e487b7160e01b600052603260045260246000fd5b6000918252602080832090910192909255918252600188019052604090208390555b85548690806128e557634e487b7160e01b600052603160045260246000fd5b600190038181906000526020600020016000905590558560010160008681526020019081526020016000206000905560019350505050610d2c565b6000915050610d2c565b600054610100900460ff166129515760405162461bcd60e51b81526004016108df90612f29565b60018055565b600054610100900460ff1661297e5760405162461bcd60e51b81526004016108df90612f29565b6065805460ff19169055565b6000611f2f836001600160a01b038416612bc9565b6000826001600160a01b03168260405160006040518083038185875af1925050503d80600081146129ec576040519150601f19603f3d011682016040523d82523d6000602084013e6129f1565b606091505b50509050806110b85760405162461bcd60e51b815260206004820152601c60248201527f4661696c656420746f2073656e64206e617469766520746f6b656e2e0000000060448201526064016108df565b606081600001805480602002602001604051908101604052809291908181526020018280548015612a9257602002820191906000526020600020905b815481526020019060010190808311612a7e575b50505050509050919050565b612aa781612703565b6040516001600160a01b038216907fbc7cd75a20ee27fd9adebab32041f755214dbc6bffa90cc0225b39da2e5c2d3b90600090a250565b60606001600160a01b0383163b612b465760405162461bcd60e51b815260206004820152602660248201527f416464726573733a2064656c65676174652063616c6c20746f206e6f6e2d636f6044820152651b9d1c9858dd60d21b60648201526084016108df565b600080846001600160a01b031684604051612b619190612df5565b600060405180830381855af49150503d8060008114612b9c576040519150601f19603f3d011682016040523d82523d6000602084013e612ba1565b606091505b5091509150610d27828260405180606001604052806027815260200161310460279139612c18565b6000818152600183016020526040812054612c1057508154600181810184556000848152602080822090930184905584548482528286019093526040902091909155610d2c565b506000610d2c565b60608315612c27575081611f2f565b825115612c375782518084602001fd5b8160405162461bcd60e51b81526004016108df9190612e5e565b600060208284031215612c62578081fd5b8135611f2f816130ae565b60008060408385031215612c7f578081fd5b8235612c8a816130ae565b946020939093013593505050565b60008060408385031215612caa578182fd5b8235612cb5816130ae565b91506020830135612cc5816130ae565b809150509250929050565b60008060408385031215612ce2578182fd5b8235612ced816130ae565b9150602083013567ffffffffffffffff80821115612d09578283fd5b818501915085601f830112612d1c578283fd5b813581811115612d2e57612d2e613098565b604051601f8201601f19908116603f01168101908382118183101715612d5657612d56613098565b81604052828152886020848701011115612d6e578586fd5b82602086016020830137856020848301015280955050505050509250929050565b60008060408385031215612c7f578182fd5b600060208284031215612db2578081fd5b5051919050565b600060208284031215612dca578081fd5b5035919050565b600060208284031215612de2578081fd5b813563ffffffff81168114611f2f578182fd5b60008251612e07818460208701613056565b9190910192915050565b6020808252825182820181905260009190848201906040850190845b81811015612e525783516001600160a01b031683529284019291840191600101612e2d565b50909695505050505050565b6020815260008251806020840152612e7d816040850160208701613056565b601f01601f19169190910160400192915050565b6020808252602c908201527f46756e6374696f6e206d7573742062652063616c6c6564207468726f7567682060408201526b19195b1959d85d1958d85b1b60a21b606082015260800190565b6020808252602c908201527f46756e6374696f6e206d7573742062652063616c6c6564207468726f7567682060408201526b6163746976652070726f787960a01b606082015260800190565b6020808252602b908201527f496e697469616c697a61626c653a20636f6e7472616374206973206e6f74206960408201526a6e697469616c697a696e6760a81b606082015260800190565b60208082526028908201527f56616c696461746f72206e6f74206578697374206f7220686173206265656e206040820152673932b6b7bb32b21760c11b606082015260800190565b60008219821115612fcf57612fcf613082565b500190565b600067ffffffffffffffff808316818516808303821115612ff757612ff7613082565b01949350505050565b60008261301b57634e487b7160e01b81526012600452602481fd5b500490565b600081600019048311821515161561303a5761303a613082565b500290565b60008282101561305157613051613082565b500390565b60005b83811015613071578181015183820152602001613059565b838111156123e75750506000910152565b634e487b7160e01b600052601160045260246000fd5b634e487b7160e01b600052604160045260246000fd5b6001600160a01b0381168114610bed57600080fdfe5b20f40cb5e9e634a90df9a72b516c11cc52281a4d1b7b67e672e2fe544ff22f360894a13ba1a3210667c828492db98dca3e2076cc3735a920a3ca505d382bbc416464726573733a206c6f772d6c6576656c2064656c65676174652063616c6c206661696c6564a2646970667358221220f724727114ffe08228053bd35513c200a9de603b4a27bcb96a9c33639b3adc8b64736f6c63430008040033",
  "linkReferences": {},
  "deployedLinkReferences": {}
}