{
  "_format": "hh-sol-artifact-1",
  "contractName": "CMTStaking",
  "sourceName": "contracts/CMTStaking.sol",
  "abi": [
    {
      "inputs": [
        {
          "internalType": "uint256",
          "name": "minStakeAmount",
          "type": "uint256"
        },
        {
          "internalType": "uint256",
          "name": "minWithdrawAmount",
          "type": "uint256"
        }
      ],
      "stateMutability": "nonpayable",
      "type": "constructor"
    },
    {
      "inputs": [],
      "name": "Empty",
      "type": "error"
    },
    {
      "inputs": [],
      "name": "OutOfBounds",
      "type": "error"
    },
    {
      "anonymous": false,
      "inputs": [
        {
          "indexed": false,
          "internalType": "address",
          "name": "previousAdmin",
          "type": "address"
        },
        {
          "indexed": false,
          "internalType": "address",
          "name": "newAdmin",
          "type": "address"
        }
      ],
      "name": "AdminChanged",
      "type": "event"
    },
    {
      "anonymous": false,
      "inputs": [
        {
          "indexed": true,
          "internalType": "address",
          "name": "beacon",
          "type": "address"
        }
      ],
      "name": "BeaconUpgraded",
      "type": "event"
    },
    {
      "anonymous": false,
      "inputs": [
        {
          "indexed": false,
          "internalType": "uint8",
          "name": "version",
          "type": "uint8"
        }
      ],
      "name": "Initialized",
      "type": "event"
    },
    {
      "anonymous": false,
      "inputs": [
        {
          "indexed": false,
          "internalType": "uint32",
          "name": "newLockPeriod",
          "type": "uint32"
        }
      ],
      "name": "LockPeriodChanged",
      "type": "event"
    },
    {
      "anonymous": false,
      "inputs": [
        {
          "indexed": true,
          "internalType": "address",
          "name": "previousOwner",
          "type": "address"
        },
        {
          "indexed": true,
          "internalType": "address",
          "name": "newOwner",
          "type": "address"
        }
      ],
      "name": "OwnershipTransferred",
      "type": "event"
    },
    {
      "anonymous": false,
      "inputs": [
        {
          "indexed": false,
          "internalType": "address",
          "name": "account",
          "type": "address"
        }
      ],
      "name": "Paused",
      "type": "event"
    },
    {
      "anonymous": false,
      "inputs": [
        {
          "indexed": true,
          "internalType": "address",
          "name": "sender",
          "type": "address"
        },
        {
          "indexed": false,
          "internalType": "uint256",
          "name": "amount",
          "type": "uint256"
        }
      ],
      "name": "Received",
      "type": "event"
    },
    {
      "anonymous": false,
      "inputs": [
        {
          "indexed": false,
          "internalType": "uint256",
          "name": "validatorReward",
          "type": "uint256"
        },
        {
          "indexed": false,
          "internalType": "uint256",
          "name": "stakerReward",
          "type": "uint256"
        }
      ],
      "name": "RewardPerBlockChanged",
      "type": "event"
    },
    {
      "anonymous": false,
      "inputs": [
        {
          "indexed": true,
          "internalType": "address",
          "name": "staker",
          "type": "address"
        },
        {
          "indexed": true,
          "internalType": "address",
          "name": "validator",
          "type": "address"
        },
        {
          "indexed": false,
          "internalType": "uint256",
          "name": "amount",
          "type": "uint256"
        }
      ],
      "name": "Stake",
      "type": "event"
    },
    {
      "anonymous": false,
      "inputs": [
        {
          "indexed": false,
          "internalType": "address",
          "name": "account",
          "type": "address"
        }
      ],
      "name": "Unpaused",
      "type": "event"
    },
    {
      "anonymous": false,
      "inputs": [
        {
          "indexed": true,
          "internalType": "address",
          "name": "staker",
          "type": "address"
        },
        {
          "indexed": true,
          "internalType": "address",
          "name": "validator",
          "type": "address"
        },
        {
          "indexed": false,
          "internalType": "uint256",
          "name": "unstakeAmount",
          "type": "uint256"
        },
        {
          "indexed": false,
          "internalType": "uint256",
          "name": "claimedReward",
          "type": "uint256"
        }
      ],
      "name": "Unstake",
      "type": "event"
    },
    {
      "anonymous": false,
      "inputs": [
        {
          "indexed": true,
          "internalType": "address",
          "name": "implementation",
          "type": "address"
        }
      ],
      "name": "Upgraded",
      "type": "event"
    },
    {
      "anonymous": false,
      "inputs": [
        {
          "indexed": false,
          "internalType": "address",
          "name": "validator",
          "type": "address"
        },
        {
          "indexed": false,
          "internalType": "bool",
          "name": "isValid",
          "type": "bool"
        }
      ],
      "name": "ValidatorChanged",
      "type": "event"
    },
    {
      "anonymous": false,
      "inputs": [
        {
          "indexed": true,
          "internalType": "address",
          "name": "account",
          "type": "address"
        },
        {
          "indexed": true,
          "internalType": "address",
          "name": "recipient",
          "type": "address"
        },
        {
          "indexed": false,
          "internalType": "uint256",
          "name": "amount",
          "type": "uint256"
        }
      ],
      "name": "WithdrawalCompleted",
      "type": "event"
    },
    {
      "anonymous": false,
      "inputs": [
        {
          "indexed": true,
          "internalType": "address",
          "name": "account",
          "type": "address"
        },
        {
          "indexed": false,
          "internalType": "uint256",
          "name": "amount",
          "type": "uint256"
        }
      ],
      "name": "WithdrawalInitiated",
      "type": "event"
    },
    {
      "inputs": [],
      "name": "AUR_PREC",
      "outputs": [
        {
          "internalType": "uint256",
          "name": "",
          "type": "uint256"
        }
      ],
      "stateMutability": "view",
      "type": "function"
    },
    {
      "inputs": [],
      "name": "MIN_STAKE_AMOUNT",
      "outputs": [
        {
          "internalType": "uint256",
          "name": "",
          "type": "uint256"
        }
      ],
      "stateMutability": "view",
      "type": "function"
    },
    {
      "inputs": [],
      "name": "MIN_WITHDRAW_AMOUNT",
      "outputs": [
        {
          "internalType": "uint256",
          "name": "",
          "type": "uint256"
        }
      ],
      "stateMutability": "view",
      "type": "function"
    },
    {
      "inputs": [],
      "name": "activeStakeAmount",
      "outputs": [
        {
          "internalType": "uint256",
          "name": "",
          "type": "uint256"
        }
      ],
      "stateMutability": "view",
      "type": "function"
    },
    {
      "inputs": [],
      "name": "activeValidators",
      "outputs": [
        {
          "internalType": "address[]",
          "name": "",
          "type": "address[]"
        }
      ],
      "stateMutability": "view",
      "type": "function"
    },
    {
      "inputs": [
        {
          "internalType": "address",
          "name": "validator",
          "type": "address"
        }
      ],
      "name": "addValidator",
      "outputs": [],
      "stateMutability": "nonpayable",
      "type": "function"
    },
    {
      "inputs": [
        {
          "internalType": "address payable",
          "name": "recipient",
          "type": "address"
        },
        {
          "internalType": "uint256",
          "name": "amount",
          "type": "uint256"
        }
      ],
      "name": "completeWithdraw",
      "outputs": [],
      "stateMutability": "nonpayable",
      "type": "function"
    },
    {
      "inputs": [
        {
          "internalType": "address",
          "name": "account",
          "type": "address"
        },
        {
          "internalType": "uint256",
          "name": "timestamp",
          "type": "uint256"
        }
      ],
      "name": "dueWithdrawalAmount",
      "outputs": [
        {
          "internalType": "uint256",
          "name": "",
          "type": "uint256"
        }
      ],
      "stateMutability": "view",
      "type": "function"
    },
    {
      "inputs": [
        {
          "internalType": "address",
          "name": "account",
          "type": "address"
        }
      ],
      "name": "dueWithdrawalAmount",
      "outputs": [
        {
          "internalType": "uint256",
          "name": "",
          "type": "uint256"
        }
      ],
      "stateMutability": "view",
      "type": "function"
    },
    {
      "inputs": [],
      "name": "getVersion",
      "outputs": [
        {
          "internalType": "uint256",
          "name": "",
          "type": "uint256"
        }
      ],
      "stateMutability": "pure",
      "type": "function"
    },
    {
      "inputs": [
        {
          "internalType": "address",
          "name": "",
          "type": "address"
        }
      ],
      "name": "inactivePools",
      "outputs": [
        {
          "internalType": "uint256",
          "name": "lastAUR",
          "type": "uint256"
        },
        {
          "internalType": "uint256",
          "name": "updateBlock",
          "type": "uint256"
        }
      ],
      "stateMutability": "view",
      "type": "function"
    },
    {
      "inputs": [
        {
          "internalType": "address",
          "name": "owner",
          "type": "address"
        },
        {
          "internalType": "address",
          "name": "validator",
          "type": "address"
        }
      ],
      "name": "initialize",
      "outputs": [],
      "stateMutability": "nonpayable",
      "type": "function"
    },
    {
      "inputs": [
        {
          "internalType": "address",
          "name": "validator",
          "type": "address"
        }
      ],
      "name": "isActiveValidator",
      "outputs": [
        {
          "internalType": "bool",
          "name": "",
          "type": "bool"
        }
      ],
      "stateMutability": "view",
      "type": "function"
    },
    {
      "inputs": [],
      "name": "keeper",
      "outputs": [
        {
          "internalType": "address",
          "name": "",
          "type": "address"
        }
      ],
      "stateMutability": "view",
      "type": "function"
    },
    {
      "inputs": [],
      "name": "lockPeriod",
      "outputs": [
        {
          "internalType": "uint32",
          "name": "",
          "type": "uint32"
        }
      ],
      "stateMutability": "view",
      "type": "function"
    },
    {
      "inputs": [],
      "name": "owner",
      "outputs": [
        {
          "internalType": "address",
          "name": "",
          "type": "address"
        }
      ],
      "stateMutability": "view",
      "type": "function"
    },
    {
      "inputs": [],
      "name": "pause",
      "outputs": [],
      "stateMutability": "nonpayable",
      "type": "function"
    },
    {
      "inputs": [],
      "name": "paused",
      "outputs": [
        {
          "internalType": "bool",
          "name": "",
          "type": "bool"
        }
      ],
      "stateMutability": "view",
      "type": "function"
    },
    {
      "inputs": [
        {
          "internalType": "address",
          "name": "validator",
          "type": "address"
        },
        {
          "internalType": "address",
          "name": "staker",
          "type": "address"
        }
      ],
      "name": "pendingReward",
      "outputs": [
        {
          "internalType": "uint256",
          "name": "",
          "type": "uint256"
        }
      ],
      "stateMutability": "view",
      "type": "function"
    },
    {
      "inputs": [
        {
          "internalType": "address",
          "name": "account",
          "type": "address"
        }
      ],
      "name": "pendingWithdrawals",
      "outputs": [
        {
          "components": [
            {
              "internalType": "uint256",
              "name": "amount",
              "type": "uint256"
            },
            {
              "internalType": "uint256",
              "name": "timestamp",
              "type": "uint256"
            }
          ],
          "internalType": "struct CMTStaking.Withdrawal[]",
          "name": "withdrawals",
          "type": "tuple[]"
        }
      ],
      "stateMutability": "view",
      "type": "function"
    },
    {
      "inputs": [],
      "name": "proxiableUUID",
      "outputs": [
        {
          "internalType": "bytes32",
          "name": "",
          "type": "bytes32"
        }
      ],
      "stateMutability": "view",
      "type": "function"
    },
    {
      "inputs": [
        {
          "internalType": "address",
          "name": "validator",
          "type": "address"
        }
      ],
      "name": "removeValidator",
      "outputs": [],
      "stateMutability": "nonpayable",
      "type": "function"
    },
    {
      "inputs": [],
      "name": "renounceOwnership",
      "outputs": [],
      "stateMutability": "nonpayable",
      "type": "function"
    },
    {
      "inputs": [
        {
          "internalType": "address",
          "name": "newKeeper",
          "type": "address"
        }
      ],
      "name": "setKeeper",
      "outputs": [],
      "stateMutability": "nonpayable",
      "type": "function"
    },
    {
      "inputs": [
        {
          "internalType": "uint32",
          "name": "period",
          "type": "uint32"
        }
      ],
      "name": "setLockPeriod",
      "outputs": [],
      "stateMutability": "nonpayable",
      "type": "function"
    },
    {
      "inputs": [
        {
          "internalType": "uint256",
          "name": "amount",
          "type": "uint256"
        }
      ],
      "name": "setRewardPerBlock",
      "outputs": [],
      "stateMutability": "nonpayable",
      "type": "function"
    },
    {
      "inputs": [
        {
          "internalType": "uint32",
          "name": "limit",
          "type": "uint32"
        }
      ],
      "name": "setValidatorLimit",
      "outputs": [],
      "stateMutability": "nonpayable",
      "type": "function"
    },
    {
      "inputs": [
        {
          "internalType": "address",
          "name": "validator",
          "type": "address"
        }
      ],
      "name": "stake",
      "outputs": [],
      "stateMutability": "payable",
      "type": "function"
    },
    {
      "inputs": [
        {
          "internalType": "address",
          "name": "",
          "type": "address"
        },
        {
          "internalType": "address",
          "name": "",
          "type": "address"
        }
      ],
      "name": "stakeTable",
      "outputs": [
        {
          "internalType": "uint256",
          "name": "stakeAmount",
          "type": "uint256"
        },
        {
          "internalType": "uint256",
          "name": "rewardDebt",
          "type": "uint256"
        },
        {
          "internalType": "uint256",
          "name": "pendingReward",
          "type": "uint256"
        },
        {
          "internalType": "uint256",
          "name": "updateBlock",
          "type": "uint256"
        }
      ],
      "stateMutability": "view",
      "type": "function"
    },
    {
      "inputs": [],
      "name": "stakerPool",
      "outputs": [
        {
          "internalType": "uint256",
          "name": "lastAUR",
          "type": "uint256"
        },
        {
          "internalType": "uint256",
          "name": "updateBlock",
          "type": "uint256"
        }
      ],
      "stateMutability": "view",
      "type": "function"
    },
    {
      "inputs": [],
      "name": "stakerRewardPerBlock",
      "outputs": [
        {
          "internalType": "uint256",
          "name": "",
          "type": "uint256"
        }
      ],
      "stateMutability": "view",
      "type": "function"
    },
    {
      "inputs": [],
      "name": "totalStakeAmount",
      "outputs": [
        {
          "internalType": "uint256",
          "name": "",
          "type": "uint256"
        }
      ],
      "stateMutability": "view",
      "type": "function"
    },
    {
      "inputs": [
        {
          "internalType": "address",
          "name": "newOwner",
          "type": "address"
        }
      ],
      "name": "transferOwnership",
      "outputs": [],
      "stateMutability": "nonpayable",
      "type": "function"
    },
    {
      "inputs": [],
      "name": "unpause",
      "outputs": [],
      "stateMutability": "nonpayable",
      "type": "function"
    },
    {
      "inputs": [
        {
          "internalType": "address",
          "name": "validator",
          "type": "address"
        },
        {
          "internalType": "uint256",
          "name": "amount",
          "type": "uint256"
        }
      ],
      "name": "unstake",
      "outputs": [],
      "stateMutability": "nonpayable",
      "type": "function"
    },
    {
      "inputs": [
        {
          "internalType": "address",
          "name": "newImplementation",
          "type": "address"
        }
      ],
      "name": "upgradeTo",
      "outputs": [],
      "stateMutability": "nonpayable",
      "type": "function"
    },
    {
      "inputs": [
        {
          "internalType": "address",
          "name": "newImplementation",
          "type": "address"
        },
        {
          "internalType": "bytes",
          "name": "data",
          "type": "bytes"
        }
      ],
      "name": "upgradeToAndCall",
      "outputs": [],
      "stateMutability": "payable",
      "type": "function"
    },
    {
      "inputs": [],
      "name": "validatorLimit",
      "outputs": [
        {
          "internalType": "uint32",
          "name": "",
          "type": "uint32"
        }
      ],
      "stateMutability": "view",
      "type": "function"
    },
    {
      "inputs": [],
      "name": "validatorPool",
      "outputs": [
        {
          "internalType": "uint256",
          "name": "lastAUR",
          "type": "uint256"
        },
        {
          "internalType": "uint256",
          "name": "updateBlock",
          "type": "uint256"
        }
      ],
      "stateMutability": "view",
      "type": "function"
    },
    {
      "inputs": [],
      "name": "validatorRewardPerBlock",
      "outputs": [
        {
          "internalType": "uint256",
          "name": "",
          "type": "uint256"
        }
      ],
      "stateMutability": "view",
      "type": "function"
    },
    {
      "inputs": [
        {
          "internalType": "uint256",
          "name": "amount",
          "type": "uint256"
        }
      ],
      "name": "validatorWithdraw",
      "outputs": [],
      "stateMutability": "nonpayable",
      "type": "function"
    },
    {
      "inputs": [
        {
          "internalType": "address",
          "name": "",
          "type": "address"
        }
      ],
      "name": "withdrawTable",
      "outputs": [
        {
          "internalType": "int128",
          "name": "_begin",
          "type": "int128"
        },
        {
          "internalType": "int128",
          "name": "_end",
          "type": "int128"
        }
      ],
      "stateMutability": "view",
      "type": "function"
    },
    {
      "stateMutability": "payable",
      "type": "receive"
    }
  ],
  "bytecode": "0x60e06040523060601b6080523480156200001857600080fd5b506040516200374a3803806200374a8339810160408190526200003b916200016d565b62000045620000ae565b633b9aca008210156200009f5760405162461bcd60e51b815260206004820152601d60248201527f496e76616c6964206d696e696d616c207374616b6520616d6f756e742e00000060448201526064015b60405180910390fd5b60a09190915260c05262000191565b600054610100900460ff1615620001185760405162461bcd60e51b815260206004820152602760248201527f496e697469616c697a61626c653a20636f6e747261637420697320696e697469604482015266616c697a696e6760c81b606482015260840162000096565b60005460ff90811610156200016b576000805460ff191660ff9081179091556040519081527f7f26b83ff96e1f2b6a682f133852f6798a09c465da95921460cefb38474024989060200160405180910390a15b565b6000806040838503121562000180578182fd5b505080516020909101519092909150565b60805160601c60a05160c05161355c620001ee6000396000818161069101526126e7015260008181610317015261094c015260008181610c0101528181610c410152818161107d015281816110bd01526111cc015261355c6000f3fe6080604052600436106102555760003560e01c8063748747e611610139578063c2a672e0116100b6578063eaf7c9dc1161007a578063eaf7c9dc14610769578063f0544ac814610789578063f2fde38b146107a6578063f3f43703146107c6578063f489f23b146107f3578063f6a2314a1461081357600080fd5b8063c2a672e0146106d3578063d2d49c4b146106f3578063d4c6d1de14610715578063d849a50214610732578063dab316891461074957600080fd5b806394409a56116100fd57806394409a56146106275780639ced7e761461063e578063aced16611461065e578063b68578441461067f578063bb872b4a146106b357600080fd5b8063748747e6146105895780637b66394c146105a95780637ea5db42146105c95780638456cb59146105e05780638da5cb5b146105f557600080fd5b806340550a1c116101d25780634f1ef286116101965780634f1ef286146104f6578063522abc401461050957806352d1902d1461052957806357525cbc1461053e5780635c975abb1461055c578063715018a61461057457600080fd5b806340550a1c1461044a57806340a141ff1461047a57806345f7b8f41461049a578063485cc955146104b65780634d238c8e146104d657600080fd5b806329451893116102195780632945189314610339578063340c5a25146103905780633659cfe6146103da5780633f4ba83a146103fa5780633fd8b02f1461040f57600080fd5b80630d8e6e2c1461029657806319d41774146102b957806324e770d0146102d957806326476204146102f057806327ed71881461030557600080fd5b366102915760405134815233907f88a5966d370b9919b20f3e2c13ff65706f196a4e32cc2c12bf57088f885258749060200160405180910390a2005b600080fd5b3480156102a257600080fd5b5060015b6040519081526020015b60405180910390f35b3480156102c557600080fd5b506102a66102d436600461310c565b610881565b3480156102e557600080fd5b506102a66101395481565b6103036102fe366004612fce565b610942565b005b34801561031157600080fd5b506102a67f000000000000000000000000000000000000000000000000000000000000000081565b34801561034557600080fd5b50610376610354366004612fce565b61013660205260009081526040902054600f81810b91600160801b9004900b82565b60408051600f93840b81529190920b6020820152016102b0565b34801561039c57600080fd5b506103c56103ab366004612fce565b610134602052600090815260409020805460019091015482565b604080519283526020830191909152016102b0565b3480156103e657600080fd5b506103036103f5366004612fce565b610bf6565b34801561040657600080fd5b50610303610cd6565b34801561041b57600080fd5b506101375461043590640100000000900463ffffffff1681565b60405163ffffffff90911681526020016102b0565b34801561045657600080fd5b5061046a610465366004612fce565b610ce8565b60405190151581526020016102b0565b34801561048657600080fd5b50610303610495366004612fce565b610cf6565b3480156104a657600080fd5b506102a6670de0b6b3a764000081565b3480156104c257600080fd5b506103036104d1366004613015565b610eeb565b3480156104e257600080fd5b506103036104f1366004612fce565b611061565b61030361050436600461304d565b611072565b34801561051557600080fd5b5061030361052436600461314e565b611143565b34801561053557600080fd5b506102a66111bf565b34801561054a57600080fd5b50610137546104359063ffffffff1681565b34801561056857600080fd5b5060655460ff1661046a565b34801561058057600080fd5b50610303611272565b34801561059557600080fd5b506103036105a4366004612fce565b611284565b3480156105b557600080fd5b506103036105c4366004612fea565b611305565b3480156105d557600080fd5b506102a66101385481565b3480156105ec57600080fd5b50610303611310565b34801561060157600080fd5b506097546001600160a01b03165b6040516001600160a01b0390911681526020016102b0565b34801561063357600080fd5b506102a661013a5481565b34801561064a57600080fd5b506102a6610659366004613015565b611320565b34801561066a57600080fd5b5061012d5461060f906001600160a01b031681565b34801561068b57600080fd5b506102a67f000000000000000000000000000000000000000000000000000000000000000081565b3480156106bf57600080fd5b506103036106ce366004613136565b611466565b3480156106df57600080fd5b506103036106ee36600461310c565b6114d1565b3480156106ff57600080fd5b50610708611801565b6040516102b0919061318e565b34801561072157600080fd5b5061013054610131546103c5919082565b34801561073e57600080fd5b506102a661013b5481565b34801561075557600080fd5b506102a6610764366004612fce565b611813565b34801561077557600080fd5b50610303610784366004613136565b61181f565b34801561079557600080fd5b5061013254610133546103c5919082565b3480156107b257600080fd5b506103036107c1366004612fce565b6119df565b3480156107d257600080fd5b506107e66107e1366004612fce565b611a55565b6040516102b091906131db565b3480156107ff57600080fd5b5061030361080e36600461314e565b611b78565b34801561081f57600080fd5b5061086161082e366004613015565b61013560209081526000928352604080842090915290825290208054600182015460028301546003909301549192909184565b6040805194855260208501939093529183015260608201526080016102b0565b6001600160a01b03821660009081526101366020526040812081806108b88354600f81810b810b600160801b909204810b900b0390565b905060005b81811015610935576000806108e66108d58785611bd9565b602081901c9163ffffffff90911690565b610137549193509150889061090990640100000000900463ffffffff16836133c9565b1115610916575050610935565b61092082866133c9565b945050508061092e90613463565b90506108bd565b5090925050505b92915050565b61094a611c54565b7f00000000000000000000000000000000000000000000000000000000000000003410156109ce5760405162461bcd60e51b815260206004820152602660248201527f5374616b6520616d6f756e74206d757374203e3d204d494e5f5354414b455f4160448201526526a7aaa72a1760d11b60648201526084015b60405180910390fd5b6109d781610ce8565b6109f35760405162461bcd60e51b81526004016109c590613340565b6000806109fe611c9a565b6001600160a01b03851660008181526000805160206134c083398151915260209081526040808320815160808082018452825482526001808401548387015260028085015484870152600394850154606080860191909152988852610135875285882033895287529685902085519283018652805483529081015495820195909552948401549285019290925291909101549282019290925292945090925090610aa88483611d3e565b610ab28382611d3e565b3482600001818151610ac491906133c9565b905250805134908290610ad89083906133c9565b905250610ae58483611d93565b610aef8382611d93565b4360608084018281529083019182526001600160a01b03871660009081526000805160206134c08339815191526020908152604080832087518155828801516001808301919091558289015160028084019190915595516003928301556101358452828520338652845282852088518155938801519084015590860151938201939093559251929091019190915561013b8054349290610b909084906133c9565b925050819055503461013a6000828254610baa91906133c9565b90915550506040513481526001600160a01b0386169033907f99039fcf0a98f484616c5196ee8b2ecfa971babf0b519848289ea4db381f85f79060200160405180910390a35050505050565b306001600160a01b037f0000000000000000000000000000000000000000000000000000000000000000161415610c3f5760405162461bcd60e51b81526004016109c59061325d565b7f00000000000000000000000000000000000000000000000000000000000000006001600160a01b0316610c886000805160206134e0833981519152546001600160a01b031690565b6001600160a01b031614610cae5760405162461bcd60e51b81526004016109c5906132a9565b610cb781611dbd565b60408051600080825260208201909252610cd391839190611e22565b50565b610cde611f9c565b610ce6611ff6565b565b600061093c61012e83612048565b610cfe611f9c565b6001610d0b61012e61206d565b11610d625760405162461bcd60e51b815260206004820152602160248201527f43616e6e6f742072656d6f766520746865206f6e6c792076616c696461746f726044820152601760f91b60648201526084016109c5565b610d6b81610ce8565b610d875760405162461bcd60e51b81526004016109c590613340565b600080610d92611c9a565b6001600160a01b03851660009081526000805160206134c0833981519152602090815260409182902082516080810184528154815260018201549281019290925260028101549282019290925260039091015460608201529193509150610df98382611d3e565b610e038382611d93565b43606082019081526001600160a01b03851660009081526000805160206134c08339815191526020908152604091829020845181559084015160018201559083015160028201559051600390910155610e5e61012e85612077565b506001600160a01b03841660009081526101346020908152604082208451815590840151600190910155815161013b805491929091610e9e908490613420565b9091555050604080516001600160a01b0386168152600060208201527fd2b4a3ae4917617aaa5e6caa5541a3331944d66baa187ef6c350f1ce4012d819910160405180910390a150505050565b600054610100900460ff1615808015610f0b5750600054600160ff909116105b80610f255750303b158015610f25575060005460ff166001145b610f885760405162461bcd60e51b815260206004820152602e60248201527f496e697469616c697a61626c653a20636f6e747261637420697320616c72656160448201526d191e481a5b9a5d1a585b1a5e995960921b60648201526084016109c5565b6000805460ff191660011790558015610fab576000805461ff0019166101001790555b610fb361208c565b610fbb6120bb565b610fc4836120ea565b610fcc61213c565b61012d80546001600160a01b03191633179055610137805463ffffffff19166015179055611001674563918244f40000612163565b61100d62093a806121c9565b61101682612220565b801561105c576000805461ff0019169055604051600181527f7f26b83ff96e1f2b6a682f133852f6798a09c465da95921460cefb38474024989060200160405180910390a15b505050565b611069611f9c565b610cd381612220565b306001600160a01b037f00000000000000000000000000000000000000000000000000000000000000001614156110bb5760405162461bcd60e51b81526004016109c59061325d565b7f00000000000000000000000000000000000000000000000000000000000000006001600160a01b03166111046000805160206134e0833981519152546001600160a01b031690565b6001600160a01b03161461112a5760405162461bcd60e51b81526004016109c5906132a9565b61113382611dbd565b61113f82826001611e22565b5050565b61114b611f9c565b61115661012e61206d565b8163ffffffff1610156111a25760405162461bcd60e51b815260206004820152601460248201527324b73b30b634b2103634b6b4ba103b30b63ab29760611b60448201526064016109c5565b610137805463ffffffff191663ffffffff92909216919091179055565b6000306001600160a01b037f0000000000000000000000000000000000000000000000000000000000000000161461125f5760405162461bcd60e51b815260206004820152603860248201527f555550535570677261646561626c653a206d757374206e6f742062652063616c60448201527f6c6564207468726f7567682064656c656761746563616c6c000000000000000060648201526084016109c5565b506000805160206134e083398151915290565b61127a611f9c565b610ce660006120ea565b61128c611f9c565b6001600160a01b0381166112e25760405162461bcd60e51b815260206004820152601760248201527f496e76616c6964206b656570657220616464726573732e00000000000000000060448201526064016109c5565b61012d80546001600160a01b0319166001600160a01b0392909216919091179055565b61113f33838361238a565b611318611f9c565b610ce661253e565b6001600160a01b03828116600081815261013560209081526040808320948616835293815283822084516080810186528154815260018201548184015260028201548187015260039091015460608201528451808601909552828552908401829052909290916113dc5761139384610ce8565b156113d05750604080518082019091526101305481526101315460208201526101385461013b546113c591839161257b565b506113d08183611d3e565b5060400151905061093c565b6113e585610ce8565b1561141d5750604080518082019091526101325481526101335460208201526101395461013b5461141791839161257b565b50611450565b506001600160a01b0384166000908152610134602090815260409182902082518084019093528054835260010154908201525b61145a8183611d3e565b50604001519392505050565b61146e611f9c565b600081116114be5760405162461bcd60e51b815260206004820152601960248201527f496e76616c6964207265776172642070657220626c6f636b2e0000000000000060448201526064016109c5565b6114c6611c9a565b5050610cd381612163565b600260015414156115245760405162461bcd60e51b815260206004820152601f60248201527f5265656e7472616e637947756172643a207265656e7472616e742063616c6c0060448201526064016109c5565b6002600155611531611c54565b60008061153c611c9a565b6001600160a01b03861660008181526000805160206134c0833981519152602090815260408083208151608080820184528254825260018084015483870152600280850154848701526003948501546060808601919091528989526101358852868920338a5288529786902086519384018752805484529182015496830196909652948501549381019390935292015492810192909252939550919350158015906115ea5750606081015115155b6116365760405162461bcd60e51b815260206004820152601760248201527f5374616b65207265636f7264206e6f7420666f756e642e00000000000000000060448201526064016109c5565b60008061164288610ce8565b1561169d576116518685611d3e565b61165b8584611d3e565b6116668484896125fe565b90925090506116758685611d93565b61167f8584611d93565b8161013b60008282546116929190613420565b909155506116f49050565b6001600160a01b03881660009081526101346020908152604091829020825180840190935280548352600101549082015294506116da8584611d3e565b6116e58484896125fe565b90925090506116f48584611d93565b4360608086018281529085019182526001600160a01b038a1660009081526000805160206134c08339815191526020908152604080832089518155828a0151600180830191909155828b01516002808401919091559551600392830155610135845282852033865284528285208a518155938a01519084015590880151938201939093559251929091019190915561013a8054849290611795908490613420565b909155505060408051838152602081018390526001600160a01b038a169133917f18edd09e80386cd99df397e2e0d87d2bb259423eae08645e776321a36fe680ef910160405180910390a36117f3336117ee83856133c9565b6126e5565b505060018055505050505050565b606061180e61012e61281d565b905090565b600061093c8242610881565b600260015414156118725760405162461bcd60e51b815260206004820152601f60248201527f5265656e7472616e637947756172643a207265656e7472616e742063616c6c0060448201526064016109c5565b600260015561187f611c54565b6000611889611c9a565b503360008181526000805160206134c0833981519152602090815260409182902082516080810184528154815260018201549281019290925260028101549282019290925260039091015460608201529192506118e590610ce8565b156118fe576118f48282611d3e565b6118fe8282611d93565b600083118015611912575080604001518311155b61196e5760405162461bcd60e51b815260206004820152602760248201527f496e76616c696420616d6f756e74206f7220696e73756666696369656e74206260448201526630b630b731b29760c91b60648201526084016109c5565b82816040018181516119809190613420565b90525043606082019081523360008181526000805160206134c083398151915260209081526040918290208551815590850151600182015590840151600282015591516003909201919091556119d690846126e5565b50506001805550565b6119e7611f9c565b6001600160a01b038116611a4c5760405162461bcd60e51b815260206004820152602660248201527f4f776e61626c653a206e6577206f776e657220697320746865207a65726f206160448201526564647265737360d01b60648201526084016109c5565b610cd3816120ea565b6001600160a01b038116600090815261013660205260408120606091611a8d8254600f81810b810b600160801b909204810b900b0390565b90508067ffffffffffffffff811115611ab657634e487b7160e01b600052604160045260246000fd5b604051908082528060200260200182016040528015611afb57816020015b6040805180820190915260008082526020820152815260200190600190039081611ad45790505b50925060005b81811015611b7057600080611b196108d58685611bd9565b91509150604051806040016040528083815260200182815250868481518110611b5257634e487b7160e01b600052603260045260246000fd5b6020026020010181905250505080611b6990613463565b9050611b01565b505050919050565b611b80611f9c565b620151808163ffffffff161015611bd05760405162461bcd60e51b815260206004820152601460248201527324b73b30b634b2103637b1b5903832b934b7b21760611b60448201526064016109c5565b610cd3816121c9565b600080611c00611be88461282a565b8554611bfb9190600f90810b900b613388565b612898565b8454909150600160801b9004600f90810b810b9082900b12611c3557604051632d0483c560e21b815260040160405180910390fd5b600f90810b900b60009081526001939093016020525050604090205490565b60655460ff1615610ce65760405162461bcd60e51b815260206004820152601060248201526f14185d5cd8589b194e881c185d5cd95960821b60448201526064016109c5565b60408051808201909152600080825260208201526040805180820190915260008082526020820152604080518082019091526101305481526101315460208201526101385461013b54611cee92919061257b565b604080518082019091526101325481526101335460208201526101395461013b54929450611d1b9261257b565b825161013055602080840151610131558151610132558101516101335591929050565b6060810151611d4b575050565b602081015182518251670de0b6b3a764000091611d6791613401565b611d7191906133e1565b611d7b9190613420565b81604001818151611d8c91906133c9565b9052505050565b81518151670de0b6b3a764000091611daa91613401565b611db491906133e1565b60209091015250565b61012d546001600160a01b03163314610cd35760405162461bcd60e51b815260206004820152602160248201527f4f6e6c79206b65657065722063616e207570677261646520636f6e74726163746044820152601760f91b60648201526084016109c5565b7f4910fdfa16fed3260ed0e7147f7cc6da11a60208b5b9406d12a635614ffd91435460ff1615611e555761105c83612927565b826001600160a01b03166352d1902d6040518163ffffffff1660e01b815260040160206040518083038186803b158015611e8e57600080fd5b505afa925050508015611ebe575060408051601f3d908101601f19168201909252611ebb9181019061311e565b60015b611f215760405162461bcd60e51b815260206004820152602e60248201527f45524331393637557067726164653a206e657720696d706c656d656e7461746960448201526d6f6e206973206e6f74205555505360901b60648201526084016109c5565b6000805160206134e08339815191528114611f905760405162461bcd60e51b815260206004820152602960248201527f45524331393637557067726164653a20756e737570706f727465642070726f786044820152681a58589b195555525160ba1b60648201526084016109c5565b5061105c8383836129c3565b6097546001600160a01b03163314610ce65760405162461bcd60e51b815260206004820181905260248201527f4f776e61626c653a2063616c6c6572206973206e6f7420746865206f776e657260448201526064016109c5565b611ffe6129ee565b6065805460ff191690557f5db9ee0a495bf2e6ff9c91a7834c1ba4fdd244a5e8aa4e537bd38aeae4b073aa335b6040516001600160a01b03909116815260200160405180910390a1565b6001600160a01b038116600090815260018301602052604081205415155b9392505050565b600061093c825490565b6000612066836001600160a01b038416612a37565b600054610100900460ff166120b35760405162461bcd60e51b81526004016109c5906132f5565b610ce6612b54565b600054610100900460ff166120e25760405162461bcd60e51b81526004016109c5906132f5565b610ce6612b81565b609780546001600160a01b038381166001600160a01b0319831681179093556040519116919082907f8be0079c531659141344cd1fd0a4f28419497f9722a3daafe3b4186f6b6457e090600090a35050565b600054610100900460ff16610ce65760405162461bcd60e51b81526004016109c5906132f5565b61216e6005826133e1565b61013881905561217e9082613420565b610139819055610138546040517f79a5349732f93288abbb68e251c3dfc325bf3ee6fde7786d919155d39733e0f5926121be928252602082015260400190565b60405180910390a150565b610137805467ffffffff00000000191664010000000063ffffffff8416908102919091179091556040519081527f401dae40edac291ec00ad4f9e16968c6c86b73fcd6faad7e35a55a27fa64d048906020016121be565b6001600160a01b0381166122695760405162461bcd60e51b815260206004820152601060248201526f24b73b30b634b21030b2323932b9b99760811b60448201526064016109c5565b6101375463ffffffff1661227e61012e61206d565b106122c25760405162461bcd60e51b81526020600482015260146024820152732b30b634b230ba37b9399030b93290333ab6361760611b60448201526064016109c5565b6122cb81610ce8565b1580156122f257506001600160a01b03811660009081526101346020526040902060010154155b61233e5760405162461bcd60e51b815260206004820152601960248201527f56616c696461746f7220686164206265656e2061646465642e0000000000000060448201526064016109c5565b61234a61012e82612bb4565b50604080516001600160a01b0383168152600160208201527fd2b4a3ae4917617aaa5e6caa5541a3331944d66baa187ef6c350f1ce4012d81991016121be565b6001600160a01b038316600090815261013660205260408120905b8154600f81810b810b600160801b909204810b900b1315612487576000806123cf6108d585612bc9565b61013754919350915042906123f290640100000000900463ffffffff16836133c9565b11156123ff575050612487565b61240982846133c9565b925061241484612c27565b50848311156124805761247661243361242d8786613420565b83612caa565b85908154600f90810b60001901810b9081900b600090815260018401602052604090209190915581546001600160801b0319166001600160801b03909116179055565b8492505050612487565b50506123a5565b8281146124e05760405162461bcd60e51b815260206004820152602160248201527f496e73756666696369656e7420776974686472617761626c6520616d6f756e746044820152601760f91b60648201526084016109c5565b836001600160a01b0316856001600160a01b03167fb00382203b46c3b6ad0a2d7af0268e334bd9406256a7c7ba8f7fc8bc47f8cde98560405161252591815260200190565b60405180910390a36125378484612d13565b5050505050565b612546611c54565b6065805460ff191660011790557f62e78cea01bee320cd4e420270b5ea74000d11b0c9f74754ebdbfc544b05a25861202b3390565b6040805180820190915260008082526020820152816125a1575043602084015282612066565b6000838560200151436125b49190613420565b6125be9190613401565b9050826125d3670de0b6b3a764000083613401565b6125dd91906133e1565b855186906125ec9083906133c9565b90525050436020850152509192915050565b60008060008460400151856000015161261791906133c9565b9050808411156126615760405162461bcd60e51b815260206004820152601560248201527424b739bab33334b1b4b2b73a103130b630b731b29760591b60448201526064016109c5565b60408501519150836126755780935061269f565b81841161269f57838560400181815161268e9190613420565b905250600092508391506126dd9050565b600060408601526126b08285613420565b925082866000018181516126c49190613420565b9052508451839086906126d8908390613420565b905250505b935093915050565b7f00000000000000000000000000000000000000000000000000000000000000008110156127695760405162461bcd60e51b815260206004820152602b60248201527f776974686472617720616d6f756e74206d757374203e3d204d494e5f5749544860448201526a11149055d7d05353d5539560aa1b60648201526084016109c5565b6127d66127768242612caa565b6001600160a01b038416600090815261013660205260409020908154600160801b90819004600f90810b80820b820b6000908152600180870160205260409091209490945584549301900b6001600160801b039081169091029116179055565b816001600160a01b03167f6d92f7d3303f995bf21956bb0c51b388bae348eaf45c23debd2cfa3fcd9ec6468260405161281191815260200190565b60405180910390a25050565b6060600061206683612db6565b60006001600160ff1b038211156128945760405162461bcd60e51b815260206004820152602860248201527f53616665436173743a2076616c756520646f65736e27742066697420696e2061604482015267371034b73a191a9b60c11b60648201526084016109c5565b5090565b60006f7fffffffffffffffffffffffffffffff1982128015906128cb57506f7fffffffffffffffffffffffffffffff8213155b6128945760405162461bcd60e51b815260206004820152602760248201527f53616665436173743a2076616c756520646f65736e27742066697420696e20316044820152663238206269747360c81b60648201526084016109c5565b6001600160a01b0381163b6129945760405162461bcd60e51b815260206004820152602d60248201527f455243313936373a206e657720696d706c656d656e746174696f6e206973206e60448201526c1bdd08184818dbdb9d1c9858dd609a1b60648201526084016109c5565b6000805160206134e083398151915280546001600160a01b0319166001600160a01b0392909216919091179055565b6129cc83612e12565b6000825111806129d95750805b1561105c576129e88383612e52565b50505050565b60655460ff16610ce65760405162461bcd60e51b815260206004820152601460248201527314185d5cd8589b194e881b9bdd081c185d5cd95960621b60448201526064016109c5565b60008181526001830160205260408120548015612b4a576000612a5b600183613420565b8554909150600090612a6f90600190613420565b9050818114612af0576000866000018281548110612a9d57634e487b7160e01b600052603260045260246000fd5b9060005260206000200154905080876000018481548110612ace57634e487b7160e01b600052603260045260246000fd5b6000918252602080832090910192909255918252600188019052604090208390555b8554869080612b0f57634e487b7160e01b600052603160045260246000fd5b60019003818190600052602060002001600090559055856001016000868152602001908152602001600020600090556001935050505061093c565b600091505061093c565b600054610100900460ff16612b7b5760405162461bcd60e51b81526004016109c5906132f5565b60018055565b600054610100900460ff16612ba85760405162461bcd60e51b81526004016109c5906132f5565b6065805460ff19169055565b6000612066836001600160a01b038416612f46565b6000612be88254600f81810b810b600160801b909204810b900b131590565b15612c0657604051631ed9509560e11b815260040160405180910390fd5b508054600f90810b810b900b60009081526001909101602052604090205490565b6000612c468254600f81810b810b600160801b909204810b900b131590565b15612c6457604051631ed9509560e11b815260040160405180910390fd5b508054600f90810b80820b820b600090815260018085016020526040822080549290558454920190920b6001600160801b03166001600160801b03199091161790915590565b60006001600160e01b038311801590612cc7575063ffffffff8211155b612d085760405162461bcd60e51b8152602060048201526012602482015271125b9d985b1a59081dda5d1a191c985dd85b60721b60448201526064016109c5565b5060209190911b1790565b6000826001600160a01b03168260405160006040518083038185875af1925050503d8060008114612d60576040519150601f19603f3d011682016040523d82523d6000602084013e612d65565b606091505b505090508061105c5760405162461bcd60e51b815260206004820152601c60248201527f4661696c656420746f2073656e64206e617469766520746f6b656e2e0000000060448201526064016109c5565b606081600001805480602002602001604051908101604052809291908181526020018280548015612e0657602002820191906000526020600020905b815481526020019060010190808311612df2575b50505050509050919050565b612e1b81612927565b6040516001600160a01b038216907fbc7cd75a20ee27fd9adebab32041f755214dbc6bffa90cc0225b39da2e5c2d3b90600090a250565b60606001600160a01b0383163b612eba5760405162461bcd60e51b815260206004820152602660248201527f416464726573733a2064656c65676174652063616c6c20746f206e6f6e2d636f6044820152651b9d1c9858dd60d21b60648201526084016109c5565b600080846001600160a01b031684604051612ed59190613172565b600060405180830381855af49150503d8060008114612f10576040519150601f19603f3d011682016040523d82523d6000602084013e612f15565b606091505b5091509150612f3d828260405180606001604052806027815260200161350060279139612f95565b95945050505050565b6000818152600183016020526040812054612f8d5750815460018181018455600084815260208082209093018490558454848252828601909352604090209190915561093c565b50600061093c565b60608315612fa4575081612066565b825115612fb45782518084602001fd5b8160405162461bcd60e51b81526004016109c5919061322a565b600060208284031215612fdf578081fd5b8135612066816134aa565b60008060408385031215612ffc578081fd5b8235613007816134aa565b946020939093013593505050565b60008060408385031215613027578182fd5b8235613032816134aa565b91506020830135613042816134aa565b809150509250929050565b6000806040838503121561305f578182fd5b823561306a816134aa565b9150602083013567ffffffffffffffff80821115613086578283fd5b818501915085601f830112613099578283fd5b8135818111156130ab576130ab613494565b604051601f8201601f19908116603f011681019083821181831017156130d3576130d3613494565b816040528281528860208487010111156130eb578586fd5b82602086016020830137856020848301015280955050505050509250929050565b60008060408385031215612ffc578182fd5b60006020828403121561312f578081fd5b5051919050565b600060208284031215613147578081fd5b5035919050565b60006020828403121561315f578081fd5b813563ffffffff81168114612066578182fd5b60008251613184818460208701613437565b9190910192915050565b6020808252825182820181905260009190848201906040850190845b818110156131cf5783516001600160a01b0316835292840192918401916001016131aa565b50909695505050505050565b602080825282518282018190526000919060409081850190868401855b8281101561321d578151805185528601518685015292840192908501906001016131f8565b5091979650505050505050565b6020815260008251806020840152613249816040850160208701613437565b601f01601f19169190910160400192915050565b6020808252602c908201527f46756e6374696f6e206d7573742062652063616c6c6564207468726f7567682060408201526b19195b1959d85d1958d85b1b60a21b606082015260800190565b6020808252602c908201527f46756e6374696f6e206d7573742062652063616c6c6564207468726f7567682060408201526b6163746976652070726f787960a01b606082015260800190565b6020808252602b908201527f496e697469616c697a61626c653a20636f6e7472616374206973206e6f74206960408201526a6e697469616c697a696e6760a81b606082015260800190565b60208082526028908201527f56616c696461746f72206e6f74206578697374206f7220686173206265656e206040820152673932b6b7bb32b21760c11b606082015260800190565b600080821280156001600160ff1b03849003851316156133aa576133aa61347e565b600160ff1b83900384128116156133c3576133c361347e565b50500190565b600082198211156133dc576133dc61347e565b500190565b6000826133fc57634e487b7160e01b81526012600452602481fd5b500490565b600081600019048311821515161561341b5761341b61347e565b500290565b6000828210156134325761343261347e565b500390565b60005b8381101561345257818101518382015260200161343a565b838111156129e85750506000910152565b60006000198214156134775761347761347e565b5060010190565b634e487b7160e01b600052601160045260246000fd5b634e487b7160e01b600052604160045260246000fd5b6001600160a01b0381168114610cd357600080fdfe5b20f40cb5e9e634a90df9a72b516c11cc52281a4d1b7b67e672e2fe544ff22f360894a13ba1a3210667c828492db98dca3e2076cc3735a920a3ca505d382bbc416464726573733a206c6f772d6c6576656c2064656c65676174652063616c6c206661696c6564a2646970667358221220e67deb715580c2eb88646f83977211bd17a8cf09a5456a2a72870d6d984db09564736f6c63430008040033",
  "linkReferences": {},
  "deployedLinkReferences": {}
}